{
	"todoListPendingCountSeconds.sol": {
		"TodoList": {
			"abi": [
				{
					"inputs": [],
					"stateMutability": "nonpayable",
					"type": "constructor"
				},
				{
					"inputs": [
						{
							"internalType": "string",
							"name": "content",
							"type": "string"
						}
					],
					"name": "addTodo",
					"outputs": [],
					"stateMutability": "nonpayable",
					"type": "function"
				},
				{
					"inputs": [
						{
							"internalType": "uint256",
							"name": "index",
							"type": "uint256"
						}
					],
					"name": "deleteTodo",
					"outputs": [],
					"stateMutability": "nonpayable",
					"type": "function"
				},
				{
					"inputs": [],
					"name": "getAllCompleted",
					"outputs": [
						{
							"internalType": "string[]",
							"name": "",
							"type": "string[]"
						}
					],
					"stateMutability": "view",
					"type": "function"
				},
				{
					"inputs": [],
					"name": "getAllPending",
					"outputs": [
						{
							"internalType": "string[]",
							"name": "",
							"type": "string[]"
						}
					],
					"stateMutability": "view",
					"type": "function"
				},
				{
					"inputs": [],
					"name": "getAllTodo",
					"outputs": [
						{
							"internalType": "string[]",
							"name": "",
							"type": "string[]"
						}
					],
					"stateMutability": "view",
					"type": "function"
				},
				{
					"inputs": [
						{
							"internalType": "uint256",
							"name": "index",
							"type": "uint256"
						}
					],
					"name": "getCompleted",
					"outputs": [
						{
							"internalType": "string",
							"name": "",
							"type": "string"
						}
					],
					"stateMutability": "view",
					"type": "function"
				},
				{
					"inputs": [
						{
							"internalType": "uint256",
							"name": "index",
							"type": "uint256"
						}
					],
					"name": "getPending",
					"outputs": [
						{
							"internalType": "string",
							"name": "",
							"type": "string"
						}
					],
					"stateMutability": "view",
					"type": "function"
				},
				{
					"inputs": [
						{
							"internalType": "uint256",
							"name": "index",
							"type": "uint256"
						}
					],
					"name": "getTodo",
					"outputs": [
						{
							"internalType": "string",
							"name": "",
							"type": "string"
						}
					],
					"stateMutability": "view",
					"type": "function"
				},
				{
					"inputs": [
						{
							"internalType": "uint256",
							"name": "index",
							"type": "uint256"
						}
					],
					"name": "movePendingToTodoList",
					"outputs": [],
					"stateMutability": "nonpayable",
					"type": "function"
				},
				{
					"inputs": [
						{
							"internalType": "uint256",
							"name": "index",
							"type": "uint256"
						}
					],
					"name": "setCompleted",
					"outputs": [],
					"stateMutability": "nonpayable",
					"type": "function"
				},
				{
					"inputs": [
						{
							"internalType": "uint256",
							"name": "index",
							"type": "uint256"
						}
					],
					"name": "setPending",
					"outputs": [],
					"stateMutability": "nonpayable",
					"type": "function"
				},
				{
					"inputs": [
						{
							"internalType": "uint256",
							"name": "",
							"type": "uint256"
						}
					],
					"name": "todoCompleted",
					"outputs": [
						{
							"internalType": "string",
							"name": "content",
							"type": "string"
						},
						{
							"internalType": "bool",
							"name": "completed",
							"type": "bool"
						},
						{
							"internalType": "uint256",
							"name": "moveTime",
							"type": "uint256"
						}
					],
					"stateMutability": "view",
					"type": "function"
				},
				{
					"inputs": [
						{
							"internalType": "uint256",
							"name": "",
							"type": "uint256"
						}
					],
					"name": "todoPending",
					"outputs": [
						{
							"internalType": "string",
							"name": "content",
							"type": "string"
						},
						{
							"internalType": "bool",
							"name": "completed",
							"type": "bool"
						},
						{
							"internalType": "uint256",
							"name": "moveTime",
							"type": "uint256"
						}
					],
					"stateMutability": "view",
					"type": "function"
				},
				{
					"inputs": [
						{
							"internalType": "uint256",
							"name": "",
							"type": "uint256"
						}
					],
					"name": "todos",
					"outputs": [
						{
							"internalType": "string",
							"name": "content",
							"type": "string"
						},
						{
							"internalType": "bool",
							"name": "completed",
							"type": "bool"
						},
						{
							"internalType": "uint256",
							"name": "moveTime",
							"type": "uint256"
						}
					],
					"stateMutability": "view",
					"type": "function"
				}
			],
			"devdoc": {
				"kind": "dev",
				"methods": {},
				"version": 1
			},
			"evm": {
				"assembly": "    /* \"todoListPendingCountSeconds.sol\":61:3386  contract TodoList {... */\n  mstore(0x40, 0x80)\n    /* \"todoListPendingCountSeconds.sol\":370:386  constructor() {} */\n  callvalue\n  dup1\n  iszero\n  tag_1\n  jumpi\n  0x00\n  dup1\n  revert\ntag_1:\n  pop\n    /* \"todoListPendingCountSeconds.sol\":61:3386  contract TodoList {... */\n  dataSize(sub_0)\n  dup1\n  dataOffset(sub_0)\n  0x00\n  codecopy\n  0x00\n  return\nstop\n\nsub_0: assembly {\n        /* \"todoListPendingCountSeconds.sol\":61:3386  contract TodoList {... */\n      mstore(0x40, 0x80)\n      callvalue\n      dup1\n      iszero\n      tag_1\n      jumpi\n      0x00\n      dup1\n      revert\n    tag_1:\n      pop\n      jumpi(tag_2, lt(calldatasize, 0x04))\n      shr(0xe0, calldataload(0x00))\n      dup1\n      0xbc8bc2b4\n      gt\n      tag_17\n      jumpi\n      dup1\n      0xe29672ba\n      gt\n      tag_18\n      jumpi\n      dup1\n      0xe29672ba\n      eq\n      tag_13\n      jumpi\n      dup1\n      0xf112ba72\n      eq\n      tag_14\n      jumpi\n      dup1\n      0xfdacd576\n      eq\n      tag_15\n      jumpi\n      dup1\n      0xfe1c7f6f\n      eq\n      tag_16\n      jumpi\n      jump(tag_2)\n    tag_18:\n      dup1\n      0xbc8bc2b4\n      eq\n      tag_10\n      jumpi\n      dup1\n      0xc195fc74\n      eq\n      tag_11\n      jumpi\n      dup1\n      0xdd68afb6\n      eq\n      tag_12\n      jumpi\n      jump(tag_2)\n    tag_17:\n      dup1\n      0x95ffebf5\n      gt\n      tag_19\n      jumpi\n      dup1\n      0x95ffebf5\n      eq\n      tag_6\n      jumpi\n      dup1\n      0x982abb89\n      eq\n      tag_7\n      jumpi\n      dup1\n      0x99b4124e\n      eq\n      tag_8\n      jumpi\n      dup1\n      0xb2514afa\n      eq\n      tag_9\n      jumpi\n      jump(tag_2)\n    tag_19:\n      dup1\n      0x1bfc269b\n      eq\n      tag_3\n      jumpi\n      dup1\n      0x6e3c6738\n      eq\n      tag_4\n      jumpi\n      dup1\n      0x84f89a93\n      eq\n      tag_5\n      jumpi\n    tag_2:\n      0x00\n      dup1\n      revert\n        /* \"todoListPendingCountSeconds.sol\":1672:1799  function getCompleted(uint256 index) external view returns (string memory) {... */\n    tag_3:\n      tag_20\n      0x04\n      dup1\n      calldatasize\n      sub\n      dup2\n      add\n      swap1\n      tag_21\n      swap2\n      swap1\n      tag_22\n      jump\t// in\n    tag_21:\n      tag_23\n      jump\t// in\n    tag_20:\n      mload(0x40)\n      tag_24\n      swap2\n      swap1\n      tag_25\n      jump\t// in\n    tag_24:\n      mload(0x40)\n      dup1\n      swap2\n      sub\n      swap1\n      return\n        /* \"todoListPendingCountSeconds.sol\":1446:1666  function deleteTodo(uint256 index) external {... */\n    tag_4:\n      tag_26\n      0x04\n      dup1\n      calldatasize\n      sub\n      dup2\n      add\n      swap1\n      tag_27\n      swap2\n      swap1\n      tag_22\n      jump\t// in\n    tag_27:\n      tag_28\n      jump\t// in\n    tag_26:\n      stop\n        /* \"todoListPendingCountSeconds.sol\":1805:1928  function getPending(uint256 index) external view returns (string memory) {... */\n    tag_5:\n      tag_29\n      0x04\n      dup1\n      calldatasize\n      sub\n      dup2\n      add\n      swap1\n      tag_30\n      swap2\n      swap1\n      tag_22\n      jump\t// in\n    tag_30:\n      tag_31\n      jump\t// in\n    tag_29:\n      mload(0x40)\n      tag_32\n      swap2\n      swap1\n      tag_25\n      jump\t// in\n    tag_32:\n      mload(0x40)\n      dup1\n      swap2\n      sub\n      swap1\n      return\n        /* \"todoListPendingCountSeconds.sol\":392:497  function addTodo(string memory content) external {... */\n    tag_6:\n      tag_33\n      0x04\n      dup1\n      calldatasize\n      sub\n      dup2\n      add\n      swap1\n      tag_34\n      swap2\n      swap1\n      tag_35\n      jump\t// in\n    tag_34:\n      tag_36\n      jump\t// in\n    tag_33:\n      stop\n        /* \"todoListPendingCountSeconds.sol\":1934:2207  function getAllTodo() external view returns (string[] memory) {... */\n    tag_7:\n      tag_37\n      tag_38\n      jump\t// in\n    tag_37:\n      mload(0x40)\n      tag_39\n      swap2\n      swap1\n      tag_40\n      jump\t// in\n    tag_39:\n      mload(0x40)\n      dup1\n      swap2\n      sub\n      swap1\n      return\n        /* \"todoListPendingCountSeconds.sol\":2821:3384  function movePendingToTodoList(uint256 index) external {... */\n    tag_8:\n      tag_41\n      0x04\n      dup1\n      calldatasize\n      sub\n      dup2\n      add\n      swap1\n      tag_42\n      swap2\n      swap1\n      tag_22\n      jump\t// in\n    tag_42:\n      tag_43\n      jump\t// in\n    tag_41:\n      stop\n        /* \"todoListPendingCountSeconds.sol\":254:283  TodoItem[] public todoPending */\n    tag_9:\n      tag_44\n      0x04\n      dup1\n      calldatasize\n      sub\n      dup2\n      add\n      swap1\n      tag_45\n      swap2\n      swap1\n      tag_22\n      jump\t// in\n    tag_45:\n      tag_46\n      jump\t// in\n    tag_44:\n      mload(0x40)\n      tag_47\n      swap4\n      swap3\n      swap2\n      swap1\n      tag_48\n      jump\t// in\n    tag_47:\n      mload(0x40)\n      dup1\n      swap2\n      sub\n      swap1\n      return\n        /* \"todoListPendingCountSeconds.sol\":188:211  TodoItem[] public todos */\n    tag_10:\n      tag_49\n      0x04\n      dup1\n      calldatasize\n      sub\n      dup2\n      add\n      swap1\n      tag_50\n      swap2\n      swap1\n      tag_22\n      jump\t// in\n    tag_50:\n      tag_51\n      jump\t// in\n    tag_49:\n      mload(0x40)\n      tag_52\n      swap4\n      swap3\n      swap2\n      swap1\n      tag_48\n      jump\t// in\n    tag_52:\n      mload(0x40)\n      dup1\n      swap2\n      sub\n      swap1\n      return\n        /* \"todoListPendingCountSeconds.sol\":920:1320  function setPending(uint256 index) external {... */\n    tag_11:\n      tag_53\n      0x04\n      dup1\n      calldatasize\n      sub\n      dup2\n      add\n      swap1\n      tag_54\n      swap2\n      swap1\n      tag_22\n      jump\t// in\n    tag_54:\n      tag_55\n      jump\t// in\n    tag_53:\n      stop\n        /* \"todoListPendingCountSeconds.sol\":1326:1440  function getTodo(uint256 index) external view returns (string memory) {... */\n    tag_12:\n      tag_56\n      0x04\n      dup1\n      calldatasize\n      sub\n      dup2\n      add\n      swap1\n      tag_57\n      swap2\n      swap1\n      tag_22\n      jump\t// in\n    tag_57:\n      tag_58\n      jump\t// in\n    tag_56:\n      mload(0x40)\n      tag_59\n      swap2\n      swap1\n      tag_25\n      jump\t// in\n    tag_59:\n      mload(0x40)\n      dup1\n      swap2\n      sub\n      swap1\n      return\n        /* \"todoListPendingCountSeconds.sol\":2213:2515  function getAllCompleted() external view returns (string[] memory) {... */\n    tag_13:\n      tag_60\n      tag_61\n      jump\t// in\n    tag_60:\n      mload(0x40)\n      tag_62\n      swap2\n      swap1\n      tag_40\n      jump\t// in\n    tag_62:\n      mload(0x40)\n      dup1\n      swap2\n      sub\n      swap1\n      return\n        /* \"todoListPendingCountSeconds.sol\":2521:2815  function getAllPending() external view returns (string[] memory) {... */\n    tag_14:\n      tag_63\n      tag_64\n      jump\t// in\n    tag_63:\n      mload(0x40)\n      tag_65\n      swap2\n      swap1\n      tag_40\n      jump\t// in\n    tag_65:\n      mload(0x40)\n      dup1\n      swap2\n      sub\n      swap1\n      return\n        /* \"todoListPendingCountSeconds.sol\":503:914  function setCompleted(uint256 index) external {... */\n    tag_15:\n      tag_66\n      0x04\n      dup1\n      calldatasize\n      sub\n      dup2\n      add\n      swap1\n      tag_67\n      swap2\n      swap1\n      tag_22\n      jump\t// in\n    tag_67:\n      tag_68\n      jump\t// in\n    tag_66:\n      stop\n        /* \"todoListPendingCountSeconds.sol\":217:248  TodoItem[] public todoCompleted */\n    tag_16:\n      tag_69\n      0x04\n      dup1\n      calldatasize\n      sub\n      dup2\n      add\n      swap1\n      tag_70\n      swap2\n      swap1\n      tag_22\n      jump\t// in\n    tag_70:\n      tag_71\n      jump\t// in\n    tag_69:\n      mload(0x40)\n      tag_72\n      swap4\n      swap3\n      swap2\n      swap1\n      tag_48\n      jump\t// in\n    tag_72:\n      mload(0x40)\n      dup1\n      swap2\n      sub\n      swap1\n      return\n        /* \"todoListPendingCountSeconds.sol\":1672:1799  function getCompleted(uint256 index) external view returns (string memory) {... */\n    tag_23:\n        /* \"todoListPendingCountSeconds.sol\":1732:1745  string memory */\n      0x60\n        /* \"todoListPendingCountSeconds.sol\":1764:1777  todoCompleted */\n      0x01\n        /* \"todoListPendingCountSeconds.sol\":1778:1783  index */\n      dup3\n        /* \"todoListPendingCountSeconds.sol\":1764:1784  todoCompleted[index] */\n      dup2\n      sload\n      dup2\n      lt\n      tag_74\n      jumpi\n      tag_75\n      tag_76\n      jump\t// in\n    tag_75:\n    tag_74:\n      swap1\n      0x00\n      mstore\n      keccak256(0x00, 0x20)\n      swap1\n      0x03\n      mul\n      add\n        /* \"todoListPendingCountSeconds.sol\":1764:1792  todoCompleted[index].content */\n      0x00\n      add\n        /* \"todoListPendingCountSeconds.sol\":1757:1792  return todoCompleted[index].content */\n      dup1\n      sload\n      tag_78\n      swap1\n      tag_79\n      jump\t// in\n    tag_78:\n      dup1\n      0x1f\n      add\n      0x20\n      dup1\n      swap2\n      div\n      mul\n      0x20\n      add\n      mload(0x40)\n      swap1\n      dup2\n      add\n      0x40\n      mstore\n      dup1\n      swap3\n      swap2\n      swap1\n      dup2\n      dup2\n      mstore\n      0x20\n      add\n      dup3\n      dup1\n      sload\n      tag_80\n      swap1\n      tag_79\n      jump\t// in\n    tag_80:\n      dup1\n      iszero\n      tag_81\n      jumpi\n      dup1\n      0x1f\n      lt\n      tag_82\n      jumpi\n      0x0100\n      dup1\n      dup4\n      sload\n      div\n      mul\n      dup4\n      mstore\n      swap2\n      0x20\n      add\n      swap2\n      jump(tag_81)\n    tag_82:\n      dup3\n      add\n      swap2\n      swap1\n      0x00\n      mstore\n      keccak256(0x00, 0x20)\n      swap1\n    tag_83:\n      dup2\n      sload\n      dup2\n      mstore\n      swap1\n      0x01\n      add\n      swap1\n      0x20\n      add\n      dup1\n      dup4\n      gt\n      tag_83\n      jumpi\n      dup3\n      swap1\n      sub\n      0x1f\n      and\n      dup3\n      add\n      swap2\n    tag_81:\n      pop\n      pop\n      pop\n      pop\n      pop\n      swap1\n      pop\n        /* \"todoListPendingCountSeconds.sol\":1672:1799  function getCompleted(uint256 index) external view returns (string memory) {... */\n      swap2\n      swap1\n      pop\n      jump\t// out\n        /* \"todoListPendingCountSeconds.sol\":1446:1666  function deleteTodo(uint256 index) external {... */\n    tag_28:\n        /* \"todoListPendingCountSeconds.sol\":1505:1514  uint256 i */\n      0x00\n        /* \"todoListPendingCountSeconds.sol\":1517:1522  index */\n      dup2\n        /* \"todoListPendingCountSeconds.sol\":1505:1522  uint256 i = index */\n      swap1\n      pop\n        /* \"todoListPendingCountSeconds.sol\":1500:1599  for (uint256 i = index; i < todos.length - 1; i++) {... */\n    tag_85:\n        /* \"todoListPendingCountSeconds.sol\":1543:1544  1 */\n      0x01\n        /* \"todoListPendingCountSeconds.sol\":1528:1533  todos */\n      0x00\n        /* \"todoListPendingCountSeconds.sol\":1528:1540  todos.length */\n      dup1\n      sload\n      swap1\n      pop\n        /* \"todoListPendingCountSeconds.sol\":1528:1544  todos.length - 1 */\n      tag_88\n      swap2\n      swap1\n      tag_89\n      jump\t// in\n    tag_88:\n        /* \"todoListPendingCountSeconds.sol\":1524:1525  i */\n      dup2\n        /* \"todoListPendingCountSeconds.sol\":1524:1544  i < todos.length - 1 */\n      lt\n        /* \"todoListPendingCountSeconds.sol\":1500:1599  for (uint256 i = index; i < todos.length - 1; i++) {... */\n      iszero\n      tag_86\n      jumpi\n        /* \"todoListPendingCountSeconds.sol\":1576:1581  todos */\n      0x00\n        /* \"todoListPendingCountSeconds.sol\":1586:1587  1 */\n      0x01\n        /* \"todoListPendingCountSeconds.sol\":1582:1583  i */\n      dup3\n        /* \"todoListPendingCountSeconds.sol\":1582:1587  i + 1 */\n      tag_90\n      swap2\n      swap1\n      tag_91\n      jump\t// in\n    tag_90:\n        /* \"todoListPendingCountSeconds.sol\":1576:1588  todos[i + 1] */\n      dup2\n      sload\n      dup2\n      lt\n      tag_92\n      jumpi\n      tag_93\n      tag_76\n      jump\t// in\n    tag_93:\n    tag_92:\n      swap1\n      0x00\n      mstore\n      keccak256(0x00, 0x20)\n      swap1\n      0x03\n      mul\n      add\n        /* \"todoListPendingCountSeconds.sol\":1565:1570  todos */\n      0x00\n        /* \"todoListPendingCountSeconds.sol\":1571:1572  i */\n      dup3\n        /* \"todoListPendingCountSeconds.sol\":1565:1573  todos[i] */\n      dup2\n      sload\n      dup2\n      lt\n      tag_95\n      jumpi\n      tag_96\n      tag_76\n      jump\t// in\n    tag_96:\n    tag_95:\n      swap1\n      0x00\n      mstore\n      keccak256(0x00, 0x20)\n      swap1\n      0x03\n      mul\n      add\n        /* \"todoListPendingCountSeconds.sol\":1565:1588  todos[i] = todos[i + 1] */\n      0x00\n      dup3\n      add\n      dup2\n      0x00\n      add\n      swap1\n      dup2\n      tag_98\n      swap2\n      swap1\n      tag_99\n      jump\t// in\n    tag_98:\n      pop\n      0x01\n      dup3\n      add\n      0x00\n      swap1\n      sload\n      swap1\n      0x0100\n      exp\n      swap1\n      div\n      0xff\n      and\n      dup2\n      0x01\n      add\n      exp(0x0100, 0x00)\n      dup2\n      sload\n      dup2\n      0xff\n      mul\n      not\n      and\n      swap1\n      dup4\n      iszero\n      iszero\n      mul\n      or\n      swap1\n      sstore\n      pop\n      0x02\n      dup3\n      add\n      sload\n      dup2\n      0x02\n      add\n      sstore\n      swap1\n      pop\n      pop\n        /* \"todoListPendingCountSeconds.sol\":1546:1549  i++ */\n      dup1\n      dup1\n      tag_100\n      swap1\n      tag_101\n      jump\t// in\n    tag_100:\n      swap2\n      pop\n      pop\n        /* \"todoListPendingCountSeconds.sol\":1500:1599  for (uint256 i = index; i < todos.length - 1; i++) {... */\n      jump(tag_85)\n    tag_86:\n      pop\n        /* \"todoListPendingCountSeconds.sol\":1615:1620  todos */\n      0x00\n        /* \"todoListPendingCountSeconds.sol\":1636:1637  1 */\n      0x01\n        /* \"todoListPendingCountSeconds.sol\":1621:1626  todos */\n      0x00\n        /* \"todoListPendingCountSeconds.sol\":1621:1633  todos.length */\n      dup1\n      sload\n      swap1\n      pop\n        /* \"todoListPendingCountSeconds.sol\":1621:1637  todos.length - 1 */\n      tag_102\n      swap2\n      swap1\n      tag_89\n      jump\t// in\n    tag_102:\n        /* \"todoListPendingCountSeconds.sol\":1615:1638  todos[todos.length - 1] */\n      dup2\n      sload\n      dup2\n      lt\n      tag_103\n      jumpi\n      tag_104\n      tag_76\n      jump\t// in\n    tag_104:\n    tag_103:\n      swap1\n      0x00\n      mstore\n      keccak256(0x00, 0x20)\n      swap1\n      0x03\n      mul\n      add\n      0x00\n        /* \"todoListPendingCountSeconds.sol\":1608:1638  delete todos[todos.length - 1] */\n      dup1\n      dup3\n      add\n      0x00\n      tag_106\n      swap2\n      swap1\n      tag_107\n      jump\t// in\n    tag_106:\n      0x01\n      dup3\n      add\n      exp(0x0100, 0x00)\n      dup2\n      sload\n      swap1\n      0xff\n      mul\n      not\n      and\n      swap1\n      sstore\n      0x02\n      dup3\n      add\n      0x00\n      swap1\n      sstore\n      pop\n      pop\n        /* \"todoListPendingCountSeconds.sol\":1648:1653  todos */\n      0x00\n        /* \"todoListPendingCountSeconds.sol\":1648:1659  todos.pop() */\n      dup1\n      sload\n      dup1\n      tag_108\n      jumpi\n      tag_109\n      tag_110\n      jump\t// in\n    tag_109:\n    tag_108:\n      0x01\n      swap1\n      sub\n      dup2\n      dup2\n      swap1\n      0x00\n      mstore\n      keccak256(0x00, 0x20)\n      swap1\n      0x03\n      mul\n      add\n      0x00\n      dup1\n      dup3\n      add\n      0x00\n      tag_112\n      swap2\n      swap1\n      tag_107\n      jump\t// in\n    tag_112:\n      0x01\n      dup3\n      add\n      exp(0x0100, 0x00)\n      dup2\n      sload\n      swap1\n      0xff\n      mul\n      not\n      and\n      swap1\n      sstore\n      0x02\n      dup3\n      add\n      0x00\n      swap1\n      sstore\n      pop\n      pop\n      swap1\n      sstore\n        /* \"todoListPendingCountSeconds.sol\":1446:1666  function deleteTodo(uint256 index) external {... */\n      pop\n      jump\t// out\n        /* \"todoListPendingCountSeconds.sol\":1805:1928  function getPending(uint256 index) external view returns (string memory) {... */\n    tag_31:\n        /* \"todoListPendingCountSeconds.sol\":1863:1876  string memory */\n      0x60\n        /* \"todoListPendingCountSeconds.sol\":1895:1906  todoPending */\n      0x02\n        /* \"todoListPendingCountSeconds.sol\":1907:1912  index */\n      dup3\n        /* \"todoListPendingCountSeconds.sol\":1895:1913  todoPending[index] */\n      dup2\n      sload\n      dup2\n      lt\n      tag_114\n      jumpi\n      tag_115\n      tag_76\n      jump\t// in\n    tag_115:\n    tag_114:\n      swap1\n      0x00\n      mstore\n      keccak256(0x00, 0x20)\n      swap1\n      0x03\n      mul\n      add\n        /* \"todoListPendingCountSeconds.sol\":1895:1921  todoPending[index].content */\n      0x00\n      add\n        /* \"todoListPendingCountSeconds.sol\":1888:1921  return todoPending[index].content */\n      dup1\n      sload\n      tag_117\n      swap1\n      tag_79\n      jump\t// in\n    tag_117:\n      dup1\n      0x1f\n      add\n      0x20\n      dup1\n      swap2\n      div\n      mul\n      0x20\n      add\n      mload(0x40)\n      swap1\n      dup2\n      add\n      0x40\n      mstore\n      dup1\n      swap3\n      swap2\n      swap1\n      dup2\n      dup2\n      mstore\n      0x20\n      add\n      dup3\n      dup1\n      sload\n      tag_118\n      swap1\n      tag_79\n      jump\t// in\n    tag_118:\n      dup1\n      iszero\n      tag_119\n      jumpi\n      dup1\n      0x1f\n      lt\n      tag_120\n      jumpi\n      0x0100\n      dup1\n      dup4\n      sload\n      div\n      mul\n      dup4\n      mstore\n      swap2\n      0x20\n      add\n      swap2\n      jump(tag_119)\n    tag_120:\n      dup3\n      add\n      swap2\n      swap1\n      0x00\n      mstore\n      keccak256(0x00, 0x20)\n      swap1\n    tag_121:\n      dup2\n      sload\n      dup2\n      mstore\n      swap1\n      0x01\n      add\n      swap1\n      0x20\n      add\n      dup1\n      dup4\n      gt\n      tag_121\n      jumpi\n      dup3\n      swap1\n      sub\n      0x1f\n      and\n      dup3\n      add\n      swap2\n    tag_119:\n      pop\n      pop\n      pop\n      pop\n      pop\n      swap1\n      pop\n        /* \"todoListPendingCountSeconds.sol\":1805:1928  function getPending(uint256 index) external view returns (string memory) {... */\n      swap2\n      swap1\n      pop\n      jump\t// out\n        /* \"todoListPendingCountSeconds.sol\":392:497  function addTodo(string memory content) external {... */\n    tag_36:\n        /* \"todoListPendingCountSeconds.sol\":451:456  todos */\n      0x00\n        /* \"todoListPendingCountSeconds.sol\":462:489  TodoItem(content, false, 0) */\n      mload(0x40)\n      dup1\n      0x60\n      add\n      0x40\n      mstore\n      dup1\n        /* \"todoListPendingCountSeconds.sol\":471:478  content */\n      dup4\n        /* \"todoListPendingCountSeconds.sol\":462:489  TodoItem(content, false, 0) */\n      dup2\n      mstore\n      0x20\n      add\n        /* \"todoListPendingCountSeconds.sol\":480:485  false */\n      0x00\n        /* \"todoListPendingCountSeconds.sol\":462:489  TodoItem(content, false, 0) */\n      iszero\n      iszero\n      dup2\n      mstore\n      0x20\n      add\n        /* \"todoListPendingCountSeconds.sol\":487:488  0 */\n      0x00\n        /* \"todoListPendingCountSeconds.sol\":462:489  TodoItem(content, false, 0) */\n      dup2\n      mstore\n      pop\n        /* \"todoListPendingCountSeconds.sol\":451:490  todos.push(TodoItem(content, false, 0)) */\n      swap1\n      dup1\n      0x01\n      dup2\n      sload\n      add\n      dup1\n      dup3\n      sstore\n      dup1\n      swap2\n      pop\n      pop\n      0x01\n      swap1\n      sub\n      swap1\n      0x00\n      mstore\n      keccak256(0x00, 0x20)\n      swap1\n      0x03\n      mul\n      add\n      0x00\n      swap1\n      swap2\n      swap1\n      swap2\n      swap1\n      swap2\n      pop\n      0x00\n      dup3\n      add\n      mload\n      dup2\n      0x00\n      add\n      swap1\n      dup2\n      tag_124\n      swap2\n      swap1\n      tag_125\n      jump\t// in\n    tag_124:\n      pop\n      0x20\n      dup3\n      add\n      mload\n      dup2\n      0x01\n      add\n      exp(0x0100, 0x00)\n      dup2\n      sload\n      dup2\n      0xff\n      mul\n      not\n      and\n      swap1\n      dup4\n      iszero\n      iszero\n      mul\n      or\n      swap1\n      sstore\n      pop\n      0x40\n      dup3\n      add\n      mload\n      dup2\n      0x02\n      add\n      sstore\n      pop\n      pop\n        /* \"todoListPendingCountSeconds.sol\":392:497  function addTodo(string memory content) external {... */\n      pop\n      jump\t// out\n        /* \"todoListPendingCountSeconds.sol\":1934:2207  function getAllTodo() external view returns (string[] memory) {... */\n    tag_38:\n        /* \"todoListPendingCountSeconds.sol\":1979:1994  string[] memory */\n      0x60\n        /* \"todoListPendingCountSeconds.sol\":2006:2033  string[] memory contentList */\n      0x00\n        /* \"todoListPendingCountSeconds.sol\":2049:2054  todos */\n      dup1\n        /* \"todoListPendingCountSeconds.sol\":2049:2061  todos.length */\n      dup1\n      sload\n      swap1\n      pop\n        /* \"todoListPendingCountSeconds.sol\":2036:2062  new string[](todos.length) */\n      0xffffffffffffffff\n      dup2\n      gt\n      iszero\n      tag_127\n      jumpi\n      tag_128\n      tag_129\n      jump\t// in\n    tag_128:\n    tag_127:\n      mload(0x40)\n      swap1\n      dup1\n      dup3\n      mstore\n      dup1\n      0x20\n      mul\n      0x20\n      add\n      dup3\n      add\n      0x40\n      mstore\n      dup1\n      iszero\n      tag_130\n      jumpi\n      dup2\n      0x20\n      add\n    tag_131:\n      0x60\n      dup2\n      mstore\n      0x20\n      add\n      swap1\n      0x01\n      swap1\n      sub\n      swap1\n      dup2\n      tag_131\n      jumpi\n      swap1\n      pop\n    tag_130:\n      pop\n        /* \"todoListPendingCountSeconds.sol\":2006:2062  string[] memory contentList = new string[](todos.length) */\n      swap1\n      pop\n        /* \"todoListPendingCountSeconds.sol\":2077:2086  uint256 i */\n      0x00\n        /* \"todoListPendingCountSeconds.sol\":2072:2173  for (uint256 i = 0; i < todos.length; i++) {... */\n    tag_132:\n        /* \"todoListPendingCountSeconds.sol\":2096:2101  todos */\n      0x00\n        /* \"todoListPendingCountSeconds.sol\":2096:2108  todos.length */\n      dup1\n      sload\n      swap1\n      pop\n        /* \"todoListPendingCountSeconds.sol\":2092:2093  i */\n      dup2\n        /* \"todoListPendingCountSeconds.sol\":2092:2108  i < todos.length */\n      lt\n        /* \"todoListPendingCountSeconds.sol\":2072:2173  for (uint256 i = 0; i < todos.length; i++) {... */\n      iszero\n      tag_133\n      jumpi\n        /* \"todoListPendingCountSeconds.sol\":2146:2151  todos */\n      0x00\n        /* \"todoListPendingCountSeconds.sol\":2152:2153  i */\n      dup2\n        /* \"todoListPendingCountSeconds.sol\":2146:2154  todos[i] */\n      dup2\n      sload\n      dup2\n      lt\n      tag_135\n      jumpi\n      tag_136\n      tag_76\n      jump\t// in\n    tag_136:\n    tag_135:\n      swap1\n      0x00\n      mstore\n      keccak256(0x00, 0x20)\n      swap1\n      0x03\n      mul\n      add\n        /* \"todoListPendingCountSeconds.sol\":2146:2162  todos[i].content */\n      0x00\n      add\n        /* \"todoListPendingCountSeconds.sol\":2129:2162  contentList[i] = todos[i].content */\n      dup1\n      sload\n      tag_138\n      swap1\n      tag_79\n      jump\t// in\n    tag_138:\n      dup1\n      0x1f\n      add\n      0x20\n      dup1\n      swap2\n      div\n      mul\n      0x20\n      add\n      mload(0x40)\n      swap1\n      dup2\n      add\n      0x40\n      mstore\n      dup1\n      swap3\n      swap2\n      swap1\n      dup2\n      dup2\n      mstore\n      0x20\n      add\n      dup3\n      dup1\n      sload\n      tag_139\n      swap1\n      tag_79\n      jump\t// in\n    tag_139:\n      dup1\n      iszero\n      tag_140\n      jumpi\n      dup1\n      0x1f\n      lt\n      tag_141\n      jumpi\n      0x0100\n      dup1\n      dup4\n      sload\n      div\n      mul\n      dup4\n      mstore\n      swap2\n      0x20\n      add\n      swap2\n      jump(tag_140)\n    tag_141:\n      dup3\n      add\n      swap2\n      swap1\n      0x00\n      mstore\n      keccak256(0x00, 0x20)\n      swap1\n    tag_142:\n      dup2\n      sload\n      dup2\n      mstore\n      swap1\n      0x01\n      add\n      swap1\n      0x20\n      add\n      dup1\n      dup4\n      gt\n      tag_142\n      jumpi\n      dup3\n      swap1\n      sub\n      0x1f\n      and\n      dup3\n      add\n      swap2\n    tag_140:\n      pop\n      pop\n      pop\n      pop\n      pop\n        /* \"todoListPendingCountSeconds.sol\":2129:2140  contentList */\n      dup3\n        /* \"todoListPendingCountSeconds.sol\":2141:2142  i */\n      dup3\n        /* \"todoListPendingCountSeconds.sol\":2129:2143  contentList[i] */\n      dup2\n      mload\n      dup2\n      lt\n      tag_143\n      jumpi\n      tag_144\n      tag_76\n      jump\t// in\n    tag_144:\n    tag_143:\n      0x20\n      mul\n      0x20\n      add\n      add\n        /* \"todoListPendingCountSeconds.sol\":2129:2162  contentList[i] = todos[i].content */\n      dup2\n      swap1\n      mstore\n      pop\n        /* \"todoListPendingCountSeconds.sol\":2110:2113  i++ */\n      dup1\n      dup1\n      tag_145\n      swap1\n      tag_101\n      jump\t// in\n    tag_145:\n      swap2\n      pop\n      pop\n        /* \"todoListPendingCountSeconds.sol\":2072:2173  for (uint256 i = 0; i < todos.length; i++) {... */\n      jump(tag_132)\n    tag_133:\n      pop\n        /* \"todoListPendingCountSeconds.sol\":2189:2200  contentList */\n      dup1\n        /* \"todoListPendingCountSeconds.sol\":2182:2200  return contentList */\n      swap2\n      pop\n      pop\n        /* \"todoListPendingCountSeconds.sol\":1934:2207  function getAllTodo() external view returns (string[] memory) {... */\n      swap1\n      jump\t// out\n        /* \"todoListPendingCountSeconds.sol\":2821:3384  function movePendingToTodoList(uint256 index) external {... */\n    tag_43:\n        /* \"todoListPendingCountSeconds.sol\":2902:2913  todoPending */\n      0x02\n        /* \"todoListPendingCountSeconds.sol\":2902:2920  todoPending.length */\n      dup1\n      sload\n      swap1\n      pop\n        /* \"todoListPendingCountSeconds.sol\":2894:2899  index */\n      dup2\n        /* \"todoListPendingCountSeconds.sol\":2894:2920  index < todoPending.length */\n      lt\n        /* \"todoListPendingCountSeconds.sol\":2886:2938  require(index < todoPending.length, \"Invalid index\") */\n      tag_147\n      jumpi\n      mload(0x40)\n      0x08c379a000000000000000000000000000000000000000000000000000000000\n      dup2\n      mstore\n      0x04\n      add\n      tag_148\n      swap1\n      tag_149\n      jump\t// in\n    tag_148:\n      mload(0x40)\n      dup1\n      swap2\n      sub\n      swap1\n      revert\n    tag_147:\n        /* \"todoListPendingCountSeconds.sol\":2948:2975  TodoItem memory pendingTodo */\n      0x00\n        /* \"todoListPendingCountSeconds.sol\":2978:2989  todoPending */\n      0x02\n        /* \"todoListPendingCountSeconds.sol\":2990:2995  index */\n      dup3\n        /* \"todoListPendingCountSeconds.sol\":2978:2996  todoPending[index] */\n      dup2\n      sload\n      dup2\n      lt\n      tag_150\n      jumpi\n      tag_151\n      tag_76\n      jump\t// in\n    tag_151:\n    tag_150:\n      swap1\n      0x00\n      mstore\n      keccak256(0x00, 0x20)\n      swap1\n      0x03\n      mul\n      add\n        /* \"todoListPendingCountSeconds.sol\":2948:2996  TodoItem memory pendingTodo = todoPending[index] */\n      mload(0x40)\n      dup1\n      0x60\n      add\n      0x40\n      mstore\n      swap1\n      dup2\n      0x00\n      dup3\n      add\n      dup1\n      sload\n      tag_153\n      swap1\n      tag_79\n      jump\t// in\n    tag_153:\n      dup1\n      0x1f\n      add\n      0x20\n      dup1\n      swap2\n      div\n      mul\n      0x20\n      add\n      mload(0x40)\n      swap1\n      dup2\n      add\n      0x40\n      mstore\n      dup1\n      swap3\n      swap2\n      swap1\n      dup2\n      dup2\n      mstore\n      0x20\n      add\n      dup3\n      dup1\n      sload\n      tag_154\n      swap1\n      tag_79\n      jump\t// in\n    tag_154:\n      dup1\n      iszero\n      tag_155\n      jumpi\n      dup1\n      0x1f\n      lt\n      tag_156\n      jumpi\n      0x0100\n      dup1\n      dup4\n      sload\n      div\n      mul\n      dup4\n      mstore\n      swap2\n      0x20\n      add\n      swap2\n      jump(tag_155)\n    tag_156:\n      dup3\n      add\n      swap2\n      swap1\n      0x00\n      mstore\n      keccak256(0x00, 0x20)\n      swap1\n    tag_157:\n      dup2\n      sload\n      dup2\n      mstore\n      swap1\n      0x01\n      add\n      swap1\n      0x20\n      add\n      dup1\n      dup4\n      gt\n      tag_157\n      jumpi\n      dup3\n      swap1\n      sub\n      0x1f\n      and\n      dup3\n      add\n      swap2\n    tag_155:\n      pop\n      pop\n      pop\n      pop\n      pop\n      dup2\n      mstore\n      0x20\n      add\n      0x01\n      dup3\n      add\n      0x00\n      swap1\n      sload\n      swap1\n      0x0100\n      exp\n      swap1\n      div\n      0xff\n      and\n      iszero\n      iszero\n      iszero\n      iszero\n      dup2\n      mstore\n      0x20\n      add\n      0x02\n      dup3\n      add\n      sload\n      dup2\n      mstore\n      pop\n      pop\n      swap1\n      pop\n        /* \"todoListPendingCountSeconds.sol\":332:334  60 */\n      0x3c\n        /* \"todoListPendingCountSeconds.sol\":3045:3056  pendingTodo */\n      dup2\n        /* \"todoListPendingCountSeconds.sol\":3045:3065  pendingTodo.moveTime */\n      0x40\n      add\n      mload\n        /* \"todoListPendingCountSeconds.sol\":3027:3042  block.timestamp */\n      timestamp\n        /* \"todoListPendingCountSeconds.sol\":3027:3065  block.timestamp - pendingTodo.moveTime */\n      tag_158\n      swap2\n      swap1\n      tag_89\n      jump\t// in\n    tag_158:\n        /* \"todoListPendingCountSeconds.sol\":3027:3082  block.timestamp - pendingTodo.moveTime < WAITING_PERIOD */\n      lt\n        /* \"todoListPendingCountSeconds.sol\":3006:3137  require(... */\n      tag_159\n      jumpi\n      mload(0x40)\n      0x08c379a000000000000000000000000000000000000000000000000000000000\n      dup2\n      mstore\n      0x04\n      add\n      tag_160\n      swap1\n      tag_161\n      jump\t// in\n    tag_160:\n      mload(0x40)\n      dup1\n      swap2\n      sub\n      swap1\n      revert\n    tag_159:\n        /* \"todoListPendingCountSeconds.sol\":3153:3162  uint256 i */\n      0x00\n        /* \"todoListPendingCountSeconds.sol\":3165:3170  index */\n      dup3\n        /* \"todoListPendingCountSeconds.sol\":3153:3170  uint256 i = index */\n      swap1\n      pop\n        /* \"todoListPendingCountSeconds.sol\":3148:3265  for (uint256 i = index; i < todoPending.length - 1; i++) {... */\n    tag_162:\n        /* \"todoListPendingCountSeconds.sol\":3197:3198  1 */\n      0x01\n        /* \"todoListPendingCountSeconds.sol\":3176:3187  todoPending */\n      0x02\n        /* \"todoListPendingCountSeconds.sol\":3176:3194  todoPending.length */\n      dup1\n      sload\n      swap1\n      pop\n        /* \"todoListPendingCountSeconds.sol\":3176:3198  todoPending.length - 1 */\n      tag_165\n      swap2\n      swap1\n      tag_89\n      jump\t// in\n    tag_165:\n        /* \"todoListPendingCountSeconds.sol\":3172:3173  i */\n      dup2\n        /* \"todoListPendingCountSeconds.sol\":3172:3198  i < todoPending.length - 1 */\n      lt\n        /* \"todoListPendingCountSeconds.sol\":3148:3265  for (uint256 i = index; i < todoPending.length - 1; i++) {... */\n      iszero\n      tag_163\n      jumpi\n        /* \"todoListPendingCountSeconds.sol\":3236:3247  todoPending */\n      0x02\n        /* \"todoListPendingCountSeconds.sol\":3252:3253  1 */\n      0x01\n        /* \"todoListPendingCountSeconds.sol\":3248:3249  i */\n      dup3\n        /* \"todoListPendingCountSeconds.sol\":3248:3253  i + 1 */\n      tag_166\n      swap2\n      swap1\n      tag_91\n      jump\t// in\n    tag_166:\n        /* \"todoListPendingCountSeconds.sol\":3236:3254  todoPending[i + 1] */\n      dup2\n      sload\n      dup2\n      lt\n      tag_167\n      jumpi\n      tag_168\n      tag_76\n      jump\t// in\n    tag_168:\n    tag_167:\n      swap1\n      0x00\n      mstore\n      keccak256(0x00, 0x20)\n      swap1\n      0x03\n      mul\n      add\n        /* \"todoListPendingCountSeconds.sol\":3219:3230  todoPending */\n      0x02\n        /* \"todoListPendingCountSeconds.sol\":3231:3232  i */\n      dup3\n        /* \"todoListPendingCountSeconds.sol\":3219:3233  todoPending[i] */\n      dup2\n      sload\n      dup2\n      lt\n      tag_170\n      jumpi\n      tag_171\n      tag_76\n      jump\t// in\n    tag_171:\n    tag_170:\n      swap1\n      0x00\n      mstore\n      keccak256(0x00, 0x20)\n      swap1\n      0x03\n      mul\n      add\n        /* \"todoListPendingCountSeconds.sol\":3219:3254  todoPending[i] = todoPending[i + 1] */\n      0x00\n      dup3\n      add\n      dup2\n      0x00\n      add\n      swap1\n      dup2\n      tag_173\n      swap2\n      swap1\n      tag_99\n      jump\t// in\n    tag_173:\n      pop\n      0x01\n      dup3\n      add\n      0x00\n      swap1\n      sload\n      swap1\n      0x0100\n      exp\n      swap1\n      div\n      0xff\n      and\n      dup2\n      0x01\n      add\n      exp(0x0100, 0x00)\n      dup2\n      sload\n      dup2\n      0xff\n      mul\n      not\n      and\n      swap1\n      dup4\n      iszero\n      iszero\n      mul\n      or\n      swap1\n      sstore\n      pop\n      0x02\n      dup3\n      add\n      sload\n      dup2\n      0x02\n      add\n      sstore\n      swap1\n      pop\n      pop\n        /* \"todoListPendingCountSeconds.sol\":3200:3203  i++ */\n      dup1\n      dup1\n      tag_174\n      swap1\n      tag_101\n      jump\t// in\n    tag_174:\n      swap2\n      pop\n      pop\n        /* \"todoListPendingCountSeconds.sol\":3148:3265  for (uint256 i = index; i < todoPending.length - 1; i++) {... */\n      jump(tag_162)\n    tag_163:\n      pop\n        /* \"todoListPendingCountSeconds.sol\":3281:3292  todoPending */\n      0x02\n        /* \"todoListPendingCountSeconds.sol\":3314:3315  1 */\n      0x01\n        /* \"todoListPendingCountSeconds.sol\":3293:3304  todoPending */\n      0x02\n        /* \"todoListPendingCountSeconds.sol\":3293:3311  todoPending.length */\n      dup1\n      sload\n      swap1\n      pop\n        /* \"todoListPendingCountSeconds.sol\":3293:3315  todoPending.length - 1 */\n      tag_175\n      swap2\n      swap1\n      tag_89\n      jump\t// in\n    tag_175:\n        /* \"todoListPendingCountSeconds.sol\":3281:3316  todoPending[todoPending.length - 1] */\n      dup2\n      sload\n      dup2\n      lt\n      tag_176\n      jumpi\n      tag_177\n      tag_76\n      jump\t// in\n    tag_177:\n    tag_176:\n      swap1\n      0x00\n      mstore\n      keccak256(0x00, 0x20)\n      swap1\n      0x03\n      mul\n      add\n      0x00\n        /* \"todoListPendingCountSeconds.sol\":3274:3316  delete todoPending[todoPending.length - 1] */\n      dup1\n      dup3\n      add\n      0x00\n      tag_179\n      swap2\n      swap1\n      tag_107\n      jump\t// in\n    tag_179:\n      0x01\n      dup3\n      add\n      exp(0x0100, 0x00)\n      dup2\n      sload\n      swap1\n      0xff\n      mul\n      not\n      and\n      swap1\n      sstore\n      0x02\n      dup3\n      add\n      0x00\n      swap1\n      sstore\n      pop\n      pop\n        /* \"todoListPendingCountSeconds.sol\":3326:3337  todoPending */\n      0x02\n        /* \"todoListPendingCountSeconds.sol\":3326:3343  todoPending.pop() */\n      dup1\n      sload\n      dup1\n      tag_180\n      jumpi\n      tag_181\n      tag_110\n      jump\t// in\n    tag_181:\n    tag_180:\n      0x01\n      swap1\n      sub\n      dup2\n      dup2\n      swap1\n      0x00\n      mstore\n      keccak256(0x00, 0x20)\n      swap1\n      0x03\n      mul\n      add\n      0x00\n      dup1\n      dup3\n      add\n      0x00\n      tag_183\n      swap2\n      swap1\n      tag_107\n      jump\t// in\n    tag_183:\n      0x01\n      dup3\n      add\n      exp(0x0100, 0x00)\n      dup2\n      sload\n      swap1\n      0xff\n      mul\n      not\n      and\n      swap1\n      sstore\n      0x02\n      dup3\n      add\n      0x00\n      swap1\n      sstore\n      pop\n      pop\n      swap1\n      sstore\n        /* \"todoListPendingCountSeconds.sol\":3354:3359  todos */\n      0x00\n        /* \"todoListPendingCountSeconds.sol\":3365:3376  pendingTodo */\n      dup2\n        /* \"todoListPendingCountSeconds.sol\":3354:3377  todos.push(pendingTodo) */\n      swap1\n      dup1\n      0x01\n      dup2\n      sload\n      add\n      dup1\n      dup3\n      sstore\n      dup1\n      swap2\n      pop\n      pop\n      0x01\n      swap1\n      sub\n      swap1\n      0x00\n      mstore\n      keccak256(0x00, 0x20)\n      swap1\n      0x03\n      mul\n      add\n      0x00\n      swap1\n      swap2\n      swap1\n      swap2\n      swap1\n      swap2\n      pop\n      0x00\n      dup3\n      add\n      mload\n      dup2\n      0x00\n      add\n      swap1\n      dup2\n      tag_185\n      swap2\n      swap1\n      tag_125\n      jump\t// in\n    tag_185:\n      pop\n      0x20\n      dup3\n      add\n      mload\n      dup2\n      0x01\n      add\n      exp(0x0100, 0x00)\n      dup2\n      sload\n      dup2\n      0xff\n      mul\n      not\n      and\n      swap1\n      dup4\n      iszero\n      iszero\n      mul\n      or\n      swap1\n      sstore\n      pop\n      0x40\n      dup3\n      add\n      mload\n      dup2\n      0x02\n      add\n      sstore\n      pop\n      pop\n        /* \"todoListPendingCountSeconds.sol\":2876:3384  {... */\n      pop\n        /* \"todoListPendingCountSeconds.sol\":2821:3384  function movePendingToTodoList(uint256 index) external {... */\n      pop\n      jump\t// out\n        /* \"todoListPendingCountSeconds.sol\":254:283  TodoItem[] public todoPending */\n    tag_46:\n      0x02\n      dup2\n      dup2\n      sload\n      dup2\n      lt\n      tag_186\n      jumpi\n      0x00\n      dup1\n      revert\n    tag_186:\n      swap1\n      0x00\n      mstore\n      keccak256(0x00, 0x20)\n      swap1\n      0x03\n      mul\n      add\n      0x00\n      swap2\n      pop\n      swap1\n      pop\n      dup1\n      0x00\n      add\n      dup1\n      sload\n      tag_188\n      swap1\n      tag_79\n      jump\t// in\n    tag_188:\n      dup1\n      0x1f\n      add\n      0x20\n      dup1\n      swap2\n      div\n      mul\n      0x20\n      add\n      mload(0x40)\n      swap1\n      dup2\n      add\n      0x40\n      mstore\n      dup1\n      swap3\n      swap2\n      swap1\n      dup2\n      dup2\n      mstore\n      0x20\n      add\n      dup3\n      dup1\n      sload\n      tag_189\n      swap1\n      tag_79\n      jump\t// in\n    tag_189:\n      dup1\n      iszero\n      tag_190\n      jumpi\n      dup1\n      0x1f\n      lt\n      tag_191\n      jumpi\n      0x0100\n      dup1\n      dup4\n      sload\n      div\n      mul\n      dup4\n      mstore\n      swap2\n      0x20\n      add\n      swap2\n      jump(tag_190)\n    tag_191:\n      dup3\n      add\n      swap2\n      swap1\n      0x00\n      mstore\n      keccak256(0x00, 0x20)\n      swap1\n    tag_192:\n      dup2\n      sload\n      dup2\n      mstore\n      swap1\n      0x01\n      add\n      swap1\n      0x20\n      add\n      dup1\n      dup4\n      gt\n      tag_192\n      jumpi\n      dup3\n      swap1\n      sub\n      0x1f\n      and\n      dup3\n      add\n      swap2\n    tag_190:\n      pop\n      pop\n      pop\n      pop\n      pop\n      swap1\n      dup1\n      0x01\n      add\n      0x00\n      swap1\n      sload\n      swap1\n      0x0100\n      exp\n      swap1\n      div\n      0xff\n      and\n      swap1\n      dup1\n      0x02\n      add\n      sload\n      swap1\n      pop\n      dup4\n      jump\t// out\n        /* \"todoListPendingCountSeconds.sol\":188:211  TodoItem[] public todos */\n    tag_51:\n      0x00\n      dup2\n      dup2\n      sload\n      dup2\n      lt\n      tag_193\n      jumpi\n      0x00\n      dup1\n      revert\n    tag_193:\n      swap1\n      0x00\n      mstore\n      keccak256(0x00, 0x20)\n      swap1\n      0x03\n      mul\n      add\n      0x00\n      swap2\n      pop\n      swap1\n      pop\n      dup1\n      0x00\n      add\n      dup1\n      sload\n      tag_195\n      swap1\n      tag_79\n      jump\t// in\n    tag_195:\n      dup1\n      0x1f\n      add\n      0x20\n      dup1\n      swap2\n      div\n      mul\n      0x20\n      add\n      mload(0x40)\n      swap1\n      dup2\n      add\n      0x40\n      mstore\n      dup1\n      swap3\n      swap2\n      swap1\n      dup2\n      dup2\n      mstore\n      0x20\n      add\n      dup3\n      dup1\n      sload\n      tag_196\n      swap1\n      tag_79\n      jump\t// in\n    tag_196:\n      dup1\n      iszero\n      tag_197\n      jumpi\n      dup1\n      0x1f\n      lt\n      tag_198\n      jumpi\n      0x0100\n      dup1\n      dup4\n      sload\n      div\n      mul\n      dup4\n      mstore\n      swap2\n      0x20\n      add\n      swap2\n      jump(tag_197)\n    tag_198:\n      dup3\n      add\n      swap2\n      swap1\n      0x00\n      mstore\n      keccak256(0x00, 0x20)\n      swap1\n    tag_199:\n      dup2\n      sload\n      dup2\n      mstore\n      swap1\n      0x01\n      add\n      swap1\n      0x20\n      add\n      dup1\n      dup4\n      gt\n      tag_199\n      jumpi\n      dup3\n      swap1\n      sub\n      0x1f\n      and\n      dup3\n      add\n      swap2\n    tag_197:\n      pop\n      pop\n      pop\n      pop\n      pop\n      swap1\n      dup1\n      0x01\n      add\n      0x00\n      swap1\n      sload\n      swap1\n      0x0100\n      exp\n      swap1\n      div\n      0xff\n      and\n      swap1\n      dup1\n      0x02\n      add\n      sload\n      swap1\n      pop\n      dup4\n      jump\t// out\n        /* \"todoListPendingCountSeconds.sol\":920:1320  function setPending(uint256 index) external {... */\n    tag_55:\n        /* \"todoListPendingCountSeconds.sol\":974:1001  TodoItem memory pendingTodo */\n      0x00\n        /* \"todoListPendingCountSeconds.sol\":1004:1009  todos */\n      dup1\n        /* \"todoListPendingCountSeconds.sol\":1010:1015  index */\n      dup3\n        /* \"todoListPendingCountSeconds.sol\":1004:1016  todos[index] */\n      dup2\n      sload\n      dup2\n      lt\n      tag_201\n      jumpi\n      tag_202\n      tag_76\n      jump\t// in\n    tag_202:\n    tag_201:\n      swap1\n      0x00\n      mstore\n      keccak256(0x00, 0x20)\n      swap1\n      0x03\n      mul\n      add\n        /* \"todoListPendingCountSeconds.sol\":974:1016  TodoItem memory pendingTodo = todos[index] */\n      mload(0x40)\n      dup1\n      0x60\n      add\n      0x40\n      mstore\n      swap1\n      dup2\n      0x00\n      dup3\n      add\n      dup1\n      sload\n      tag_204\n      swap1\n      tag_79\n      jump\t// in\n    tag_204:\n      dup1\n      0x1f\n      add\n      0x20\n      dup1\n      swap2\n      div\n      mul\n      0x20\n      add\n      mload(0x40)\n      swap1\n      dup2\n      add\n      0x40\n      mstore\n      dup1\n      swap3\n      swap2\n      swap1\n      dup2\n      dup2\n      mstore\n      0x20\n      add\n      dup3\n      dup1\n      sload\n      tag_205\n      swap1\n      tag_79\n      jump\t// in\n    tag_205:\n      dup1\n      iszero\n      tag_206\n      jumpi\n      dup1\n      0x1f\n      lt\n      tag_207\n      jumpi\n      0x0100\n      dup1\n      dup4\n      sload\n      div\n      mul\n      dup4\n      mstore\n      swap2\n      0x20\n      add\n      swap2\n      jump(tag_206)\n    tag_207:\n      dup3\n      add\n      swap2\n      swap1\n      0x00\n      mstore\n      keccak256(0x00, 0x20)\n      swap1\n    tag_208:\n      dup2\n      sload\n      dup2\n      mstore\n      swap1\n      0x01\n      add\n      swap1\n      0x20\n      add\n      dup1\n      dup4\n      gt\n      tag_208\n      jumpi\n      dup3\n      swap1\n      sub\n      0x1f\n      and\n      dup3\n      add\n      swap2\n    tag_206:\n      pop\n      pop\n      pop\n      pop\n      pop\n      dup2\n      mstore\n      0x20\n      add\n      0x01\n      dup3\n      add\n      0x00\n      swap1\n      sload\n      swap1\n      0x0100\n      exp\n      swap1\n      div\n      0xff\n      and\n      iszero\n      iszero\n      iszero\n      iszero\n      dup2\n      mstore\n      0x20\n      add\n      0x02\n      dup3\n      add\n      sload\n      dup2\n      mstore\n      pop\n      pop\n      swap1\n      pop\n        /* \"todoListPendingCountSeconds.sol\":1050:1055  false */\n      0x00\n        /* \"todoListPendingCountSeconds.sol\":1026:1037  pendingTodo */\n      dup2\n        /* \"todoListPendingCountSeconds.sol\":1026:1047  pendingTodo.completed */\n      0x20\n      add\n        /* \"todoListPendingCountSeconds.sol\":1026:1055  pendingTodo.completed = false */\n      swap1\n      iszero\n      iszero\n      swap1\n      dup2\n      iszero\n      iszero\n      dup2\n      mstore\n      pop\n      pop\n        /* \"todoListPendingCountSeconds.sol\":1088:1103  block.timestamp */\n      timestamp\n        /* \"todoListPendingCountSeconds.sol\":1065:1076  pendingTodo */\n      dup2\n        /* \"todoListPendingCountSeconds.sol\":1065:1085  pendingTodo.moveTime */\n      0x40\n      add\n        /* \"todoListPendingCountSeconds.sol\":1065:1103  pendingTodo.moveTime = block.timestamp */\n      dup2\n      dup2\n      mstore\n      pop\n      pop\n        /* \"todoListPendingCountSeconds.sol\":1119:1128  uint256 i */\n      0x00\n        /* \"todoListPendingCountSeconds.sol\":1131:1136  index */\n      dup3\n        /* \"todoListPendingCountSeconds.sol\":1119:1136  uint256 i = index */\n      swap1\n      pop\n        /* \"todoListPendingCountSeconds.sol\":1114:1213  for (uint256 i = index; i < todos.length - 1; i++) {... */\n    tag_209:\n        /* \"todoListPendingCountSeconds.sol\":1157:1158  1 */\n      0x01\n        /* \"todoListPendingCountSeconds.sol\":1142:1147  todos */\n      0x00\n        /* \"todoListPendingCountSeconds.sol\":1142:1154  todos.length */\n      dup1\n      sload\n      swap1\n      pop\n        /* \"todoListPendingCountSeconds.sol\":1142:1158  todos.length - 1 */\n      tag_212\n      swap2\n      swap1\n      tag_89\n      jump\t// in\n    tag_212:\n        /* \"todoListPendingCountSeconds.sol\":1138:1139  i */\n      dup2\n        /* \"todoListPendingCountSeconds.sol\":1138:1158  i < todos.length - 1 */\n      lt\n        /* \"todoListPendingCountSeconds.sol\":1114:1213  for (uint256 i = index; i < todos.length - 1; i++) {... */\n      iszero\n      tag_210\n      jumpi\n        /* \"todoListPendingCountSeconds.sol\":1190:1195  todos */\n      0x00\n        /* \"todoListPendingCountSeconds.sol\":1200:1201  1 */\n      0x01\n        /* \"todoListPendingCountSeconds.sol\":1196:1197  i */\n      dup3\n        /* \"todoListPendingCountSeconds.sol\":1196:1201  i + 1 */\n      tag_213\n      swap2\n      swap1\n      tag_91\n      jump\t// in\n    tag_213:\n        /* \"todoListPendingCountSeconds.sol\":1190:1202  todos[i + 1] */\n      dup2\n      sload\n      dup2\n      lt\n      tag_214\n      jumpi\n      tag_215\n      tag_76\n      jump\t// in\n    tag_215:\n    tag_214:\n      swap1\n      0x00\n      mstore\n      keccak256(0x00, 0x20)\n      swap1\n      0x03\n      mul\n      add\n        /* \"todoListPendingCountSeconds.sol\":1179:1184  todos */\n      0x00\n        /* \"todoListPendingCountSeconds.sol\":1185:1186  i */\n      dup3\n        /* \"todoListPendingCountSeconds.sol\":1179:1187  todos[i] */\n      dup2\n      sload\n      dup2\n      lt\n      tag_217\n      jumpi\n      tag_218\n      tag_76\n      jump\t// in\n    tag_218:\n    tag_217:\n      swap1\n      0x00\n      mstore\n      keccak256(0x00, 0x20)\n      swap1\n      0x03\n      mul\n      add\n        /* \"todoListPendingCountSeconds.sol\":1179:1202  todos[i] = todos[i + 1] */\n      0x00\n      dup3\n      add\n      dup2\n      0x00\n      add\n      swap1\n      dup2\n      tag_220\n      swap2\n      swap1\n      tag_99\n      jump\t// in\n    tag_220:\n      pop\n      0x01\n      dup3\n      add\n      0x00\n      swap1\n      sload\n      swap1\n      0x0100\n      exp\n      swap1\n      div\n      0xff\n      and\n      dup2\n      0x01\n      add\n      exp(0x0100, 0x00)\n      dup2\n      sload\n      dup2\n      0xff\n      mul\n      not\n      and\n      swap1\n      dup4\n      iszero\n      iszero\n      mul\n      or\n      swap1\n      sstore\n      pop\n      0x02\n      dup3\n      add\n      sload\n      dup2\n      0x02\n      add\n      sstore\n      swap1\n      pop\n      pop\n        /* \"todoListPendingCountSeconds.sol\":1160:1163  i++ */\n      dup1\n      dup1\n      tag_221\n      swap1\n      tag_101\n      jump\t// in\n    tag_221:\n      swap2\n      pop\n      pop\n        /* \"todoListPendingCountSeconds.sol\":1114:1213  for (uint256 i = index; i < todos.length - 1; i++) {... */\n      jump(tag_209)\n    tag_210:\n      pop\n        /* \"todoListPendingCountSeconds.sol\":1229:1234  todos */\n      0x00\n        /* \"todoListPendingCountSeconds.sol\":1250:1251  1 */\n      0x01\n        /* \"todoListPendingCountSeconds.sol\":1235:1240  todos */\n      0x00\n        /* \"todoListPendingCountSeconds.sol\":1235:1247  todos.length */\n      dup1\n      sload\n      swap1\n      pop\n        /* \"todoListPendingCountSeconds.sol\":1235:1251  todos.length - 1 */\n      tag_222\n      swap2\n      swap1\n      tag_89\n      jump\t// in\n    tag_222:\n        /* \"todoListPendingCountSeconds.sol\":1229:1252  todos[todos.length - 1] */\n      dup2\n      sload\n      dup2\n      lt\n      tag_223\n      jumpi\n      tag_224\n      tag_76\n      jump\t// in\n    tag_224:\n    tag_223:\n      swap1\n      0x00\n      mstore\n      keccak256(0x00, 0x20)\n      swap1\n      0x03\n      mul\n      add\n      0x00\n        /* \"todoListPendingCountSeconds.sol\":1222:1252  delete todos[todos.length - 1] */\n      dup1\n      dup3\n      add\n      0x00\n      tag_226\n      swap2\n      swap1\n      tag_107\n      jump\t// in\n    tag_226:\n      0x01\n      dup3\n      add\n      exp(0x0100, 0x00)\n      dup2\n      sload\n      swap1\n      0xff\n      mul\n      not\n      and\n      swap1\n      sstore\n      0x02\n      dup3\n      add\n      0x00\n      swap1\n      sstore\n      pop\n      pop\n        /* \"todoListPendingCountSeconds.sol\":1262:1267  todos */\n      0x00\n        /* \"todoListPendingCountSeconds.sol\":1262:1273  todos.pop() */\n      dup1\n      sload\n      dup1\n      tag_227\n      jumpi\n      tag_228\n      tag_110\n      jump\t// in\n    tag_228:\n    tag_227:\n      0x01\n      swap1\n      sub\n      dup2\n      dup2\n      swap1\n      0x00\n      mstore\n      keccak256(0x00, 0x20)\n      swap1\n      0x03\n      mul\n      add\n      0x00\n      dup1\n      dup3\n      add\n      0x00\n      tag_230\n      swap2\n      swap1\n      tag_107\n      jump\t// in\n    tag_230:\n      0x01\n      dup3\n      add\n      exp(0x0100, 0x00)\n      dup2\n      sload\n      swap1\n      0xff\n      mul\n      not\n      and\n      swap1\n      sstore\n      0x02\n      dup3\n      add\n      0x00\n      swap1\n      sstore\n      pop\n      pop\n      swap1\n      sstore\n        /* \"todoListPendingCountSeconds.sol\":1284:1295  todoPending */\n      0x02\n        /* \"todoListPendingCountSeconds.sol\":1301:1312  pendingTodo */\n      dup2\n        /* \"todoListPendingCountSeconds.sol\":1284:1313  todoPending.push(pendingTodo) */\n      swap1\n      dup1\n      0x01\n      dup2\n      sload\n      add\n      dup1\n      dup3\n      sstore\n      dup1\n      swap2\n      pop\n      pop\n      0x01\n      swap1\n      sub\n      swap1\n      0x00\n      mstore\n      keccak256(0x00, 0x20)\n      swap1\n      0x03\n      mul\n      add\n      0x00\n      swap1\n      swap2\n      swap1\n      swap2\n      swap1\n      swap2\n      pop\n      0x00\n      dup3\n      add\n      mload\n      dup2\n      0x00\n      add\n      swap1\n      dup2\n      tag_232\n      swap2\n      swap1\n      tag_125\n      jump\t// in\n    tag_232:\n      pop\n      0x20\n      dup3\n      add\n      mload\n      dup2\n      0x01\n      add\n      exp(0x0100, 0x00)\n      dup2\n      sload\n      dup2\n      0xff\n      mul\n      not\n      and\n      swap1\n      dup4\n      iszero\n      iszero\n      mul\n      or\n      swap1\n      sstore\n      pop\n      0x40\n      dup3\n      add\n      mload\n      dup2\n      0x02\n      add\n      sstore\n      pop\n      pop\n        /* \"todoListPendingCountSeconds.sol\":964:1320  {... */\n      pop\n        /* \"todoListPendingCountSeconds.sol\":920:1320  function setPending(uint256 index) external {... */\n      pop\n      jump\t// out\n        /* \"todoListPendingCountSeconds.sol\":1326:1440  function getTodo(uint256 index) external view returns (string memory) {... */\n    tag_58:\n        /* \"todoListPendingCountSeconds.sol\":1381:1394  string memory */\n      0x60\n        /* \"todoListPendingCountSeconds.sol\":1413:1418  todos */\n      0x00\n        /* \"todoListPendingCountSeconds.sol\":1419:1424  index */\n      dup3\n        /* \"todoListPendingCountSeconds.sol\":1413:1425  todos[index] */\n      dup2\n      sload\n      dup2\n      lt\n      tag_234\n      jumpi\n      tag_235\n      tag_76\n      jump\t// in\n    tag_235:\n    tag_234:\n      swap1\n      0x00\n      mstore\n      keccak256(0x00, 0x20)\n      swap1\n      0x03\n      mul\n      add\n        /* \"todoListPendingCountSeconds.sol\":1413:1433  todos[index].content */\n      0x00\n      add\n        /* \"todoListPendingCountSeconds.sol\":1406:1433  return todos[index].content */\n      dup1\n      sload\n      tag_237\n      swap1\n      tag_79\n      jump\t// in\n    tag_237:\n      dup1\n      0x1f\n      add\n      0x20\n      dup1\n      swap2\n      div\n      mul\n      0x20\n      add\n      mload(0x40)\n      swap1\n      dup2\n      add\n      0x40\n      mstore\n      dup1\n      swap3\n      swap2\n      swap1\n      dup2\n      dup2\n      mstore\n      0x20\n      add\n      dup3\n      dup1\n      sload\n      tag_238\n      swap1\n      tag_79\n      jump\t// in\n    tag_238:\n      dup1\n      iszero\n      tag_239\n      jumpi\n      dup1\n      0x1f\n      lt\n      tag_240\n      jumpi\n      0x0100\n      dup1\n      dup4\n      sload\n      div\n      mul\n      dup4\n      mstore\n      swap2\n      0x20\n      add\n      swap2\n      jump(tag_239)\n    tag_240:\n      dup3\n      add\n      swap2\n      swap1\n      0x00\n      mstore\n      keccak256(0x00, 0x20)\n      swap1\n    tag_241:\n      dup2\n      sload\n      dup2\n      mstore\n      swap1\n      0x01\n      add\n      swap1\n      0x20\n      add\n      dup1\n      dup4\n      gt\n      tag_241\n      jumpi\n      dup3\n      swap1\n      sub\n      0x1f\n      and\n      dup3\n      add\n      swap2\n    tag_239:\n      pop\n      pop\n      pop\n      pop\n      pop\n      swap1\n      pop\n        /* \"todoListPendingCountSeconds.sol\":1326:1440  function getTodo(uint256 index) external view returns (string memory) {... */\n      swap2\n      swap1\n      pop\n      jump\t// out\n        /* \"todoListPendingCountSeconds.sol\":2213:2515  function getAllCompleted() external view returns (string[] memory) {... */\n    tag_61:\n        /* \"todoListPendingCountSeconds.sol\":2263:2278  string[] memory */\n      0x60\n        /* \"todoListPendingCountSeconds.sol\":2290:2317  string[] memory contentList */\n      0x00\n        /* \"todoListPendingCountSeconds.sol\":2333:2346  todoCompleted */\n      0x01\n        /* \"todoListPendingCountSeconds.sol\":2333:2353  todoCompleted.length */\n      dup1\n      sload\n      swap1\n      pop\n        /* \"todoListPendingCountSeconds.sol\":2320:2354  new string[](todoCompleted.length) */\n      0xffffffffffffffff\n      dup2\n      gt\n      iszero\n      tag_243\n      jumpi\n      tag_244\n      tag_129\n      jump\t// in\n    tag_244:\n    tag_243:\n      mload(0x40)\n      swap1\n      dup1\n      dup3\n      mstore\n      dup1\n      0x20\n      mul\n      0x20\n      add\n      dup3\n      add\n      0x40\n      mstore\n      dup1\n      iszero\n      tag_245\n      jumpi\n      dup2\n      0x20\n      add\n    tag_246:\n      0x60\n      dup2\n      mstore\n      0x20\n      add\n      swap1\n      0x01\n      swap1\n      sub\n      swap1\n      dup2\n      tag_246\n      jumpi\n      swap1\n      pop\n    tag_245:\n      pop\n        /* \"todoListPendingCountSeconds.sol\":2290:2354  string[] memory contentList = new string[](todoCompleted.length) */\n      swap1\n      pop\n        /* \"todoListPendingCountSeconds.sol\":2369:2378  uint256 i */\n      0x00\n        /* \"todoListPendingCountSeconds.sol\":2364:2481  for (uint256 i = 0; i < todoCompleted.length; i++) {... */\n    tag_247:\n        /* \"todoListPendingCountSeconds.sol\":2388:2401  todoCompleted */\n      0x01\n        /* \"todoListPendingCountSeconds.sol\":2388:2408  todoCompleted.length */\n      dup1\n      sload\n      swap1\n      pop\n        /* \"todoListPendingCountSeconds.sol\":2384:2385  i */\n      dup2\n        /* \"todoListPendingCountSeconds.sol\":2384:2408  i < todoCompleted.length */\n      lt\n        /* \"todoListPendingCountSeconds.sol\":2364:2481  for (uint256 i = 0; i < todoCompleted.length; i++) {... */\n      iszero\n      tag_248\n      jumpi\n        /* \"todoListPendingCountSeconds.sol\":2446:2459  todoCompleted */\n      0x01\n        /* \"todoListPendingCountSeconds.sol\":2460:2461  i */\n      dup2\n        /* \"todoListPendingCountSeconds.sol\":2446:2462  todoCompleted[i] */\n      dup2\n      sload\n      dup2\n      lt\n      tag_250\n      jumpi\n      tag_251\n      tag_76\n      jump\t// in\n    tag_251:\n    tag_250:\n      swap1\n      0x00\n      mstore\n      keccak256(0x00, 0x20)\n      swap1\n      0x03\n      mul\n      add\n        /* \"todoListPendingCountSeconds.sol\":2446:2470  todoCompleted[i].content */\n      0x00\n      add\n        /* \"todoListPendingCountSeconds.sol\":2429:2470  contentList[i] = todoCompleted[i].content */\n      dup1\n      sload\n      tag_253\n      swap1\n      tag_79\n      jump\t// in\n    tag_253:\n      dup1\n      0x1f\n      add\n      0x20\n      dup1\n      swap2\n      div\n      mul\n      0x20\n      add\n      mload(0x40)\n      swap1\n      dup2\n      add\n      0x40\n      mstore\n      dup1\n      swap3\n      swap2\n      swap1\n      dup2\n      dup2\n      mstore\n      0x20\n      add\n      dup3\n      dup1\n      sload\n      tag_254\n      swap1\n      tag_79\n      jump\t// in\n    tag_254:\n      dup1\n      iszero\n      tag_255\n      jumpi\n      dup1\n      0x1f\n      lt\n      tag_256\n      jumpi\n      0x0100\n      dup1\n      dup4\n      sload\n      div\n      mul\n      dup4\n      mstore\n      swap2\n      0x20\n      add\n      swap2\n      jump(tag_255)\n    tag_256:\n      dup3\n      add\n      swap2\n      swap1\n      0x00\n      mstore\n      keccak256(0x00, 0x20)\n      swap1\n    tag_257:\n      dup2\n      sload\n      dup2\n      mstore\n      swap1\n      0x01\n      add\n      swap1\n      0x20\n      add\n      dup1\n      dup4\n      gt\n      tag_257\n      jumpi\n      dup3\n      swap1\n      sub\n      0x1f\n      and\n      dup3\n      add\n      swap2\n    tag_255:\n      pop\n      pop\n      pop\n      pop\n      pop\n        /* \"todoListPendingCountSeconds.sol\":2429:2440  contentList */\n      dup3\n        /* \"todoListPendingCountSeconds.sol\":2441:2442  i */\n      dup3\n        /* \"todoListPendingCountSeconds.sol\":2429:2443  contentList[i] */\n      dup2\n      mload\n      dup2\n      lt\n      tag_258\n      jumpi\n      tag_259\n      tag_76\n      jump\t// in\n    tag_259:\n    tag_258:\n      0x20\n      mul\n      0x20\n      add\n      add\n        /* \"todoListPendingCountSeconds.sol\":2429:2470  contentList[i] = todoCompleted[i].content */\n      dup2\n      swap1\n      mstore\n      pop\n        /* \"todoListPendingCountSeconds.sol\":2410:2413  i++ */\n      dup1\n      dup1\n      tag_260\n      swap1\n      tag_101\n      jump\t// in\n    tag_260:\n      swap2\n      pop\n      pop\n        /* \"todoListPendingCountSeconds.sol\":2364:2481  for (uint256 i = 0; i < todoCompleted.length; i++) {... */\n      jump(tag_247)\n    tag_248:\n      pop\n        /* \"todoListPendingCountSeconds.sol\":2497:2508  contentList */\n      dup1\n        /* \"todoListPendingCountSeconds.sol\":2490:2508  return contentList */\n      swap2\n      pop\n      pop\n        /* \"todoListPendingCountSeconds.sol\":2213:2515  function getAllCompleted() external view returns (string[] memory) {... */\n      swap1\n      jump\t// out\n        /* \"todoListPendingCountSeconds.sol\":2521:2815  function getAllPending() external view returns (string[] memory) {... */\n    tag_64:\n        /* \"todoListPendingCountSeconds.sol\":2569:2584  string[] memory */\n      0x60\n        /* \"todoListPendingCountSeconds.sol\":2596:2623  string[] memory contentList */\n      0x00\n        /* \"todoListPendingCountSeconds.sol\":2639:2650  todoPending */\n      0x02\n        /* \"todoListPendingCountSeconds.sol\":2639:2657  todoPending.length */\n      dup1\n      sload\n      swap1\n      pop\n        /* \"todoListPendingCountSeconds.sol\":2626:2658  new string[](todoPending.length) */\n      0xffffffffffffffff\n      dup2\n      gt\n      iszero\n      tag_262\n      jumpi\n      tag_263\n      tag_129\n      jump\t// in\n    tag_263:\n    tag_262:\n      mload(0x40)\n      swap1\n      dup1\n      dup3\n      mstore\n      dup1\n      0x20\n      mul\n      0x20\n      add\n      dup3\n      add\n      0x40\n      mstore\n      dup1\n      iszero\n      tag_264\n      jumpi\n      dup2\n      0x20\n      add\n    tag_265:\n      0x60\n      dup2\n      mstore\n      0x20\n      add\n      swap1\n      0x01\n      swap1\n      sub\n      swap1\n      dup2\n      tag_265\n      jumpi\n      swap1\n      pop\n    tag_264:\n      pop\n        /* \"todoListPendingCountSeconds.sol\":2596:2658  string[] memory contentList = new string[](todoPending.length) */\n      swap1\n      pop\n        /* \"todoListPendingCountSeconds.sol\":2673:2682  uint256 i */\n      0x00\n        /* \"todoListPendingCountSeconds.sol\":2668:2781  for (uint256 i = 0; i < todoPending.length; i++) {... */\n    tag_266:\n        /* \"todoListPendingCountSeconds.sol\":2692:2703  todoPending */\n      0x02\n        /* \"todoListPendingCountSeconds.sol\":2692:2710  todoPending.length */\n      dup1\n      sload\n      swap1\n      pop\n        /* \"todoListPendingCountSeconds.sol\":2688:2689  i */\n      dup2\n        /* \"todoListPendingCountSeconds.sol\":2688:2710  i < todoPending.length */\n      lt\n        /* \"todoListPendingCountSeconds.sol\":2668:2781  for (uint256 i = 0; i < todoPending.length; i++) {... */\n      iszero\n      tag_267\n      jumpi\n        /* \"todoListPendingCountSeconds.sol\":2748:2759  todoPending */\n      0x02\n        /* \"todoListPendingCountSeconds.sol\":2760:2761  i */\n      dup2\n        /* \"todoListPendingCountSeconds.sol\":2748:2762  todoPending[i] */\n      dup2\n      sload\n      dup2\n      lt\n      tag_269\n      jumpi\n      tag_270\n      tag_76\n      jump\t// in\n    tag_270:\n    tag_269:\n      swap1\n      0x00\n      mstore\n      keccak256(0x00, 0x20)\n      swap1\n      0x03\n      mul\n      add\n        /* \"todoListPendingCountSeconds.sol\":2748:2770  todoPending[i].content */\n      0x00\n      add\n        /* \"todoListPendingCountSeconds.sol\":2731:2770  contentList[i] = todoPending[i].content */\n      dup1\n      sload\n      tag_272\n      swap1\n      tag_79\n      jump\t// in\n    tag_272:\n      dup1\n      0x1f\n      add\n      0x20\n      dup1\n      swap2\n      div\n      mul\n      0x20\n      add\n      mload(0x40)\n      swap1\n      dup2\n      add\n      0x40\n      mstore\n      dup1\n      swap3\n      swap2\n      swap1\n      dup2\n      dup2\n      mstore\n      0x20\n      add\n      dup3\n      dup1\n      sload\n      tag_273\n      swap1\n      tag_79\n      jump\t// in\n    tag_273:\n      dup1\n      iszero\n      tag_274\n      jumpi\n      dup1\n      0x1f\n      lt\n      tag_275\n      jumpi\n      0x0100\n      dup1\n      dup4\n      sload\n      div\n      mul\n      dup4\n      mstore\n      swap2\n      0x20\n      add\n      swap2\n      jump(tag_274)\n    tag_275:\n      dup3\n      add\n      swap2\n      swap1\n      0x00\n      mstore\n      keccak256(0x00, 0x20)\n      swap1\n    tag_276:\n      dup2\n      sload\n      dup2\n      mstore\n      swap1\n      0x01\n      add\n      swap1\n      0x20\n      add\n      dup1\n      dup4\n      gt\n      tag_276\n      jumpi\n      dup3\n      swap1\n      sub\n      0x1f\n      and\n      dup3\n      add\n      swap2\n    tag_274:\n      pop\n      pop\n      pop\n      pop\n      pop\n        /* \"todoListPendingCountSeconds.sol\":2731:2742  contentList */\n      dup3\n        /* \"todoListPendingCountSeconds.sol\":2743:2744  i */\n      dup3\n        /* \"todoListPendingCountSeconds.sol\":2731:2745  contentList[i] */\n      dup2\n      mload\n      dup2\n      lt\n      tag_277\n      jumpi\n      tag_278\n      tag_76\n      jump\t// in\n    tag_278:\n    tag_277:\n      0x20\n      mul\n      0x20\n      add\n      add\n        /* \"todoListPendingCountSeconds.sol\":2731:2770  contentList[i] = todoPending[i].content */\n      dup2\n      swap1\n      mstore\n      pop\n        /* \"todoListPendingCountSeconds.sol\":2712:2715  i++ */\n      dup1\n      dup1\n      tag_279\n      swap1\n      tag_101\n      jump\t// in\n    tag_279:\n      swap2\n      pop\n      pop\n        /* \"todoListPendingCountSeconds.sol\":2668:2781  for (uint256 i = 0; i < todoPending.length; i++) {... */\n      jump(tag_266)\n    tag_267:\n      pop\n        /* \"todoListPendingCountSeconds.sol\":2797:2808  contentList */\n      dup1\n        /* \"todoListPendingCountSeconds.sol\":2790:2808  return contentList */\n      swap2\n      pop\n      pop\n        /* \"todoListPendingCountSeconds.sol\":2521:2815  function getAllPending() external view returns (string[] memory) {... */\n      swap1\n      jump\t// out\n        /* \"todoListPendingCountSeconds.sol\":503:914  function setCompleted(uint256 index) external {... */\n    tag_68:\n        /* \"todoListPendingCountSeconds.sol\":559:588  TodoItem memory completedTodo */\n      0x00\n        /* \"todoListPendingCountSeconds.sol\":591:596  todos */\n      dup1\n        /* \"todoListPendingCountSeconds.sol\":597:602  index */\n      dup3\n        /* \"todoListPendingCountSeconds.sol\":591:603  todos[index] */\n      dup2\n      sload\n      dup2\n      lt\n      tag_281\n      jumpi\n      tag_282\n      tag_76\n      jump\t// in\n    tag_282:\n    tag_281:\n      swap1\n      0x00\n      mstore\n      keccak256(0x00, 0x20)\n      swap1\n      0x03\n      mul\n      add\n        /* \"todoListPendingCountSeconds.sol\":559:603  TodoItem memory completedTodo = todos[index] */\n      mload(0x40)\n      dup1\n      0x60\n      add\n      0x40\n      mstore\n      swap1\n      dup2\n      0x00\n      dup3\n      add\n      dup1\n      sload\n      tag_284\n      swap1\n      tag_79\n      jump\t// in\n    tag_284:\n      dup1\n      0x1f\n      add\n      0x20\n      dup1\n      swap2\n      div\n      mul\n      0x20\n      add\n      mload(0x40)\n      swap1\n      dup2\n      add\n      0x40\n      mstore\n      dup1\n      swap3\n      swap2\n      swap1\n      dup2\n      dup2\n      mstore\n      0x20\n      add\n      dup3\n      dup1\n      sload\n      tag_285\n      swap1\n      tag_79\n      jump\t// in\n    tag_285:\n      dup1\n      iszero\n      tag_286\n      jumpi\n      dup1\n      0x1f\n      lt\n      tag_287\n      jumpi\n      0x0100\n      dup1\n      dup4\n      sload\n      div\n      mul\n      dup4\n      mstore\n      swap2\n      0x20\n      add\n      swap2\n      jump(tag_286)\n    tag_287:\n      dup3\n      add\n      swap2\n      swap1\n      0x00\n      mstore\n      keccak256(0x00, 0x20)\n      swap1\n    tag_288:\n      dup2\n      sload\n      dup2\n      mstore\n      swap1\n      0x01\n      add\n      swap1\n      0x20\n      add\n      dup1\n      dup4\n      gt\n      tag_288\n      jumpi\n      dup3\n      swap1\n      sub\n      0x1f\n      and\n      dup3\n      add\n      swap2\n    tag_286:\n      pop\n      pop\n      pop\n      pop\n      pop\n      dup2\n      mstore\n      0x20\n      add\n      0x01\n      dup3\n      add\n      0x00\n      swap1\n      sload\n      swap1\n      0x0100\n      exp\n      swap1\n      div\n      0xff\n      and\n      iszero\n      iszero\n      iszero\n      iszero\n      dup2\n      mstore\n      0x20\n      add\n      0x02\n      dup3\n      add\n      sload\n      dup2\n      mstore\n      pop\n      pop\n      swap1\n      pop\n        /* \"todoListPendingCountSeconds.sol\":639:643  true */\n      0x01\n        /* \"todoListPendingCountSeconds.sol\":613:626  completedTodo */\n      dup2\n        /* \"todoListPendingCountSeconds.sol\":613:636  completedTodo.completed */\n      0x20\n      add\n        /* \"todoListPendingCountSeconds.sol\":613:643  completedTodo.completed = true */\n      swap1\n      iszero\n      iszero\n      swap1\n      dup2\n      iszero\n      iszero\n      dup2\n      mstore\n      pop\n      pop\n        /* \"todoListPendingCountSeconds.sol\":678:693  block.timestamp */\n      timestamp\n        /* \"todoListPendingCountSeconds.sol\":653:666  completedTodo */\n      dup2\n        /* \"todoListPendingCountSeconds.sol\":653:675  completedTodo.moveTime */\n      0x40\n      add\n        /* \"todoListPendingCountSeconds.sol\":653:693  completedTodo.moveTime = block.timestamp */\n      dup2\n      dup2\n      mstore\n      pop\n      pop\n        /* \"todoListPendingCountSeconds.sol\":709:718  uint256 i */\n      0x00\n        /* \"todoListPendingCountSeconds.sol\":721:726  index */\n      dup3\n        /* \"todoListPendingCountSeconds.sol\":709:726  uint256 i = index */\n      swap1\n      pop\n        /* \"todoListPendingCountSeconds.sol\":704:803  for (uint256 i = index; i < todos.length - 1; i++) {... */\n    tag_289:\n        /* \"todoListPendingCountSeconds.sol\":747:748  1 */\n      0x01\n        /* \"todoListPendingCountSeconds.sol\":732:737  todos */\n      0x00\n        /* \"todoListPendingCountSeconds.sol\":732:744  todos.length */\n      dup1\n      sload\n      swap1\n      pop\n        /* \"todoListPendingCountSeconds.sol\":732:748  todos.length - 1 */\n      tag_292\n      swap2\n      swap1\n      tag_89\n      jump\t// in\n    tag_292:\n        /* \"todoListPendingCountSeconds.sol\":728:729  i */\n      dup2\n        /* \"todoListPendingCountSeconds.sol\":728:748  i < todos.length - 1 */\n      lt\n        /* \"todoListPendingCountSeconds.sol\":704:803  for (uint256 i = index; i < todos.length - 1; i++) {... */\n      iszero\n      tag_290\n      jumpi\n        /* \"todoListPendingCountSeconds.sol\":780:785  todos */\n      0x00\n        /* \"todoListPendingCountSeconds.sol\":790:791  1 */\n      0x01\n        /* \"todoListPendingCountSeconds.sol\":786:787  i */\n      dup3\n        /* \"todoListPendingCountSeconds.sol\":786:791  i + 1 */\n      tag_293\n      swap2\n      swap1\n      tag_91\n      jump\t// in\n    tag_293:\n        /* \"todoListPendingCountSeconds.sol\":780:792  todos[i + 1] */\n      dup2\n      sload\n      dup2\n      lt\n      tag_294\n      jumpi\n      tag_295\n      tag_76\n      jump\t// in\n    tag_295:\n    tag_294:\n      swap1\n      0x00\n      mstore\n      keccak256(0x00, 0x20)\n      swap1\n      0x03\n      mul\n      add\n        /* \"todoListPendingCountSeconds.sol\":769:774  todos */\n      0x00\n        /* \"todoListPendingCountSeconds.sol\":775:776  i */\n      dup3\n        /* \"todoListPendingCountSeconds.sol\":769:777  todos[i] */\n      dup2\n      sload\n      dup2\n      lt\n      tag_297\n      jumpi\n      tag_298\n      tag_76\n      jump\t// in\n    tag_298:\n    tag_297:\n      swap1\n      0x00\n      mstore\n      keccak256(0x00, 0x20)\n      swap1\n      0x03\n      mul\n      add\n        /* \"todoListPendingCountSeconds.sol\":769:792  todos[i] = todos[i + 1] */\n      0x00\n      dup3\n      add\n      dup2\n      0x00\n      add\n      swap1\n      dup2\n      tag_300\n      swap2\n      swap1\n      tag_99\n      jump\t// in\n    tag_300:\n      pop\n      0x01\n      dup3\n      add\n      0x00\n      swap1\n      sload\n      swap1\n      0x0100\n      exp\n      swap1\n      div\n      0xff\n      and\n      dup2\n      0x01\n      add\n      exp(0x0100, 0x00)\n      dup2\n      sload\n      dup2\n      0xff\n      mul\n      not\n      and\n      swap1\n      dup4\n      iszero\n      iszero\n      mul\n      or\n      swap1\n      sstore\n      pop\n      0x02\n      dup3\n      add\n      sload\n      dup2\n      0x02\n      add\n      sstore\n      swap1\n      pop\n      pop\n        /* \"todoListPendingCountSeconds.sol\":750:753  i++ */\n      dup1\n      dup1\n      tag_301\n      swap1\n      tag_101\n      jump\t// in\n    tag_301:\n      swap2\n      pop\n      pop\n        /* \"todoListPendingCountSeconds.sol\":704:803  for (uint256 i = index; i < todos.length - 1; i++) {... */\n      jump(tag_289)\n    tag_290:\n      pop\n        /* \"todoListPendingCountSeconds.sol\":819:824  todos */\n      0x00\n        /* \"todoListPendingCountSeconds.sol\":840:841  1 */\n      0x01\n        /* \"todoListPendingCountSeconds.sol\":825:830  todos */\n      0x00\n        /* \"todoListPendingCountSeconds.sol\":825:837  todos.length */\n      dup1\n      sload\n      swap1\n      pop\n        /* \"todoListPendingCountSeconds.sol\":825:841  todos.length - 1 */\n      tag_302\n      swap2\n      swap1\n      tag_89\n      jump\t// in\n    tag_302:\n        /* \"todoListPendingCountSeconds.sol\":819:842  todos[todos.length - 1] */\n      dup2\n      sload\n      dup2\n      lt\n      tag_303\n      jumpi\n      tag_304\n      tag_76\n      jump\t// in\n    tag_304:\n    tag_303:\n      swap1\n      0x00\n      mstore\n      keccak256(0x00, 0x20)\n      swap1\n      0x03\n      mul\n      add\n      0x00\n        /* \"todoListPendingCountSeconds.sol\":812:842  delete todos[todos.length - 1] */\n      dup1\n      dup3\n      add\n      0x00\n      tag_306\n      swap2\n      swap1\n      tag_107\n      jump\t// in\n    tag_306:\n      0x01\n      dup3\n      add\n      exp(0x0100, 0x00)\n      dup2\n      sload\n      swap1\n      0xff\n      mul\n      not\n      and\n      swap1\n      sstore\n      0x02\n      dup3\n      add\n      0x00\n      swap1\n      sstore\n      pop\n      pop\n        /* \"todoListPendingCountSeconds.sol\":852:857  todos */\n      0x00\n        /* \"todoListPendingCountSeconds.sol\":852:863  todos.pop() */\n      dup1\n      sload\n      dup1\n      tag_307\n      jumpi\n      tag_308\n      tag_110\n      jump\t// in\n    tag_308:\n    tag_307:\n      0x01\n      swap1\n      sub\n      dup2\n      dup2\n      swap1\n      0x00\n      mstore\n      keccak256(0x00, 0x20)\n      swap1\n      0x03\n      mul\n      add\n      0x00\n      dup1\n      dup3\n      add\n      0x00\n      tag_310\n      swap2\n      swap1\n      tag_107\n      jump\t// in\n    tag_310:\n      0x01\n      dup3\n      add\n      exp(0x0100, 0x00)\n      dup2\n      sload\n      swap1\n      0xff\n      mul\n      not\n      and\n      swap1\n      sstore\n      0x02\n      dup3\n      add\n      0x00\n      swap1\n      sstore\n      pop\n      pop\n      swap1\n      sstore\n        /* \"todoListPendingCountSeconds.sol\":874:887  todoCompleted */\n      0x01\n        /* \"todoListPendingCountSeconds.sol\":893:906  completedTodo */\n      dup2\n        /* \"todoListPendingCountSeconds.sol\":874:907  todoCompleted.push(completedTodo) */\n      swap1\n      dup1\n      0x01\n      dup2\n      sload\n      add\n      dup1\n      dup3\n      sstore\n      dup1\n      swap2\n      pop\n      pop\n      0x01\n      swap1\n      sub\n      swap1\n      0x00\n      mstore\n      keccak256(0x00, 0x20)\n      swap1\n      0x03\n      mul\n      add\n      0x00\n      swap1\n      swap2\n      swap1\n      swap2\n      swap1\n      swap2\n      pop\n      0x00\n      dup3\n      add\n      mload\n      dup2\n      0x00\n      add\n      swap1\n      dup2\n      tag_312\n      swap2\n      swap1\n      tag_125\n      jump\t// in\n    tag_312:\n      pop\n      0x20\n      dup3\n      add\n      mload\n      dup2\n      0x01\n      add\n      exp(0x0100, 0x00)\n      dup2\n      sload\n      dup2\n      0xff\n      mul\n      not\n      and\n      swap1\n      dup4\n      iszero\n      iszero\n      mul\n      or\n      swap1\n      sstore\n      pop\n      0x40\n      dup3\n      add\n      mload\n      dup2\n      0x02\n      add\n      sstore\n      pop\n      pop\n        /* \"todoListPendingCountSeconds.sol\":549:914  {... */\n      pop\n        /* \"todoListPendingCountSeconds.sol\":503:914  function setCompleted(uint256 index) external {... */\n      pop\n      jump\t// out\n        /* \"todoListPendingCountSeconds.sol\":217:248  TodoItem[] public todoCompleted */\n    tag_71:\n      0x01\n      dup2\n      dup2\n      sload\n      dup2\n      lt\n      tag_313\n      jumpi\n      0x00\n      dup1\n      revert\n    tag_313:\n      swap1\n      0x00\n      mstore\n      keccak256(0x00, 0x20)\n      swap1\n      0x03\n      mul\n      add\n      0x00\n      swap2\n      pop\n      swap1\n      pop\n      dup1\n      0x00\n      add\n      dup1\n      sload\n      tag_315\n      swap1\n      tag_79\n      jump\t// in\n    tag_315:\n      dup1\n      0x1f\n      add\n      0x20\n      dup1\n      swap2\n      div\n      mul\n      0x20\n      add\n      mload(0x40)\n      swap1\n      dup2\n      add\n      0x40\n      mstore\n      dup1\n      swap3\n      swap2\n      swap1\n      dup2\n      dup2\n      mstore\n      0x20\n      add\n      dup3\n      dup1\n      sload\n      tag_316\n      swap1\n      tag_79\n      jump\t// in\n    tag_316:\n      dup1\n      iszero\n      tag_317\n      jumpi\n      dup1\n      0x1f\n      lt\n      tag_318\n      jumpi\n      0x0100\n      dup1\n      dup4\n      sload\n      div\n      mul\n      dup4\n      mstore\n      swap2\n      0x20\n      add\n      swap2\n      jump(tag_317)\n    tag_318:\n      dup3\n      add\n      swap2\n      swap1\n      0x00\n      mstore\n      keccak256(0x00, 0x20)\n      swap1\n    tag_319:\n      dup2\n      sload\n      dup2\n      mstore\n      swap1\n      0x01\n      add\n      swap1\n      0x20\n      add\n      dup1\n      dup4\n      gt\n      tag_319\n      jumpi\n      dup3\n      swap1\n      sub\n      0x1f\n      and\n      dup3\n      add\n      swap2\n    tag_317:\n      pop\n      pop\n      pop\n      pop\n      pop\n      swap1\n      dup1\n      0x01\n      add\n      0x00\n      swap1\n      sload\n      swap1\n      0x0100\n      exp\n      swap1\n      div\n      0xff\n      and\n      swap1\n      dup1\n      0x02\n      add\n      sload\n      swap1\n      pop\n      dup4\n      jump\t// out\n    tag_107:\n      pop\n      dup1\n      sload\n      tag_320\n      swap1\n      tag_79\n      jump\t// in\n    tag_320:\n      0x00\n      dup3\n      sstore\n      dup1\n      0x1f\n      lt\n      tag_322\n      jumpi\n      pop\n      jump(tag_321)\n    tag_322:\n      0x1f\n      add\n      0x20\n      swap1\n      div\n      swap1\n      0x00\n      mstore\n      keccak256(0x00, 0x20)\n      swap1\n      dup2\n      add\n      swap1\n      tag_323\n      swap2\n      swap1\n      tag_324\n      jump\t// in\n    tag_323:\n    tag_321:\n      pop\n      jump\t// out\n    tag_324:\n    tag_325:\n      dup1\n      dup3\n      gt\n      iszero\n      tag_326\n      jumpi\n      0x00\n      dup2\n      0x00\n      swap1\n      sstore\n      pop\n      0x01\n      add\n      jump(tag_325)\n    tag_326:\n      pop\n      swap1\n      jump\t// out\n        /* \"#utility.yul\":7:82   */\n    tag_327:\n        /* \"#utility.yul\":40:46   */\n      0x00\n        /* \"#utility.yul\":73:75   */\n      0x40\n        /* \"#utility.yul\":67:76   */\n      mload\n        /* \"#utility.yul\":57:76   */\n      swap1\n      pop\n        /* \"#utility.yul\":7:82   */\n      swap1\n      jump\t// out\n        /* \"#utility.yul\":88:205   */\n    tag_328:\n        /* \"#utility.yul\":197:198   */\n      0x00\n        /* \"#utility.yul\":194:195   */\n      dup1\n        /* \"#utility.yul\":187:199   */\n      revert\n        /* \"#utility.yul\":211:328   */\n    tag_329:\n        /* \"#utility.yul\":320:321   */\n      0x00\n        /* \"#utility.yul\":317:318   */\n      dup1\n        /* \"#utility.yul\":310:322   */\n      revert\n        /* \"#utility.yul\":334:411   */\n    tag_330:\n        /* \"#utility.yul\":371:378   */\n      0x00\n        /* \"#utility.yul\":400:405   */\n      dup2\n        /* \"#utility.yul\":389:405   */\n      swap1\n      pop\n        /* \"#utility.yul\":334:411   */\n      swap2\n      swap1\n      pop\n      jump\t// out\n        /* \"#utility.yul\":417:539   */\n    tag_331:\n        /* \"#utility.yul\":490:514   */\n      tag_385\n        /* \"#utility.yul\":508:513   */\n      dup2\n        /* \"#utility.yul\":490:514   */\n      tag_330\n      jump\t// in\n    tag_385:\n        /* \"#utility.yul\":483:488   */\n      dup2\n        /* \"#utility.yul\":480:515   */\n      eq\n        /* \"#utility.yul\":470:533   */\n      tag_386\n      jumpi\n        /* \"#utility.yul\":529:530   */\n      0x00\n        /* \"#utility.yul\":526:527   */\n      dup1\n        /* \"#utility.yul\":519:531   */\n      revert\n        /* \"#utility.yul\":470:533   */\n    tag_386:\n        /* \"#utility.yul\":417:539   */\n      pop\n      jump\t// out\n        /* \"#utility.yul\":545:684   */\n    tag_332:\n        /* \"#utility.yul\":591:596   */\n      0x00\n        /* \"#utility.yul\":629:635   */\n      dup2\n        /* \"#utility.yul\":616:636   */\n      calldataload\n        /* \"#utility.yul\":607:636   */\n      swap1\n      pop\n        /* \"#utility.yul\":645:678   */\n      tag_388\n        /* \"#utility.yul\":672:677   */\n      dup2\n        /* \"#utility.yul\":645:678   */\n      tag_331\n      jump\t// in\n    tag_388:\n        /* \"#utility.yul\":545:684   */\n      swap3\n      swap2\n      pop\n      pop\n      jump\t// out\n        /* \"#utility.yul\":690:1019   */\n    tag_22:\n        /* \"#utility.yul\":749:755   */\n      0x00\n        /* \"#utility.yul\":798:800   */\n      0x20\n        /* \"#utility.yul\":786:795   */\n      dup3\n        /* \"#utility.yul\":777:784   */\n      dup5\n        /* \"#utility.yul\":773:796   */\n      sub\n        /* \"#utility.yul\":769:801   */\n      slt\n        /* \"#utility.yul\":766:885   */\n      iszero\n      tag_390\n      jumpi\n        /* \"#utility.yul\":804:883   */\n      tag_391\n      tag_328\n      jump\t// in\n    tag_391:\n        /* \"#utility.yul\":766:885   */\n    tag_390:\n        /* \"#utility.yul\":924:925   */\n      0x00\n        /* \"#utility.yul\":949:1002   */\n      tag_392\n        /* \"#utility.yul\":994:1001   */\n      dup5\n        /* \"#utility.yul\":985:991   */\n      dup3\n        /* \"#utility.yul\":974:983   */\n      dup6\n        /* \"#utility.yul\":970:992   */\n      add\n        /* \"#utility.yul\":949:1002   */\n      tag_332\n      jump\t// in\n    tag_392:\n        /* \"#utility.yul\":939:1002   */\n      swap2\n      pop\n        /* \"#utility.yul\":895:1012   */\n      pop\n        /* \"#utility.yul\":690:1019   */\n      swap3\n      swap2\n      pop\n      pop\n      jump\t// out\n        /* \"#utility.yul\":1025:1124   */\n    tag_333:\n        /* \"#utility.yul\":1077:1083   */\n      0x00\n        /* \"#utility.yul\":1111:1116   */\n      dup2\n        /* \"#utility.yul\":1105:1117   */\n      mload\n        /* \"#utility.yul\":1095:1117   */\n      swap1\n      pop\n        /* \"#utility.yul\":1025:1124   */\n      swap2\n      swap1\n      pop\n      jump\t// out\n        /* \"#utility.yul\":1130:1299   */\n    tag_334:\n        /* \"#utility.yul\":1214:1225   */\n      0x00\n        /* \"#utility.yul\":1248:1254   */\n      dup3\n        /* \"#utility.yul\":1243:1246   */\n      dup3\n        /* \"#utility.yul\":1236:1255   */\n      mstore\n        /* \"#utility.yul\":1288:1292   */\n      0x20\n        /* \"#utility.yul\":1283:1286   */\n      dup3\n        /* \"#utility.yul\":1279:1293   */\n      add\n        /* \"#utility.yul\":1264:1293   */\n      swap1\n      pop\n        /* \"#utility.yul\":1130:1299   */\n      swap3\n      swap2\n      pop\n      pop\n      jump\t// out\n        /* \"#utility.yul\":1305:1551   */\n    tag_335:\n        /* \"#utility.yul\":1386:1387   */\n      0x00\n        /* \"#utility.yul\":1396:1509   */\n    tag_396:\n        /* \"#utility.yul\":1410:1416   */\n      dup4\n        /* \"#utility.yul\":1407:1408   */\n      dup2\n        /* \"#utility.yul\":1404:1417   */\n      lt\n        /* \"#utility.yul\":1396:1509   */\n      iszero\n      tag_398\n      jumpi\n        /* \"#utility.yul\":1495:1496   */\n      dup1\n        /* \"#utility.yul\":1490:1493   */\n      dup3\n        /* \"#utility.yul\":1486:1497   */\n      add\n        /* \"#utility.yul\":1480:1498   */\n      mload\n        /* \"#utility.yul\":1476:1477   */\n      dup2\n        /* \"#utility.yul\":1471:1474   */\n      dup5\n        /* \"#utility.yul\":1467:1478   */\n      add\n        /* \"#utility.yul\":1460:1499   */\n      mstore\n        /* \"#utility.yul\":1432:1434   */\n      0x20\n        /* \"#utility.yul\":1429:1430   */\n      dup2\n        /* \"#utility.yul\":1425:1435   */\n      add\n        /* \"#utility.yul\":1420:1435   */\n      swap1\n      pop\n        /* \"#utility.yul\":1396:1509   */\n      jump(tag_396)\n    tag_398:\n        /* \"#utility.yul\":1543:1544   */\n      0x00\n        /* \"#utility.yul\":1534:1540   */\n      dup5\n        /* \"#utility.yul\":1529:1532   */\n      dup5\n        /* \"#utility.yul\":1525:1541   */\n      add\n        /* \"#utility.yul\":1518:1545   */\n      mstore\n        /* \"#utility.yul\":1367:1551   */\n      pop\n        /* \"#utility.yul\":1305:1551   */\n      pop\n      pop\n      pop\n      jump\t// out\n        /* \"#utility.yul\":1557:1659   */\n    tag_336:\n        /* \"#utility.yul\":1598:1604   */\n      0x00\n        /* \"#utility.yul\":1649:1651   */\n      0x1f\n        /* \"#utility.yul\":1645:1652   */\n      not\n        /* \"#utility.yul\":1640:1642   */\n      0x1f\n        /* \"#utility.yul\":1633:1638   */\n      dup4\n        /* \"#utility.yul\":1629:1643   */\n      add\n        /* \"#utility.yul\":1625:1653   */\n      and\n        /* \"#utility.yul\":1615:1653   */\n      swap1\n      pop\n        /* \"#utility.yul\":1557:1659   */\n      swap2\n      swap1\n      pop\n      jump\t// out\n        /* \"#utility.yul\":1665:2042   */\n    tag_337:\n        /* \"#utility.yul\":1753:1756   */\n      0x00\n        /* \"#utility.yul\":1781:1820   */\n      tag_401\n        /* \"#utility.yul\":1814:1819   */\n      dup3\n        /* \"#utility.yul\":1781:1820   */\n      tag_333\n      jump\t// in\n    tag_401:\n        /* \"#utility.yul\":1836:1907   */\n      tag_402\n        /* \"#utility.yul\":1900:1906   */\n      dup2\n        /* \"#utility.yul\":1895:1898   */\n      dup6\n        /* \"#utility.yul\":1836:1907   */\n      tag_334\n      jump\t// in\n    tag_402:\n        /* \"#utility.yul\":1829:1907   */\n      swap4\n      pop\n        /* \"#utility.yul\":1916:1981   */\n      tag_403\n        /* \"#utility.yul\":1974:1980   */\n      dup2\n        /* \"#utility.yul\":1969:1972   */\n      dup6\n        /* \"#utility.yul\":1962:1966   */\n      0x20\n        /* \"#utility.yul\":1955:1960   */\n      dup7\n        /* \"#utility.yul\":1951:1967   */\n      add\n        /* \"#utility.yul\":1916:1981   */\n      tag_335\n      jump\t// in\n    tag_403:\n        /* \"#utility.yul\":2006:2035   */\n      tag_404\n        /* \"#utility.yul\":2028:2034   */\n      dup2\n        /* \"#utility.yul\":2006:2035   */\n      tag_336\n      jump\t// in\n    tag_404:\n        /* \"#utility.yul\":2001:2004   */\n      dup5\n        /* \"#utility.yul\":1997:2036   */\n      add\n        /* \"#utility.yul\":1990:2036   */\n      swap2\n      pop\n        /* \"#utility.yul\":1757:2042   */\n      pop\n        /* \"#utility.yul\":1665:2042   */\n      swap3\n      swap2\n      pop\n      pop\n      jump\t// out\n        /* \"#utility.yul\":2048:2361   */\n    tag_25:\n        /* \"#utility.yul\":2161:2165   */\n      0x00\n        /* \"#utility.yul\":2199:2201   */\n      0x20\n        /* \"#utility.yul\":2188:2197   */\n      dup3\n        /* \"#utility.yul\":2184:2202   */\n      add\n        /* \"#utility.yul\":2176:2202   */\n      swap1\n      pop\n        /* \"#utility.yul\":2248:2257   */\n      dup2\n        /* \"#utility.yul\":2242:2246   */\n      dup2\n        /* \"#utility.yul\":2238:2258   */\n      sub\n        /* \"#utility.yul\":2234:2235   */\n      0x00\n        /* \"#utility.yul\":2223:2232   */\n      dup4\n        /* \"#utility.yul\":2219:2236   */\n      add\n        /* \"#utility.yul\":2212:2259   */\n      mstore\n        /* \"#utility.yul\":2276:2354   */\n      tag_406\n        /* \"#utility.yul\":2349:2353   */\n      dup2\n        /* \"#utility.yul\":2340:2346   */\n      dup5\n        /* \"#utility.yul\":2276:2354   */\n      tag_337\n      jump\t// in\n    tag_406:\n        /* \"#utility.yul\":2268:2354   */\n      swap1\n      pop\n        /* \"#utility.yul\":2048:2361   */\n      swap3\n      swap2\n      pop\n      pop\n      jump\t// out\n        /* \"#utility.yul\":2367:2484   */\n    tag_338:\n        /* \"#utility.yul\":2476:2477   */\n      0x00\n        /* \"#utility.yul\":2473:2474   */\n      dup1\n        /* \"#utility.yul\":2466:2478   */\n      revert\n        /* \"#utility.yul\":2490:2607   */\n    tag_339:\n        /* \"#utility.yul\":2599:2600   */\n      0x00\n        /* \"#utility.yul\":2596:2597   */\n      dup1\n        /* \"#utility.yul\":2589:2601   */\n      revert\n        /* \"#utility.yul\":2613:2793   */\n    tag_129:\n        /* \"#utility.yul\":2661:2738   */\n      0x4e487b7100000000000000000000000000000000000000000000000000000000\n        /* \"#utility.yul\":2658:2659   */\n      0x00\n        /* \"#utility.yul\":2651:2739   */\n      mstore\n        /* \"#utility.yul\":2758:2762   */\n      0x41\n        /* \"#utility.yul\":2755:2756   */\n      0x04\n        /* \"#utility.yul\":2748:2763   */\n      mstore\n        /* \"#utility.yul\":2782:2786   */\n      0x24\n        /* \"#utility.yul\":2779:2780   */\n      0x00\n        /* \"#utility.yul\":2772:2787   */\n      revert\n        /* \"#utility.yul\":2799:3080   */\n    tag_340:\n        /* \"#utility.yul\":2882:2909   */\n      tag_411\n        /* \"#utility.yul\":2904:2908   */\n      dup3\n        /* \"#utility.yul\":2882:2909   */\n      tag_336\n      jump\t// in\n    tag_411:\n        /* \"#utility.yul\":2874:2880   */\n      dup2\n        /* \"#utility.yul\":2870:2910   */\n      add\n        /* \"#utility.yul\":3012:3018   */\n      dup2\n        /* \"#utility.yul\":3000:3010   */\n      dup2\n        /* \"#utility.yul\":2997:3019   */\n      lt\n        /* \"#utility.yul\":2976:2994   */\n      0xffffffffffffffff\n        /* \"#utility.yul\":2964:2974   */\n      dup3\n        /* \"#utility.yul\":2961:2995   */\n      gt\n        /* \"#utility.yul\":2958:3020   */\n      or\n        /* \"#utility.yul\":2955:3043   */\n      iszero\n      tag_412\n      jumpi\n        /* \"#utility.yul\":3023:3041   */\n      tag_413\n      tag_129\n      jump\t// in\n    tag_413:\n        /* \"#utility.yul\":2955:3043   */\n    tag_412:\n        /* \"#utility.yul\":3063:3073   */\n      dup1\n        /* \"#utility.yul\":3059:3061   */\n      0x40\n        /* \"#utility.yul\":3052:3074   */\n      mstore\n        /* \"#utility.yul\":2842:3080   */\n      pop\n        /* \"#utility.yul\":2799:3080   */\n      pop\n      pop\n      jump\t// out\n        /* \"#utility.yul\":3086:3215   */\n    tag_341:\n        /* \"#utility.yul\":3120:3126   */\n      0x00\n        /* \"#utility.yul\":3147:3167   */\n      tag_415\n      tag_327\n      jump\t// in\n    tag_415:\n        /* \"#utility.yul\":3137:3167   */\n      swap1\n      pop\n        /* \"#utility.yul\":3176:3209   */\n      tag_416\n        /* \"#utility.yul\":3204:3208   */\n      dup3\n        /* \"#utility.yul\":3196:3202   */\n      dup3\n        /* \"#utility.yul\":3176:3209   */\n      tag_340\n      jump\t// in\n    tag_416:\n        /* \"#utility.yul\":3086:3215   */\n      swap2\n      swap1\n      pop\n      jump\t// out\n        /* \"#utility.yul\":3221:3529   */\n    tag_342:\n        /* \"#utility.yul\":3283:3287   */\n      0x00\n        /* \"#utility.yul\":3373:3391   */\n      0xffffffffffffffff\n        /* \"#utility.yul\":3365:3371   */\n      dup3\n        /* \"#utility.yul\":3362:3392   */\n      gt\n        /* \"#utility.yul\":3359:3415   */\n      iszero\n      tag_418\n      jumpi\n        /* \"#utility.yul\":3395:3413   */\n      tag_419\n      tag_129\n      jump\t// in\n    tag_419:\n        /* \"#utility.yul\":3359:3415   */\n    tag_418:\n        /* \"#utility.yul\":3433:3462   */\n      tag_420\n        /* \"#utility.yul\":3455:3461   */\n      dup3\n        /* \"#utility.yul\":3433:3462   */\n      tag_336\n      jump\t// in\n    tag_420:\n        /* \"#utility.yul\":3425:3462   */\n      swap1\n      pop\n        /* \"#utility.yul\":3517:3521   */\n      0x20\n        /* \"#utility.yul\":3511:3515   */\n      dup2\n        /* \"#utility.yul\":3507:3522   */\n      add\n        /* \"#utility.yul\":3499:3522   */\n      swap1\n      pop\n        /* \"#utility.yul\":3221:3529   */\n      swap2\n      swap1\n      pop\n      jump\t// out\n        /* \"#utility.yul\":3535:3681   */\n    tag_343:\n        /* \"#utility.yul\":3632:3638   */\n      dup3\n        /* \"#utility.yul\":3627:3630   */\n      dup2\n        /* \"#utility.yul\":3622:3625   */\n      dup4\n        /* \"#utility.yul\":3609:3639   */\n      calldatacopy\n        /* \"#utility.yul\":3673:3674   */\n      0x00\n        /* \"#utility.yul\":3664:3670   */\n      dup4\n        /* \"#utility.yul\":3659:3662   */\n      dup4\n        /* \"#utility.yul\":3655:3671   */\n      add\n        /* \"#utility.yul\":3648:3675   */\n      mstore\n        /* \"#utility.yul\":3535:3681   */\n      pop\n      pop\n      pop\n      jump\t// out\n        /* \"#utility.yul\":3687:4112   */\n    tag_344:\n        /* \"#utility.yul\":3765:3770   */\n      0x00\n        /* \"#utility.yul\":3790:3856   */\n      tag_423\n        /* \"#utility.yul\":3806:3855   */\n      tag_424\n        /* \"#utility.yul\":3848:3854   */\n      dup5\n        /* \"#utility.yul\":3806:3855   */\n      tag_342\n      jump\t// in\n    tag_424:\n        /* \"#utility.yul\":3790:3856   */\n      tag_341\n      jump\t// in\n    tag_423:\n        /* \"#utility.yul\":3781:3856   */\n      swap1\n      pop\n        /* \"#utility.yul\":3879:3885   */\n      dup3\n        /* \"#utility.yul\":3872:3877   */\n      dup2\n        /* \"#utility.yul\":3865:3886   */\n      mstore\n        /* \"#utility.yul\":3917:3921   */\n      0x20\n        /* \"#utility.yul\":3910:3915   */\n      dup2\n        /* \"#utility.yul\":3906:3922   */\n      add\n        /* \"#utility.yul\":3955:3958   */\n      dup5\n        /* \"#utility.yul\":3946:3952   */\n      dup5\n        /* \"#utility.yul\":3941:3944   */\n      dup5\n        /* \"#utility.yul\":3937:3953   */\n      add\n        /* \"#utility.yul\":3934:3959   */\n      gt\n        /* \"#utility.yul\":3931:4043   */\n      iszero\n      tag_425\n      jumpi\n        /* \"#utility.yul\":3962:4041   */\n      tag_426\n      tag_339\n      jump\t// in\n    tag_426:\n        /* \"#utility.yul\":3931:4043   */\n    tag_425:\n        /* \"#utility.yul\":4052:4106   */\n      tag_427\n        /* \"#utility.yul\":4099:4105   */\n      dup5\n        /* \"#utility.yul\":4094:4097   */\n      dup3\n        /* \"#utility.yul\":4089:4092   */\n      dup6\n        /* \"#utility.yul\":4052:4106   */\n      tag_343\n      jump\t// in\n    tag_427:\n        /* \"#utility.yul\":3771:4112   */\n      pop\n        /* \"#utility.yul\":3687:4112   */\n      swap4\n      swap3\n      pop\n      pop\n      pop\n      jump\t// out\n        /* \"#utility.yul\":4132:4472   */\n    tag_345:\n        /* \"#utility.yul\":4188:4193   */\n      0x00\n        /* \"#utility.yul\":4237:4240   */\n      dup3\n        /* \"#utility.yul\":4230:4234   */\n      0x1f\n        /* \"#utility.yul\":4222:4228   */\n      dup4\n        /* \"#utility.yul\":4218:4235   */\n      add\n        /* \"#utility.yul\":4214:4241   */\n      slt\n        /* \"#utility.yul\":4204:4326   */\n      tag_429\n      jumpi\n        /* \"#utility.yul\":4245:4324   */\n      tag_430\n      tag_338\n      jump\t// in\n    tag_430:\n        /* \"#utility.yul\":4204:4326   */\n    tag_429:\n        /* \"#utility.yul\":4362:4368   */\n      dup2\n        /* \"#utility.yul\":4349:4369   */\n      calldataload\n        /* \"#utility.yul\":4387:4466   */\n      tag_431\n        /* \"#utility.yul\":4462:4465   */\n      dup5\n        /* \"#utility.yul\":4454:4460   */\n      dup3\n        /* \"#utility.yul\":4447:4451   */\n      0x20\n        /* \"#utility.yul\":4439:4445   */\n      dup7\n        /* \"#utility.yul\":4435:4452   */\n      add\n        /* \"#utility.yul\":4387:4466   */\n      tag_344\n      jump\t// in\n    tag_431:\n        /* \"#utility.yul\":4378:4466   */\n      swap2\n      pop\n        /* \"#utility.yul\":4194:4472   */\n      pop\n        /* \"#utility.yul\":4132:4472   */\n      swap3\n      swap2\n      pop\n      pop\n      jump\t// out\n        /* \"#utility.yul\":4478:4987   */\n    tag_35:\n        /* \"#utility.yul\":4547:4553   */\n      0x00\n        /* \"#utility.yul\":4596:4598   */\n      0x20\n        /* \"#utility.yul\":4584:4593   */\n      dup3\n        /* \"#utility.yul\":4575:4582   */\n      dup5\n        /* \"#utility.yul\":4571:4594   */\n      sub\n        /* \"#utility.yul\":4567:4599   */\n      slt\n        /* \"#utility.yul\":4564:4683   */\n      iszero\n      tag_433\n      jumpi\n        /* \"#utility.yul\":4602:4681   */\n      tag_434\n      tag_328\n      jump\t// in\n    tag_434:\n        /* \"#utility.yul\":4564:4683   */\n    tag_433:\n        /* \"#utility.yul\":4750:4751   */\n      0x00\n        /* \"#utility.yul\":4739:4748   */\n      dup3\n        /* \"#utility.yul\":4735:4752   */\n      add\n        /* \"#utility.yul\":4722:4753   */\n      calldataload\n        /* \"#utility.yul\":4780:4798   */\n      0xffffffffffffffff\n        /* \"#utility.yul\":4772:4778   */\n      dup2\n        /* \"#utility.yul\":4769:4799   */\n      gt\n        /* \"#utility.yul\":4766:4883   */\n      iszero\n      tag_435\n      jumpi\n        /* \"#utility.yul\":4802:4881   */\n      tag_436\n      tag_329\n      jump\t// in\n    tag_436:\n        /* \"#utility.yul\":4766:4883   */\n    tag_435:\n        /* \"#utility.yul\":4907:4970   */\n      tag_437\n        /* \"#utility.yul\":4962:4969   */\n      dup5\n        /* \"#utility.yul\":4953:4959   */\n      dup3\n        /* \"#utility.yul\":4942:4951   */\n      dup6\n        /* \"#utility.yul\":4938:4960   */\n      add\n        /* \"#utility.yul\":4907:4970   */\n      tag_345\n      jump\t// in\n    tag_437:\n        /* \"#utility.yul\":4897:4970   */\n      swap2\n      pop\n        /* \"#utility.yul\":4693:4980   */\n      pop\n        /* \"#utility.yul\":4478:4987   */\n      swap3\n      swap2\n      pop\n      pop\n      jump\t// out\n        /* \"#utility.yul\":4993:5117   */\n    tag_346:\n        /* \"#utility.yul\":5070:5076   */\n      0x00\n        /* \"#utility.yul\":5104:5109   */\n      dup2\n        /* \"#utility.yul\":5098:5110   */\n      mload\n        /* \"#utility.yul\":5088:5110   */\n      swap1\n      pop\n        /* \"#utility.yul\":4993:5117   */\n      swap2\n      swap1\n      pop\n      jump\t// out\n        /* \"#utility.yul\":5123:5317   */\n    tag_347:\n        /* \"#utility.yul\":5232:5243   */\n      0x00\n        /* \"#utility.yul\":5266:5272   */\n      dup3\n        /* \"#utility.yul\":5261:5264   */\n      dup3\n        /* \"#utility.yul\":5254:5273   */\n      mstore\n        /* \"#utility.yul\":5306:5310   */\n      0x20\n        /* \"#utility.yul\":5301:5304   */\n      dup3\n        /* \"#utility.yul\":5297:5311   */\n      add\n        /* \"#utility.yul\":5282:5311   */\n      swap1\n      pop\n        /* \"#utility.yul\":5123:5317   */\n      swap3\n      swap2\n      pop\n      pop\n      jump\t// out\n        /* \"#utility.yul\":5323:5465   */\n    tag_348:\n        /* \"#utility.yul\":5400:5404   */\n      0x00\n        /* \"#utility.yul\":5423:5426   */\n      dup2\n        /* \"#utility.yul\":5415:5426   */\n      swap1\n      pop\n        /* \"#utility.yul\":5453:5457   */\n      0x20\n        /* \"#utility.yul\":5448:5451   */\n      dup3\n        /* \"#utility.yul\":5444:5458   */\n      add\n        /* \"#utility.yul\":5436:5458   */\n      swap1\n      pop\n        /* \"#utility.yul\":5323:5465   */\n      swap2\n      swap1\n      pop\n      jump\t// out\n        /* \"#utility.yul\":5471:5630   */\n    tag_349:\n        /* \"#utility.yul\":5545:5556   */\n      0x00\n        /* \"#utility.yul\":5579:5585   */\n      dup3\n        /* \"#utility.yul\":5574:5577   */\n      dup3\n        /* \"#utility.yul\":5567:5586   */\n      mstore\n        /* \"#utility.yul\":5619:5623   */\n      0x20\n        /* \"#utility.yul\":5614:5617   */\n      dup3\n        /* \"#utility.yul\":5610:5624   */\n      add\n        /* \"#utility.yul\":5595:5624   */\n      swap1\n      pop\n        /* \"#utility.yul\":5471:5630   */\n      swap3\n      swap2\n      pop\n      pop\n      jump\t// out\n        /* \"#utility.yul\":5636:5993   */\n    tag_350:\n        /* \"#utility.yul\":5714:5717   */\n      0x00\n        /* \"#utility.yul\":5742:5781   */\n      tag_443\n        /* \"#utility.yul\":5775:5780   */\n      dup3\n        /* \"#utility.yul\":5742:5781   */\n      tag_333\n      jump\t// in\n    tag_443:\n        /* \"#utility.yul\":5797:5858   */\n      tag_444\n        /* \"#utility.yul\":5851:5857   */\n      dup2\n        /* \"#utility.yul\":5846:5849   */\n      dup6\n        /* \"#utility.yul\":5797:5858   */\n      tag_349\n      jump\t// in\n    tag_444:\n        /* \"#utility.yul\":5790:5858   */\n      swap4\n      pop\n        /* \"#utility.yul\":5867:5932   */\n      tag_445\n        /* \"#utility.yul\":5925:5931   */\n      dup2\n        /* \"#utility.yul\":5920:5923   */\n      dup6\n        /* \"#utility.yul\":5913:5917   */\n      0x20\n        /* \"#utility.yul\":5906:5911   */\n      dup7\n        /* \"#utility.yul\":5902:5918   */\n      add\n        /* \"#utility.yul\":5867:5932   */\n      tag_335\n      jump\t// in\n    tag_445:\n        /* \"#utility.yul\":5957:5986   */\n      tag_446\n        /* \"#utility.yul\":5979:5985   */\n      dup2\n        /* \"#utility.yul\":5957:5986   */\n      tag_336\n      jump\t// in\n    tag_446:\n        /* \"#utility.yul\":5952:5955   */\n      dup5\n        /* \"#utility.yul\":5948:5987   */\n      add\n        /* \"#utility.yul\":5941:5987   */\n      swap2\n      pop\n        /* \"#utility.yul\":5718:5993   */\n      pop\n        /* \"#utility.yul\":5636:5993   */\n      swap3\n      swap2\n      pop\n      pop\n      jump\t// out\n        /* \"#utility.yul\":5999:6195   */\n    tag_351:\n        /* \"#utility.yul\":6088:6098   */\n      0x00\n        /* \"#utility.yul\":6123:6189   */\n      tag_448\n        /* \"#utility.yul\":6185:6188   */\n      dup4\n        /* \"#utility.yul\":6177:6183   */\n      dup4\n        /* \"#utility.yul\":6123:6189   */\n      tag_350\n      jump\t// in\n    tag_448:\n        /* \"#utility.yul\":6109:6189   */\n      swap1\n      pop\n        /* \"#utility.yul\":5999:6195   */\n      swap3\n      swap2\n      pop\n      pop\n      jump\t// out\n        /* \"#utility.yul\":6201:6324   */\n    tag_352:\n        /* \"#utility.yul\":6281:6285   */\n      0x00\n        /* \"#utility.yul\":6313:6317   */\n      0x20\n        /* \"#utility.yul\":6308:6311   */\n      dup3\n        /* \"#utility.yul\":6304:6318   */\n      add\n        /* \"#utility.yul\":6296:6318   */\n      swap1\n      pop\n        /* \"#utility.yul\":6201:6324   */\n      swap2\n      swap1\n      pop\n      jump\t// out\n        /* \"#utility.yul\":6358:7349   */\n    tag_353:\n        /* \"#utility.yul\":6497:6500   */\n      0x00\n        /* \"#utility.yul\":6526:6590   */\n      tag_451\n        /* \"#utility.yul\":6584:6589   */\n      dup3\n        /* \"#utility.yul\":6526:6590   */\n      tag_346\n      jump\t// in\n    tag_451:\n        /* \"#utility.yul\":6606:6702   */\n      tag_452\n        /* \"#utility.yul\":6695:6701   */\n      dup2\n        /* \"#utility.yul\":6690:6693   */\n      dup6\n        /* \"#utility.yul\":6606:6702   */\n      tag_347\n      jump\t// in\n    tag_452:\n        /* \"#utility.yul\":6599:6702   */\n      swap4\n      pop\n        /* \"#utility.yul\":6728:6731   */\n      dup4\n        /* \"#utility.yul\":6773:6777   */\n      0x20\n        /* \"#utility.yul\":6765:6771   */\n      dup3\n        /* \"#utility.yul\":6761:6778   */\n      mul\n        /* \"#utility.yul\":6756:6759   */\n      dup6\n        /* \"#utility.yul\":6752:6779   */\n      add\n        /* \"#utility.yul\":6803:6869   */\n      tag_453\n        /* \"#utility.yul\":6863:6868   */\n      dup6\n        /* \"#utility.yul\":6803:6869   */\n      tag_348\n      jump\t// in\n    tag_453:\n        /* \"#utility.yul\":6892:6899   */\n      dup1\n        /* \"#utility.yul\":6923:6924   */\n      0x00\n        /* \"#utility.yul\":6908:7304   */\n    tag_454:\n        /* \"#utility.yul\":6933:6939   */\n      dup6\n        /* \"#utility.yul\":6930:6931   */\n      dup2\n        /* \"#utility.yul\":6927:6940   */\n      lt\n        /* \"#utility.yul\":6908:7304   */\n      iszero\n      tag_456\n      jumpi\n        /* \"#utility.yul\":7004:7013   */\n      dup5\n        /* \"#utility.yul\":6998:7002   */\n      dup5\n        /* \"#utility.yul\":6994:7014   */\n      sub\n        /* \"#utility.yul\":6989:6992   */\n      dup10\n        /* \"#utility.yul\":6982:7015   */\n      mstore\n        /* \"#utility.yul\":7055:7061   */\n      dup2\n        /* \"#utility.yul\":7049:7062   */\n      mload\n        /* \"#utility.yul\":7083:7167   */\n      tag_457\n        /* \"#utility.yul\":7162:7166   */\n      dup6\n        /* \"#utility.yul\":7147:7160   */\n      dup3\n        /* \"#utility.yul\":7083:7167   */\n      tag_351\n      jump\t// in\n    tag_457:\n        /* \"#utility.yul\":7075:7167   */\n      swap5\n      pop\n        /* \"#utility.yul\":7190:7260   */\n      tag_458\n        /* \"#utility.yul\":7253:7259   */\n      dup4\n        /* \"#utility.yul\":7190:7260   */\n      tag_352\n      jump\t// in\n    tag_458:\n        /* \"#utility.yul\":7180:7260   */\n      swap3\n      pop\n        /* \"#utility.yul\":7289:7293   */\n      0x20\n        /* \"#utility.yul\":7284:7287   */\n      dup11\n        /* \"#utility.yul\":7280:7294   */\n      add\n        /* \"#utility.yul\":7273:7294   */\n      swap10\n      pop\n        /* \"#utility.yul\":6968:7304   */\n      pop\n        /* \"#utility.yul\":6955:6956   */\n      0x01\n        /* \"#utility.yul\":6952:6953   */\n      dup2\n        /* \"#utility.yul\":6948:6957   */\n      add\n        /* \"#utility.yul\":6943:6957   */\n      swap1\n      pop\n        /* \"#utility.yul\":6908:7304   */\n      jump(tag_454)\n    tag_456:\n        /* \"#utility.yul\":6912:6926   */\n      pop\n        /* \"#utility.yul\":7320:7324   */\n      dup3\n        /* \"#utility.yul\":7313:7324   */\n      swap8\n      pop\n        /* \"#utility.yul\":7340:7343   */\n      dup8\n        /* \"#utility.yul\":7333:7343   */\n      swap6\n      pop\n        /* \"#utility.yul\":6502:7349   */\n      pop\n      pop\n      pop\n      pop\n      pop\n        /* \"#utility.yul\":6358:7349   */\n      swap3\n      swap2\n      pop\n      pop\n      jump\t// out\n        /* \"#utility.yul\":7355:7768   */\n    tag_40:\n        /* \"#utility.yul\":7518:7522   */\n      0x00\n        /* \"#utility.yul\":7556:7558   */\n      0x20\n        /* \"#utility.yul\":7545:7554   */\n      dup3\n        /* \"#utility.yul\":7541:7559   */\n      add\n        /* \"#utility.yul\":7533:7559   */\n      swap1\n      pop\n        /* \"#utility.yul\":7605:7614   */\n      dup2\n        /* \"#utility.yul\":7599:7603   */\n      dup2\n        /* \"#utility.yul\":7595:7615   */\n      sub\n        /* \"#utility.yul\":7591:7592   */\n      0x00\n        /* \"#utility.yul\":7580:7589   */\n      dup4\n        /* \"#utility.yul\":7576:7593   */\n      add\n        /* \"#utility.yul\":7569:7616   */\n      mstore\n        /* \"#utility.yul\":7633:7761   */\n      tag_460\n        /* \"#utility.yul\":7756:7760   */\n      dup2\n        /* \"#utility.yul\":7747:7753   */\n      dup5\n        /* \"#utility.yul\":7633:7761   */\n      tag_353\n      jump\t// in\n    tag_460:\n        /* \"#utility.yul\":7625:7761   */\n      swap1\n      pop\n        /* \"#utility.yul\":7355:7768   */\n      swap3\n      swap2\n      pop\n      pop\n      jump\t// out\n        /* \"#utility.yul\":7774:7864   */\n    tag_354:\n        /* \"#utility.yul\":7808:7815   */\n      0x00\n        /* \"#utility.yul\":7851:7856   */\n      dup2\n        /* \"#utility.yul\":7844:7857   */\n      iszero\n        /* \"#utility.yul\":7837:7858   */\n      iszero\n        /* \"#utility.yul\":7826:7858   */\n      swap1\n      pop\n        /* \"#utility.yul\":7774:7864   */\n      swap2\n      swap1\n      pop\n      jump\t// out\n        /* \"#utility.yul\":7870:7979   */\n    tag_355:\n        /* \"#utility.yul\":7951:7972   */\n      tag_463\n        /* \"#utility.yul\":7966:7971   */\n      dup2\n        /* \"#utility.yul\":7951:7972   */\n      tag_354\n      jump\t// in\n    tag_463:\n        /* \"#utility.yul\":7946:7949   */\n      dup3\n        /* \"#utility.yul\":7939:7973   */\n      mstore\n        /* \"#utility.yul\":7870:7979   */\n      pop\n      pop\n      jump\t// out\n        /* \"#utility.yul\":7985:8103   */\n    tag_356:\n        /* \"#utility.yul\":8072:8096   */\n      tag_465\n        /* \"#utility.yul\":8090:8095   */\n      dup2\n        /* \"#utility.yul\":8072:8096   */\n      tag_330\n      jump\t// in\n    tag_465:\n        /* \"#utility.yul\":8067:8070   */\n      dup3\n        /* \"#utility.yul\":8060:8097   */\n      mstore\n        /* \"#utility.yul\":7985:8103   */\n      pop\n      pop\n      jump\t// out\n        /* \"#utility.yul\":8109:8630   */\n    tag_48:\n        /* \"#utility.yul\":8272:8276   */\n      0x00\n        /* \"#utility.yul\":8310:8312   */\n      0x60\n        /* \"#utility.yul\":8299:8308   */\n      dup3\n        /* \"#utility.yul\":8295:8313   */\n      add\n        /* \"#utility.yul\":8287:8313   */\n      swap1\n      pop\n        /* \"#utility.yul\":8359:8368   */\n      dup2\n        /* \"#utility.yul\":8353:8357   */\n      dup2\n        /* \"#utility.yul\":8349:8369   */\n      sub\n        /* \"#utility.yul\":8345:8346   */\n      0x00\n        /* \"#utility.yul\":8334:8343   */\n      dup4\n        /* \"#utility.yul\":8330:8347   */\n      add\n        /* \"#utility.yul\":8323:8370   */\n      mstore\n        /* \"#utility.yul\":8387:8465   */\n      tag_467\n        /* \"#utility.yul\":8460:8464   */\n      dup2\n        /* \"#utility.yul\":8451:8457   */\n      dup7\n        /* \"#utility.yul\":8387:8465   */\n      tag_337\n      jump\t// in\n    tag_467:\n        /* \"#utility.yul\":8379:8465   */\n      swap1\n      pop\n        /* \"#utility.yul\":8475:8541   */\n      tag_468\n        /* \"#utility.yul\":8537:8539   */\n      0x20\n        /* \"#utility.yul\":8526:8535   */\n      dup4\n        /* \"#utility.yul\":8522:8540   */\n      add\n        /* \"#utility.yul\":8513:8519   */\n      dup6\n        /* \"#utility.yul\":8475:8541   */\n      tag_355\n      jump\t// in\n    tag_468:\n        /* \"#utility.yul\":8551:8623   */\n      tag_469\n        /* \"#utility.yul\":8619:8621   */\n      0x40\n        /* \"#utility.yul\":8608:8617   */\n      dup4\n        /* \"#utility.yul\":8604:8622   */\n      add\n        /* \"#utility.yul\":8595:8601   */\n      dup5\n        /* \"#utility.yul\":8551:8623   */\n      tag_356\n      jump\t// in\n    tag_469:\n        /* \"#utility.yul\":8109:8630   */\n      swap5\n      swap4\n      pop\n      pop\n      pop\n      pop\n      jump\t// out\n        /* \"#utility.yul\":8636:8816   */\n    tag_76:\n        /* \"#utility.yul\":8684:8761   */\n      0x4e487b7100000000000000000000000000000000000000000000000000000000\n        /* \"#utility.yul\":8681:8682   */\n      0x00\n        /* \"#utility.yul\":8674:8762   */\n      mstore\n        /* \"#utility.yul\":8781:8785   */\n      0x32\n        /* \"#utility.yul\":8778:8779   */\n      0x04\n        /* \"#utility.yul\":8771:8786   */\n      mstore\n        /* \"#utility.yul\":8805:8809   */\n      0x24\n        /* \"#utility.yul\":8802:8803   */\n      0x00\n        /* \"#utility.yul\":8795:8810   */\n      revert\n        /* \"#utility.yul\":8822:9002   */\n    tag_357:\n        /* \"#utility.yul\":8870:8947   */\n      0x4e487b7100000000000000000000000000000000000000000000000000000000\n        /* \"#utility.yul\":8867:8868   */\n      0x00\n        /* \"#utility.yul\":8860:8948   */\n      mstore\n        /* \"#utility.yul\":8967:8971   */\n      0x22\n        /* \"#utility.yul\":8964:8965   */\n      0x04\n        /* \"#utility.yul\":8957:8972   */\n      mstore\n        /* \"#utility.yul\":8991:8995   */\n      0x24\n        /* \"#utility.yul\":8988:8989   */\n      0x00\n        /* \"#utility.yul\":8981:8996   */\n      revert\n        /* \"#utility.yul\":9008:9328   */\n    tag_79:\n        /* \"#utility.yul\":9052:9058   */\n      0x00\n        /* \"#utility.yul\":9089:9090   */\n      0x02\n        /* \"#utility.yul\":9083:9087   */\n      dup3\n        /* \"#utility.yul\":9079:9091   */\n      div\n        /* \"#utility.yul\":9069:9091   */\n      swap1\n      pop\n        /* \"#utility.yul\":9136:9137   */\n      0x01\n        /* \"#utility.yul\":9130:9134   */\n      dup3\n        /* \"#utility.yul\":9126:9138   */\n      and\n        /* \"#utility.yul\":9157:9175   */\n      dup1\n        /* \"#utility.yul\":9147:9228   */\n      tag_473\n      jumpi\n        /* \"#utility.yul\":9213:9217   */\n      0x7f\n        /* \"#utility.yul\":9205:9211   */\n      dup3\n        /* \"#utility.yul\":9201:9218   */\n      and\n        /* \"#utility.yul\":9191:9218   */\n      swap2\n      pop\n        /* \"#utility.yul\":9147:9228   */\n    tag_473:\n        /* \"#utility.yul\":9275:9277   */\n      0x20\n        /* \"#utility.yul\":9267:9273   */\n      dup3\n        /* \"#utility.yul\":9264:9278   */\n      lt\n        /* \"#utility.yul\":9244:9262   */\n      dup2\n        /* \"#utility.yul\":9241:9279   */\n      sub\n        /* \"#utility.yul\":9238:9322   */\n      tag_474\n      jumpi\n        /* \"#utility.yul\":9294:9312   */\n      tag_475\n      tag_357\n      jump\t// in\n    tag_475:\n        /* \"#utility.yul\":9238:9322   */\n    tag_474:\n        /* \"#utility.yul\":9059:9328   */\n      pop\n        /* \"#utility.yul\":9008:9328   */\n      swap2\n      swap1\n      pop\n      jump\t// out\n        /* \"#utility.yul\":9334:9514   */\n    tag_358:\n        /* \"#utility.yul\":9382:9459   */\n      0x4e487b7100000000000000000000000000000000000000000000000000000000\n        /* \"#utility.yul\":9379:9380   */\n      0x00\n        /* \"#utility.yul\":9372:9460   */\n      mstore\n        /* \"#utility.yul\":9479:9483   */\n      0x11\n        /* \"#utility.yul\":9476:9477   */\n      0x04\n        /* \"#utility.yul\":9469:9484   */\n      mstore\n        /* \"#utility.yul\":9503:9507   */\n      0x24\n        /* \"#utility.yul\":9500:9501   */\n      0x00\n        /* \"#utility.yul\":9493:9508   */\n      revert\n        /* \"#utility.yul\":9520:9714   */\n    tag_89:\n        /* \"#utility.yul\":9560:9564   */\n      0x00\n        /* \"#utility.yul\":9580:9600   */\n      tag_478\n        /* \"#utility.yul\":9598:9599   */\n      dup3\n        /* \"#utility.yul\":9580:9600   */\n      tag_330\n      jump\t// in\n    tag_478:\n        /* \"#utility.yul\":9575:9600   */\n      swap2\n      pop\n        /* \"#utility.yul\":9614:9634   */\n      tag_479\n        /* \"#utility.yul\":9632:9633   */\n      dup4\n        /* \"#utility.yul\":9614:9634   */\n      tag_330\n      jump\t// in\n    tag_479:\n        /* \"#utility.yul\":9609:9634   */\n      swap3\n      pop\n        /* \"#utility.yul\":9658:9659   */\n      dup3\n        /* \"#utility.yul\":9655:9656   */\n      dup3\n        /* \"#utility.yul\":9651:9660   */\n      sub\n        /* \"#utility.yul\":9643:9660   */\n      swap1\n      pop\n        /* \"#utility.yul\":9682:9683   */\n      dup2\n        /* \"#utility.yul\":9676:9680   */\n      dup2\n        /* \"#utility.yul\":9673:9684   */\n      gt\n        /* \"#utility.yul\":9670:9707   */\n      iszero\n      tag_480\n      jumpi\n        /* \"#utility.yul\":9687:9705   */\n      tag_481\n      tag_358\n      jump\t// in\n    tag_481:\n        /* \"#utility.yul\":9670:9707   */\n    tag_480:\n        /* \"#utility.yul\":9520:9714   */\n      swap3\n      swap2\n      pop\n      pop\n      jump\t// out\n        /* \"#utility.yul\":9720:9911   */\n    tag_91:\n        /* \"#utility.yul\":9760:9763   */\n      0x00\n        /* \"#utility.yul\":9779:9799   */\n      tag_483\n        /* \"#utility.yul\":9797:9798   */\n      dup3\n        /* \"#utility.yul\":9779:9799   */\n      tag_330\n      jump\t// in\n    tag_483:\n        /* \"#utility.yul\":9774:9799   */\n      swap2\n      pop\n        /* \"#utility.yul\":9813:9833   */\n      tag_484\n        /* \"#utility.yul\":9831:9832   */\n      dup4\n        /* \"#utility.yul\":9813:9833   */\n      tag_330\n      jump\t// in\n    tag_484:\n        /* \"#utility.yul\":9808:9833   */\n      swap3\n      pop\n        /* \"#utility.yul\":9856:9857   */\n      dup3\n        /* \"#utility.yul\":9853:9854   */\n      dup3\n        /* \"#utility.yul\":9849:9858   */\n      add\n        /* \"#utility.yul\":9842:9858   */\n      swap1\n      pop\n        /* \"#utility.yul\":9877:9880   */\n      dup1\n        /* \"#utility.yul\":9874:9875   */\n      dup3\n        /* \"#utility.yul\":9871:9881   */\n      gt\n        /* \"#utility.yul\":9868:9904   */\n      iszero\n      tag_485\n      jumpi\n        /* \"#utility.yul\":9884:9902   */\n      tag_486\n      tag_358\n      jump\t// in\n    tag_486:\n        /* \"#utility.yul\":9868:9904   */\n    tag_485:\n        /* \"#utility.yul\":9720:9911   */\n      swap3\n      swap2\n      pop\n      pop\n      jump\t// out\n        /* \"#utility.yul\":9917:10066   */\n    tag_359:\n        /* \"#utility.yul\":9966:9972   */\n      0x00\n        /* \"#utility.yul\":10000:10005   */\n      dup2\n        /* \"#utility.yul\":9994:10006   */\n      sload\n        /* \"#utility.yul\":9984:10006   */\n      swap1\n      pop\n        /* \"#utility.yul\":10026:10059   */\n      tag_488\n        /* \"#utility.yul\":10052:10058   */\n      dup2\n        /* \"#utility.yul\":10026:10059   */\n      tag_79\n      jump\t// in\n    tag_488:\n        /* \"#utility.yul\":10016:10059   */\n      swap1\n      pop\n        /* \"#utility.yul\":9917:10066   */\n      swap2\n      swap1\n      pop\n      jump\t// out\n        /* \"#utility.yul\":10072:10213   */\n    tag_360:\n        /* \"#utility.yul\":10121:10125   */\n      0x00\n        /* \"#utility.yul\":10144:10147   */\n      dup2\n        /* \"#utility.yul\":10136:10147   */\n      swap1\n      pop\n        /* \"#utility.yul\":10167:10170   */\n      dup2\n        /* \"#utility.yul\":10164:10165   */\n      0x00\n        /* \"#utility.yul\":10157:10171   */\n      mstore\n        /* \"#utility.yul\":10201:10205   */\n      0x20\n        /* \"#utility.yul\":10198:10199   */\n      0x00\n        /* \"#utility.yul\":10188:10206   */\n      keccak256\n        /* \"#utility.yul\":10180:10206   */\n      swap1\n      pop\n        /* \"#utility.yul\":10072:10213   */\n      swap2\n      swap1\n      pop\n      jump\t// out\n        /* \"#utility.yul\":10219:10312   */\n    tag_361:\n        /* \"#utility.yul\":10256:10262   */\n      0x00\n        /* \"#utility.yul\":10303:10305   */\n      0x20\n        /* \"#utility.yul\":10298:10300   */\n      0x1f\n        /* \"#utility.yul\":10291:10296   */\n      dup4\n        /* \"#utility.yul\":10287:10301   */\n      add\n        /* \"#utility.yul\":10283:10306   */\n      div\n        /* \"#utility.yul\":10273:10306   */\n      swap1\n      pop\n        /* \"#utility.yul\":10219:10312   */\n      swap2\n      swap1\n      pop\n      jump\t// out\n        /* \"#utility.yul\":10318:10425   */\n    tag_362:\n        /* \"#utility.yul\":10362:10370   */\n      0x00\n        /* \"#utility.yul\":10412:10417   */\n      dup3\n        /* \"#utility.yul\":10406:10410   */\n      dup3\n        /* \"#utility.yul\":10402:10418   */\n      shl\n        /* \"#utility.yul\":10381:10418   */\n      swap1\n      pop\n        /* \"#utility.yul\":10318:10425   */\n      swap3\n      swap2\n      pop\n      pop\n      jump\t// out\n        /* \"#utility.yul\":10431:10824   */\n    tag_363:\n        /* \"#utility.yul\":10500:10506   */\n      0x00\n        /* \"#utility.yul\":10550:10551   */\n      0x08\n        /* \"#utility.yul\":10538:10548   */\n      dup4\n        /* \"#utility.yul\":10534:10552   */\n      mul\n        /* \"#utility.yul\":10573:10670   */\n      tag_493\n        /* \"#utility.yul\":10603:10669   */\n      0xffffffffffffffffffffffffffffffffffffffffffffffffffffffffffffffff\n        /* \"#utility.yul\":10592:10601   */\n      dup3\n        /* \"#utility.yul\":10573:10670   */\n      tag_362\n      jump\t// in\n    tag_493:\n        /* \"#utility.yul\":10691:10730   */\n      tag_494\n        /* \"#utility.yul\":10721:10729   */\n      dup7\n        /* \"#utility.yul\":10710:10719   */\n      dup4\n        /* \"#utility.yul\":10691:10730   */\n      tag_362\n      jump\t// in\n    tag_494:\n        /* \"#utility.yul\":10679:10730   */\n      swap6\n      pop\n        /* \"#utility.yul\":10763:10767   */\n      dup1\n        /* \"#utility.yul\":10759:10768   */\n      not\n        /* \"#utility.yul\":10752:10757   */\n      dup5\n        /* \"#utility.yul\":10748:10769   */\n      and\n        /* \"#utility.yul\":10739:10769   */\n      swap4\n      pop\n        /* \"#utility.yul\":10812:10816   */\n      dup1\n        /* \"#utility.yul\":10802:10810   */\n      dup7\n        /* \"#utility.yul\":10798:10817   */\n      and\n        /* \"#utility.yul\":10791:10796   */\n      dup5\n        /* \"#utility.yul\":10788:10818   */\n      or\n        /* \"#utility.yul\":10778:10818   */\n      swap3\n      pop\n        /* \"#utility.yul\":10507:10824   */\n      pop\n      pop\n        /* \"#utility.yul\":10431:10824   */\n      swap4\n      swap3\n      pop\n      pop\n      pop\n      jump\t// out\n        /* \"#utility.yul\":10830:10890   */\n    tag_364:\n        /* \"#utility.yul\":10858:10861   */\n      0x00\n        /* \"#utility.yul\":10879:10884   */\n      dup2\n        /* \"#utility.yul\":10872:10884   */\n      swap1\n      pop\n        /* \"#utility.yul\":10830:10890   */\n      swap2\n      swap1\n      pop\n      jump\t// out\n        /* \"#utility.yul\":10896:11038   */\n    tag_365:\n        /* \"#utility.yul\":10946:10955   */\n      0x00\n        /* \"#utility.yul\":10979:11032   */\n      tag_497\n        /* \"#utility.yul\":10997:11031   */\n      tag_498\n        /* \"#utility.yul\":11006:11030   */\n      tag_499\n        /* \"#utility.yul\":11024:11029   */\n      dup5\n        /* \"#utility.yul\":11006:11030   */\n      tag_330\n      jump\t// in\n    tag_499:\n        /* \"#utility.yul\":10997:11031   */\n      tag_364\n      jump\t// in\n    tag_498:\n        /* \"#utility.yul\":10979:11032   */\n      tag_330\n      jump\t// in\n    tag_497:\n        /* \"#utility.yul\":10966:11032   */\n      swap1\n      pop\n        /* \"#utility.yul\":10896:11038   */\n      swap2\n      swap1\n      pop\n      jump\t// out\n        /* \"#utility.yul\":11044:11119   */\n    tag_366:\n        /* \"#utility.yul\":11087:11090   */\n      0x00\n        /* \"#utility.yul\":11108:11113   */\n      dup2\n        /* \"#utility.yul\":11101:11113   */\n      swap1\n      pop\n        /* \"#utility.yul\":11044:11119   */\n      swap2\n      swap1\n      pop\n      jump\t// out\n        /* \"#utility.yul\":11125:11394   */\n    tag_367:\n        /* \"#utility.yul\":11235:11274   */\n      tag_502\n        /* \"#utility.yul\":11266:11273   */\n      dup4\n        /* \"#utility.yul\":11235:11274   */\n      tag_365\n      jump\t// in\n    tag_502:\n        /* \"#utility.yul\":11296:11387   */\n      tag_503\n        /* \"#utility.yul\":11345:11386   */\n      tag_504\n        /* \"#utility.yul\":11369:11385   */\n      dup3\n        /* \"#utility.yul\":11345:11386   */\n      tag_366\n      jump\t// in\n    tag_504:\n        /* \"#utility.yul\":11337:11343   */\n      dup5\n        /* \"#utility.yul\":11330:11334   */\n      dup5\n        /* \"#utility.yul\":11324:11335   */\n      sload\n        /* \"#utility.yul\":11296:11387   */\n      tag_363\n      jump\t// in\n    tag_503:\n        /* \"#utility.yul\":11290:11294   */\n      dup3\n        /* \"#utility.yul\":11283:11388   */\n      sstore\n        /* \"#utility.yul\":11201:11394   */\n      pop\n        /* \"#utility.yul\":11125:11394   */\n      pop\n      pop\n      pop\n      jump\t// out\n        /* \"#utility.yul\":11400:11473   */\n    tag_368:\n        /* \"#utility.yul\":11445:11448   */\n      0x00\n        /* \"#utility.yul\":11400:11473   */\n      swap1\n      jump\t// out\n        /* \"#utility.yul\":11479:11668   */\n    tag_369:\n        /* \"#utility.yul\":11556:11588   */\n      tag_507\n      tag_368\n      jump\t// in\n    tag_507:\n        /* \"#utility.yul\":11597:11662   */\n      tag_508\n        /* \"#utility.yul\":11655:11661   */\n      dup2\n        /* \"#utility.yul\":11647:11653   */\n      dup5\n        /* \"#utility.yul\":11641:11645   */\n      dup5\n        /* \"#utility.yul\":11597:11662   */\n      tag_367\n      jump\t// in\n    tag_508:\n        /* \"#utility.yul\":11532:11668   */\n      pop\n        /* \"#utility.yul\":11479:11668   */\n      pop\n      pop\n      jump\t// out\n        /* \"#utility.yul\":11674:11860   */\n    tag_370:\n        /* \"#utility.yul\":11734:11854   */\n    tag_510:\n        /* \"#utility.yul\":11751:11754   */\n      dup2\n        /* \"#utility.yul\":11744:11749   */\n      dup2\n        /* \"#utility.yul\":11741:11755   */\n      lt\n        /* \"#utility.yul\":11734:11854   */\n      iszero\n      tag_512\n      jumpi\n        /* \"#utility.yul\":11805:11844   */\n      tag_513\n        /* \"#utility.yul\":11842:11843   */\n      0x00\n        /* \"#utility.yul\":11835:11840   */\n      dup3\n        /* \"#utility.yul\":11805:11844   */\n      tag_369\n      jump\t// in\n    tag_513:\n        /* \"#utility.yul\":11778:11779   */\n      0x01\n        /* \"#utility.yul\":11771:11776   */\n      dup2\n        /* \"#utility.yul\":11767:11780   */\n      add\n        /* \"#utility.yul\":11758:11780   */\n      swap1\n      pop\n        /* \"#utility.yul\":11734:11854   */\n      jump(tag_510)\n    tag_512:\n        /* \"#utility.yul\":11674:11860   */\n      pop\n      pop\n      jump\t// out\n        /* \"#utility.yul\":11866:12409   */\n    tag_371:\n        /* \"#utility.yul\":11967:11969   */\n      0x1f\n        /* \"#utility.yul\":11962:11965   */\n      dup3\n        /* \"#utility.yul\":11959:11970   */\n      gt\n        /* \"#utility.yul\":11956:12402   */\n      iszero\n      tag_515\n      jumpi\n        /* \"#utility.yul\":12001:12039   */\n      tag_516\n        /* \"#utility.yul\":12033:12038   */\n      dup2\n        /* \"#utility.yul\":12001:12039   */\n      tag_360\n      jump\t// in\n    tag_516:\n        /* \"#utility.yul\":12085:12114   */\n      tag_517\n        /* \"#utility.yul\":12103:12113   */\n      dup5\n        /* \"#utility.yul\":12085:12114   */\n      tag_361\n      jump\t// in\n    tag_517:\n        /* \"#utility.yul\":12075:12083   */\n      dup2\n        /* \"#utility.yul\":12071:12115   */\n      add\n        /* \"#utility.yul\":12268:12270   */\n      0x20\n        /* \"#utility.yul\":12256:12266   */\n      dup6\n        /* \"#utility.yul\":12253:12271   */\n      lt\n        /* \"#utility.yul\":12250:12299   */\n      iszero\n      tag_518\n      jumpi\n        /* \"#utility.yul\":12289:12297   */\n      dup2\n        /* \"#utility.yul\":12274:12297   */\n      swap1\n      pop\n        /* \"#utility.yul\":12250:12299   */\n    tag_518:\n        /* \"#utility.yul\":12312:12392   */\n      tag_519\n        /* \"#utility.yul\":12368:12390   */\n      tag_520\n        /* \"#utility.yul\":12386:12389   */\n      dup6\n        /* \"#utility.yul\":12368:12390   */\n      tag_361\n      jump\t// in\n    tag_520:\n        /* \"#utility.yul\":12358:12366   */\n      dup4\n        /* \"#utility.yul\":12354:12391   */\n      add\n        /* \"#utility.yul\":12341:12352   */\n      dup3\n        /* \"#utility.yul\":12312:12392   */\n      tag_370\n      jump\t// in\n    tag_519:\n        /* \"#utility.yul\":11971:12402   */\n      pop\n      pop\n        /* \"#utility.yul\":11956:12402   */\n    tag_515:\n        /* \"#utility.yul\":11866:12409   */\n      pop\n      pop\n      pop\n      jump\t// out\n        /* \"#utility.yul\":12415:12532   */\n    tag_372:\n        /* \"#utility.yul\":12469:12477   */\n      0x00\n        /* \"#utility.yul\":12519:12524   */\n      dup3\n        /* \"#utility.yul\":12513:12517   */\n      dup3\n        /* \"#utility.yul\":12509:12525   */\n      shr\n        /* \"#utility.yul\":12488:12525   */\n      swap1\n      pop\n        /* \"#utility.yul\":12415:12532   */\n      swap3\n      swap2\n      pop\n      pop\n      jump\t// out\n        /* \"#utility.yul\":12538:12707   */\n    tag_373:\n        /* \"#utility.yul\":12582:12588   */\n      0x00\n        /* \"#utility.yul\":12615:12666   */\n      tag_523\n        /* \"#utility.yul\":12663:12664   */\n      0x00\n        /* \"#utility.yul\":12659:12665   */\n      not\n        /* \"#utility.yul\":12651:12656   */\n      dup5\n        /* \"#utility.yul\":12648:12649   */\n      0x08\n        /* \"#utility.yul\":12644:12657   */\n      mul\n        /* \"#utility.yul\":12615:12666   */\n      tag_372\n      jump\t// in\n    tag_523:\n        /* \"#utility.yul\":12611:12667   */\n      not\n        /* \"#utility.yul\":12696:12700   */\n      dup1\n        /* \"#utility.yul\":12690:12694   */\n      dup4\n        /* \"#utility.yul\":12686:12701   */\n      and\n        /* \"#utility.yul\":12676:12701   */\n      swap2\n      pop\n        /* \"#utility.yul\":12589:12707   */\n      pop\n        /* \"#utility.yul\":12538:12707   */\n      swap3\n      swap2\n      pop\n      pop\n      jump\t// out\n        /* \"#utility.yul\":12712:13007   */\n    tag_374:\n        /* \"#utility.yul\":12788:12792   */\n      0x00\n        /* \"#utility.yul\":12934:12963   */\n      tag_525\n        /* \"#utility.yul\":12959:12962   */\n      dup4\n        /* \"#utility.yul\":12953:12957   */\n      dup4\n        /* \"#utility.yul\":12934:12963   */\n      tag_373\n      jump\t// in\n    tag_525:\n        /* \"#utility.yul\":12926:12963   */\n      swap2\n      pop\n        /* \"#utility.yul\":12996:12999   */\n      dup3\n        /* \"#utility.yul\":12993:12994   */\n      0x02\n        /* \"#utility.yul\":12989:13000   */\n      mul\n        /* \"#utility.yul\":12983:12987   */\n      dup3\n        /* \"#utility.yul\":12980:13001   */\n      or\n        /* \"#utility.yul\":12972:13001   */\n      swap1\n      pop\n        /* \"#utility.yul\":12712:13007   */\n      swap3\n      swap2\n      pop\n      pop\n      jump\t// out\n        /* \"#utility.yul\":13012:14463   */\n    tag_99:\n        /* \"#utility.yul\":13123:13126   */\n      dup2\n        /* \"#utility.yul\":13117:13121   */\n      dup2\n        /* \"#utility.yul\":13114:13127   */\n      sub\n        /* \"#utility.yul\":13111:13137   */\n      tag_527\n      jumpi\n        /* \"#utility.yul\":13130:13135   */\n      pop\n      pop\n      jump(tag_526)\n        /* \"#utility.yul\":13111:13137   */\n    tag_527:\n        /* \"#utility.yul\":13161:13195   */\n      tag_528\n        /* \"#utility.yul\":13191:13194   */\n      dup3\n        /* \"#utility.yul\":13161:13195   */\n      tag_359\n      jump\t// in\n    tag_528:\n        /* \"#utility.yul\":13260:13278   */\n      0xffffffffffffffff\n        /* \"#utility.yul\":13252:13258   */\n      dup2\n        /* \"#utility.yul\":13249:13279   */\n      gt\n        /* \"#utility.yul\":13246:13302   */\n      iszero\n      tag_529\n      jumpi\n        /* \"#utility.yul\":13282:13300   */\n      tag_530\n      tag_129\n      jump\t// in\n    tag_530:\n        /* \"#utility.yul\":13246:13302   */\n    tag_529:\n        /* \"#utility.yul\":13326:13364   */\n      tag_531\n        /* \"#utility.yul\":13358:13362   */\n      dup3\n        /* \"#utility.yul\":13352:13363   */\n      sload\n        /* \"#utility.yul\":13326:13364   */\n      tag_79\n      jump\t// in\n    tag_531:\n        /* \"#utility.yul\":13411:13478   */\n      tag_532\n        /* \"#utility.yul\":13471:13477   */\n      dup3\n        /* \"#utility.yul\":13463:13469   */\n      dup3\n        /* \"#utility.yul\":13457:13461   */\n      dup6\n        /* \"#utility.yul\":13411:13478   */\n      tag_371\n      jump\t// in\n    tag_532:\n        /* \"#utility.yul\":13505:13506   */\n      0x00\n        /* \"#utility.yul\":13534:13536   */\n      0x1f\n        /* \"#utility.yul\":13526:13532   */\n      dup4\n        /* \"#utility.yul\":13523:13537   */\n      gt\n        /* \"#utility.yul\":13551:13552   */\n      0x01\n        /* \"#utility.yul\":13546:14218   */\n      dup2\n      eq\n      tag_534\n      jumpi\n        /* \"#utility.yul\":14262:14263   */\n      0x00\n        /* \"#utility.yul\":14279:14285   */\n      dup5\n        /* \"#utility.yul\":14276:14353   */\n      iszero\n      tag_535\n      jumpi\n        /* \"#utility.yul\":14328:14337   */\n      dup3\n        /* \"#utility.yul\":14323:14326   */\n      dup8\n        /* \"#utility.yul\":14319:14338   */\n      add\n        /* \"#utility.yul\":14313:14339   */\n      sload\n        /* \"#utility.yul\":14304:14339   */\n      swap1\n      pop\n        /* \"#utility.yul\":14276:14353   */\n    tag_535:\n        /* \"#utility.yul\":14379:14446   */\n      tag_536\n        /* \"#utility.yul\":14439:14445   */\n      dup6\n        /* \"#utility.yul\":14432:14437   */\n      dup3\n        /* \"#utility.yul\":14379:14446   */\n      tag_374\n      jump\t// in\n    tag_536:\n        /* \"#utility.yul\":14373:14377   */\n      dup7\n        /* \"#utility.yul\":14366:14447   */\n      sstore\n        /* \"#utility.yul\":14235:14457   */\n      pop\n        /* \"#utility.yul\":13516:14457   */\n      jump(tag_533)\n        /* \"#utility.yul\":13546:14218   */\n    tag_534:\n        /* \"#utility.yul\":13598:13602   */\n      0x1f\n        /* \"#utility.yul\":13594:13603   */\n      not\n        /* \"#utility.yul\":13586:13592   */\n      dup5\n        /* \"#utility.yul\":13582:13604   */\n      and\n        /* \"#utility.yul\":13624:13660   */\n      tag_537\n        /* \"#utility.yul\":13656:13659   */\n      dup8\n        /* \"#utility.yul\":13624:13660   */\n      tag_360\n      jump\t// in\n    tag_537:\n        /* \"#utility.yul\":13617:13660   */\n      swap7\n      pop\n        /* \"#utility.yul\":13687:13724   */\n      tag_538\n        /* \"#utility.yul\":13719:13723   */\n      dup7\n        /* \"#utility.yul\":13687:13724   */\n      tag_360\n      jump\t// in\n    tag_538:\n        /* \"#utility.yul\":13746:13747   */\n      0x00\n        /* \"#utility.yul\":13760:13967   */\n    tag_539:\n        /* \"#utility.yul\":13774:13781   */\n      dup3\n        /* \"#utility.yul\":13771:13772   */\n      dup2\n        /* \"#utility.yul\":13768:13782   */\n      lt\n        /* \"#utility.yul\":13760:13967   */\n      iszero\n      tag_541\n      jumpi\n        /* \"#utility.yul\":13853:13862   */\n      dup5\n        /* \"#utility.yul\":13848:13851   */\n      dup10\n        /* \"#utility.yul\":13844:13863   */\n      add\n        /* \"#utility.yul\":13838:13864   */\n      sload\n        /* \"#utility.yul\":13830:13836   */\n      dup3\n        /* \"#utility.yul\":13823:13865   */\n      sstore\n        /* \"#utility.yul\":13904:13905   */\n      0x01\n        /* \"#utility.yul\":13896:13902   */\n      dup3\n        /* \"#utility.yul\":13892:13906   */\n      add\n        /* \"#utility.yul\":13882:13906   */\n      swap2\n      pop\n        /* \"#utility.yul\":13951:13952   */\n      0x01\n        /* \"#utility.yul\":13940:13949   */\n      dup6\n        /* \"#utility.yul\":13936:13953   */\n      add\n        /* \"#utility.yul\":13923:13953   */\n      swap5\n      pop\n        /* \"#utility.yul\":13797:13801   */\n      0x20\n        /* \"#utility.yul\":13794:13795   */\n      dup2\n        /* \"#utility.yul\":13790:13802   */\n      add\n        /* \"#utility.yul\":13785:13802   */\n      swap1\n      pop\n        /* \"#utility.yul\":13760:13967   */\n      jump(tag_539)\n    tag_541:\n        /* \"#utility.yul\":13995:14001   */\n      dup7\n        /* \"#utility.yul\":13986:13993   */\n      dup4\n        /* \"#utility.yul\":13983:14002   */\n      lt\n        /* \"#utility.yul\":13980:14159   */\n      iszero\n      tag_542\n      jumpi\n        /* \"#utility.yul\":14053:14062   */\n      dup5\n        /* \"#utility.yul\":14048:14051   */\n      dup10\n        /* \"#utility.yul\":14044:14063   */\n      add\n        /* \"#utility.yul\":14038:14064   */\n      sload\n        /* \"#utility.yul\":14096:14144   */\n      tag_543\n        /* \"#utility.yul\":14138:14142   */\n      0x1f\n        /* \"#utility.yul\":14130:14136   */\n      dup10\n        /* \"#utility.yul\":14126:14143   */\n      and\n        /* \"#utility.yul\":14115:14124   */\n      dup3\n        /* \"#utility.yul\":14096:14144   */\n      tag_373\n      jump\t// in\n    tag_543:\n        /* \"#utility.yul\":14088:14094   */\n      dup4\n        /* \"#utility.yul\":14081:14145   */\n      sstore\n        /* \"#utility.yul\":14003:14159   */\n      pop\n        /* \"#utility.yul\":13980:14159   */\n    tag_542:\n        /* \"#utility.yul\":14205:14206   */\n      0x01\n        /* \"#utility.yul\":14201:14202   */\n      0x02\n        /* \"#utility.yul\":14193:14199   */\n      dup9\n        /* \"#utility.yul\":14189:14203   */\n      mul\n        /* \"#utility.yul\":14185:14207   */\n      add\n        /* \"#utility.yul\":14179:14183   */\n      dup9\n        /* \"#utility.yul\":14172:14208   */\n      sstore\n        /* \"#utility.yul\":13553:14218   */\n      pop\n      pop\n      pop\n        /* \"#utility.yul\":13516:14457   */\n    tag_533:\n      pop\n        /* \"#utility.yul\":13101:14463   */\n      pop\n      pop\n      pop\n        /* \"#utility.yul\":13012:14463   */\n      pop\n      pop\n    tag_526:\n      jump\t// out\n        /* \"#utility.yul\":14469:14702   */\n    tag_101:\n        /* \"#utility.yul\":14508:14511   */\n      0x00\n        /* \"#utility.yul\":14531:14555   */\n      tag_545\n        /* \"#utility.yul\":14549:14554   */\n      dup3\n        /* \"#utility.yul\":14531:14555   */\n      tag_330\n      jump\t// in\n    tag_545:\n        /* \"#utility.yul\":14522:14555   */\n      swap2\n      pop\n        /* \"#utility.yul\":14577:14643   */\n      0xffffffffffffffffffffffffffffffffffffffffffffffffffffffffffffffff\n        /* \"#utility.yul\":14570:14575   */\n      dup3\n        /* \"#utility.yul\":14567:14644   */\n      sub\n        /* \"#utility.yul\":14564:14667   */\n      tag_546\n      jumpi\n        /* \"#utility.yul\":14647:14665   */\n      tag_547\n      tag_358\n      jump\t// in\n    tag_547:\n        /* \"#utility.yul\":14564:14667   */\n    tag_546:\n        /* \"#utility.yul\":14694:14695   */\n      0x01\n        /* \"#utility.yul\":14687:14692   */\n      dup3\n        /* \"#utility.yul\":14683:14696   */\n      add\n        /* \"#utility.yul\":14676:14696   */\n      swap1\n      pop\n        /* \"#utility.yul\":14469:14702   */\n      swap2\n      swap1\n      pop\n      jump\t// out\n        /* \"#utility.yul\":14708:14888   */\n    tag_110:\n        /* \"#utility.yul\":14756:14833   */\n      0x4e487b7100000000000000000000000000000000000000000000000000000000\n        /* \"#utility.yul\":14753:14754   */\n      0x00\n        /* \"#utility.yul\":14746:14834   */\n      mstore\n        /* \"#utility.yul\":14853:14857   */\n      0x31\n        /* \"#utility.yul\":14850:14851   */\n      0x04\n        /* \"#utility.yul\":14843:14858   */\n      mstore\n        /* \"#utility.yul\":14877:14881   */\n      0x24\n        /* \"#utility.yul\":14874:14875   */\n      0x00\n        /* \"#utility.yul\":14867:14882   */\n      revert\n        /* \"#utility.yul\":14894:16289   */\n    tag_125:\n        /* \"#utility.yul\":15011:15048   */\n      tag_550\n        /* \"#utility.yul\":15044:15047   */\n      dup3\n        /* \"#utility.yul\":15011:15048   */\n      tag_333\n      jump\t// in\n    tag_550:\n        /* \"#utility.yul\":15113:15131   */\n      0xffffffffffffffff\n        /* \"#utility.yul\":15105:15111   */\n      dup2\n        /* \"#utility.yul\":15102:15132   */\n      gt\n        /* \"#utility.yul\":15099:15155   */\n      iszero\n      tag_551\n      jumpi\n        /* \"#utility.yul\":15135:15153   */\n      tag_552\n      tag_129\n      jump\t// in\n    tag_552:\n        /* \"#utility.yul\":15099:15155   */\n    tag_551:\n        /* \"#utility.yul\":15179:15217   */\n      tag_553\n        /* \"#utility.yul\":15211:15215   */\n      dup3\n        /* \"#utility.yul\":15205:15216   */\n      sload\n        /* \"#utility.yul\":15179:15217   */\n      tag_79\n      jump\t// in\n    tag_553:\n        /* \"#utility.yul\":15264:15331   */\n      tag_554\n        /* \"#utility.yul\":15324:15330   */\n      dup3\n        /* \"#utility.yul\":15316:15322   */\n      dup3\n        /* \"#utility.yul\":15310:15314   */\n      dup6\n        /* \"#utility.yul\":15264:15331   */\n      tag_371\n      jump\t// in\n    tag_554:\n        /* \"#utility.yul\":15358:15359   */\n      0x00\n        /* \"#utility.yul\":15382:15386   */\n      0x20\n        /* \"#utility.yul\":15369:15386   */\n      swap1\n      pop\n        /* \"#utility.yul\":15414:15416   */\n      0x1f\n        /* \"#utility.yul\":15406:15412   */\n      dup4\n        /* \"#utility.yul\":15403:15417   */\n      gt\n        /* \"#utility.yul\":15431:15432   */\n      0x01\n        /* \"#utility.yul\":15426:16044   */\n      dup2\n      eq\n      tag_556\n      jumpi\n        /* \"#utility.yul\":16088:16089   */\n      0x00\n        /* \"#utility.yul\":16105:16111   */\n      dup5\n        /* \"#utility.yul\":16102:16179   */\n      iszero\n      tag_557\n      jumpi\n        /* \"#utility.yul\":16154:16163   */\n      dup3\n        /* \"#utility.yul\":16149:16152   */\n      dup8\n        /* \"#utility.yul\":16145:16164   */\n      add\n        /* \"#utility.yul\":16139:16165   */\n      mload\n        /* \"#utility.yul\":16130:16165   */\n      swap1\n      pop\n        /* \"#utility.yul\":16102:16179   */\n    tag_557:\n        /* \"#utility.yul\":16205:16272   */\n      tag_558\n        /* \"#utility.yul\":16265:16271   */\n      dup6\n        /* \"#utility.yul\":16258:16263   */\n      dup3\n        /* \"#utility.yul\":16205:16272   */\n      tag_374\n      jump\t// in\n    tag_558:\n        /* \"#utility.yul\":16199:16203   */\n      dup7\n        /* \"#utility.yul\":16192:16273   */\n      sstore\n        /* \"#utility.yul\":16061:16283   */\n      pop\n        /* \"#utility.yul\":15396:16283   */\n      jump(tag_555)\n        /* \"#utility.yul\":15426:16044   */\n    tag_556:\n        /* \"#utility.yul\":15478:15482   */\n      0x1f\n        /* \"#utility.yul\":15474:15483   */\n      not\n        /* \"#utility.yul\":15466:15472   */\n      dup5\n        /* \"#utility.yul\":15462:15484   */\n      and\n        /* \"#utility.yul\":15512:15549   */\n      tag_559\n        /* \"#utility.yul\":15544:15548   */\n      dup7\n        /* \"#utility.yul\":15512:15549   */\n      tag_360\n      jump\t// in\n    tag_559:\n        /* \"#utility.yul\":15571:15572   */\n      0x00\n        /* \"#utility.yul\":15585:15793   */\n    tag_560:\n        /* \"#utility.yul\":15599:15606   */\n      dup3\n        /* \"#utility.yul\":15596:15597   */\n      dup2\n        /* \"#utility.yul\":15593:15607   */\n      lt\n        /* \"#utility.yul\":15585:15793   */\n      iszero\n      tag_562\n      jumpi\n        /* \"#utility.yul\":15678:15687   */\n      dup5\n        /* \"#utility.yul\":15673:15676   */\n      dup10\n        /* \"#utility.yul\":15669:15688   */\n      add\n        /* \"#utility.yul\":15663:15689   */\n      mload\n        /* \"#utility.yul\":15655:15661   */\n      dup3\n        /* \"#utility.yul\":15648:15690   */\n      sstore\n        /* \"#utility.yul\":15729:15730   */\n      0x01\n        /* \"#utility.yul\":15721:15727   */\n      dup3\n        /* \"#utility.yul\":15717:15731   */\n      add\n        /* \"#utility.yul\":15707:15731   */\n      swap2\n      pop\n        /* \"#utility.yul\":15776:15778   */\n      0x20\n        /* \"#utility.yul\":15765:15774   */\n      dup6\n        /* \"#utility.yul\":15761:15779   */\n      add\n        /* \"#utility.yul\":15748:15779   */\n      swap5\n      pop\n        /* \"#utility.yul\":15622:15626   */\n      0x20\n        /* \"#utility.yul\":15619:15620   */\n      dup2\n        /* \"#utility.yul\":15615:15627   */\n      add\n        /* \"#utility.yul\":15610:15627   */\n      swap1\n      pop\n        /* \"#utility.yul\":15585:15793   */\n      jump(tag_560)\n    tag_562:\n        /* \"#utility.yul\":15821:15827   */\n      dup7\n        /* \"#utility.yul\":15812:15819   */\n      dup4\n        /* \"#utility.yul\":15809:15828   */\n      lt\n        /* \"#utility.yul\":15806:15985   */\n      iszero\n      tag_563\n      jumpi\n        /* \"#utility.yul\":15879:15888   */\n      dup5\n        /* \"#utility.yul\":15874:15877   */\n      dup10\n        /* \"#utility.yul\":15870:15889   */\n      add\n        /* \"#utility.yul\":15864:15890   */\n      mload\n        /* \"#utility.yul\":15922:15970   */\n      tag_564\n        /* \"#utility.yul\":15964:15968   */\n      0x1f\n        /* \"#utility.yul\":15956:15962   */\n      dup10\n        /* \"#utility.yul\":15952:15969   */\n      and\n        /* \"#utility.yul\":15941:15950   */\n      dup3\n        /* \"#utility.yul\":15922:15970   */\n      tag_373\n      jump\t// in\n    tag_564:\n        /* \"#utility.yul\":15914:15920   */\n      dup4\n        /* \"#utility.yul\":15907:15971   */\n      sstore\n        /* \"#utility.yul\":15829:15985   */\n      pop\n        /* \"#utility.yul\":15806:15985   */\n    tag_563:\n        /* \"#utility.yul\":16031:16032   */\n      0x01\n        /* \"#utility.yul\":16027:16028   */\n      0x02\n        /* \"#utility.yul\":16019:16025   */\n      dup9\n        /* \"#utility.yul\":16015:16029   */\n      mul\n        /* \"#utility.yul\":16011:16033   */\n      add\n        /* \"#utility.yul\":16005:16009   */\n      dup9\n        /* \"#utility.yul\":15998:16034   */\n      sstore\n        /* \"#utility.yul\":15433:16044   */\n      pop\n      pop\n      pop\n        /* \"#utility.yul\":15396:16283   */\n    tag_555:\n      pop\n        /* \"#utility.yul\":14986:16289   */\n      pop\n      pop\n      pop\n        /* \"#utility.yul\":14894:16289   */\n      pop\n      pop\n      jump\t// out\n        /* \"#utility.yul\":16295:16458   */\n    tag_375:\n        /* \"#utility.yul\":16435:16450   */\n      0x496e76616c696420696e64657800000000000000000000000000000000000000\n        /* \"#utility.yul\":16431:16432   */\n      0x00\n        /* \"#utility.yul\":16423:16429   */\n      dup3\n        /* \"#utility.yul\":16419:16433   */\n      add\n        /* \"#utility.yul\":16412:16451   */\n      mstore\n        /* \"#utility.yul\":16295:16458   */\n      pop\n      jump\t// out\n        /* \"#utility.yul\":16464:16830   */\n    tag_376:\n        /* \"#utility.yul\":16606:16609   */\n      0x00\n        /* \"#utility.yul\":16627:16694   */\n      tag_567\n        /* \"#utility.yul\":16691:16693   */\n      0x0d\n        /* \"#utility.yul\":16686:16689   */\n      dup4\n        /* \"#utility.yul\":16627:16694   */\n      tag_334\n      jump\t// in\n    tag_567:\n        /* \"#utility.yul\":16620:16694   */\n      swap2\n      pop\n        /* \"#utility.yul\":16703:16796   */\n      tag_568\n        /* \"#utility.yul\":16792:16795   */\n      dup3\n        /* \"#utility.yul\":16703:16796   */\n      tag_375\n      jump\t// in\n    tag_568:\n        /* \"#utility.yul\":16821:16823   */\n      0x20\n        /* \"#utility.yul\":16816:16819   */\n      dup3\n        /* \"#utility.yul\":16812:16824   */\n      add\n        /* \"#utility.yul\":16805:16824   */\n      swap1\n      pop\n        /* \"#utility.yul\":16464:16830   */\n      swap2\n      swap1\n      pop\n      jump\t// out\n        /* \"#utility.yul\":16836:17255   */\n    tag_149:\n        /* \"#utility.yul\":17002:17006   */\n      0x00\n        /* \"#utility.yul\":17040:17042   */\n      0x20\n        /* \"#utility.yul\":17029:17038   */\n      dup3\n        /* \"#utility.yul\":17025:17043   */\n      add\n        /* \"#utility.yul\":17017:17043   */\n      swap1\n      pop\n        /* \"#utility.yul\":17089:17098   */\n      dup2\n        /* \"#utility.yul\":17083:17087   */\n      dup2\n        /* \"#utility.yul\":17079:17099   */\n      sub\n        /* \"#utility.yul\":17075:17076   */\n      0x00\n        /* \"#utility.yul\":17064:17073   */\n      dup4\n        /* \"#utility.yul\":17060:17077   */\n      add\n        /* \"#utility.yul\":17053:17100   */\n      mstore\n        /* \"#utility.yul\":17117:17248   */\n      tag_570\n        /* \"#utility.yul\":17243:17247   */\n      dup2\n        /* \"#utility.yul\":17117:17248   */\n      tag_376\n      jump\t// in\n    tag_570:\n        /* \"#utility.yul\":17109:17248   */\n      swap1\n      pop\n        /* \"#utility.yul\":16836:17255   */\n      swap2\n      swap1\n      pop\n      jump\t// out\n        /* \"#utility.yul\":17261:17440   */\n    tag_377:\n        /* \"#utility.yul\":17401:17432   */\n      0x43616e6e6f74206d6f7665206261636b20746f20746f646f206c697374000000\n        /* \"#utility.yul\":17397:17398   */\n      0x00\n        /* \"#utility.yul\":17389:17395   */\n      dup3\n        /* \"#utility.yul\":17385:17399   */\n      add\n        /* \"#utility.yul\":17378:17433   */\n      mstore\n        /* \"#utility.yul\":17261:17440   */\n      pop\n      jump\t// out\n        /* \"#utility.yul\":17446:17812   */\n    tag_378:\n        /* \"#utility.yul\":17588:17591   */\n      0x00\n        /* \"#utility.yul\":17609:17676   */\n      tag_573\n        /* \"#utility.yul\":17673:17675   */\n      0x1d\n        /* \"#utility.yul\":17668:17671   */\n      dup4\n        /* \"#utility.yul\":17609:17676   */\n      tag_334\n      jump\t// in\n    tag_573:\n        /* \"#utility.yul\":17602:17676   */\n      swap2\n      pop\n        /* \"#utility.yul\":17685:17778   */\n      tag_574\n        /* \"#utility.yul\":17774:17777   */\n      dup3\n        /* \"#utility.yul\":17685:17778   */\n      tag_377\n      jump\t// in\n    tag_574:\n        /* \"#utility.yul\":17803:17805   */\n      0x20\n        /* \"#utility.yul\":17798:17801   */\n      dup3\n        /* \"#utility.yul\":17794:17806   */\n      add\n        /* \"#utility.yul\":17787:17806   */\n      swap1\n      pop\n        /* \"#utility.yul\":17446:17812   */\n      swap2\n      swap1\n      pop\n      jump\t// out\n        /* \"#utility.yul\":17818:18237   */\n    tag_161:\n        /* \"#utility.yul\":17984:17988   */\n      0x00\n        /* \"#utility.yul\":18022:18024   */\n      0x20\n        /* \"#utility.yul\":18011:18020   */\n      dup3\n        /* \"#utility.yul\":18007:18025   */\n      add\n        /* \"#utility.yul\":17999:18025   */\n      swap1\n      pop\n        /* \"#utility.yul\":18071:18080   */\n      dup2\n        /* \"#utility.yul\":18065:18069   */\n      dup2\n        /* \"#utility.yul\":18061:18081   */\n      sub\n        /* \"#utility.yul\":18057:18058   */\n      0x00\n        /* \"#utility.yul\":18046:18055   */\n      dup4\n        /* \"#utility.yul\":18042:18059   */\n      add\n        /* \"#utility.yul\":18035:18082   */\n      mstore\n        /* \"#utility.yul\":18099:18230   */\n      tag_576\n        /* \"#utility.yul\":18225:18229   */\n      dup2\n        /* \"#utility.yul\":18099:18230   */\n      tag_378\n      jump\t// in\n    tag_576:\n        /* \"#utility.yul\":18091:18230   */\n      swap1\n      pop\n        /* \"#utility.yul\":17818:18237   */\n      swap2\n      swap1\n      pop\n      jump\t// out\n\n    auxdata: 0xa26469706673582212203c1d975d2c8b699759d919726e810a74f07de6234f9063ebe335fdca74bb9a6b64736f6c63430008120033\n}\n",
				"bytecode": {
					"linkReferences": {},
					"object": "608060405234801561001057600080fd5b506121d6806100206000396000f3fe608060405234801561001057600080fd5b50600436106100ea5760003560e01c8063bc8bc2b41161008c578063e29672ba11610066578063e29672ba14610271578063f112ba721461028f578063fdacd576146102ad578063fe1c7f6f146102c9576100ea565b8063bc8bc2b4146101f3578063c195fc7414610225578063dd68afb614610241576100ea565b806395ffebf5116100c857806395ffebf51461016b578063982abb891461018757806399b4124e146101a5578063b2514afa146101c1576100ea565b80631bfc269b146100ef5780636e3c67381461011f57806384f89a931461013b575b600080fd5b610109600480360381019061010491906117bc565b6102fb565b6040516101169190611879565b60405180910390f35b610139600480360381019061013491906117bc565b6103b2565b005b610155600480360381019061015091906117bc565b610540565b6040516101629190611879565b60405180910390f35b610185600480360381019061018091906119d0565b6105f7565b005b61018f610686565b60405161019c9190611b25565b60405180910390f35b6101bf60048036038101906101ba91906117bc565b6107d5565b005b6101db60048036038101906101d691906117bc565b610b53565b6040516101ea93929190611b71565b60405180910390f35b61020d600480360381019061020891906117bc565b610c22565b60405161021c93929190611b71565b60405180910390f35b61023f600480360381019061023a91906117bc565b610cf1565b005b61025b600480360381019061025691906117bc565b610ff0565b6040516102689190611879565b60405180910390f35b6102796110a7565b6040516102869190611b25565b60405180910390f35b6102976111f7565b6040516102a49190611b25565b60405180910390f35b6102c760048036038101906102c291906117bc565b611347565b005b6102e360048036038101906102de91906117bc565b611646565b6040516102f293929190611b71565b60405180910390f35b60606001828154811061031157610310611baf565b5b9060005260206000209060030201600001805461032d90611c0d565b80601f016020809104026020016040519081016040528092919081815260200182805461035990611c0d565b80156103a65780601f1061037b576101008083540402835291602001916103a6565b820191906000526020600020905b81548152906001019060200180831161038957829003601f168201915b50505050509050919050565b60008190505b60016000805490506103ca9190611c6d565b8110156104835760006001826103e09190611ca1565b815481106103f1576103f0611baf565b5b90600052602060002090600302016000828154811061041357610412611baf565b5b9060005260206000209060030201600082018160000190816104359190611e97565b506001820160009054906101000a900460ff168160010160006101000a81548160ff02191690831515021790555060028201548160020155905050808061047b90611f7f565b9150506103b8565b50600060016000805490506104989190611c6d565b815481106104a9576104a8611baf565b5b9060005260206000209060030201600080820160006104c89190611715565b6001820160006101000a81549060ff02191690556002820160009055505060008054806104f8576104f7611fc7565b5b60019003818190600052602060002090600302016000808201600061051d9190611715565b6001820160006101000a81549060ff021916905560028201600090555050905550565b60606002828154811061055657610555611baf565b5b9060005260206000209060030201600001805461057290611c0d565b80601f016020809104026020016040519081016040528092919081815260200182805461059e90611c0d565b80156105eb5780601f106105c0576101008083540402835291602001916105eb565b820191906000526020600020905b8154815290600101906020018083116105ce57829003601f168201915b50505050509050919050565b600060405180606001604052808381526020016000151581526020016000815250908060018154018082558091505060019003906000526020600020906003020160009091909190915060008201518160000190816106569190611ff6565b5060208201518160010160006101000a81548160ff02191690831515021790555060408201518160020155505050565b60606000808054905067ffffffffffffffff8111156106a8576106a76118a5565b5b6040519080825280602002602001820160405280156106db57816020015b60608152602001906001900390816106c65790505b50905060005b6000805490508110156107cd576000818154811061070257610701611baf565b5b9060005260206000209060030201600001805461071e90611c0d565b80601f016020809104026020016040519081016040528092919081815260200182805461074a90611c0d565b80156107975780601f1061076c57610100808354040283529160200191610797565b820191906000526020600020905b81548152906001019060200180831161077a57829003601f168201915b50505050508282815181106107af576107ae611baf565b5b602002602001018190525080806107c590611f7f565b9150506106e1565b508091505090565b600280549050811061081c576040517f08c379a000000000000000000000000000000000000000000000000000000000815260040161081390612114565b60405180910390fd5b60006002828154811061083257610831611baf565b5b906000526020600020906003020160405180606001604052908160008201805461085b90611c0d565b80601f016020809104026020016040519081016040528092919081815260200182805461088790611c0d565b80156108d45780601f106108a9576101008083540402835291602001916108d4565b820191906000526020600020905b8154815290600101906020018083116108b757829003601f168201915b505050505081526020016001820160009054906101000a900460ff161515151581526020016002820154815250509050603c8160400151426109169190611c6d565b10610956576040517f08c379a000000000000000000000000000000000000000000000000000000000815260040161094d90612180565b60405180910390fd5b60008290505b600160028054905061096e9190611c6d565b811015610a275760026001826109849190611ca1565b8154811061099557610994611baf565b5b9060005260206000209060030201600282815481106109b7576109b6611baf565b5b9060005260206000209060030201600082018160000190816109d99190611e97565b506001820160009054906101000a900460ff168160010160006101000a81548160ff021916908315150217905550600282015481600201559050508080610a1f90611f7f565b91505061095c565b5060026001600280549050610a3c9190611c6d565b81548110610a4d57610a4c611baf565b5b906000526020600020906003020160008082016000610a6c9190611715565b6001820160006101000a81549060ff0219169055600282016000905550506002805480610a9c57610a9b611fc7565b5b600190038181906000526020600020906003020160008082016000610ac19190611715565b6001820160006101000a81549060ff021916905560028201600090555050905560008190806001815401808255809150506001900390600052602060002090600302016000909190919091506000820151816000019081610b229190611ff6565b5060208201518160010160006101000a81548160ff0219169083151502179055506040820151816002015550505050565b60028181548110610b6357600080fd5b9060005260206000209060030201600091509050806000018054610b8690611c0d565b80601f0160208091040260200160405190810160405280929190818152602001828054610bb290611c0d565b8015610bff5780601f10610bd457610100808354040283529160200191610bff565b820191906000526020600020905b815481529060010190602001808311610be257829003601f168201915b5050505050908060010160009054906101000a900460ff16908060020154905083565b60008181548110610c3257600080fd5b9060005260206000209060030201600091509050806000018054610c5590611c0d565b80601f0160208091040260200160405190810160405280929190818152602001828054610c8190611c0d565b8015610cce5780601f10610ca357610100808354040283529160200191610cce565b820191906000526020600020905b815481529060010190602001808311610cb157829003601f168201915b5050505050908060010160009054906101000a900460ff16908060020154905083565b6000808281548110610d0657610d05611baf565b5b9060005260206000209060030201604051806060016040529081600082018054610d2f90611c0d565b80601f0160208091040260200160405190810160405280929190818152602001828054610d5b90611c0d565b8015610da85780601f10610d7d57610100808354040283529160200191610da8565b820191906000526020600020905b815481529060010190602001808311610d8b57829003601f168201915b505050505081526020016001820160009054906101000a900460ff16151515158152602001600282015481525050905060008160200190151590811515815250504281604001818152505060008290505b6001600080549050610e0b9190611c6d565b811015610ec4576000600182610e219190611ca1565b81548110610e3257610e31611baf565b5b906000526020600020906003020160008281548110610e5457610e53611baf565b5b906000526020600020906003020160008201816000019081610e769190611e97565b506001820160009054906101000a900460ff168160010160006101000a81548160ff021916908315150217905550600282015481600201559050508080610ebc90611f7f565b915050610df9565b5060006001600080549050610ed99190611c6d565b81548110610eea57610ee9611baf565b5b906000526020600020906003020160008082016000610f099190611715565b6001820160006101000a81549060ff0219169055600282016000905550506000805480610f3957610f38611fc7565b5b600190038181906000526020600020906003020160008082016000610f5e9190611715565b6001820160006101000a81549060ff021916905560028201600090555050905560028190806001815401808255809150506001900390600052602060002090600302016000909190919091506000820151816000019081610fbf9190611ff6565b5060208201518160010160006101000a81548160ff0219169083151502179055506040820151816002015550505050565b60606000828154811061100657611005611baf565b5b9060005260206000209060030201600001805461102290611c0d565b80601f016020809104026020016040519081016040528092919081815260200182805461104e90611c0d565b801561109b5780601f106110705761010080835404028352916020019161109b565b820191906000526020600020905b81548152906001019060200180831161107e57829003601f168201915b50505050509050919050565b6060600060018054905067ffffffffffffffff8111156110ca576110c96118a5565b5b6040519080825280602002602001820160405280156110fd57816020015b60608152602001906001900390816110e85790505b50905060005b6001805490508110156111ef576001818154811061112457611123611baf565b5b9060005260206000209060030201600001805461114090611c0d565b80601f016020809104026020016040519081016040528092919081815260200182805461116c90611c0d565b80156111b95780601f1061118e576101008083540402835291602001916111b9565b820191906000526020600020905b81548152906001019060200180831161119c57829003601f168201915b50505050508282815181106111d1576111d0611baf565b5b602002602001018190525080806111e790611f7f565b915050611103565b508091505090565b6060600060028054905067ffffffffffffffff81111561121a576112196118a5565b5b60405190808252806020026020018201604052801561124d57816020015b60608152602001906001900390816112385790505b50905060005b60028054905081101561133f576002818154811061127457611273611baf565b5b9060005260206000209060030201600001805461129090611c0d565b80601f01602080910402602001604051908101604052809291908181526020018280546112bc90611c0d565b80156113095780601f106112de57610100808354040283529160200191611309565b820191906000526020600020905b8154815290600101906020018083116112ec57829003601f168201915b505050505082828151811061132157611320611baf565b5b6020026020010181905250808061133790611f7f565b915050611253565b508091505090565b600080828154811061135c5761135b611baf565b5b906000526020600020906003020160405180606001604052908160008201805461138590611c0d565b80601f01602080910402602001604051908101604052809291908181526020018280546113b190611c0d565b80156113fe5780601f106113d3576101008083540402835291602001916113fe565b820191906000526020600020905b8154815290600101906020018083116113e157829003601f168201915b505050505081526020016001820160009054906101000a900460ff16151515158152602001600282015481525050905060018160200190151590811515815250504281604001818152505060008290505b60016000805490506114619190611c6d565b81101561151a5760006001826114779190611ca1565b8154811061148857611487611baf565b5b9060005260206000209060030201600082815481106114aa576114a9611baf565b5b9060005260206000209060030201600082018160000190816114cc9190611e97565b506001820160009054906101000a900460ff168160010160006101000a81548160ff02191690831515021790555060028201548160020155905050808061151290611f7f565b91505061144f565b506000600160008054905061152f9190611c6d565b815481106115405761153f611baf565b5b90600052602060002090600302016000808201600061155f9190611715565b6001820160006101000a81549060ff021916905560028201600090555050600080548061158f5761158e611fc7565b5b6001900381819060005260206000209060030201600080820160006115b49190611715565b6001820160006101000a81549060ff0219169055600282016000905550509055600181908060018154018082558091505060019003906000526020600020906003020160009091909190915060008201518160000190816116159190611ff6565b5060208201518160010160006101000a81548160ff0219169083151502179055506040820151816002015550505050565b6001818154811061165657600080fd5b906000526020600020906003020160009150905080600001805461167990611c0d565b80601f01602080910402602001604051908101604052809291908181526020018280546116a590611c0d565b80156116f25780601f106116c7576101008083540402835291602001916116f2565b820191906000526020600020905b8154815290600101906020018083116116d557829003601f168201915b5050505050908060010160009054906101000a900460ff16908060020154905083565b50805461172190611c0d565b6000825580601f106117335750611752565b601f0160209004906000526020600020908101906117519190611755565b5b50565b5b8082111561176e576000816000905550600101611756565b5090565b6000604051905090565b600080fd5b600080fd5b6000819050919050565b61179981611786565b81146117a457600080fd5b50565b6000813590506117b681611790565b92915050565b6000602082840312156117d2576117d161177c565b5b60006117e0848285016117a7565b91505092915050565b600081519050919050565b600082825260208201905092915050565b60005b83811015611823578082015181840152602081019050611808565b60008484015250505050565b6000601f19601f8301169050919050565b600061184b826117e9565b61185581856117f4565b9350611865818560208601611805565b61186e8161182f565b840191505092915050565b600060208201905081810360008301526118938184611840565b905092915050565b600080fd5b600080fd5b7f4e487b7100000000000000000000000000000000000000000000000000000000600052604160045260246000fd5b6118dd8261182f565b810181811067ffffffffffffffff821117156118fc576118fb6118a5565b5b80604052505050565b600061190f611772565b905061191b82826118d4565b919050565b600067ffffffffffffffff82111561193b5761193a6118a5565b5b6119448261182f565b9050602081019050919050565b82818337600083830152505050565b600061197361196e84611920565b611905565b90508281526020810184848401111561198f5761198e6118a0565b5b61199a848285611951565b509392505050565b600082601f8301126119b7576119b661189b565b5b81356119c7848260208601611960565b91505092915050565b6000602082840312156119e6576119e561177c565b5b600082013567ffffffffffffffff811115611a0457611a03611781565b5b611a10848285016119a2565b91505092915050565b600081519050919050565b600082825260208201905092915050565b6000819050602082019050919050565b600082825260208201905092915050565b6000611a61826117e9565b611a6b8185611a45565b9350611a7b818560208601611805565b611a848161182f565b840191505092915050565b6000611a9b8383611a56565b905092915050565b6000602082019050919050565b6000611abb82611a19565b611ac58185611a24565b935083602082028501611ad785611a35565b8060005b85811015611b135784840389528151611af48582611a8f565b9450611aff83611aa3565b925060208a01995050600181019050611adb565b50829750879550505050505092915050565b60006020820190508181036000830152611b3f8184611ab0565b905092915050565b60008115159050919050565b611b5c81611b47565b82525050565b611b6b81611786565b82525050565b60006060820190508181036000830152611b8b8186611840565b9050611b9a6020830185611b53565b611ba76040830184611b62565b949350505050565b7f4e487b7100000000000000000000000000000000000000000000000000000000600052603260045260246000fd5b7f4e487b7100000000000000000000000000000000000000000000000000000000600052602260045260246000fd5b60006002820490506001821680611c2557607f821691505b602082108103611c3857611c37611bde565b5b50919050565b7f4e487b7100000000000000000000000000000000000000000000000000000000600052601160045260246000fd5b6000611c7882611786565b9150611c8383611786565b9250828203905081811115611c9b57611c9a611c3e565b5b92915050565b6000611cac82611786565b9150611cb783611786565b9250828201905080821115611ccf57611cce611c3e565b5b92915050565b600081549050611ce481611c0d565b9050919050565b60008190508160005260206000209050919050565b60006020601f8301049050919050565b600082821b905092915050565b600060088302611d4d7fffffffffffffffffffffffffffffffffffffffffffffffffffffffffffffffff82611d10565b611d578683611d10565b95508019841693508086168417925050509392505050565b6000819050919050565b6000611d94611d8f611d8a84611786565b611d6f565b611786565b9050919050565b6000819050919050565b611dae83611d79565b611dc2611dba82611d9b565b848454611d1d565b825550505050565b600090565b611dd7611dca565b611de2818484611da5565b505050565b5b81811015611e0657611dfb600082611dcf565b600181019050611de8565b5050565b601f821115611e4b57611e1c81611ceb565b611e2584611d00565b81016020851015611e34578190505b611e48611e4085611d00565b830182611de7565b50505b505050565b600082821c905092915050565b6000611e6e60001984600802611e50565b1980831691505092915050565b6000611e878383611e5d565b9150826002028217905092915050565b818103611ea5575050611f7d565b611eae82611cd5565b67ffffffffffffffff811115611ec757611ec66118a5565b5b611ed18254611c0d565b611edc828285611e0a565b6000601f831160018114611f0b5760008415611ef9578287015490505b611f038582611e7b565b865550611f76565b601f198416611f1987611ceb565b9650611f2486611ceb565b60005b82811015611f4c57848901548255600182019150600185019450602081019050611f27565b86831015611f695784890154611f65601f891682611e5d565b8355505b6001600288020188555050505b5050505050505b565b6000611f8a82611786565b91507fffffffffffffffffffffffffffffffffffffffffffffffffffffffffffffffff8203611fbc57611fbb611c3e565b5b600182019050919050565b7f4e487b7100000000000000000000000000000000000000000000000000000000600052603160045260246000fd5b611fff826117e9565b67ffffffffffffffff811115612018576120176118a5565b5b6120228254611c0d565b61202d828285611e0a565b600060209050601f831160018114612060576000841561204e578287015190505b6120588582611e7b565b8655506120c0565b601f19841661206e86611ceb565b60005b8281101561209657848901518255600182019150602085019450602081019050612071565b868310156120b357848901516120af601f891682611e5d565b8355505b6001600288020188555050505b505050505050565b7f496e76616c696420696e64657800000000000000000000000000000000000000600082015250565b60006120fe600d836117f4565b9150612109826120c8565b602082019050919050565b6000602082019050818103600083015261212d816120f1565b9050919050565b7f43616e6e6f74206d6f7665206261636b20746f20746f646f206c697374000000600082015250565b600061216a601d836117f4565b915061217582612134565b602082019050919050565b600060208201905081810360008301526121998161215d565b905091905056fea26469706673582212203c1d975d2c8b699759d919726e810a74f07de6234f9063ebe335fdca74bb9a6b64736f6c63430008120033",
					"opcodes": "PUSH1 0x80 PUSH1 0x40 MSTORE CALLVALUE DUP1 ISZERO PUSH2 0x10 JUMPI PUSH1 0x0 DUP1 REVERT JUMPDEST POP PUSH2 0x21D6 DUP1 PUSH2 0x20 PUSH1 0x0 CODECOPY PUSH1 0x0 RETURN INVALID PUSH1 0x80 PUSH1 0x40 MSTORE CALLVALUE DUP1 ISZERO PUSH2 0x10 JUMPI PUSH1 0x0 DUP1 REVERT JUMPDEST POP PUSH1 0x4 CALLDATASIZE LT PUSH2 0xEA JUMPI PUSH1 0x0 CALLDATALOAD PUSH1 0xE0 SHR DUP1 PUSH4 0xBC8BC2B4 GT PUSH2 0x8C JUMPI DUP1 PUSH4 0xE29672BA GT PUSH2 0x66 JUMPI DUP1 PUSH4 0xE29672BA EQ PUSH2 0x271 JUMPI DUP1 PUSH4 0xF112BA72 EQ PUSH2 0x28F JUMPI DUP1 PUSH4 0xFDACD576 EQ PUSH2 0x2AD JUMPI DUP1 PUSH4 0xFE1C7F6F EQ PUSH2 0x2C9 JUMPI PUSH2 0xEA JUMP JUMPDEST DUP1 PUSH4 0xBC8BC2B4 EQ PUSH2 0x1F3 JUMPI DUP1 PUSH4 0xC195FC74 EQ PUSH2 0x225 JUMPI DUP1 PUSH4 0xDD68AFB6 EQ PUSH2 0x241 JUMPI PUSH2 0xEA JUMP JUMPDEST DUP1 PUSH4 0x95FFEBF5 GT PUSH2 0xC8 JUMPI DUP1 PUSH4 0x95FFEBF5 EQ PUSH2 0x16B JUMPI DUP1 PUSH4 0x982ABB89 EQ PUSH2 0x187 JUMPI DUP1 PUSH4 0x99B4124E EQ PUSH2 0x1A5 JUMPI DUP1 PUSH4 0xB2514AFA EQ PUSH2 0x1C1 JUMPI PUSH2 0xEA JUMP JUMPDEST DUP1 PUSH4 0x1BFC269B EQ PUSH2 0xEF JUMPI DUP1 PUSH4 0x6E3C6738 EQ PUSH2 0x11F JUMPI DUP1 PUSH4 0x84F89A93 EQ PUSH2 0x13B JUMPI JUMPDEST PUSH1 0x0 DUP1 REVERT JUMPDEST PUSH2 0x109 PUSH1 0x4 DUP1 CALLDATASIZE SUB DUP2 ADD SWAP1 PUSH2 0x104 SWAP2 SWAP1 PUSH2 0x17BC JUMP JUMPDEST PUSH2 0x2FB JUMP JUMPDEST PUSH1 0x40 MLOAD PUSH2 0x116 SWAP2 SWAP1 PUSH2 0x1879 JUMP JUMPDEST PUSH1 0x40 MLOAD DUP1 SWAP2 SUB SWAP1 RETURN JUMPDEST PUSH2 0x139 PUSH1 0x4 DUP1 CALLDATASIZE SUB DUP2 ADD SWAP1 PUSH2 0x134 SWAP2 SWAP1 PUSH2 0x17BC JUMP JUMPDEST PUSH2 0x3B2 JUMP JUMPDEST STOP JUMPDEST PUSH2 0x155 PUSH1 0x4 DUP1 CALLDATASIZE SUB DUP2 ADD SWAP1 PUSH2 0x150 SWAP2 SWAP1 PUSH2 0x17BC JUMP JUMPDEST PUSH2 0x540 JUMP JUMPDEST PUSH1 0x40 MLOAD PUSH2 0x162 SWAP2 SWAP1 PUSH2 0x1879 JUMP JUMPDEST PUSH1 0x40 MLOAD DUP1 SWAP2 SUB SWAP1 RETURN JUMPDEST PUSH2 0x185 PUSH1 0x4 DUP1 CALLDATASIZE SUB DUP2 ADD SWAP1 PUSH2 0x180 SWAP2 SWAP1 PUSH2 0x19D0 JUMP JUMPDEST PUSH2 0x5F7 JUMP JUMPDEST STOP JUMPDEST PUSH2 0x18F PUSH2 0x686 JUMP JUMPDEST PUSH1 0x40 MLOAD PUSH2 0x19C SWAP2 SWAP1 PUSH2 0x1B25 JUMP JUMPDEST PUSH1 0x40 MLOAD DUP1 SWAP2 SUB SWAP1 RETURN JUMPDEST PUSH2 0x1BF PUSH1 0x4 DUP1 CALLDATASIZE SUB DUP2 ADD SWAP1 PUSH2 0x1BA SWAP2 SWAP1 PUSH2 0x17BC JUMP JUMPDEST PUSH2 0x7D5 JUMP JUMPDEST STOP JUMPDEST PUSH2 0x1DB PUSH1 0x4 DUP1 CALLDATASIZE SUB DUP2 ADD SWAP1 PUSH2 0x1D6 SWAP2 SWAP1 PUSH2 0x17BC JUMP JUMPDEST PUSH2 0xB53 JUMP JUMPDEST PUSH1 0x40 MLOAD PUSH2 0x1EA SWAP4 SWAP3 SWAP2 SWAP1 PUSH2 0x1B71 JUMP JUMPDEST PUSH1 0x40 MLOAD DUP1 SWAP2 SUB SWAP1 RETURN JUMPDEST PUSH2 0x20D PUSH1 0x4 DUP1 CALLDATASIZE SUB DUP2 ADD SWAP1 PUSH2 0x208 SWAP2 SWAP1 PUSH2 0x17BC JUMP JUMPDEST PUSH2 0xC22 JUMP JUMPDEST PUSH1 0x40 MLOAD PUSH2 0x21C SWAP4 SWAP3 SWAP2 SWAP1 PUSH2 0x1B71 JUMP JUMPDEST PUSH1 0x40 MLOAD DUP1 SWAP2 SUB SWAP1 RETURN JUMPDEST PUSH2 0x23F PUSH1 0x4 DUP1 CALLDATASIZE SUB DUP2 ADD SWAP1 PUSH2 0x23A SWAP2 SWAP1 PUSH2 0x17BC JUMP JUMPDEST PUSH2 0xCF1 JUMP JUMPDEST STOP JUMPDEST PUSH2 0x25B PUSH1 0x4 DUP1 CALLDATASIZE SUB DUP2 ADD SWAP1 PUSH2 0x256 SWAP2 SWAP1 PUSH2 0x17BC JUMP JUMPDEST PUSH2 0xFF0 JUMP JUMPDEST PUSH1 0x40 MLOAD PUSH2 0x268 SWAP2 SWAP1 PUSH2 0x1879 JUMP JUMPDEST PUSH1 0x40 MLOAD DUP1 SWAP2 SUB SWAP1 RETURN JUMPDEST PUSH2 0x279 PUSH2 0x10A7 JUMP JUMPDEST PUSH1 0x40 MLOAD PUSH2 0x286 SWAP2 SWAP1 PUSH2 0x1B25 JUMP JUMPDEST PUSH1 0x40 MLOAD DUP1 SWAP2 SUB SWAP1 RETURN JUMPDEST PUSH2 0x297 PUSH2 0x11F7 JUMP JUMPDEST PUSH1 0x40 MLOAD PUSH2 0x2A4 SWAP2 SWAP1 PUSH2 0x1B25 JUMP JUMPDEST PUSH1 0x40 MLOAD DUP1 SWAP2 SUB SWAP1 RETURN JUMPDEST PUSH2 0x2C7 PUSH1 0x4 DUP1 CALLDATASIZE SUB DUP2 ADD SWAP1 PUSH2 0x2C2 SWAP2 SWAP1 PUSH2 0x17BC JUMP JUMPDEST PUSH2 0x1347 JUMP JUMPDEST STOP JUMPDEST PUSH2 0x2E3 PUSH1 0x4 DUP1 CALLDATASIZE SUB DUP2 ADD SWAP1 PUSH2 0x2DE SWAP2 SWAP1 PUSH2 0x17BC JUMP JUMPDEST PUSH2 0x1646 JUMP JUMPDEST PUSH1 0x40 MLOAD PUSH2 0x2F2 SWAP4 SWAP3 SWAP2 SWAP1 PUSH2 0x1B71 JUMP JUMPDEST PUSH1 0x40 MLOAD DUP1 SWAP2 SUB SWAP1 RETURN JUMPDEST PUSH1 0x60 PUSH1 0x1 DUP3 DUP2 SLOAD DUP2 LT PUSH2 0x311 JUMPI PUSH2 0x310 PUSH2 0x1BAF JUMP JUMPDEST JUMPDEST SWAP1 PUSH1 0x0 MSTORE PUSH1 0x20 PUSH1 0x0 KECCAK256 SWAP1 PUSH1 0x3 MUL ADD PUSH1 0x0 ADD DUP1 SLOAD PUSH2 0x32D SWAP1 PUSH2 0x1C0D JUMP JUMPDEST DUP1 PUSH1 0x1F ADD PUSH1 0x20 DUP1 SWAP2 DIV MUL PUSH1 0x20 ADD PUSH1 0x40 MLOAD SWAP1 DUP2 ADD PUSH1 0x40 MSTORE DUP1 SWAP3 SWAP2 SWAP1 DUP2 DUP2 MSTORE PUSH1 0x20 ADD DUP3 DUP1 SLOAD PUSH2 0x359 SWAP1 PUSH2 0x1C0D JUMP JUMPDEST DUP1 ISZERO PUSH2 0x3A6 JUMPI DUP1 PUSH1 0x1F LT PUSH2 0x37B JUMPI PUSH2 0x100 DUP1 DUP4 SLOAD DIV MUL DUP4 MSTORE SWAP2 PUSH1 0x20 ADD SWAP2 PUSH2 0x3A6 JUMP JUMPDEST DUP3 ADD SWAP2 SWAP1 PUSH1 0x0 MSTORE PUSH1 0x20 PUSH1 0x0 KECCAK256 SWAP1 JUMPDEST DUP2 SLOAD DUP2 MSTORE SWAP1 PUSH1 0x1 ADD SWAP1 PUSH1 0x20 ADD DUP1 DUP4 GT PUSH2 0x389 JUMPI DUP3 SWAP1 SUB PUSH1 0x1F AND DUP3 ADD SWAP2 JUMPDEST POP POP POP POP POP SWAP1 POP SWAP2 SWAP1 POP JUMP JUMPDEST PUSH1 0x0 DUP2 SWAP1 POP JUMPDEST PUSH1 0x1 PUSH1 0x0 DUP1 SLOAD SWAP1 POP PUSH2 0x3CA SWAP2 SWAP1 PUSH2 0x1C6D JUMP JUMPDEST DUP2 LT ISZERO PUSH2 0x483 JUMPI PUSH1 0x0 PUSH1 0x1 DUP3 PUSH2 0x3E0 SWAP2 SWAP1 PUSH2 0x1CA1 JUMP JUMPDEST DUP2 SLOAD DUP2 LT PUSH2 0x3F1 JUMPI PUSH2 0x3F0 PUSH2 0x1BAF JUMP JUMPDEST JUMPDEST SWAP1 PUSH1 0x0 MSTORE PUSH1 0x20 PUSH1 0x0 KECCAK256 SWAP1 PUSH1 0x3 MUL ADD PUSH1 0x0 DUP3 DUP2 SLOAD DUP2 LT PUSH2 0x413 JUMPI PUSH2 0x412 PUSH2 0x1BAF JUMP JUMPDEST JUMPDEST SWAP1 PUSH1 0x0 MSTORE PUSH1 0x20 PUSH1 0x0 KECCAK256 SWAP1 PUSH1 0x3 MUL ADD PUSH1 0x0 DUP3 ADD DUP2 PUSH1 0x0 ADD SWAP1 DUP2 PUSH2 0x435 SWAP2 SWAP1 PUSH2 0x1E97 JUMP JUMPDEST POP PUSH1 0x1 DUP3 ADD PUSH1 0x0 SWAP1 SLOAD SWAP1 PUSH2 0x100 EXP SWAP1 DIV PUSH1 0xFF AND DUP2 PUSH1 0x1 ADD PUSH1 0x0 PUSH2 0x100 EXP DUP2 SLOAD DUP2 PUSH1 0xFF MUL NOT AND SWAP1 DUP4 ISZERO ISZERO MUL OR SWAP1 SSTORE POP PUSH1 0x2 DUP3 ADD SLOAD DUP2 PUSH1 0x2 ADD SSTORE SWAP1 POP POP DUP1 DUP1 PUSH2 0x47B SWAP1 PUSH2 0x1F7F JUMP JUMPDEST SWAP2 POP POP PUSH2 0x3B8 JUMP JUMPDEST POP PUSH1 0x0 PUSH1 0x1 PUSH1 0x0 DUP1 SLOAD SWAP1 POP PUSH2 0x498 SWAP2 SWAP1 PUSH2 0x1C6D JUMP JUMPDEST DUP2 SLOAD DUP2 LT PUSH2 0x4A9 JUMPI PUSH2 0x4A8 PUSH2 0x1BAF JUMP JUMPDEST JUMPDEST SWAP1 PUSH1 0x0 MSTORE PUSH1 0x20 PUSH1 0x0 KECCAK256 SWAP1 PUSH1 0x3 MUL ADD PUSH1 0x0 DUP1 DUP3 ADD PUSH1 0x0 PUSH2 0x4C8 SWAP2 SWAP1 PUSH2 0x1715 JUMP JUMPDEST PUSH1 0x1 DUP3 ADD PUSH1 0x0 PUSH2 0x100 EXP DUP2 SLOAD SWAP1 PUSH1 0xFF MUL NOT AND SWAP1 SSTORE PUSH1 0x2 DUP3 ADD PUSH1 0x0 SWAP1 SSTORE POP POP PUSH1 0x0 DUP1 SLOAD DUP1 PUSH2 0x4F8 JUMPI PUSH2 0x4F7 PUSH2 0x1FC7 JUMP JUMPDEST JUMPDEST PUSH1 0x1 SWAP1 SUB DUP2 DUP2 SWAP1 PUSH1 0x0 MSTORE PUSH1 0x20 PUSH1 0x0 KECCAK256 SWAP1 PUSH1 0x3 MUL ADD PUSH1 0x0 DUP1 DUP3 ADD PUSH1 0x0 PUSH2 0x51D SWAP2 SWAP1 PUSH2 0x1715 JUMP JUMPDEST PUSH1 0x1 DUP3 ADD PUSH1 0x0 PUSH2 0x100 EXP DUP2 SLOAD SWAP1 PUSH1 0xFF MUL NOT AND SWAP1 SSTORE PUSH1 0x2 DUP3 ADD PUSH1 0x0 SWAP1 SSTORE POP POP SWAP1 SSTORE POP JUMP JUMPDEST PUSH1 0x60 PUSH1 0x2 DUP3 DUP2 SLOAD DUP2 LT PUSH2 0x556 JUMPI PUSH2 0x555 PUSH2 0x1BAF JUMP JUMPDEST JUMPDEST SWAP1 PUSH1 0x0 MSTORE PUSH1 0x20 PUSH1 0x0 KECCAK256 SWAP1 PUSH1 0x3 MUL ADD PUSH1 0x0 ADD DUP1 SLOAD PUSH2 0x572 SWAP1 PUSH2 0x1C0D JUMP JUMPDEST DUP1 PUSH1 0x1F ADD PUSH1 0x20 DUP1 SWAP2 DIV MUL PUSH1 0x20 ADD PUSH1 0x40 MLOAD SWAP1 DUP2 ADD PUSH1 0x40 MSTORE DUP1 SWAP3 SWAP2 SWAP1 DUP2 DUP2 MSTORE PUSH1 0x20 ADD DUP3 DUP1 SLOAD PUSH2 0x59E SWAP1 PUSH2 0x1C0D JUMP JUMPDEST DUP1 ISZERO PUSH2 0x5EB JUMPI DUP1 PUSH1 0x1F LT PUSH2 0x5C0 JUMPI PUSH2 0x100 DUP1 DUP4 SLOAD DIV MUL DUP4 MSTORE SWAP2 PUSH1 0x20 ADD SWAP2 PUSH2 0x5EB JUMP JUMPDEST DUP3 ADD SWAP2 SWAP1 PUSH1 0x0 MSTORE PUSH1 0x20 PUSH1 0x0 KECCAK256 SWAP1 JUMPDEST DUP2 SLOAD DUP2 MSTORE SWAP1 PUSH1 0x1 ADD SWAP1 PUSH1 0x20 ADD DUP1 DUP4 GT PUSH2 0x5CE JUMPI DUP3 SWAP1 SUB PUSH1 0x1F AND DUP3 ADD SWAP2 JUMPDEST POP POP POP POP POP SWAP1 POP SWAP2 SWAP1 POP JUMP JUMPDEST PUSH1 0x0 PUSH1 0x40 MLOAD DUP1 PUSH1 0x60 ADD PUSH1 0x40 MSTORE DUP1 DUP4 DUP2 MSTORE PUSH1 0x20 ADD PUSH1 0x0 ISZERO ISZERO DUP2 MSTORE PUSH1 0x20 ADD PUSH1 0x0 DUP2 MSTORE POP SWAP1 DUP1 PUSH1 0x1 DUP2 SLOAD ADD DUP1 DUP3 SSTORE DUP1 SWAP2 POP POP PUSH1 0x1 SWAP1 SUB SWAP1 PUSH1 0x0 MSTORE PUSH1 0x20 PUSH1 0x0 KECCAK256 SWAP1 PUSH1 0x3 MUL ADD PUSH1 0x0 SWAP1 SWAP2 SWAP1 SWAP2 SWAP1 SWAP2 POP PUSH1 0x0 DUP3 ADD MLOAD DUP2 PUSH1 0x0 ADD SWAP1 DUP2 PUSH2 0x656 SWAP2 SWAP1 PUSH2 0x1FF6 JUMP JUMPDEST POP PUSH1 0x20 DUP3 ADD MLOAD DUP2 PUSH1 0x1 ADD PUSH1 0x0 PUSH2 0x100 EXP DUP2 SLOAD DUP2 PUSH1 0xFF MUL NOT AND SWAP1 DUP4 ISZERO ISZERO MUL OR SWAP1 SSTORE POP PUSH1 0x40 DUP3 ADD MLOAD DUP2 PUSH1 0x2 ADD SSTORE POP POP POP JUMP JUMPDEST PUSH1 0x60 PUSH1 0x0 DUP1 DUP1 SLOAD SWAP1 POP PUSH8 0xFFFFFFFFFFFFFFFF DUP2 GT ISZERO PUSH2 0x6A8 JUMPI PUSH2 0x6A7 PUSH2 0x18A5 JUMP JUMPDEST JUMPDEST PUSH1 0x40 MLOAD SWAP1 DUP1 DUP3 MSTORE DUP1 PUSH1 0x20 MUL PUSH1 0x20 ADD DUP3 ADD PUSH1 0x40 MSTORE DUP1 ISZERO PUSH2 0x6DB JUMPI DUP2 PUSH1 0x20 ADD JUMPDEST PUSH1 0x60 DUP2 MSTORE PUSH1 0x20 ADD SWAP1 PUSH1 0x1 SWAP1 SUB SWAP1 DUP2 PUSH2 0x6C6 JUMPI SWAP1 POP JUMPDEST POP SWAP1 POP PUSH1 0x0 JUMPDEST PUSH1 0x0 DUP1 SLOAD SWAP1 POP DUP2 LT ISZERO PUSH2 0x7CD JUMPI PUSH1 0x0 DUP2 DUP2 SLOAD DUP2 LT PUSH2 0x702 JUMPI PUSH2 0x701 PUSH2 0x1BAF JUMP JUMPDEST JUMPDEST SWAP1 PUSH1 0x0 MSTORE PUSH1 0x20 PUSH1 0x0 KECCAK256 SWAP1 PUSH1 0x3 MUL ADD PUSH1 0x0 ADD DUP1 SLOAD PUSH2 0x71E SWAP1 PUSH2 0x1C0D JUMP JUMPDEST DUP1 PUSH1 0x1F ADD PUSH1 0x20 DUP1 SWAP2 DIV MUL PUSH1 0x20 ADD PUSH1 0x40 MLOAD SWAP1 DUP2 ADD PUSH1 0x40 MSTORE DUP1 SWAP3 SWAP2 SWAP1 DUP2 DUP2 MSTORE PUSH1 0x20 ADD DUP3 DUP1 SLOAD PUSH2 0x74A SWAP1 PUSH2 0x1C0D JUMP JUMPDEST DUP1 ISZERO PUSH2 0x797 JUMPI DUP1 PUSH1 0x1F LT PUSH2 0x76C JUMPI PUSH2 0x100 DUP1 DUP4 SLOAD DIV MUL DUP4 MSTORE SWAP2 PUSH1 0x20 ADD SWAP2 PUSH2 0x797 JUMP JUMPDEST DUP3 ADD SWAP2 SWAP1 PUSH1 0x0 MSTORE PUSH1 0x20 PUSH1 0x0 KECCAK256 SWAP1 JUMPDEST DUP2 SLOAD DUP2 MSTORE SWAP1 PUSH1 0x1 ADD SWAP1 PUSH1 0x20 ADD DUP1 DUP4 GT PUSH2 0x77A JUMPI DUP3 SWAP1 SUB PUSH1 0x1F AND DUP3 ADD SWAP2 JUMPDEST POP POP POP POP POP DUP3 DUP3 DUP2 MLOAD DUP2 LT PUSH2 0x7AF JUMPI PUSH2 0x7AE PUSH2 0x1BAF JUMP JUMPDEST JUMPDEST PUSH1 0x20 MUL PUSH1 0x20 ADD ADD DUP2 SWAP1 MSTORE POP DUP1 DUP1 PUSH2 0x7C5 SWAP1 PUSH2 0x1F7F JUMP JUMPDEST SWAP2 POP POP PUSH2 0x6E1 JUMP JUMPDEST POP DUP1 SWAP2 POP POP SWAP1 JUMP JUMPDEST PUSH1 0x2 DUP1 SLOAD SWAP1 POP DUP2 LT PUSH2 0x81C JUMPI PUSH1 0x40 MLOAD PUSH32 0x8C379A000000000000000000000000000000000000000000000000000000000 DUP2 MSTORE PUSH1 0x4 ADD PUSH2 0x813 SWAP1 PUSH2 0x2114 JUMP JUMPDEST PUSH1 0x40 MLOAD DUP1 SWAP2 SUB SWAP1 REVERT JUMPDEST PUSH1 0x0 PUSH1 0x2 DUP3 DUP2 SLOAD DUP2 LT PUSH2 0x832 JUMPI PUSH2 0x831 PUSH2 0x1BAF JUMP JUMPDEST JUMPDEST SWAP1 PUSH1 0x0 MSTORE PUSH1 0x20 PUSH1 0x0 KECCAK256 SWAP1 PUSH1 0x3 MUL ADD PUSH1 0x40 MLOAD DUP1 PUSH1 0x60 ADD PUSH1 0x40 MSTORE SWAP1 DUP2 PUSH1 0x0 DUP3 ADD DUP1 SLOAD PUSH2 0x85B SWAP1 PUSH2 0x1C0D JUMP JUMPDEST DUP1 PUSH1 0x1F ADD PUSH1 0x20 DUP1 SWAP2 DIV MUL PUSH1 0x20 ADD PUSH1 0x40 MLOAD SWAP1 DUP2 ADD PUSH1 0x40 MSTORE DUP1 SWAP3 SWAP2 SWAP1 DUP2 DUP2 MSTORE PUSH1 0x20 ADD DUP3 DUP1 SLOAD PUSH2 0x887 SWAP1 PUSH2 0x1C0D JUMP JUMPDEST DUP1 ISZERO PUSH2 0x8D4 JUMPI DUP1 PUSH1 0x1F LT PUSH2 0x8A9 JUMPI PUSH2 0x100 DUP1 DUP4 SLOAD DIV MUL DUP4 MSTORE SWAP2 PUSH1 0x20 ADD SWAP2 PUSH2 0x8D4 JUMP JUMPDEST DUP3 ADD SWAP2 SWAP1 PUSH1 0x0 MSTORE PUSH1 0x20 PUSH1 0x0 KECCAK256 SWAP1 JUMPDEST DUP2 SLOAD DUP2 MSTORE SWAP1 PUSH1 0x1 ADD SWAP1 PUSH1 0x20 ADD DUP1 DUP4 GT PUSH2 0x8B7 JUMPI DUP3 SWAP1 SUB PUSH1 0x1F AND DUP3 ADD SWAP2 JUMPDEST POP POP POP POP POP DUP2 MSTORE PUSH1 0x20 ADD PUSH1 0x1 DUP3 ADD PUSH1 0x0 SWAP1 SLOAD SWAP1 PUSH2 0x100 EXP SWAP1 DIV PUSH1 0xFF AND ISZERO ISZERO ISZERO ISZERO DUP2 MSTORE PUSH1 0x20 ADD PUSH1 0x2 DUP3 ADD SLOAD DUP2 MSTORE POP POP SWAP1 POP PUSH1 0x3C DUP2 PUSH1 0x40 ADD MLOAD TIMESTAMP PUSH2 0x916 SWAP2 SWAP1 PUSH2 0x1C6D JUMP JUMPDEST LT PUSH2 0x956 JUMPI PUSH1 0x40 MLOAD PUSH32 0x8C379A000000000000000000000000000000000000000000000000000000000 DUP2 MSTORE PUSH1 0x4 ADD PUSH2 0x94D SWAP1 PUSH2 0x2180 JUMP JUMPDEST PUSH1 0x40 MLOAD DUP1 SWAP2 SUB SWAP1 REVERT JUMPDEST PUSH1 0x0 DUP3 SWAP1 POP JUMPDEST PUSH1 0x1 PUSH1 0x2 DUP1 SLOAD SWAP1 POP PUSH2 0x96E SWAP2 SWAP1 PUSH2 0x1C6D JUMP JUMPDEST DUP2 LT ISZERO PUSH2 0xA27 JUMPI PUSH1 0x2 PUSH1 0x1 DUP3 PUSH2 0x984 SWAP2 SWAP1 PUSH2 0x1CA1 JUMP JUMPDEST DUP2 SLOAD DUP2 LT PUSH2 0x995 JUMPI PUSH2 0x994 PUSH2 0x1BAF JUMP JUMPDEST JUMPDEST SWAP1 PUSH1 0x0 MSTORE PUSH1 0x20 PUSH1 0x0 KECCAK256 SWAP1 PUSH1 0x3 MUL ADD PUSH1 0x2 DUP3 DUP2 SLOAD DUP2 LT PUSH2 0x9B7 JUMPI PUSH2 0x9B6 PUSH2 0x1BAF JUMP JUMPDEST JUMPDEST SWAP1 PUSH1 0x0 MSTORE PUSH1 0x20 PUSH1 0x0 KECCAK256 SWAP1 PUSH1 0x3 MUL ADD PUSH1 0x0 DUP3 ADD DUP2 PUSH1 0x0 ADD SWAP1 DUP2 PUSH2 0x9D9 SWAP2 SWAP1 PUSH2 0x1E97 JUMP JUMPDEST POP PUSH1 0x1 DUP3 ADD PUSH1 0x0 SWAP1 SLOAD SWAP1 PUSH2 0x100 EXP SWAP1 DIV PUSH1 0xFF AND DUP2 PUSH1 0x1 ADD PUSH1 0x0 PUSH2 0x100 EXP DUP2 SLOAD DUP2 PUSH1 0xFF MUL NOT AND SWAP1 DUP4 ISZERO ISZERO MUL OR SWAP1 SSTORE POP PUSH1 0x2 DUP3 ADD SLOAD DUP2 PUSH1 0x2 ADD SSTORE SWAP1 POP POP DUP1 DUP1 PUSH2 0xA1F SWAP1 PUSH2 0x1F7F JUMP JUMPDEST SWAP2 POP POP PUSH2 0x95C JUMP JUMPDEST POP PUSH1 0x2 PUSH1 0x1 PUSH1 0x2 DUP1 SLOAD SWAP1 POP PUSH2 0xA3C SWAP2 SWAP1 PUSH2 0x1C6D JUMP JUMPDEST DUP2 SLOAD DUP2 LT PUSH2 0xA4D JUMPI PUSH2 0xA4C PUSH2 0x1BAF JUMP JUMPDEST JUMPDEST SWAP1 PUSH1 0x0 MSTORE PUSH1 0x20 PUSH1 0x0 KECCAK256 SWAP1 PUSH1 0x3 MUL ADD PUSH1 0x0 DUP1 DUP3 ADD PUSH1 0x0 PUSH2 0xA6C SWAP2 SWAP1 PUSH2 0x1715 JUMP JUMPDEST PUSH1 0x1 DUP3 ADD PUSH1 0x0 PUSH2 0x100 EXP DUP2 SLOAD SWAP1 PUSH1 0xFF MUL NOT AND SWAP1 SSTORE PUSH1 0x2 DUP3 ADD PUSH1 0x0 SWAP1 SSTORE POP POP PUSH1 0x2 DUP1 SLOAD DUP1 PUSH2 0xA9C JUMPI PUSH2 0xA9B PUSH2 0x1FC7 JUMP JUMPDEST JUMPDEST PUSH1 0x1 SWAP1 SUB DUP2 DUP2 SWAP1 PUSH1 0x0 MSTORE PUSH1 0x20 PUSH1 0x0 KECCAK256 SWAP1 PUSH1 0x3 MUL ADD PUSH1 0x0 DUP1 DUP3 ADD PUSH1 0x0 PUSH2 0xAC1 SWAP2 SWAP1 PUSH2 0x1715 JUMP JUMPDEST PUSH1 0x1 DUP3 ADD PUSH1 0x0 PUSH2 0x100 EXP DUP2 SLOAD SWAP1 PUSH1 0xFF MUL NOT AND SWAP1 SSTORE PUSH1 0x2 DUP3 ADD PUSH1 0x0 SWAP1 SSTORE POP POP SWAP1 SSTORE PUSH1 0x0 DUP2 SWAP1 DUP1 PUSH1 0x1 DUP2 SLOAD ADD DUP1 DUP3 SSTORE DUP1 SWAP2 POP POP PUSH1 0x1 SWAP1 SUB SWAP1 PUSH1 0x0 MSTORE PUSH1 0x20 PUSH1 0x0 KECCAK256 SWAP1 PUSH1 0x3 MUL ADD PUSH1 0x0 SWAP1 SWAP2 SWAP1 SWAP2 SWAP1 SWAP2 POP PUSH1 0x0 DUP3 ADD MLOAD DUP2 PUSH1 0x0 ADD SWAP1 DUP2 PUSH2 0xB22 SWAP2 SWAP1 PUSH2 0x1FF6 JUMP JUMPDEST POP PUSH1 0x20 DUP3 ADD MLOAD DUP2 PUSH1 0x1 ADD PUSH1 0x0 PUSH2 0x100 EXP DUP2 SLOAD DUP2 PUSH1 0xFF MUL NOT AND SWAP1 DUP4 ISZERO ISZERO MUL OR SWAP1 SSTORE POP PUSH1 0x40 DUP3 ADD MLOAD DUP2 PUSH1 0x2 ADD SSTORE POP POP POP POP JUMP JUMPDEST PUSH1 0x2 DUP2 DUP2 SLOAD DUP2 LT PUSH2 0xB63 JUMPI PUSH1 0x0 DUP1 REVERT JUMPDEST SWAP1 PUSH1 0x0 MSTORE PUSH1 0x20 PUSH1 0x0 KECCAK256 SWAP1 PUSH1 0x3 MUL ADD PUSH1 0x0 SWAP2 POP SWAP1 POP DUP1 PUSH1 0x0 ADD DUP1 SLOAD PUSH2 0xB86 SWAP1 PUSH2 0x1C0D JUMP JUMPDEST DUP1 PUSH1 0x1F ADD PUSH1 0x20 DUP1 SWAP2 DIV MUL PUSH1 0x20 ADD PUSH1 0x40 MLOAD SWAP1 DUP2 ADD PUSH1 0x40 MSTORE DUP1 SWAP3 SWAP2 SWAP1 DUP2 DUP2 MSTORE PUSH1 0x20 ADD DUP3 DUP1 SLOAD PUSH2 0xBB2 SWAP1 PUSH2 0x1C0D JUMP JUMPDEST DUP1 ISZERO PUSH2 0xBFF JUMPI DUP1 PUSH1 0x1F LT PUSH2 0xBD4 JUMPI PUSH2 0x100 DUP1 DUP4 SLOAD DIV MUL DUP4 MSTORE SWAP2 PUSH1 0x20 ADD SWAP2 PUSH2 0xBFF JUMP JUMPDEST DUP3 ADD SWAP2 SWAP1 PUSH1 0x0 MSTORE PUSH1 0x20 PUSH1 0x0 KECCAK256 SWAP1 JUMPDEST DUP2 SLOAD DUP2 MSTORE SWAP1 PUSH1 0x1 ADD SWAP1 PUSH1 0x20 ADD DUP1 DUP4 GT PUSH2 0xBE2 JUMPI DUP3 SWAP1 SUB PUSH1 0x1F AND DUP3 ADD SWAP2 JUMPDEST POP POP POP POP POP SWAP1 DUP1 PUSH1 0x1 ADD PUSH1 0x0 SWAP1 SLOAD SWAP1 PUSH2 0x100 EXP SWAP1 DIV PUSH1 0xFF AND SWAP1 DUP1 PUSH1 0x2 ADD SLOAD SWAP1 POP DUP4 JUMP JUMPDEST PUSH1 0x0 DUP2 DUP2 SLOAD DUP2 LT PUSH2 0xC32 JUMPI PUSH1 0x0 DUP1 REVERT JUMPDEST SWAP1 PUSH1 0x0 MSTORE PUSH1 0x20 PUSH1 0x0 KECCAK256 SWAP1 PUSH1 0x3 MUL ADD PUSH1 0x0 SWAP2 POP SWAP1 POP DUP1 PUSH1 0x0 ADD DUP1 SLOAD PUSH2 0xC55 SWAP1 PUSH2 0x1C0D JUMP JUMPDEST DUP1 PUSH1 0x1F ADD PUSH1 0x20 DUP1 SWAP2 DIV MUL PUSH1 0x20 ADD PUSH1 0x40 MLOAD SWAP1 DUP2 ADD PUSH1 0x40 MSTORE DUP1 SWAP3 SWAP2 SWAP1 DUP2 DUP2 MSTORE PUSH1 0x20 ADD DUP3 DUP1 SLOAD PUSH2 0xC81 SWAP1 PUSH2 0x1C0D JUMP JUMPDEST DUP1 ISZERO PUSH2 0xCCE JUMPI DUP1 PUSH1 0x1F LT PUSH2 0xCA3 JUMPI PUSH2 0x100 DUP1 DUP4 SLOAD DIV MUL DUP4 MSTORE SWAP2 PUSH1 0x20 ADD SWAP2 PUSH2 0xCCE JUMP JUMPDEST DUP3 ADD SWAP2 SWAP1 PUSH1 0x0 MSTORE PUSH1 0x20 PUSH1 0x0 KECCAK256 SWAP1 JUMPDEST DUP2 SLOAD DUP2 MSTORE SWAP1 PUSH1 0x1 ADD SWAP1 PUSH1 0x20 ADD DUP1 DUP4 GT PUSH2 0xCB1 JUMPI DUP3 SWAP1 SUB PUSH1 0x1F AND DUP3 ADD SWAP2 JUMPDEST POP POP POP POP POP SWAP1 DUP1 PUSH1 0x1 ADD PUSH1 0x0 SWAP1 SLOAD SWAP1 PUSH2 0x100 EXP SWAP1 DIV PUSH1 0xFF AND SWAP1 DUP1 PUSH1 0x2 ADD SLOAD SWAP1 POP DUP4 JUMP JUMPDEST PUSH1 0x0 DUP1 DUP3 DUP2 SLOAD DUP2 LT PUSH2 0xD06 JUMPI PUSH2 0xD05 PUSH2 0x1BAF JUMP JUMPDEST JUMPDEST SWAP1 PUSH1 0x0 MSTORE PUSH1 0x20 PUSH1 0x0 KECCAK256 SWAP1 PUSH1 0x3 MUL ADD PUSH1 0x40 MLOAD DUP1 PUSH1 0x60 ADD PUSH1 0x40 MSTORE SWAP1 DUP2 PUSH1 0x0 DUP3 ADD DUP1 SLOAD PUSH2 0xD2F SWAP1 PUSH2 0x1C0D JUMP JUMPDEST DUP1 PUSH1 0x1F ADD PUSH1 0x20 DUP1 SWAP2 DIV MUL PUSH1 0x20 ADD PUSH1 0x40 MLOAD SWAP1 DUP2 ADD PUSH1 0x40 MSTORE DUP1 SWAP3 SWAP2 SWAP1 DUP2 DUP2 MSTORE PUSH1 0x20 ADD DUP3 DUP1 SLOAD PUSH2 0xD5B SWAP1 PUSH2 0x1C0D JUMP JUMPDEST DUP1 ISZERO PUSH2 0xDA8 JUMPI DUP1 PUSH1 0x1F LT PUSH2 0xD7D JUMPI PUSH2 0x100 DUP1 DUP4 SLOAD DIV MUL DUP4 MSTORE SWAP2 PUSH1 0x20 ADD SWAP2 PUSH2 0xDA8 JUMP JUMPDEST DUP3 ADD SWAP2 SWAP1 PUSH1 0x0 MSTORE PUSH1 0x20 PUSH1 0x0 KECCAK256 SWAP1 JUMPDEST DUP2 SLOAD DUP2 MSTORE SWAP1 PUSH1 0x1 ADD SWAP1 PUSH1 0x20 ADD DUP1 DUP4 GT PUSH2 0xD8B JUMPI DUP3 SWAP1 SUB PUSH1 0x1F AND DUP3 ADD SWAP2 JUMPDEST POP POP POP POP POP DUP2 MSTORE PUSH1 0x20 ADD PUSH1 0x1 DUP3 ADD PUSH1 0x0 SWAP1 SLOAD SWAP1 PUSH2 0x100 EXP SWAP1 DIV PUSH1 0xFF AND ISZERO ISZERO ISZERO ISZERO DUP2 MSTORE PUSH1 0x20 ADD PUSH1 0x2 DUP3 ADD SLOAD DUP2 MSTORE POP POP SWAP1 POP PUSH1 0x0 DUP2 PUSH1 0x20 ADD SWAP1 ISZERO ISZERO SWAP1 DUP2 ISZERO ISZERO DUP2 MSTORE POP POP TIMESTAMP DUP2 PUSH1 0x40 ADD DUP2 DUP2 MSTORE POP POP PUSH1 0x0 DUP3 SWAP1 POP JUMPDEST PUSH1 0x1 PUSH1 0x0 DUP1 SLOAD SWAP1 POP PUSH2 0xE0B SWAP2 SWAP1 PUSH2 0x1C6D JUMP JUMPDEST DUP2 LT ISZERO PUSH2 0xEC4 JUMPI PUSH1 0x0 PUSH1 0x1 DUP3 PUSH2 0xE21 SWAP2 SWAP1 PUSH2 0x1CA1 JUMP JUMPDEST DUP2 SLOAD DUP2 LT PUSH2 0xE32 JUMPI PUSH2 0xE31 PUSH2 0x1BAF JUMP JUMPDEST JUMPDEST SWAP1 PUSH1 0x0 MSTORE PUSH1 0x20 PUSH1 0x0 KECCAK256 SWAP1 PUSH1 0x3 MUL ADD PUSH1 0x0 DUP3 DUP2 SLOAD DUP2 LT PUSH2 0xE54 JUMPI PUSH2 0xE53 PUSH2 0x1BAF JUMP JUMPDEST JUMPDEST SWAP1 PUSH1 0x0 MSTORE PUSH1 0x20 PUSH1 0x0 KECCAK256 SWAP1 PUSH1 0x3 MUL ADD PUSH1 0x0 DUP3 ADD DUP2 PUSH1 0x0 ADD SWAP1 DUP2 PUSH2 0xE76 SWAP2 SWAP1 PUSH2 0x1E97 JUMP JUMPDEST POP PUSH1 0x1 DUP3 ADD PUSH1 0x0 SWAP1 SLOAD SWAP1 PUSH2 0x100 EXP SWAP1 DIV PUSH1 0xFF AND DUP2 PUSH1 0x1 ADD PUSH1 0x0 PUSH2 0x100 EXP DUP2 SLOAD DUP2 PUSH1 0xFF MUL NOT AND SWAP1 DUP4 ISZERO ISZERO MUL OR SWAP1 SSTORE POP PUSH1 0x2 DUP3 ADD SLOAD DUP2 PUSH1 0x2 ADD SSTORE SWAP1 POP POP DUP1 DUP1 PUSH2 0xEBC SWAP1 PUSH2 0x1F7F JUMP JUMPDEST SWAP2 POP POP PUSH2 0xDF9 JUMP JUMPDEST POP PUSH1 0x0 PUSH1 0x1 PUSH1 0x0 DUP1 SLOAD SWAP1 POP PUSH2 0xED9 SWAP2 SWAP1 PUSH2 0x1C6D JUMP JUMPDEST DUP2 SLOAD DUP2 LT PUSH2 0xEEA JUMPI PUSH2 0xEE9 PUSH2 0x1BAF JUMP JUMPDEST JUMPDEST SWAP1 PUSH1 0x0 MSTORE PUSH1 0x20 PUSH1 0x0 KECCAK256 SWAP1 PUSH1 0x3 MUL ADD PUSH1 0x0 DUP1 DUP3 ADD PUSH1 0x0 PUSH2 0xF09 SWAP2 SWAP1 PUSH2 0x1715 JUMP JUMPDEST PUSH1 0x1 DUP3 ADD PUSH1 0x0 PUSH2 0x100 EXP DUP2 SLOAD SWAP1 PUSH1 0xFF MUL NOT AND SWAP1 SSTORE PUSH1 0x2 DUP3 ADD PUSH1 0x0 SWAP1 SSTORE POP POP PUSH1 0x0 DUP1 SLOAD DUP1 PUSH2 0xF39 JUMPI PUSH2 0xF38 PUSH2 0x1FC7 JUMP JUMPDEST JUMPDEST PUSH1 0x1 SWAP1 SUB DUP2 DUP2 SWAP1 PUSH1 0x0 MSTORE PUSH1 0x20 PUSH1 0x0 KECCAK256 SWAP1 PUSH1 0x3 MUL ADD PUSH1 0x0 DUP1 DUP3 ADD PUSH1 0x0 PUSH2 0xF5E SWAP2 SWAP1 PUSH2 0x1715 JUMP JUMPDEST PUSH1 0x1 DUP3 ADD PUSH1 0x0 PUSH2 0x100 EXP DUP2 SLOAD SWAP1 PUSH1 0xFF MUL NOT AND SWAP1 SSTORE PUSH1 0x2 DUP3 ADD PUSH1 0x0 SWAP1 SSTORE POP POP SWAP1 SSTORE PUSH1 0x2 DUP2 SWAP1 DUP1 PUSH1 0x1 DUP2 SLOAD ADD DUP1 DUP3 SSTORE DUP1 SWAP2 POP POP PUSH1 0x1 SWAP1 SUB SWAP1 PUSH1 0x0 MSTORE PUSH1 0x20 PUSH1 0x0 KECCAK256 SWAP1 PUSH1 0x3 MUL ADD PUSH1 0x0 SWAP1 SWAP2 SWAP1 SWAP2 SWAP1 SWAP2 POP PUSH1 0x0 DUP3 ADD MLOAD DUP2 PUSH1 0x0 ADD SWAP1 DUP2 PUSH2 0xFBF SWAP2 SWAP1 PUSH2 0x1FF6 JUMP JUMPDEST POP PUSH1 0x20 DUP3 ADD MLOAD DUP2 PUSH1 0x1 ADD PUSH1 0x0 PUSH2 0x100 EXP DUP2 SLOAD DUP2 PUSH1 0xFF MUL NOT AND SWAP1 DUP4 ISZERO ISZERO MUL OR SWAP1 SSTORE POP PUSH1 0x40 DUP3 ADD MLOAD DUP2 PUSH1 0x2 ADD SSTORE POP POP POP POP JUMP JUMPDEST PUSH1 0x60 PUSH1 0x0 DUP3 DUP2 SLOAD DUP2 LT PUSH2 0x1006 JUMPI PUSH2 0x1005 PUSH2 0x1BAF JUMP JUMPDEST JUMPDEST SWAP1 PUSH1 0x0 MSTORE PUSH1 0x20 PUSH1 0x0 KECCAK256 SWAP1 PUSH1 0x3 MUL ADD PUSH1 0x0 ADD DUP1 SLOAD PUSH2 0x1022 SWAP1 PUSH2 0x1C0D JUMP JUMPDEST DUP1 PUSH1 0x1F ADD PUSH1 0x20 DUP1 SWAP2 DIV MUL PUSH1 0x20 ADD PUSH1 0x40 MLOAD SWAP1 DUP2 ADD PUSH1 0x40 MSTORE DUP1 SWAP3 SWAP2 SWAP1 DUP2 DUP2 MSTORE PUSH1 0x20 ADD DUP3 DUP1 SLOAD PUSH2 0x104E SWAP1 PUSH2 0x1C0D JUMP JUMPDEST DUP1 ISZERO PUSH2 0x109B JUMPI DUP1 PUSH1 0x1F LT PUSH2 0x1070 JUMPI PUSH2 0x100 DUP1 DUP4 SLOAD DIV MUL DUP4 MSTORE SWAP2 PUSH1 0x20 ADD SWAP2 PUSH2 0x109B JUMP JUMPDEST DUP3 ADD SWAP2 SWAP1 PUSH1 0x0 MSTORE PUSH1 0x20 PUSH1 0x0 KECCAK256 SWAP1 JUMPDEST DUP2 SLOAD DUP2 MSTORE SWAP1 PUSH1 0x1 ADD SWAP1 PUSH1 0x20 ADD DUP1 DUP4 GT PUSH2 0x107E JUMPI DUP3 SWAP1 SUB PUSH1 0x1F AND DUP3 ADD SWAP2 JUMPDEST POP POP POP POP POP SWAP1 POP SWAP2 SWAP1 POP JUMP JUMPDEST PUSH1 0x60 PUSH1 0x0 PUSH1 0x1 DUP1 SLOAD SWAP1 POP PUSH8 0xFFFFFFFFFFFFFFFF DUP2 GT ISZERO PUSH2 0x10CA JUMPI PUSH2 0x10C9 PUSH2 0x18A5 JUMP JUMPDEST JUMPDEST PUSH1 0x40 MLOAD SWAP1 DUP1 DUP3 MSTORE DUP1 PUSH1 0x20 MUL PUSH1 0x20 ADD DUP3 ADD PUSH1 0x40 MSTORE DUP1 ISZERO PUSH2 0x10FD JUMPI DUP2 PUSH1 0x20 ADD JUMPDEST PUSH1 0x60 DUP2 MSTORE PUSH1 0x20 ADD SWAP1 PUSH1 0x1 SWAP1 SUB SWAP1 DUP2 PUSH2 0x10E8 JUMPI SWAP1 POP JUMPDEST POP SWAP1 POP PUSH1 0x0 JUMPDEST PUSH1 0x1 DUP1 SLOAD SWAP1 POP DUP2 LT ISZERO PUSH2 0x11EF JUMPI PUSH1 0x1 DUP2 DUP2 SLOAD DUP2 LT PUSH2 0x1124 JUMPI PUSH2 0x1123 PUSH2 0x1BAF JUMP JUMPDEST JUMPDEST SWAP1 PUSH1 0x0 MSTORE PUSH1 0x20 PUSH1 0x0 KECCAK256 SWAP1 PUSH1 0x3 MUL ADD PUSH1 0x0 ADD DUP1 SLOAD PUSH2 0x1140 SWAP1 PUSH2 0x1C0D JUMP JUMPDEST DUP1 PUSH1 0x1F ADD PUSH1 0x20 DUP1 SWAP2 DIV MUL PUSH1 0x20 ADD PUSH1 0x40 MLOAD SWAP1 DUP2 ADD PUSH1 0x40 MSTORE DUP1 SWAP3 SWAP2 SWAP1 DUP2 DUP2 MSTORE PUSH1 0x20 ADD DUP3 DUP1 SLOAD PUSH2 0x116C SWAP1 PUSH2 0x1C0D JUMP JUMPDEST DUP1 ISZERO PUSH2 0x11B9 JUMPI DUP1 PUSH1 0x1F LT PUSH2 0x118E JUMPI PUSH2 0x100 DUP1 DUP4 SLOAD DIV MUL DUP4 MSTORE SWAP2 PUSH1 0x20 ADD SWAP2 PUSH2 0x11B9 JUMP JUMPDEST DUP3 ADD SWAP2 SWAP1 PUSH1 0x0 MSTORE PUSH1 0x20 PUSH1 0x0 KECCAK256 SWAP1 JUMPDEST DUP2 SLOAD DUP2 MSTORE SWAP1 PUSH1 0x1 ADD SWAP1 PUSH1 0x20 ADD DUP1 DUP4 GT PUSH2 0x119C JUMPI DUP3 SWAP1 SUB PUSH1 0x1F AND DUP3 ADD SWAP2 JUMPDEST POP POP POP POP POP DUP3 DUP3 DUP2 MLOAD DUP2 LT PUSH2 0x11D1 JUMPI PUSH2 0x11D0 PUSH2 0x1BAF JUMP JUMPDEST JUMPDEST PUSH1 0x20 MUL PUSH1 0x20 ADD ADD DUP2 SWAP1 MSTORE POP DUP1 DUP1 PUSH2 0x11E7 SWAP1 PUSH2 0x1F7F JUMP JUMPDEST SWAP2 POP POP PUSH2 0x1103 JUMP JUMPDEST POP DUP1 SWAP2 POP POP SWAP1 JUMP JUMPDEST PUSH1 0x60 PUSH1 0x0 PUSH1 0x2 DUP1 SLOAD SWAP1 POP PUSH8 0xFFFFFFFFFFFFFFFF DUP2 GT ISZERO PUSH2 0x121A JUMPI PUSH2 0x1219 PUSH2 0x18A5 JUMP JUMPDEST JUMPDEST PUSH1 0x40 MLOAD SWAP1 DUP1 DUP3 MSTORE DUP1 PUSH1 0x20 MUL PUSH1 0x20 ADD DUP3 ADD PUSH1 0x40 MSTORE DUP1 ISZERO PUSH2 0x124D JUMPI DUP2 PUSH1 0x20 ADD JUMPDEST PUSH1 0x60 DUP2 MSTORE PUSH1 0x20 ADD SWAP1 PUSH1 0x1 SWAP1 SUB SWAP1 DUP2 PUSH2 0x1238 JUMPI SWAP1 POP JUMPDEST POP SWAP1 POP PUSH1 0x0 JUMPDEST PUSH1 0x2 DUP1 SLOAD SWAP1 POP DUP2 LT ISZERO PUSH2 0x133F JUMPI PUSH1 0x2 DUP2 DUP2 SLOAD DUP2 LT PUSH2 0x1274 JUMPI PUSH2 0x1273 PUSH2 0x1BAF JUMP JUMPDEST JUMPDEST SWAP1 PUSH1 0x0 MSTORE PUSH1 0x20 PUSH1 0x0 KECCAK256 SWAP1 PUSH1 0x3 MUL ADD PUSH1 0x0 ADD DUP1 SLOAD PUSH2 0x1290 SWAP1 PUSH2 0x1C0D JUMP JUMPDEST DUP1 PUSH1 0x1F ADD PUSH1 0x20 DUP1 SWAP2 DIV MUL PUSH1 0x20 ADD PUSH1 0x40 MLOAD SWAP1 DUP2 ADD PUSH1 0x40 MSTORE DUP1 SWAP3 SWAP2 SWAP1 DUP2 DUP2 MSTORE PUSH1 0x20 ADD DUP3 DUP1 SLOAD PUSH2 0x12BC SWAP1 PUSH2 0x1C0D JUMP JUMPDEST DUP1 ISZERO PUSH2 0x1309 JUMPI DUP1 PUSH1 0x1F LT PUSH2 0x12DE JUMPI PUSH2 0x100 DUP1 DUP4 SLOAD DIV MUL DUP4 MSTORE SWAP2 PUSH1 0x20 ADD SWAP2 PUSH2 0x1309 JUMP JUMPDEST DUP3 ADD SWAP2 SWAP1 PUSH1 0x0 MSTORE PUSH1 0x20 PUSH1 0x0 KECCAK256 SWAP1 JUMPDEST DUP2 SLOAD DUP2 MSTORE SWAP1 PUSH1 0x1 ADD SWAP1 PUSH1 0x20 ADD DUP1 DUP4 GT PUSH2 0x12EC JUMPI DUP3 SWAP1 SUB PUSH1 0x1F AND DUP3 ADD SWAP2 JUMPDEST POP POP POP POP POP DUP3 DUP3 DUP2 MLOAD DUP2 LT PUSH2 0x1321 JUMPI PUSH2 0x1320 PUSH2 0x1BAF JUMP JUMPDEST JUMPDEST PUSH1 0x20 MUL PUSH1 0x20 ADD ADD DUP2 SWAP1 MSTORE POP DUP1 DUP1 PUSH2 0x1337 SWAP1 PUSH2 0x1F7F JUMP JUMPDEST SWAP2 POP POP PUSH2 0x1253 JUMP JUMPDEST POP DUP1 SWAP2 POP POP SWAP1 JUMP JUMPDEST PUSH1 0x0 DUP1 DUP3 DUP2 SLOAD DUP2 LT PUSH2 0x135C JUMPI PUSH2 0x135B PUSH2 0x1BAF JUMP JUMPDEST JUMPDEST SWAP1 PUSH1 0x0 MSTORE PUSH1 0x20 PUSH1 0x0 KECCAK256 SWAP1 PUSH1 0x3 MUL ADD PUSH1 0x40 MLOAD DUP1 PUSH1 0x60 ADD PUSH1 0x40 MSTORE SWAP1 DUP2 PUSH1 0x0 DUP3 ADD DUP1 SLOAD PUSH2 0x1385 SWAP1 PUSH2 0x1C0D JUMP JUMPDEST DUP1 PUSH1 0x1F ADD PUSH1 0x20 DUP1 SWAP2 DIV MUL PUSH1 0x20 ADD PUSH1 0x40 MLOAD SWAP1 DUP2 ADD PUSH1 0x40 MSTORE DUP1 SWAP3 SWAP2 SWAP1 DUP2 DUP2 MSTORE PUSH1 0x20 ADD DUP3 DUP1 SLOAD PUSH2 0x13B1 SWAP1 PUSH2 0x1C0D JUMP JUMPDEST DUP1 ISZERO PUSH2 0x13FE JUMPI DUP1 PUSH1 0x1F LT PUSH2 0x13D3 JUMPI PUSH2 0x100 DUP1 DUP4 SLOAD DIV MUL DUP4 MSTORE SWAP2 PUSH1 0x20 ADD SWAP2 PUSH2 0x13FE JUMP JUMPDEST DUP3 ADD SWAP2 SWAP1 PUSH1 0x0 MSTORE PUSH1 0x20 PUSH1 0x0 KECCAK256 SWAP1 JUMPDEST DUP2 SLOAD DUP2 MSTORE SWAP1 PUSH1 0x1 ADD SWAP1 PUSH1 0x20 ADD DUP1 DUP4 GT PUSH2 0x13E1 JUMPI DUP3 SWAP1 SUB PUSH1 0x1F AND DUP3 ADD SWAP2 JUMPDEST POP POP POP POP POP DUP2 MSTORE PUSH1 0x20 ADD PUSH1 0x1 DUP3 ADD PUSH1 0x0 SWAP1 SLOAD SWAP1 PUSH2 0x100 EXP SWAP1 DIV PUSH1 0xFF AND ISZERO ISZERO ISZERO ISZERO DUP2 MSTORE PUSH1 0x20 ADD PUSH1 0x2 DUP3 ADD SLOAD DUP2 MSTORE POP POP SWAP1 POP PUSH1 0x1 DUP2 PUSH1 0x20 ADD SWAP1 ISZERO ISZERO SWAP1 DUP2 ISZERO ISZERO DUP2 MSTORE POP POP TIMESTAMP DUP2 PUSH1 0x40 ADD DUP2 DUP2 MSTORE POP POP PUSH1 0x0 DUP3 SWAP1 POP JUMPDEST PUSH1 0x1 PUSH1 0x0 DUP1 SLOAD SWAP1 POP PUSH2 0x1461 SWAP2 SWAP1 PUSH2 0x1C6D JUMP JUMPDEST DUP2 LT ISZERO PUSH2 0x151A JUMPI PUSH1 0x0 PUSH1 0x1 DUP3 PUSH2 0x1477 SWAP2 SWAP1 PUSH2 0x1CA1 JUMP JUMPDEST DUP2 SLOAD DUP2 LT PUSH2 0x1488 JUMPI PUSH2 0x1487 PUSH2 0x1BAF JUMP JUMPDEST JUMPDEST SWAP1 PUSH1 0x0 MSTORE PUSH1 0x20 PUSH1 0x0 KECCAK256 SWAP1 PUSH1 0x3 MUL ADD PUSH1 0x0 DUP3 DUP2 SLOAD DUP2 LT PUSH2 0x14AA JUMPI PUSH2 0x14A9 PUSH2 0x1BAF JUMP JUMPDEST JUMPDEST SWAP1 PUSH1 0x0 MSTORE PUSH1 0x20 PUSH1 0x0 KECCAK256 SWAP1 PUSH1 0x3 MUL ADD PUSH1 0x0 DUP3 ADD DUP2 PUSH1 0x0 ADD SWAP1 DUP2 PUSH2 0x14CC SWAP2 SWAP1 PUSH2 0x1E97 JUMP JUMPDEST POP PUSH1 0x1 DUP3 ADD PUSH1 0x0 SWAP1 SLOAD SWAP1 PUSH2 0x100 EXP SWAP1 DIV PUSH1 0xFF AND DUP2 PUSH1 0x1 ADD PUSH1 0x0 PUSH2 0x100 EXP DUP2 SLOAD DUP2 PUSH1 0xFF MUL NOT AND SWAP1 DUP4 ISZERO ISZERO MUL OR SWAP1 SSTORE POP PUSH1 0x2 DUP3 ADD SLOAD DUP2 PUSH1 0x2 ADD SSTORE SWAP1 POP POP DUP1 DUP1 PUSH2 0x1512 SWAP1 PUSH2 0x1F7F JUMP JUMPDEST SWAP2 POP POP PUSH2 0x144F JUMP JUMPDEST POP PUSH1 0x0 PUSH1 0x1 PUSH1 0x0 DUP1 SLOAD SWAP1 POP PUSH2 0x152F SWAP2 SWAP1 PUSH2 0x1C6D JUMP JUMPDEST DUP2 SLOAD DUP2 LT PUSH2 0x1540 JUMPI PUSH2 0x153F PUSH2 0x1BAF JUMP JUMPDEST JUMPDEST SWAP1 PUSH1 0x0 MSTORE PUSH1 0x20 PUSH1 0x0 KECCAK256 SWAP1 PUSH1 0x3 MUL ADD PUSH1 0x0 DUP1 DUP3 ADD PUSH1 0x0 PUSH2 0x155F SWAP2 SWAP1 PUSH2 0x1715 JUMP JUMPDEST PUSH1 0x1 DUP3 ADD PUSH1 0x0 PUSH2 0x100 EXP DUP2 SLOAD SWAP1 PUSH1 0xFF MUL NOT AND SWAP1 SSTORE PUSH1 0x2 DUP3 ADD PUSH1 0x0 SWAP1 SSTORE POP POP PUSH1 0x0 DUP1 SLOAD DUP1 PUSH2 0x158F JUMPI PUSH2 0x158E PUSH2 0x1FC7 JUMP JUMPDEST JUMPDEST PUSH1 0x1 SWAP1 SUB DUP2 DUP2 SWAP1 PUSH1 0x0 MSTORE PUSH1 0x20 PUSH1 0x0 KECCAK256 SWAP1 PUSH1 0x3 MUL ADD PUSH1 0x0 DUP1 DUP3 ADD PUSH1 0x0 PUSH2 0x15B4 SWAP2 SWAP1 PUSH2 0x1715 JUMP JUMPDEST PUSH1 0x1 DUP3 ADD PUSH1 0x0 PUSH2 0x100 EXP DUP2 SLOAD SWAP1 PUSH1 0xFF MUL NOT AND SWAP1 SSTORE PUSH1 0x2 DUP3 ADD PUSH1 0x0 SWAP1 SSTORE POP POP SWAP1 SSTORE PUSH1 0x1 DUP2 SWAP1 DUP1 PUSH1 0x1 DUP2 SLOAD ADD DUP1 DUP3 SSTORE DUP1 SWAP2 POP POP PUSH1 0x1 SWAP1 SUB SWAP1 PUSH1 0x0 MSTORE PUSH1 0x20 PUSH1 0x0 KECCAK256 SWAP1 PUSH1 0x3 MUL ADD PUSH1 0x0 SWAP1 SWAP2 SWAP1 SWAP2 SWAP1 SWAP2 POP PUSH1 0x0 DUP3 ADD MLOAD DUP2 PUSH1 0x0 ADD SWAP1 DUP2 PUSH2 0x1615 SWAP2 SWAP1 PUSH2 0x1FF6 JUMP JUMPDEST POP PUSH1 0x20 DUP3 ADD MLOAD DUP2 PUSH1 0x1 ADD PUSH1 0x0 PUSH2 0x100 EXP DUP2 SLOAD DUP2 PUSH1 0xFF MUL NOT AND SWAP1 DUP4 ISZERO ISZERO MUL OR SWAP1 SSTORE POP PUSH1 0x40 DUP3 ADD MLOAD DUP2 PUSH1 0x2 ADD SSTORE POP POP POP POP JUMP JUMPDEST PUSH1 0x1 DUP2 DUP2 SLOAD DUP2 LT PUSH2 0x1656 JUMPI PUSH1 0x0 DUP1 REVERT JUMPDEST SWAP1 PUSH1 0x0 MSTORE PUSH1 0x20 PUSH1 0x0 KECCAK256 SWAP1 PUSH1 0x3 MUL ADD PUSH1 0x0 SWAP2 POP SWAP1 POP DUP1 PUSH1 0x0 ADD DUP1 SLOAD PUSH2 0x1679 SWAP1 PUSH2 0x1C0D JUMP JUMPDEST DUP1 PUSH1 0x1F ADD PUSH1 0x20 DUP1 SWAP2 DIV MUL PUSH1 0x20 ADD PUSH1 0x40 MLOAD SWAP1 DUP2 ADD PUSH1 0x40 MSTORE DUP1 SWAP3 SWAP2 SWAP1 DUP2 DUP2 MSTORE PUSH1 0x20 ADD DUP3 DUP1 SLOAD PUSH2 0x16A5 SWAP1 PUSH2 0x1C0D JUMP JUMPDEST DUP1 ISZERO PUSH2 0x16F2 JUMPI DUP1 PUSH1 0x1F LT PUSH2 0x16C7 JUMPI PUSH2 0x100 DUP1 DUP4 SLOAD DIV MUL DUP4 MSTORE SWAP2 PUSH1 0x20 ADD SWAP2 PUSH2 0x16F2 JUMP JUMPDEST DUP3 ADD SWAP2 SWAP1 PUSH1 0x0 MSTORE PUSH1 0x20 PUSH1 0x0 KECCAK256 SWAP1 JUMPDEST DUP2 SLOAD DUP2 MSTORE SWAP1 PUSH1 0x1 ADD SWAP1 PUSH1 0x20 ADD DUP1 DUP4 GT PUSH2 0x16D5 JUMPI DUP3 SWAP1 SUB PUSH1 0x1F AND DUP3 ADD SWAP2 JUMPDEST POP POP POP POP POP SWAP1 DUP1 PUSH1 0x1 ADD PUSH1 0x0 SWAP1 SLOAD SWAP1 PUSH2 0x100 EXP SWAP1 DIV PUSH1 0xFF AND SWAP1 DUP1 PUSH1 0x2 ADD SLOAD SWAP1 POP DUP4 JUMP JUMPDEST POP DUP1 SLOAD PUSH2 0x1721 SWAP1 PUSH2 0x1C0D JUMP JUMPDEST PUSH1 0x0 DUP3 SSTORE DUP1 PUSH1 0x1F LT PUSH2 0x1733 JUMPI POP PUSH2 0x1752 JUMP JUMPDEST PUSH1 0x1F ADD PUSH1 0x20 SWAP1 DIV SWAP1 PUSH1 0x0 MSTORE PUSH1 0x20 PUSH1 0x0 KECCAK256 SWAP1 DUP2 ADD SWAP1 PUSH2 0x1751 SWAP2 SWAP1 PUSH2 0x1755 JUMP JUMPDEST JUMPDEST POP JUMP JUMPDEST JUMPDEST DUP1 DUP3 GT ISZERO PUSH2 0x176E JUMPI PUSH1 0x0 DUP2 PUSH1 0x0 SWAP1 SSTORE POP PUSH1 0x1 ADD PUSH2 0x1756 JUMP JUMPDEST POP SWAP1 JUMP JUMPDEST PUSH1 0x0 PUSH1 0x40 MLOAD SWAP1 POP SWAP1 JUMP JUMPDEST PUSH1 0x0 DUP1 REVERT JUMPDEST PUSH1 0x0 DUP1 REVERT JUMPDEST PUSH1 0x0 DUP2 SWAP1 POP SWAP2 SWAP1 POP JUMP JUMPDEST PUSH2 0x1799 DUP2 PUSH2 0x1786 JUMP JUMPDEST DUP2 EQ PUSH2 0x17A4 JUMPI PUSH1 0x0 DUP1 REVERT JUMPDEST POP JUMP JUMPDEST PUSH1 0x0 DUP2 CALLDATALOAD SWAP1 POP PUSH2 0x17B6 DUP2 PUSH2 0x1790 JUMP JUMPDEST SWAP3 SWAP2 POP POP JUMP JUMPDEST PUSH1 0x0 PUSH1 0x20 DUP3 DUP5 SUB SLT ISZERO PUSH2 0x17D2 JUMPI PUSH2 0x17D1 PUSH2 0x177C JUMP JUMPDEST JUMPDEST PUSH1 0x0 PUSH2 0x17E0 DUP5 DUP3 DUP6 ADD PUSH2 0x17A7 JUMP JUMPDEST SWAP2 POP POP SWAP3 SWAP2 POP POP JUMP JUMPDEST PUSH1 0x0 DUP2 MLOAD SWAP1 POP SWAP2 SWAP1 POP JUMP JUMPDEST PUSH1 0x0 DUP3 DUP3 MSTORE PUSH1 0x20 DUP3 ADD SWAP1 POP SWAP3 SWAP2 POP POP JUMP JUMPDEST PUSH1 0x0 JUMPDEST DUP4 DUP2 LT ISZERO PUSH2 0x1823 JUMPI DUP1 DUP3 ADD MLOAD DUP2 DUP5 ADD MSTORE PUSH1 0x20 DUP2 ADD SWAP1 POP PUSH2 0x1808 JUMP JUMPDEST PUSH1 0x0 DUP5 DUP5 ADD MSTORE POP POP POP POP JUMP JUMPDEST PUSH1 0x0 PUSH1 0x1F NOT PUSH1 0x1F DUP4 ADD AND SWAP1 POP SWAP2 SWAP1 POP JUMP JUMPDEST PUSH1 0x0 PUSH2 0x184B DUP3 PUSH2 0x17E9 JUMP JUMPDEST PUSH2 0x1855 DUP2 DUP6 PUSH2 0x17F4 JUMP JUMPDEST SWAP4 POP PUSH2 0x1865 DUP2 DUP6 PUSH1 0x20 DUP7 ADD PUSH2 0x1805 JUMP JUMPDEST PUSH2 0x186E DUP2 PUSH2 0x182F JUMP JUMPDEST DUP5 ADD SWAP2 POP POP SWAP3 SWAP2 POP POP JUMP JUMPDEST PUSH1 0x0 PUSH1 0x20 DUP3 ADD SWAP1 POP DUP2 DUP2 SUB PUSH1 0x0 DUP4 ADD MSTORE PUSH2 0x1893 DUP2 DUP5 PUSH2 0x1840 JUMP JUMPDEST SWAP1 POP SWAP3 SWAP2 POP POP JUMP JUMPDEST PUSH1 0x0 DUP1 REVERT JUMPDEST PUSH1 0x0 DUP1 REVERT JUMPDEST PUSH32 0x4E487B7100000000000000000000000000000000000000000000000000000000 PUSH1 0x0 MSTORE PUSH1 0x41 PUSH1 0x4 MSTORE PUSH1 0x24 PUSH1 0x0 REVERT JUMPDEST PUSH2 0x18DD DUP3 PUSH2 0x182F JUMP JUMPDEST DUP2 ADD DUP2 DUP2 LT PUSH8 0xFFFFFFFFFFFFFFFF DUP3 GT OR ISZERO PUSH2 0x18FC JUMPI PUSH2 0x18FB PUSH2 0x18A5 JUMP JUMPDEST JUMPDEST DUP1 PUSH1 0x40 MSTORE POP POP POP JUMP JUMPDEST PUSH1 0x0 PUSH2 0x190F PUSH2 0x1772 JUMP JUMPDEST SWAP1 POP PUSH2 0x191B DUP3 DUP3 PUSH2 0x18D4 JUMP JUMPDEST SWAP2 SWAP1 POP JUMP JUMPDEST PUSH1 0x0 PUSH8 0xFFFFFFFFFFFFFFFF DUP3 GT ISZERO PUSH2 0x193B JUMPI PUSH2 0x193A PUSH2 0x18A5 JUMP JUMPDEST JUMPDEST PUSH2 0x1944 DUP3 PUSH2 0x182F JUMP JUMPDEST SWAP1 POP PUSH1 0x20 DUP2 ADD SWAP1 POP SWAP2 SWAP1 POP JUMP JUMPDEST DUP3 DUP2 DUP4 CALLDATACOPY PUSH1 0x0 DUP4 DUP4 ADD MSTORE POP POP POP JUMP JUMPDEST PUSH1 0x0 PUSH2 0x1973 PUSH2 0x196E DUP5 PUSH2 0x1920 JUMP JUMPDEST PUSH2 0x1905 JUMP JUMPDEST SWAP1 POP DUP3 DUP2 MSTORE PUSH1 0x20 DUP2 ADD DUP5 DUP5 DUP5 ADD GT ISZERO PUSH2 0x198F JUMPI PUSH2 0x198E PUSH2 0x18A0 JUMP JUMPDEST JUMPDEST PUSH2 0x199A DUP5 DUP3 DUP6 PUSH2 0x1951 JUMP JUMPDEST POP SWAP4 SWAP3 POP POP POP JUMP JUMPDEST PUSH1 0x0 DUP3 PUSH1 0x1F DUP4 ADD SLT PUSH2 0x19B7 JUMPI PUSH2 0x19B6 PUSH2 0x189B JUMP JUMPDEST JUMPDEST DUP2 CALLDATALOAD PUSH2 0x19C7 DUP5 DUP3 PUSH1 0x20 DUP7 ADD PUSH2 0x1960 JUMP JUMPDEST SWAP2 POP POP SWAP3 SWAP2 POP POP JUMP JUMPDEST PUSH1 0x0 PUSH1 0x20 DUP3 DUP5 SUB SLT ISZERO PUSH2 0x19E6 JUMPI PUSH2 0x19E5 PUSH2 0x177C JUMP JUMPDEST JUMPDEST PUSH1 0x0 DUP3 ADD CALLDATALOAD PUSH8 0xFFFFFFFFFFFFFFFF DUP2 GT ISZERO PUSH2 0x1A04 JUMPI PUSH2 0x1A03 PUSH2 0x1781 JUMP JUMPDEST JUMPDEST PUSH2 0x1A10 DUP5 DUP3 DUP6 ADD PUSH2 0x19A2 JUMP JUMPDEST SWAP2 POP POP SWAP3 SWAP2 POP POP JUMP JUMPDEST PUSH1 0x0 DUP2 MLOAD SWAP1 POP SWAP2 SWAP1 POP JUMP JUMPDEST PUSH1 0x0 DUP3 DUP3 MSTORE PUSH1 0x20 DUP3 ADD SWAP1 POP SWAP3 SWAP2 POP POP JUMP JUMPDEST PUSH1 0x0 DUP2 SWAP1 POP PUSH1 0x20 DUP3 ADD SWAP1 POP SWAP2 SWAP1 POP JUMP JUMPDEST PUSH1 0x0 DUP3 DUP3 MSTORE PUSH1 0x20 DUP3 ADD SWAP1 POP SWAP3 SWAP2 POP POP JUMP JUMPDEST PUSH1 0x0 PUSH2 0x1A61 DUP3 PUSH2 0x17E9 JUMP JUMPDEST PUSH2 0x1A6B DUP2 DUP6 PUSH2 0x1A45 JUMP JUMPDEST SWAP4 POP PUSH2 0x1A7B DUP2 DUP6 PUSH1 0x20 DUP7 ADD PUSH2 0x1805 JUMP JUMPDEST PUSH2 0x1A84 DUP2 PUSH2 0x182F JUMP JUMPDEST DUP5 ADD SWAP2 POP POP SWAP3 SWAP2 POP POP JUMP JUMPDEST PUSH1 0x0 PUSH2 0x1A9B DUP4 DUP4 PUSH2 0x1A56 JUMP JUMPDEST SWAP1 POP SWAP3 SWAP2 POP POP JUMP JUMPDEST PUSH1 0x0 PUSH1 0x20 DUP3 ADD SWAP1 POP SWAP2 SWAP1 POP JUMP JUMPDEST PUSH1 0x0 PUSH2 0x1ABB DUP3 PUSH2 0x1A19 JUMP JUMPDEST PUSH2 0x1AC5 DUP2 DUP6 PUSH2 0x1A24 JUMP JUMPDEST SWAP4 POP DUP4 PUSH1 0x20 DUP3 MUL DUP6 ADD PUSH2 0x1AD7 DUP6 PUSH2 0x1A35 JUMP JUMPDEST DUP1 PUSH1 0x0 JUMPDEST DUP6 DUP2 LT ISZERO PUSH2 0x1B13 JUMPI DUP5 DUP5 SUB DUP10 MSTORE DUP2 MLOAD PUSH2 0x1AF4 DUP6 DUP3 PUSH2 0x1A8F JUMP JUMPDEST SWAP5 POP PUSH2 0x1AFF DUP4 PUSH2 0x1AA3 JUMP JUMPDEST SWAP3 POP PUSH1 0x20 DUP11 ADD SWAP10 POP POP PUSH1 0x1 DUP2 ADD SWAP1 POP PUSH2 0x1ADB JUMP JUMPDEST POP DUP3 SWAP8 POP DUP8 SWAP6 POP POP POP POP POP POP SWAP3 SWAP2 POP POP JUMP JUMPDEST PUSH1 0x0 PUSH1 0x20 DUP3 ADD SWAP1 POP DUP2 DUP2 SUB PUSH1 0x0 DUP4 ADD MSTORE PUSH2 0x1B3F DUP2 DUP5 PUSH2 0x1AB0 JUMP JUMPDEST SWAP1 POP SWAP3 SWAP2 POP POP JUMP JUMPDEST PUSH1 0x0 DUP2 ISZERO ISZERO SWAP1 POP SWAP2 SWAP1 POP JUMP JUMPDEST PUSH2 0x1B5C DUP2 PUSH2 0x1B47 JUMP JUMPDEST DUP3 MSTORE POP POP JUMP JUMPDEST PUSH2 0x1B6B DUP2 PUSH2 0x1786 JUMP JUMPDEST DUP3 MSTORE POP POP JUMP JUMPDEST PUSH1 0x0 PUSH1 0x60 DUP3 ADD SWAP1 POP DUP2 DUP2 SUB PUSH1 0x0 DUP4 ADD MSTORE PUSH2 0x1B8B DUP2 DUP7 PUSH2 0x1840 JUMP JUMPDEST SWAP1 POP PUSH2 0x1B9A PUSH1 0x20 DUP4 ADD DUP6 PUSH2 0x1B53 JUMP JUMPDEST PUSH2 0x1BA7 PUSH1 0x40 DUP4 ADD DUP5 PUSH2 0x1B62 JUMP JUMPDEST SWAP5 SWAP4 POP POP POP POP JUMP JUMPDEST PUSH32 0x4E487B7100000000000000000000000000000000000000000000000000000000 PUSH1 0x0 MSTORE PUSH1 0x32 PUSH1 0x4 MSTORE PUSH1 0x24 PUSH1 0x0 REVERT JUMPDEST PUSH32 0x4E487B7100000000000000000000000000000000000000000000000000000000 PUSH1 0x0 MSTORE PUSH1 0x22 PUSH1 0x4 MSTORE PUSH1 0x24 PUSH1 0x0 REVERT JUMPDEST PUSH1 0x0 PUSH1 0x2 DUP3 DIV SWAP1 POP PUSH1 0x1 DUP3 AND DUP1 PUSH2 0x1C25 JUMPI PUSH1 0x7F DUP3 AND SWAP2 POP JUMPDEST PUSH1 0x20 DUP3 LT DUP2 SUB PUSH2 0x1C38 JUMPI PUSH2 0x1C37 PUSH2 0x1BDE JUMP JUMPDEST JUMPDEST POP SWAP2 SWAP1 POP JUMP JUMPDEST PUSH32 0x4E487B7100000000000000000000000000000000000000000000000000000000 PUSH1 0x0 MSTORE PUSH1 0x11 PUSH1 0x4 MSTORE PUSH1 0x24 PUSH1 0x0 REVERT JUMPDEST PUSH1 0x0 PUSH2 0x1C78 DUP3 PUSH2 0x1786 JUMP JUMPDEST SWAP2 POP PUSH2 0x1C83 DUP4 PUSH2 0x1786 JUMP JUMPDEST SWAP3 POP DUP3 DUP3 SUB SWAP1 POP DUP2 DUP2 GT ISZERO PUSH2 0x1C9B JUMPI PUSH2 0x1C9A PUSH2 0x1C3E JUMP JUMPDEST JUMPDEST SWAP3 SWAP2 POP POP JUMP JUMPDEST PUSH1 0x0 PUSH2 0x1CAC DUP3 PUSH2 0x1786 JUMP JUMPDEST SWAP2 POP PUSH2 0x1CB7 DUP4 PUSH2 0x1786 JUMP JUMPDEST SWAP3 POP DUP3 DUP3 ADD SWAP1 POP DUP1 DUP3 GT ISZERO PUSH2 0x1CCF JUMPI PUSH2 0x1CCE PUSH2 0x1C3E JUMP JUMPDEST JUMPDEST SWAP3 SWAP2 POP POP JUMP JUMPDEST PUSH1 0x0 DUP2 SLOAD SWAP1 POP PUSH2 0x1CE4 DUP2 PUSH2 0x1C0D JUMP JUMPDEST SWAP1 POP SWAP2 SWAP1 POP JUMP JUMPDEST PUSH1 0x0 DUP2 SWAP1 POP DUP2 PUSH1 0x0 MSTORE PUSH1 0x20 PUSH1 0x0 KECCAK256 SWAP1 POP SWAP2 SWAP1 POP JUMP JUMPDEST PUSH1 0x0 PUSH1 0x20 PUSH1 0x1F DUP4 ADD DIV SWAP1 POP SWAP2 SWAP1 POP JUMP JUMPDEST PUSH1 0x0 DUP3 DUP3 SHL SWAP1 POP SWAP3 SWAP2 POP POP JUMP JUMPDEST PUSH1 0x0 PUSH1 0x8 DUP4 MUL PUSH2 0x1D4D PUSH32 0xFFFFFFFFFFFFFFFFFFFFFFFFFFFFFFFFFFFFFFFFFFFFFFFFFFFFFFFFFFFFFFFF DUP3 PUSH2 0x1D10 JUMP JUMPDEST PUSH2 0x1D57 DUP7 DUP4 PUSH2 0x1D10 JUMP JUMPDEST SWAP6 POP DUP1 NOT DUP5 AND SWAP4 POP DUP1 DUP7 AND DUP5 OR SWAP3 POP POP POP SWAP4 SWAP3 POP POP POP JUMP JUMPDEST PUSH1 0x0 DUP2 SWAP1 POP SWAP2 SWAP1 POP JUMP JUMPDEST PUSH1 0x0 PUSH2 0x1D94 PUSH2 0x1D8F PUSH2 0x1D8A DUP5 PUSH2 0x1786 JUMP JUMPDEST PUSH2 0x1D6F JUMP JUMPDEST PUSH2 0x1786 JUMP JUMPDEST SWAP1 POP SWAP2 SWAP1 POP JUMP JUMPDEST PUSH1 0x0 DUP2 SWAP1 POP SWAP2 SWAP1 POP JUMP JUMPDEST PUSH2 0x1DAE DUP4 PUSH2 0x1D79 JUMP JUMPDEST PUSH2 0x1DC2 PUSH2 0x1DBA DUP3 PUSH2 0x1D9B JUMP JUMPDEST DUP5 DUP5 SLOAD PUSH2 0x1D1D JUMP JUMPDEST DUP3 SSTORE POP POP POP POP JUMP JUMPDEST PUSH1 0x0 SWAP1 JUMP JUMPDEST PUSH2 0x1DD7 PUSH2 0x1DCA JUMP JUMPDEST PUSH2 0x1DE2 DUP2 DUP5 DUP5 PUSH2 0x1DA5 JUMP JUMPDEST POP POP POP JUMP JUMPDEST JUMPDEST DUP2 DUP2 LT ISZERO PUSH2 0x1E06 JUMPI PUSH2 0x1DFB PUSH1 0x0 DUP3 PUSH2 0x1DCF JUMP JUMPDEST PUSH1 0x1 DUP2 ADD SWAP1 POP PUSH2 0x1DE8 JUMP JUMPDEST POP POP JUMP JUMPDEST PUSH1 0x1F DUP3 GT ISZERO PUSH2 0x1E4B JUMPI PUSH2 0x1E1C DUP2 PUSH2 0x1CEB JUMP JUMPDEST PUSH2 0x1E25 DUP5 PUSH2 0x1D00 JUMP JUMPDEST DUP2 ADD PUSH1 0x20 DUP6 LT ISZERO PUSH2 0x1E34 JUMPI DUP2 SWAP1 POP JUMPDEST PUSH2 0x1E48 PUSH2 0x1E40 DUP6 PUSH2 0x1D00 JUMP JUMPDEST DUP4 ADD DUP3 PUSH2 0x1DE7 JUMP JUMPDEST POP POP JUMPDEST POP POP POP JUMP JUMPDEST PUSH1 0x0 DUP3 DUP3 SHR SWAP1 POP SWAP3 SWAP2 POP POP JUMP JUMPDEST PUSH1 0x0 PUSH2 0x1E6E PUSH1 0x0 NOT DUP5 PUSH1 0x8 MUL PUSH2 0x1E50 JUMP JUMPDEST NOT DUP1 DUP4 AND SWAP2 POP POP SWAP3 SWAP2 POP POP JUMP JUMPDEST PUSH1 0x0 PUSH2 0x1E87 DUP4 DUP4 PUSH2 0x1E5D JUMP JUMPDEST SWAP2 POP DUP3 PUSH1 0x2 MUL DUP3 OR SWAP1 POP SWAP3 SWAP2 POP POP JUMP JUMPDEST DUP2 DUP2 SUB PUSH2 0x1EA5 JUMPI POP POP PUSH2 0x1F7D JUMP JUMPDEST PUSH2 0x1EAE DUP3 PUSH2 0x1CD5 JUMP JUMPDEST PUSH8 0xFFFFFFFFFFFFFFFF DUP2 GT ISZERO PUSH2 0x1EC7 JUMPI PUSH2 0x1EC6 PUSH2 0x18A5 JUMP JUMPDEST JUMPDEST PUSH2 0x1ED1 DUP3 SLOAD PUSH2 0x1C0D JUMP JUMPDEST PUSH2 0x1EDC DUP3 DUP3 DUP6 PUSH2 0x1E0A JUMP JUMPDEST PUSH1 0x0 PUSH1 0x1F DUP4 GT PUSH1 0x1 DUP2 EQ PUSH2 0x1F0B JUMPI PUSH1 0x0 DUP5 ISZERO PUSH2 0x1EF9 JUMPI DUP3 DUP8 ADD SLOAD SWAP1 POP JUMPDEST PUSH2 0x1F03 DUP6 DUP3 PUSH2 0x1E7B JUMP JUMPDEST DUP7 SSTORE POP PUSH2 0x1F76 JUMP JUMPDEST PUSH1 0x1F NOT DUP5 AND PUSH2 0x1F19 DUP8 PUSH2 0x1CEB JUMP JUMPDEST SWAP7 POP PUSH2 0x1F24 DUP7 PUSH2 0x1CEB JUMP JUMPDEST PUSH1 0x0 JUMPDEST DUP3 DUP2 LT ISZERO PUSH2 0x1F4C JUMPI DUP5 DUP10 ADD SLOAD DUP3 SSTORE PUSH1 0x1 DUP3 ADD SWAP2 POP PUSH1 0x1 DUP6 ADD SWAP5 POP PUSH1 0x20 DUP2 ADD SWAP1 POP PUSH2 0x1F27 JUMP JUMPDEST DUP7 DUP4 LT ISZERO PUSH2 0x1F69 JUMPI DUP5 DUP10 ADD SLOAD PUSH2 0x1F65 PUSH1 0x1F DUP10 AND DUP3 PUSH2 0x1E5D JUMP JUMPDEST DUP4 SSTORE POP JUMPDEST PUSH1 0x1 PUSH1 0x2 DUP9 MUL ADD DUP9 SSTORE POP POP POP JUMPDEST POP POP POP POP POP POP JUMPDEST JUMP JUMPDEST PUSH1 0x0 PUSH2 0x1F8A DUP3 PUSH2 0x1786 JUMP JUMPDEST SWAP2 POP PUSH32 0xFFFFFFFFFFFFFFFFFFFFFFFFFFFFFFFFFFFFFFFFFFFFFFFFFFFFFFFFFFFFFFFF DUP3 SUB PUSH2 0x1FBC JUMPI PUSH2 0x1FBB PUSH2 0x1C3E JUMP JUMPDEST JUMPDEST PUSH1 0x1 DUP3 ADD SWAP1 POP SWAP2 SWAP1 POP JUMP JUMPDEST PUSH32 0x4E487B7100000000000000000000000000000000000000000000000000000000 PUSH1 0x0 MSTORE PUSH1 0x31 PUSH1 0x4 MSTORE PUSH1 0x24 PUSH1 0x0 REVERT JUMPDEST PUSH2 0x1FFF DUP3 PUSH2 0x17E9 JUMP JUMPDEST PUSH8 0xFFFFFFFFFFFFFFFF DUP2 GT ISZERO PUSH2 0x2018 JUMPI PUSH2 0x2017 PUSH2 0x18A5 JUMP JUMPDEST JUMPDEST PUSH2 0x2022 DUP3 SLOAD PUSH2 0x1C0D JUMP JUMPDEST PUSH2 0x202D DUP3 DUP3 DUP6 PUSH2 0x1E0A JUMP JUMPDEST PUSH1 0x0 PUSH1 0x20 SWAP1 POP PUSH1 0x1F DUP4 GT PUSH1 0x1 DUP2 EQ PUSH2 0x2060 JUMPI PUSH1 0x0 DUP5 ISZERO PUSH2 0x204E JUMPI DUP3 DUP8 ADD MLOAD SWAP1 POP JUMPDEST PUSH2 0x2058 DUP6 DUP3 PUSH2 0x1E7B JUMP JUMPDEST DUP7 SSTORE POP PUSH2 0x20C0 JUMP JUMPDEST PUSH1 0x1F NOT DUP5 AND PUSH2 0x206E DUP7 PUSH2 0x1CEB JUMP JUMPDEST PUSH1 0x0 JUMPDEST DUP3 DUP2 LT ISZERO PUSH2 0x2096 JUMPI DUP5 DUP10 ADD MLOAD DUP3 SSTORE PUSH1 0x1 DUP3 ADD SWAP2 POP PUSH1 0x20 DUP6 ADD SWAP5 POP PUSH1 0x20 DUP2 ADD SWAP1 POP PUSH2 0x2071 JUMP JUMPDEST DUP7 DUP4 LT ISZERO PUSH2 0x20B3 JUMPI DUP5 DUP10 ADD MLOAD PUSH2 0x20AF PUSH1 0x1F DUP10 AND DUP3 PUSH2 0x1E5D JUMP JUMPDEST DUP4 SSTORE POP JUMPDEST PUSH1 0x1 PUSH1 0x2 DUP9 MUL ADD DUP9 SSTORE POP POP POP JUMPDEST POP POP POP POP POP POP JUMP JUMPDEST PUSH32 0x496E76616C696420696E64657800000000000000000000000000000000000000 PUSH1 0x0 DUP3 ADD MSTORE POP JUMP JUMPDEST PUSH1 0x0 PUSH2 0x20FE PUSH1 0xD DUP4 PUSH2 0x17F4 JUMP JUMPDEST SWAP2 POP PUSH2 0x2109 DUP3 PUSH2 0x20C8 JUMP JUMPDEST PUSH1 0x20 DUP3 ADD SWAP1 POP SWAP2 SWAP1 POP JUMP JUMPDEST PUSH1 0x0 PUSH1 0x20 DUP3 ADD SWAP1 POP DUP2 DUP2 SUB PUSH1 0x0 DUP4 ADD MSTORE PUSH2 0x212D DUP2 PUSH2 0x20F1 JUMP JUMPDEST SWAP1 POP SWAP2 SWAP1 POP JUMP JUMPDEST PUSH32 0x43616E6E6F74206D6F7665206261636B20746F20746F646F206C697374000000 PUSH1 0x0 DUP3 ADD MSTORE POP JUMP JUMPDEST PUSH1 0x0 PUSH2 0x216A PUSH1 0x1D DUP4 PUSH2 0x17F4 JUMP JUMPDEST SWAP2 POP PUSH2 0x2175 DUP3 PUSH2 0x2134 JUMP JUMPDEST PUSH1 0x20 DUP3 ADD SWAP1 POP SWAP2 SWAP1 POP JUMP JUMPDEST PUSH1 0x0 PUSH1 0x20 DUP3 ADD SWAP1 POP DUP2 DUP2 SUB PUSH1 0x0 DUP4 ADD MSTORE PUSH2 0x2199 DUP2 PUSH2 0x215D JUMP JUMPDEST SWAP1 POP SWAP2 SWAP1 POP JUMP INVALID LOG2 PUSH5 0x6970667358 0x22 SLT KECCAK256 EXTCODECOPY SAR SWAP8 0x5D 0x2C DUP12 PUSH10 0x9759D919726E810A74F0 PUSH30 0xE6234F9063EBE335FDCA74BB9A6B64736F6C634300081200330000000000 "
				},
				"gasEstimates": {
					"creation": {
						"codeDepositCost": "1732400",
						"executionCost": "1820",
						"totalCost": "1734220"
					},
					"external": {
						"addTodo(string)": "infinite",
						"deleteTodo(uint256)": "infinite",
						"getAllCompleted()": "infinite",
						"getAllPending()": "infinite",
						"getAllTodo()": "infinite",
						"getCompleted(uint256)": "infinite",
						"getPending(uint256)": "infinite",
						"getTodo(uint256)": "infinite",
						"movePendingToTodoList(uint256)": "infinite",
						"setCompleted(uint256)": "infinite",
						"setPending(uint256)": "infinite",
						"todoCompleted(uint256)": "infinite",
						"todoPending(uint256)": "infinite",
						"todos(uint256)": "infinite"
					}
				},
				"methodIdentifiers": {
					"addTodo(string)": "95ffebf5",
					"deleteTodo(uint256)": "6e3c6738",
					"getAllCompleted()": "e29672ba",
					"getAllPending()": "f112ba72",
					"getAllTodo()": "982abb89",
					"getCompleted(uint256)": "1bfc269b",
					"getPending(uint256)": "84f89a93",
					"getTodo(uint256)": "dd68afb6",
					"movePendingToTodoList(uint256)": "99b4124e",
					"setCompleted(uint256)": "fdacd576",
					"setPending(uint256)": "c195fc74",
					"todoCompleted(uint256)": "fe1c7f6f",
					"todoPending(uint256)": "b2514afa",
					"todos(uint256)": "bc8bc2b4"
				}
			},
			"storageLayout": {
				"storage": [
					{
						"astId": 12,
						"contract": "todoListPendingCountSeconds.sol:TodoList",
						"label": "todos",
						"offset": 0,
						"slot": "0",
						"type": "t_array(t_struct(TodoItem)8_storage)dyn_storage"
					},
					{
						"astId": 16,
						"contract": "todoListPendingCountSeconds.sol:TodoList",
						"label": "todoCompleted",
						"offset": 0,
						"slot": "1",
						"type": "t_array(t_struct(TodoItem)8_storage)dyn_storage"
					},
					{
						"astId": 20,
						"contract": "todoListPendingCountSeconds.sol:TodoList",
						"label": "todoPending",
						"offset": 0,
						"slot": "2",
						"type": "t_array(t_struct(TodoItem)8_storage)dyn_storage"
					}
				],
				"types": {
					"t_array(t_struct(TodoItem)8_storage)dyn_storage": {
						"base": "t_struct(TodoItem)8_storage",
						"encoding": "dynamic_array",
						"label": "struct TodoList.TodoItem[]",
						"numberOfBytes": "32"
					},
					"t_bool": {
						"encoding": "inplace",
						"label": "bool",
						"numberOfBytes": "1"
					},
					"t_string_storage": {
						"encoding": "bytes",
						"label": "string",
						"numberOfBytes": "32"
					},
					"t_struct(TodoItem)8_storage": {
						"encoding": "inplace",
						"label": "struct TodoList.TodoItem",
						"members": [
							{
								"astId": 3,
								"contract": "todoListPendingCountSeconds.sol:TodoList",
								"label": "content",
								"offset": 0,
								"slot": "0",
								"type": "t_string_storage"
							},
							{
								"astId": 5,
								"contract": "todoListPendingCountSeconds.sol:TodoList",
								"label": "completed",
								"offset": 0,
								"slot": "1",
								"type": "t_bool"
							},
							{
								"astId": 7,
								"contract": "todoListPendingCountSeconds.sol:TodoList",
								"label": "moveTime",
								"offset": 0,
								"slot": "2",
								"type": "t_uint256"
							}
						],
						"numberOfBytes": "96"
					},
					"t_uint256": {
						"encoding": "inplace",
						"label": "uint256",
						"numberOfBytes": "32"
					}
				}
			},
			"userdoc": {
				"kind": "user",
				"methods": {},
				"version": 1
			}
		}
	}
}