{
	"todolist.sol": {
		"TodoList": {
			"abi": [
				{
					"inputs": [],
					"stateMutability": "nonpayable",
					"type": "constructor"
				},
				{
					"inputs": [
						{
							"internalType": "string",
							"name": "todo",
							"type": "string"
						}
					],
					"name": "addTodo",
					"outputs": [],
					"stateMutability": "nonpayable",
					"type": "function"
				},
				{
					"inputs": [
						{
							"internalType": "uint256",
							"name": "index",
							"type": "uint256"
						}
					],
					"name": "deleteTodo",
					"outputs": [],
					"stateMutability": "nonpayable",
					"type": "function"
				},
				{
					"inputs": [],
					"name": "getAllCompleted",
					"outputs": [
						{
							"internalType": "string[]",
							"name": "",
							"type": "string[]"
						}
					],
					"stateMutability": "view",
					"type": "function"
				},
				{
					"inputs": [],
					"name": "getAllTodo",
					"outputs": [
						{
							"internalType": "string[]",
							"name": "",
							"type": "string[]"
						}
					],
					"stateMutability": "view",
					"type": "function"
				},
				{
					"inputs": [
						{
							"internalType": "uint256",
							"name": "index",
							"type": "uint256"
						}
					],
					"name": "getCompleted",
					"outputs": [
						{
							"internalType": "string",
							"name": "",
							"type": "string"
						}
					],
					"stateMutability": "view",
					"type": "function"
				},
				{
					"inputs": [
						{
							"internalType": "uint256",
							"name": "index",
							"type": "uint256"
						}
					],
					"name": "getTodo",
					"outputs": [
						{
							"internalType": "string",
							"name": "",
							"type": "string"
						}
					],
					"stateMutability": "view",
					"type": "function"
				},
				{
					"inputs": [
						{
							"internalType": "uint256",
							"name": "index",
							"type": "uint256"
						}
					],
					"name": "setCompleted",
					"outputs": [],
					"stateMutability": "nonpayable",
					"type": "function"
				},
				{
					"inputs": [
						{
							"internalType": "uint256",
							"name": "",
							"type": "uint256"
						}
					],
					"name": "todoCompleted",
					"outputs": [
						{
							"internalType": "string",
							"name": "",
							"type": "string"
						}
					],
					"stateMutability": "view",
					"type": "function"
				},
				{
					"inputs": [
						{
							"internalType": "uint256",
							"name": "",
							"type": "uint256"
						}
					],
					"name": "todos",
					"outputs": [
						{
							"internalType": "string",
							"name": "",
							"type": "string"
						}
					],
					"stateMutability": "view",
					"type": "function"
				}
			],
			"devdoc": {
				"kind": "dev",
				"methods": {},
				"version": 1
			},
			"evm": {
				"assembly": "    /* \"todolist.sol\":61:1218  contract TodoList {... */\n  mstore(0x40, 0x80)\n    /* \"todolist.sol\":148:164  constructor() {} */\n  callvalue\n  dup1\n  iszero\n  tag_1\n  jumpi\n  0x00\n  dup1\n  revert\ntag_1:\n  pop\n    /* \"todolist.sol\":61:1218  contract TodoList {... */\n  dataSize(sub_0)\n  dup1\n  dataOffset(sub_0)\n  0x00\n  codecopy\n  0x00\n  return\nstop\n\nsub_0: assembly {\n        /* \"todolist.sol\":61:1218  contract TodoList {... */\n      mstore(0x40, 0x80)\n      callvalue\n      dup1\n      iszero\n      tag_1\n      jumpi\n      0x00\n      dup1\n      revert\n    tag_1:\n      pop\n      jumpi(tag_2, lt(calldatasize, 0x04))\n      shr(0xe0, calldataload(0x00))\n      dup1\n      0xbc8bc2b4\n      gt\n      tag_12\n      jumpi\n      dup1\n      0xbc8bc2b4\n      eq\n      tag_7\n      jumpi\n      dup1\n      0xdd68afb6\n      eq\n      tag_8\n      jumpi\n      dup1\n      0xe29672ba\n      eq\n      tag_9\n      jumpi\n      dup1\n      0xfdacd576\n      eq\n      tag_10\n      jumpi\n      dup1\n      0xfe1c7f6f\n      eq\n      tag_11\n      jumpi\n      jump(tag_2)\n    tag_12:\n      dup1\n      0x1bfc269b\n      eq\n      tag_3\n      jumpi\n      dup1\n      0x6e3c6738\n      eq\n      tag_4\n      jumpi\n      dup1\n      0x95ffebf5\n      eq\n      tag_5\n      jumpi\n      dup1\n      0x982abb89\n      eq\n      tag_6\n      jumpi\n    tag_2:\n      0x00\n      dup1\n      revert\n        /* \"todolist.sol\":890:1009  function getCompleted(uint256 index) external view returns (string memory) {... */\n    tag_3:\n      tag_13\n      0x04\n      dup1\n      calldatasize\n      sub\n      dup2\n      add\n      swap1\n      tag_14\n      swap2\n      swap1\n      tag_15\n      jump\t// in\n    tag_14:\n      tag_16\n      jump\t// in\n    tag_13:\n      mload(0x40)\n      tag_17\n      swap2\n      swap1\n      tag_18\n      jump\t// in\n    tag_17:\n      mload(0x40)\n      dup1\n      swap2\n      sub\n      swap1\n      return\n        /* \"todolist.sol\":804:884  function deleteTodo(uint256 index) external {... */\n    tag_4:\n      tag_19\n      0x04\n      dup1\n      calldatasize\n      sub\n      dup2\n      add\n      swap1\n      tag_20\n      swap2\n      swap1\n      tag_15\n      jump\t// in\n    tag_20:\n      tag_21\n      jump\t// in\n    tag_19:\n      stop\n        /* \"todolist.sol\":283:362  function addTodo(string memory todo) external {... */\n    tag_5:\n      tag_22\n      0x04\n      dup1\n      calldatasize\n      sub\n      dup2\n      add\n      swap1\n      tag_23\n      swap2\n      swap1\n      tag_24\n      jump\t// in\n    tag_23:\n      tag_25\n      jump\t// in\n    tag_22:\n      stop\n        /* \"todolist.sol\":1015:1106  function getAllTodo() external view returns (string[] memory) {... */\n    tag_6:\n      tag_26\n      tag_27\n      jump\t// in\n    tag_26:\n      mload(0x40)\n      tag_28\n      swap2\n      swap1\n      tag_29\n      jump\t// in\n    tag_28:\n      mload(0x40)\n      dup1\n      swap2\n      sub\n      swap1\n      return\n        /* \"todolist.sol\":85:106  string[] public todos */\n    tag_7:\n      tag_30\n      0x04\n      dup1\n      calldatasize\n      sub\n      dup2\n      add\n      swap1\n      tag_31\n      swap2\n      swap1\n      tag_15\n      jump\t// in\n    tag_31:\n      tag_32\n      jump\t// in\n    tag_30:\n      mload(0x40)\n      tag_33\n      swap2\n      swap1\n      tag_18\n      jump\t// in\n    tag_33:\n      mload(0x40)\n      dup1\n      swap2\n      sub\n      swap1\n      return\n        /* \"todolist.sol\":692:798  function getTodo(uint256 index) external view returns (string memory) {... */\n    tag_8:\n      tag_34\n      0x04\n      dup1\n      calldatasize\n      sub\n      dup2\n      add\n      swap1\n      tag_35\n      swap2\n      swap1\n      tag_15\n      jump\t// in\n    tag_35:\n      tag_36\n      jump\t// in\n    tag_34:\n      mload(0x40)\n      tag_37\n      swap2\n      swap1\n      tag_18\n      jump\t// in\n    tag_37:\n      mload(0x40)\n      dup1\n      swap2\n      sub\n      swap1\n      return\n        /* \"todolist.sol\":1112:1216  function getAllCompleted() external view returns (string[] memory) {... */\n    tag_9:\n      tag_38\n      tag_39\n      jump\t// in\n    tag_38:\n      mload(0x40)\n      tag_40\n      swap2\n      swap1\n      tag_29\n      jump\t// in\n    tag_40:\n      mload(0x40)\n      dup1\n      swap2\n      sub\n      swap1\n      return\n        /* \"todolist.sol\":368:686  function setCompleted(uint256 index) external {... */\n    tag_10:\n      tag_41\n      0x04\n      dup1\n      calldatasize\n      sub\n      dup2\n      add\n      swap1\n      tag_42\n      swap2\n      swap1\n      tag_15\n      jump\t// in\n    tag_42:\n      tag_43\n      jump\t// in\n    tag_41:\n      stop\n        /* \"todolist.sol\":112:141  string[] public todoCompleted */\n    tag_11:\n      tag_44\n      0x04\n      dup1\n      calldatasize\n      sub\n      dup2\n      add\n      swap1\n      tag_45\n      swap2\n      swap1\n      tag_15\n      jump\t// in\n    tag_45:\n      tag_46\n      jump\t// in\n    tag_44:\n      mload(0x40)\n      tag_47\n      swap2\n      swap1\n      tag_18\n      jump\t// in\n    tag_47:\n      mload(0x40)\n      dup1\n      swap2\n      sub\n      swap1\n      return\n        /* \"todolist.sol\":890:1009  function getCompleted(uint256 index) external view returns (string memory) {... */\n    tag_16:\n        /* \"todolist.sol\":950:963  string memory */\n      0x60\n        /* \"todolist.sol\":982:995  todoCompleted */\n      0x01\n        /* \"todolist.sol\":996:1001  index */\n      dup3\n        /* \"todolist.sol\":982:1002  todoCompleted[index] */\n      dup2\n      sload\n      dup2\n      lt\n      tag_49\n      jumpi\n      tag_50\n      tag_51\n      jump\t// in\n    tag_50:\n    tag_49:\n      swap1\n      0x00\n      mstore\n      keccak256(0x00, 0x20)\n      add\n        /* \"todolist.sol\":975:1002  return todoCompleted[index] */\n      dup1\n      sload\n      tag_53\n      swap1\n      tag_54\n      jump\t// in\n    tag_53:\n      dup1\n      0x1f\n      add\n      0x20\n      dup1\n      swap2\n      div\n      mul\n      0x20\n      add\n      mload(0x40)\n      swap1\n      dup2\n      add\n      0x40\n      mstore\n      dup1\n      swap3\n      swap2\n      swap1\n      dup2\n      dup2\n      mstore\n      0x20\n      add\n      dup3\n      dup1\n      sload\n      tag_55\n      swap1\n      tag_54\n      jump\t// in\n    tag_55:\n      dup1\n      iszero\n      tag_56\n      jumpi\n      dup1\n      0x1f\n      lt\n      tag_57\n      jumpi\n      0x0100\n      dup1\n      dup4\n      sload\n      div\n      mul\n      dup4\n      mstore\n      swap2\n      0x20\n      add\n      swap2\n      jump(tag_56)\n    tag_57:\n      dup3\n      add\n      swap2\n      swap1\n      0x00\n      mstore\n      keccak256(0x00, 0x20)\n      swap1\n    tag_58:\n      dup2\n      sload\n      dup2\n      mstore\n      swap1\n      0x01\n      add\n      swap1\n      0x20\n      add\n      dup1\n      dup4\n      gt\n      tag_58\n      jumpi\n      dup3\n      swap1\n      sub\n      0x1f\n      and\n      dup3\n      add\n      swap2\n    tag_56:\n      pop\n      pop\n      pop\n      pop\n      pop\n      swap1\n      pop\n        /* \"todolist.sol\":890:1009  function getCompleted(uint256 index) external view returns (string memory) {... */\n      swap2\n      swap1\n      pop\n      jump\t// out\n        /* \"todolist.sol\":804:884  function deleteTodo(uint256 index) external {... */\n    tag_21:\n        /* \"todolist.sol\":865:870  todos */\n      0x00\n        /* \"todolist.sol\":871:876  index */\n      dup2\n        /* \"todolist.sol\":865:877  todos[index] */\n      dup2\n      sload\n      dup2\n      lt\n      tag_60\n      jumpi\n      tag_61\n      tag_51\n      jump\t// in\n    tag_61:\n    tag_60:\n      swap1\n      0x00\n      mstore\n      keccak256(0x00, 0x20)\n      add\n      0x00\n        /* \"todolist.sol\":858:877  delete todos[index] */\n      tag_63\n      swap2\n      swap1\n      tag_64\n      jump\t// in\n    tag_63:\n        /* \"todolist.sol\":804:884  function deleteTodo(uint256 index) external {... */\n      pop\n      jump\t// out\n        /* \"todolist.sol\":283:362  function addTodo(string memory todo) external {... */\n    tag_25:\n        /* \"todolist.sol\":339:344  todos */\n      0x00\n        /* \"todolist.sol\":350:354  todo */\n      dup2\n        /* \"todolist.sol\":339:355  todos.push(todo) */\n      swap1\n      dup1\n      0x01\n      dup2\n      sload\n      add\n      dup1\n      dup3\n      sstore\n      dup1\n      swap2\n      pop\n      pop\n      0x01\n      swap1\n      sub\n      swap1\n      0x00\n      mstore\n      keccak256(0x00, 0x20)\n      add\n      0x00\n      swap1\n      swap2\n      swap1\n      swap2\n      swap1\n      swap2\n      pop\n      swap1\n      dup2\n      tag_67\n      swap2\n      swap1\n      tag_68\n      jump\t// in\n    tag_67:\n      pop\n        /* \"todolist.sol\":283:362  function addTodo(string memory todo) external {... */\n      pop\n      jump\t// out\n        /* \"todolist.sol\":1015:1106  function getAllTodo() external view returns (string[] memory) {... */\n    tag_27:\n        /* \"todolist.sol\":1060:1075  string[] memory */\n      0x60\n        /* \"todolist.sol\":1094:1099  todos */\n      0x00\n        /* \"todolist.sol\":1087:1099  return todos */\n      dup1\n      sload\n      dup1\n      0x20\n      mul\n      0x20\n      add\n      mload(0x40)\n      swap1\n      dup2\n      add\n      0x40\n      mstore\n      dup1\n      swap3\n      swap2\n      swap1\n      dup2\n      dup2\n      mstore\n      0x20\n      add\n      0x00\n      swap1\n    tag_70:\n      dup3\n      dup3\n      lt\n      iszero\n      tag_71\n      jumpi\n      dup4\n      dup3\n      swap1\n      0x00\n      mstore\n      keccak256(0x00, 0x20)\n      add\n      dup1\n      sload\n      tag_73\n      swap1\n      tag_54\n      jump\t// in\n    tag_73:\n      dup1\n      0x1f\n      add\n      0x20\n      dup1\n      swap2\n      div\n      mul\n      0x20\n      add\n      mload(0x40)\n      swap1\n      dup2\n      add\n      0x40\n      mstore\n      dup1\n      swap3\n      swap2\n      swap1\n      dup2\n      dup2\n      mstore\n      0x20\n      add\n      dup3\n      dup1\n      sload\n      tag_74\n      swap1\n      tag_54\n      jump\t// in\n    tag_74:\n      dup1\n      iszero\n      tag_75\n      jumpi\n      dup1\n      0x1f\n      lt\n      tag_76\n      jumpi\n      0x0100\n      dup1\n      dup4\n      sload\n      div\n      mul\n      dup4\n      mstore\n      swap2\n      0x20\n      add\n      swap2\n      jump(tag_75)\n    tag_76:\n      dup3\n      add\n      swap2\n      swap1\n      0x00\n      mstore\n      keccak256(0x00, 0x20)\n      swap1\n    tag_77:\n      dup2\n      sload\n      dup2\n      mstore\n      swap1\n      0x01\n      add\n      swap1\n      0x20\n      add\n      dup1\n      dup4\n      gt\n      tag_77\n      jumpi\n      dup3\n      swap1\n      sub\n      0x1f\n      and\n      dup3\n      add\n      swap2\n    tag_75:\n      pop\n      pop\n      pop\n      pop\n      pop\n      dup2\n      mstore\n      0x20\n      add\n      swap1\n      0x01\n      add\n      swap1\n      jump(tag_70)\n    tag_71:\n      pop\n      pop\n      pop\n      pop\n      swap1\n      pop\n        /* \"todolist.sol\":1015:1106  function getAllTodo() external view returns (string[] memory) {... */\n      swap1\n      jump\t// out\n        /* \"todolist.sol\":85:106  string[] public todos */\n    tag_32:\n      0x00\n      dup2\n      dup2\n      sload\n      dup2\n      lt\n      tag_78\n      jumpi\n      0x00\n      dup1\n      revert\n    tag_78:\n      swap1\n      0x00\n      mstore\n      keccak256(0x00, 0x20)\n      add\n      0x00\n      swap2\n      pop\n      swap1\n      pop\n      dup1\n      sload\n      tag_80\n      swap1\n      tag_54\n      jump\t// in\n    tag_80:\n      dup1\n      0x1f\n      add\n      0x20\n      dup1\n      swap2\n      div\n      mul\n      0x20\n      add\n      mload(0x40)\n      swap1\n      dup2\n      add\n      0x40\n      mstore\n      dup1\n      swap3\n      swap2\n      swap1\n      dup2\n      dup2\n      mstore\n      0x20\n      add\n      dup3\n      dup1\n      sload\n      tag_81\n      swap1\n      tag_54\n      jump\t// in\n    tag_81:\n      dup1\n      iszero\n      tag_82\n      jumpi\n      dup1\n      0x1f\n      lt\n      tag_83\n      jumpi\n      0x0100\n      dup1\n      dup4\n      sload\n      div\n      mul\n      dup4\n      mstore\n      swap2\n      0x20\n      add\n      swap2\n      jump(tag_82)\n    tag_83:\n      dup3\n      add\n      swap2\n      swap1\n      0x00\n      mstore\n      keccak256(0x00, 0x20)\n      swap1\n    tag_84:\n      dup2\n      sload\n      dup2\n      mstore\n      swap1\n      0x01\n      add\n      swap1\n      0x20\n      add\n      dup1\n      dup4\n      gt\n      tag_84\n      jumpi\n      dup3\n      swap1\n      sub\n      0x1f\n      and\n      dup3\n      add\n      swap2\n    tag_82:\n      pop\n      pop\n      pop\n      pop\n      pop\n      dup2\n      jump\t// out\n        /* \"todolist.sol\":692:798  function getTodo(uint256 index) external view returns (string memory) {... */\n    tag_36:\n        /* \"todolist.sol\":747:760  string memory */\n      0x60\n        /* \"todolist.sol\":779:784  todos */\n      0x00\n        /* \"todolist.sol\":785:790  index */\n      dup3\n        /* \"todolist.sol\":779:791  todos[index] */\n      dup2\n      sload\n      dup2\n      lt\n      tag_86\n      jumpi\n      tag_87\n      tag_51\n      jump\t// in\n    tag_87:\n    tag_86:\n      swap1\n      0x00\n      mstore\n      keccak256(0x00, 0x20)\n      add\n        /* \"todolist.sol\":772:791  return todos[index] */\n      dup1\n      sload\n      tag_89\n      swap1\n      tag_54\n      jump\t// in\n    tag_89:\n      dup1\n      0x1f\n      add\n      0x20\n      dup1\n      swap2\n      div\n      mul\n      0x20\n      add\n      mload(0x40)\n      swap1\n      dup2\n      add\n      0x40\n      mstore\n      dup1\n      swap3\n      swap2\n      swap1\n      dup2\n      dup2\n      mstore\n      0x20\n      add\n      dup3\n      dup1\n      sload\n      tag_90\n      swap1\n      tag_54\n      jump\t// in\n    tag_90:\n      dup1\n      iszero\n      tag_91\n      jumpi\n      dup1\n      0x1f\n      lt\n      tag_92\n      jumpi\n      0x0100\n      dup1\n      dup4\n      sload\n      div\n      mul\n      dup4\n      mstore\n      swap2\n      0x20\n      add\n      swap2\n      jump(tag_91)\n    tag_92:\n      dup3\n      add\n      swap2\n      swap1\n      0x00\n      mstore\n      keccak256(0x00, 0x20)\n      swap1\n    tag_93:\n      dup2\n      sload\n      dup2\n      mstore\n      swap1\n      0x01\n      add\n      swap1\n      0x20\n      add\n      dup1\n      dup4\n      gt\n      tag_93\n      jumpi\n      dup3\n      swap1\n      sub\n      0x1f\n      and\n      dup3\n      add\n      swap2\n    tag_91:\n      pop\n      pop\n      pop\n      pop\n      pop\n      swap1\n      pop\n        /* \"todolist.sol\":692:798  function getTodo(uint256 index) external view returns (string memory) {... */\n      swap2\n      swap1\n      pop\n      jump\t// out\n        /* \"todolist.sol\":1112:1216  function getAllCompleted() external view returns (string[] memory) {... */\n    tag_39:\n        /* \"todolist.sol\":1162:1177  string[] memory */\n      0x60\n        /* \"todolist.sol\":1196:1209  todoCompleted */\n      0x01\n        /* \"todolist.sol\":1189:1209  return todoCompleted */\n      dup1\n      sload\n      dup1\n      0x20\n      mul\n      0x20\n      add\n      mload(0x40)\n      swap1\n      dup2\n      add\n      0x40\n      mstore\n      dup1\n      swap3\n      swap2\n      swap1\n      dup2\n      dup2\n      mstore\n      0x20\n      add\n      0x00\n      swap1\n    tag_95:\n      dup3\n      dup3\n      lt\n      iszero\n      tag_96\n      jumpi\n      dup4\n      dup3\n      swap1\n      0x00\n      mstore\n      keccak256(0x00, 0x20)\n      add\n      dup1\n      sload\n      tag_98\n      swap1\n      tag_54\n      jump\t// in\n    tag_98:\n      dup1\n      0x1f\n      add\n      0x20\n      dup1\n      swap2\n      div\n      mul\n      0x20\n      add\n      mload(0x40)\n      swap1\n      dup2\n      add\n      0x40\n      mstore\n      dup1\n      swap3\n      swap2\n      swap1\n      dup2\n      dup2\n      mstore\n      0x20\n      add\n      dup3\n      dup1\n      sload\n      tag_99\n      swap1\n      tag_54\n      jump\t// in\n    tag_99:\n      dup1\n      iszero\n      tag_100\n      jumpi\n      dup1\n      0x1f\n      lt\n      tag_101\n      jumpi\n      0x0100\n      dup1\n      dup4\n      sload\n      div\n      mul\n      dup4\n      mstore\n      swap2\n      0x20\n      add\n      swap2\n      jump(tag_100)\n    tag_101:\n      dup3\n      add\n      swap2\n      swap1\n      0x00\n      mstore\n      keccak256(0x00, 0x20)\n      swap1\n    tag_102:\n      dup2\n      sload\n      dup2\n      mstore\n      swap1\n      0x01\n      add\n      swap1\n      0x20\n      add\n      dup1\n      dup4\n      gt\n      tag_102\n      jumpi\n      dup3\n      swap1\n      sub\n      0x1f\n      and\n      dup3\n      add\n      swap2\n    tag_100:\n      pop\n      pop\n      pop\n      pop\n      pop\n      dup2\n      mstore\n      0x20\n      add\n      swap1\n      0x01\n      add\n      swap1\n      jump(tag_95)\n    tag_96:\n      pop\n      pop\n      pop\n      pop\n      swap1\n      pop\n        /* \"todolist.sol\":1112:1216  function getAllCompleted() external view returns (string[] memory) {... */\n      swap1\n      jump\t// out\n        /* \"todolist.sol\":368:686  function setCompleted(uint256 index) external {... */\n    tag_43:\n        /* \"todolist.sol\":424:451  string memory completedTodo */\n      0x00\n        /* \"todolist.sol\":454:459  todos */\n      dup1\n        /* \"todolist.sol\":460:465  index */\n      dup3\n        /* \"todolist.sol\":454:466  todos[index] */\n      dup2\n      sload\n      dup2\n      lt\n      tag_104\n      jumpi\n      tag_105\n      tag_51\n      jump\t// in\n    tag_105:\n    tag_104:\n      swap1\n      0x00\n      mstore\n      keccak256(0x00, 0x20)\n      add\n        /* \"todolist.sol\":424:466  string memory completedTodo = todos[index] */\n      dup1\n      sload\n      tag_107\n      swap1\n      tag_54\n      jump\t// in\n    tag_107:\n      dup1\n      0x1f\n      add\n      0x20\n      dup1\n      swap2\n      div\n      mul\n      0x20\n      add\n      mload(0x40)\n      swap1\n      dup2\n      add\n      0x40\n      mstore\n      dup1\n      swap3\n      swap2\n      swap1\n      dup2\n      dup2\n      mstore\n      0x20\n      add\n      dup3\n      dup1\n      sload\n      tag_108\n      swap1\n      tag_54\n      jump\t// in\n    tag_108:\n      dup1\n      iszero\n      tag_109\n      jumpi\n      dup1\n      0x1f\n      lt\n      tag_110\n      jumpi\n      0x0100\n      dup1\n      dup4\n      sload\n      div\n      mul\n      dup4\n      mstore\n      swap2\n      0x20\n      add\n      swap2\n      jump(tag_109)\n    tag_110:\n      dup3\n      add\n      swap2\n      swap1\n      0x00\n      mstore\n      keccak256(0x00, 0x20)\n      swap1\n    tag_111:\n      dup2\n      sload\n      dup2\n      mstore\n      swap1\n      0x01\n      add\n      swap1\n      0x20\n      add\n      dup1\n      dup4\n      gt\n      tag_111\n      jumpi\n      dup3\n      swap1\n      sub\n      0x1f\n      and\n      dup3\n      add\n      swap2\n    tag_109:\n      pop\n      pop\n      pop\n      pop\n      pop\n      swap1\n      pop\n        /* \"todolist.sol\":482:491  uint256 i */\n      0x00\n        /* \"todolist.sol\":494:499  index */\n      dup3\n        /* \"todolist.sol\":482:499  uint256 i = index */\n      swap1\n      pop\n        /* \"todolist.sol\":477:575  for (uint256 i = index; i < todos.length - 1; i++){... */\n    tag_112:\n        /* \"todolist.sol\":520:521  1 */\n      0x01\n        /* \"todolist.sol\":505:510  todos */\n      0x00\n        /* \"todolist.sol\":505:517  todos.length */\n      dup1\n      sload\n      swap1\n      pop\n        /* \"todolist.sol\":505:521  todos.length - 1 */\n      tag_115\n      swap2\n      swap1\n      tag_116\n      jump\t// in\n    tag_115:\n        /* \"todolist.sol\":501:502  i */\n      dup2\n        /* \"todolist.sol\":501:521  i < todos.length - 1 */\n      lt\n        /* \"todolist.sol\":477:575  for (uint256 i = index; i < todos.length - 1; i++){... */\n      iszero\n      tag_113\n      jumpi\n        /* \"todolist.sol\":552:557  todos */\n      0x00\n        /* \"todolist.sol\":562:563  1 */\n      0x01\n        /* \"todolist.sol\":558:559  i */\n      dup3\n        /* \"todolist.sol\":558:563  i + 1 */\n      tag_117\n      swap2\n      swap1\n      tag_118\n      jump\t// in\n    tag_117:\n        /* \"todolist.sol\":552:564  todos[i + 1] */\n      dup2\n      sload\n      dup2\n      lt\n      tag_119\n      jumpi\n      tag_120\n      tag_51\n      jump\t// in\n    tag_120:\n    tag_119:\n      swap1\n      0x00\n      mstore\n      keccak256(0x00, 0x20)\n      add\n        /* \"todolist.sol\":541:546  todos */\n      0x00\n        /* \"todolist.sol\":547:548  i */\n      dup3\n        /* \"todolist.sol\":541:549  todos[i] */\n      dup2\n      sload\n      dup2\n      lt\n      tag_122\n      jumpi\n      tag_123\n      tag_51\n      jump\t// in\n    tag_123:\n    tag_122:\n      swap1\n      0x00\n      mstore\n      keccak256(0x00, 0x20)\n      add\n        /* \"todolist.sol\":541:564  todos[i] = todos[i + 1] */\n      swap1\n      dup2\n      tag_125\n      swap2\n      swap1\n      tag_126\n      jump\t// in\n    tag_125:\n      pop\n        /* \"todolist.sol\":523:526  i++ */\n      dup1\n      dup1\n      tag_127\n      swap1\n      tag_128\n      jump\t// in\n    tag_127:\n      swap2\n      pop\n      pop\n        /* \"todolist.sol\":477:575  for (uint256 i = index; i < todos.length - 1; i++){... */\n      jump(tag_112)\n    tag_113:\n      pop\n        /* \"todolist.sol\":591:596  todos */\n      0x00\n        /* \"todolist.sol\":612:613  1 */\n      0x01\n        /* \"todolist.sol\":597:602  todos */\n      0x00\n        /* \"todolist.sol\":597:609  todos.length */\n      dup1\n      sload\n      swap1\n      pop\n        /* \"todolist.sol\":597:613  todos.length - 1 */\n      tag_129\n      swap2\n      swap1\n      tag_116\n      jump\t// in\n    tag_129:\n        /* \"todolist.sol\":591:614  todos[todos.length - 1] */\n      dup2\n      sload\n      dup2\n      lt\n      tag_130\n      jumpi\n      tag_131\n      tag_51\n      jump\t// in\n    tag_131:\n    tag_130:\n      swap1\n      0x00\n      mstore\n      keccak256(0x00, 0x20)\n      add\n      0x00\n        /* \"todolist.sol\":584:614  delete todos[todos.length - 1] */\n      tag_133\n      swap2\n      swap1\n      tag_64\n      jump\t// in\n    tag_133:\n        /* \"todolist.sol\":624:629  todos */\n      0x00\n        /* \"todolist.sol\":624:635  todos.pop() */\n      dup1\n      sload\n      dup1\n      tag_134\n      jumpi\n      tag_135\n      tag_136\n      jump\t// in\n    tag_135:\n    tag_134:\n      0x01\n      swap1\n      sub\n      dup2\n      dup2\n      swap1\n      0x00\n      mstore\n      keccak256(0x00, 0x20)\n      add\n      0x00\n      tag_138\n      swap2\n      swap1\n      tag_64\n      jump\t// in\n    tag_138:\n      swap1\n      sstore\n        /* \"todolist.sol\":646:659  todoCompleted */\n      0x01\n        /* \"todolist.sol\":665:678  completedTodo */\n      dup2\n        /* \"todolist.sol\":646:679  todoCompleted.push(completedTodo) */\n      swap1\n      dup1\n      0x01\n      dup2\n      sload\n      add\n      dup1\n      dup3\n      sstore\n      dup1\n      swap2\n      pop\n      pop\n      0x01\n      swap1\n      sub\n      swap1\n      0x00\n      mstore\n      keccak256(0x00, 0x20)\n      add\n      0x00\n      swap1\n      swap2\n      swap1\n      swap2\n      swap1\n      swap2\n      pop\n      swap1\n      dup2\n      tag_140\n      swap2\n      swap1\n      tag_68\n      jump\t// in\n    tag_140:\n      pop\n        /* \"todolist.sol\":414:686  {... */\n      pop\n        /* \"todolist.sol\":368:686  function setCompleted(uint256 index) external {... */\n      pop\n      jump\t// out\n        /* \"todolist.sol\":112:141  string[] public todoCompleted */\n    tag_46:\n      0x01\n      dup2\n      dup2\n      sload\n      dup2\n      lt\n      tag_141\n      jumpi\n      0x00\n      dup1\n      revert\n    tag_141:\n      swap1\n      0x00\n      mstore\n      keccak256(0x00, 0x20)\n      add\n      0x00\n      swap2\n      pop\n      swap1\n      pop\n      dup1\n      sload\n      tag_143\n      swap1\n      tag_54\n      jump\t// in\n    tag_143:\n      dup1\n      0x1f\n      add\n      0x20\n      dup1\n      swap2\n      div\n      mul\n      0x20\n      add\n      mload(0x40)\n      swap1\n      dup2\n      add\n      0x40\n      mstore\n      dup1\n      swap3\n      swap2\n      swap1\n      dup2\n      dup2\n      mstore\n      0x20\n      add\n      dup3\n      dup1\n      sload\n      tag_144\n      swap1\n      tag_54\n      jump\t// in\n    tag_144:\n      dup1\n      iszero\n      tag_145\n      jumpi\n      dup1\n      0x1f\n      lt\n      tag_146\n      jumpi\n      0x0100\n      dup1\n      dup4\n      sload\n      div\n      mul\n      dup4\n      mstore\n      swap2\n      0x20\n      add\n      swap2\n      jump(tag_145)\n    tag_146:\n      dup3\n      add\n      swap2\n      swap1\n      0x00\n      mstore\n      keccak256(0x00, 0x20)\n      swap1\n    tag_147:\n      dup2\n      sload\n      dup2\n      mstore\n      swap1\n      0x01\n      add\n      swap1\n      0x20\n      add\n      dup1\n      dup4\n      gt\n      tag_147\n      jumpi\n      dup3\n      swap1\n      sub\n      0x1f\n      and\n      dup3\n      add\n      swap2\n    tag_145:\n      pop\n      pop\n      pop\n      pop\n      pop\n      dup2\n      jump\t// out\n    tag_64:\n      pop\n      dup1\n      sload\n      tag_148\n      swap1\n      tag_54\n      jump\t// in\n    tag_148:\n      0x00\n      dup3\n      sstore\n      dup1\n      0x1f\n      lt\n      tag_150\n      jumpi\n      pop\n      jump(tag_149)\n    tag_150:\n      0x1f\n      add\n      0x20\n      swap1\n      div\n      swap1\n      0x00\n      mstore\n      keccak256(0x00, 0x20)\n      swap1\n      dup2\n      add\n      swap1\n      tag_151\n      swap2\n      swap1\n      tag_152\n      jump\t// in\n    tag_151:\n    tag_149:\n      pop\n      jump\t// out\n    tag_152:\n    tag_153:\n      dup1\n      dup3\n      gt\n      iszero\n      tag_154\n      jumpi\n      0x00\n      dup2\n      0x00\n      swap1\n      sstore\n      pop\n      0x01\n      add\n      jump(tag_153)\n    tag_154:\n      pop\n      swap1\n      jump\t// out\n        /* \"#utility.yul\":7:82   */\n    tag_155:\n        /* \"#utility.yul\":40:46   */\n      0x00\n        /* \"#utility.yul\":73:75   */\n      0x40\n        /* \"#utility.yul\":67:76   */\n      mload\n        /* \"#utility.yul\":57:76   */\n      swap1\n      pop\n        /* \"#utility.yul\":7:82   */\n      swap1\n      jump\t// out\n        /* \"#utility.yul\":88:205   */\n    tag_156:\n        /* \"#utility.yul\":197:198   */\n      0x00\n        /* \"#utility.yul\":194:195   */\n      dup1\n        /* \"#utility.yul\":187:199   */\n      revert\n        /* \"#utility.yul\":211:328   */\n    tag_157:\n        /* \"#utility.yul\":320:321   */\n      0x00\n        /* \"#utility.yul\":317:318   */\n      dup1\n        /* \"#utility.yul\":310:322   */\n      revert\n        /* \"#utility.yul\":334:411   */\n    tag_158:\n        /* \"#utility.yul\":371:378   */\n      0x00\n        /* \"#utility.yul\":400:405   */\n      dup2\n        /* \"#utility.yul\":389:405   */\n      swap1\n      pop\n        /* \"#utility.yul\":334:411   */\n      swap2\n      swap1\n      pop\n      jump\t// out\n        /* \"#utility.yul\":417:539   */\n    tag_159:\n        /* \"#utility.yul\":490:514   */\n      tag_208\n        /* \"#utility.yul\":508:513   */\n      dup2\n        /* \"#utility.yul\":490:514   */\n      tag_158\n      jump\t// in\n    tag_208:\n        /* \"#utility.yul\":483:488   */\n      dup2\n        /* \"#utility.yul\":480:515   */\n      eq\n        /* \"#utility.yul\":470:533   */\n      tag_209\n      jumpi\n        /* \"#utility.yul\":529:530   */\n      0x00\n        /* \"#utility.yul\":526:527   */\n      dup1\n        /* \"#utility.yul\":519:531   */\n      revert\n        /* \"#utility.yul\":470:533   */\n    tag_209:\n        /* \"#utility.yul\":417:539   */\n      pop\n      jump\t// out\n        /* \"#utility.yul\":545:684   */\n    tag_160:\n        /* \"#utility.yul\":591:596   */\n      0x00\n        /* \"#utility.yul\":629:635   */\n      dup2\n        /* \"#utility.yul\":616:636   */\n      calldataload\n        /* \"#utility.yul\":607:636   */\n      swap1\n      pop\n        /* \"#utility.yul\":645:678   */\n      tag_211\n        /* \"#utility.yul\":672:677   */\n      dup2\n        /* \"#utility.yul\":645:678   */\n      tag_159\n      jump\t// in\n    tag_211:\n        /* \"#utility.yul\":545:684   */\n      swap3\n      swap2\n      pop\n      pop\n      jump\t// out\n        /* \"#utility.yul\":690:1019   */\n    tag_15:\n        /* \"#utility.yul\":749:755   */\n      0x00\n        /* \"#utility.yul\":798:800   */\n      0x20\n        /* \"#utility.yul\":786:795   */\n      dup3\n        /* \"#utility.yul\":777:784   */\n      dup5\n        /* \"#utility.yul\":773:796   */\n      sub\n        /* \"#utility.yul\":769:801   */\n      slt\n        /* \"#utility.yul\":766:885   */\n      iszero\n      tag_213\n      jumpi\n        /* \"#utility.yul\":804:883   */\n      tag_214\n      tag_156\n      jump\t// in\n    tag_214:\n        /* \"#utility.yul\":766:885   */\n    tag_213:\n        /* \"#utility.yul\":924:925   */\n      0x00\n        /* \"#utility.yul\":949:1002   */\n      tag_215\n        /* \"#utility.yul\":994:1001   */\n      dup5\n        /* \"#utility.yul\":985:991   */\n      dup3\n        /* \"#utility.yul\":974:983   */\n      dup6\n        /* \"#utility.yul\":970:992   */\n      add\n        /* \"#utility.yul\":949:1002   */\n      tag_160\n      jump\t// in\n    tag_215:\n        /* \"#utility.yul\":939:1002   */\n      swap2\n      pop\n        /* \"#utility.yul\":895:1012   */\n      pop\n        /* \"#utility.yul\":690:1019   */\n      swap3\n      swap2\n      pop\n      pop\n      jump\t// out\n        /* \"#utility.yul\":1025:1124   */\n    tag_161:\n        /* \"#utility.yul\":1077:1083   */\n      0x00\n        /* \"#utility.yul\":1111:1116   */\n      dup2\n        /* \"#utility.yul\":1105:1117   */\n      mload\n        /* \"#utility.yul\":1095:1117   */\n      swap1\n      pop\n        /* \"#utility.yul\":1025:1124   */\n      swap2\n      swap1\n      pop\n      jump\t// out\n        /* \"#utility.yul\":1130:1299   */\n    tag_162:\n        /* \"#utility.yul\":1214:1225   */\n      0x00\n        /* \"#utility.yul\":1248:1254   */\n      dup3\n        /* \"#utility.yul\":1243:1246   */\n      dup3\n        /* \"#utility.yul\":1236:1255   */\n      mstore\n        /* \"#utility.yul\":1288:1292   */\n      0x20\n        /* \"#utility.yul\":1283:1286   */\n      dup3\n        /* \"#utility.yul\":1279:1293   */\n      add\n        /* \"#utility.yul\":1264:1293   */\n      swap1\n      pop\n        /* \"#utility.yul\":1130:1299   */\n      swap3\n      swap2\n      pop\n      pop\n      jump\t// out\n        /* \"#utility.yul\":1305:1551   */\n    tag_163:\n        /* \"#utility.yul\":1386:1387   */\n      0x00\n        /* \"#utility.yul\":1396:1509   */\n    tag_219:\n        /* \"#utility.yul\":1410:1416   */\n      dup4\n        /* \"#utility.yul\":1407:1408   */\n      dup2\n        /* \"#utility.yul\":1404:1417   */\n      lt\n        /* \"#utility.yul\":1396:1509   */\n      iszero\n      tag_221\n      jumpi\n        /* \"#utility.yul\":1495:1496   */\n      dup1\n        /* \"#utility.yul\":1490:1493   */\n      dup3\n        /* \"#utility.yul\":1486:1497   */\n      add\n        /* \"#utility.yul\":1480:1498   */\n      mload\n        /* \"#utility.yul\":1476:1477   */\n      dup2\n        /* \"#utility.yul\":1471:1474   */\n      dup5\n        /* \"#utility.yul\":1467:1478   */\n      add\n        /* \"#utility.yul\":1460:1499   */\n      mstore\n        /* \"#utility.yul\":1432:1434   */\n      0x20\n        /* \"#utility.yul\":1429:1430   */\n      dup2\n        /* \"#utility.yul\":1425:1435   */\n      add\n        /* \"#utility.yul\":1420:1435   */\n      swap1\n      pop\n        /* \"#utility.yul\":1396:1509   */\n      jump(tag_219)\n    tag_221:\n        /* \"#utility.yul\":1543:1544   */\n      0x00\n        /* \"#utility.yul\":1534:1540   */\n      dup5\n        /* \"#utility.yul\":1529:1532   */\n      dup5\n        /* \"#utility.yul\":1525:1541   */\n      add\n        /* \"#utility.yul\":1518:1545   */\n      mstore\n        /* \"#utility.yul\":1367:1551   */\n      pop\n        /* \"#utility.yul\":1305:1551   */\n      pop\n      pop\n      pop\n      jump\t// out\n        /* \"#utility.yul\":1557:1659   */\n    tag_164:\n        /* \"#utility.yul\":1598:1604   */\n      0x00\n        /* \"#utility.yul\":1649:1651   */\n      0x1f\n        /* \"#utility.yul\":1645:1652   */\n      not\n        /* \"#utility.yul\":1640:1642   */\n      0x1f\n        /* \"#utility.yul\":1633:1638   */\n      dup4\n        /* \"#utility.yul\":1629:1643   */\n      add\n        /* \"#utility.yul\":1625:1653   */\n      and\n        /* \"#utility.yul\":1615:1653   */\n      swap1\n      pop\n        /* \"#utility.yul\":1557:1659   */\n      swap2\n      swap1\n      pop\n      jump\t// out\n        /* \"#utility.yul\":1665:2042   */\n    tag_165:\n        /* \"#utility.yul\":1753:1756   */\n      0x00\n        /* \"#utility.yul\":1781:1820   */\n      tag_224\n        /* \"#utility.yul\":1814:1819   */\n      dup3\n        /* \"#utility.yul\":1781:1820   */\n      tag_161\n      jump\t// in\n    tag_224:\n        /* \"#utility.yul\":1836:1907   */\n      tag_225\n        /* \"#utility.yul\":1900:1906   */\n      dup2\n        /* \"#utility.yul\":1895:1898   */\n      dup6\n        /* \"#utility.yul\":1836:1907   */\n      tag_162\n      jump\t// in\n    tag_225:\n        /* \"#utility.yul\":1829:1907   */\n      swap4\n      pop\n        /* \"#utility.yul\":1916:1981   */\n      tag_226\n        /* \"#utility.yul\":1974:1980   */\n      dup2\n        /* \"#utility.yul\":1969:1972   */\n      dup6\n        /* \"#utility.yul\":1962:1966   */\n      0x20\n        /* \"#utility.yul\":1955:1960   */\n      dup7\n        /* \"#utility.yul\":1951:1967   */\n      add\n        /* \"#utility.yul\":1916:1981   */\n      tag_163\n      jump\t// in\n    tag_226:\n        /* \"#utility.yul\":2006:2035   */\n      tag_227\n        /* \"#utility.yul\":2028:2034   */\n      dup2\n        /* \"#utility.yul\":2006:2035   */\n      tag_164\n      jump\t// in\n    tag_227:\n        /* \"#utility.yul\":2001:2004   */\n      dup5\n        /* \"#utility.yul\":1997:2036   */\n      add\n        /* \"#utility.yul\":1990:2036   */\n      swap2\n      pop\n        /* \"#utility.yul\":1757:2042   */\n      pop\n        /* \"#utility.yul\":1665:2042   */\n      swap3\n      swap2\n      pop\n      pop\n      jump\t// out\n        /* \"#utility.yul\":2048:2361   */\n    tag_18:\n        /* \"#utility.yul\":2161:2165   */\n      0x00\n        /* \"#utility.yul\":2199:2201   */\n      0x20\n        /* \"#utility.yul\":2188:2197   */\n      dup3\n        /* \"#utility.yul\":2184:2202   */\n      add\n        /* \"#utility.yul\":2176:2202   */\n      swap1\n      pop\n        /* \"#utility.yul\":2248:2257   */\n      dup2\n        /* \"#utility.yul\":2242:2246   */\n      dup2\n        /* \"#utility.yul\":2238:2258   */\n      sub\n        /* \"#utility.yul\":2234:2235   */\n      0x00\n        /* \"#utility.yul\":2223:2232   */\n      dup4\n        /* \"#utility.yul\":2219:2236   */\n      add\n        /* \"#utility.yul\":2212:2259   */\n      mstore\n        /* \"#utility.yul\":2276:2354   */\n      tag_229\n        /* \"#utility.yul\":2349:2353   */\n      dup2\n        /* \"#utility.yul\":2340:2346   */\n      dup5\n        /* \"#utility.yul\":2276:2354   */\n      tag_165\n      jump\t// in\n    tag_229:\n        /* \"#utility.yul\":2268:2354   */\n      swap1\n      pop\n        /* \"#utility.yul\":2048:2361   */\n      swap3\n      swap2\n      pop\n      pop\n      jump\t// out\n        /* \"#utility.yul\":2367:2484   */\n    tag_166:\n        /* \"#utility.yul\":2476:2477   */\n      0x00\n        /* \"#utility.yul\":2473:2474   */\n      dup1\n        /* \"#utility.yul\":2466:2478   */\n      revert\n        /* \"#utility.yul\":2490:2607   */\n    tag_167:\n        /* \"#utility.yul\":2599:2600   */\n      0x00\n        /* \"#utility.yul\":2596:2597   */\n      dup1\n        /* \"#utility.yul\":2589:2601   */\n      revert\n        /* \"#utility.yul\":2613:2793   */\n    tag_168:\n        /* \"#utility.yul\":2661:2738   */\n      0x4e487b7100000000000000000000000000000000000000000000000000000000\n        /* \"#utility.yul\":2658:2659   */\n      0x00\n        /* \"#utility.yul\":2651:2739   */\n      mstore\n        /* \"#utility.yul\":2758:2762   */\n      0x41\n        /* \"#utility.yul\":2755:2756   */\n      0x04\n        /* \"#utility.yul\":2748:2763   */\n      mstore\n        /* \"#utility.yul\":2782:2786   */\n      0x24\n        /* \"#utility.yul\":2779:2780   */\n      0x00\n        /* \"#utility.yul\":2772:2787   */\n      revert\n        /* \"#utility.yul\":2799:3080   */\n    tag_169:\n        /* \"#utility.yul\":2882:2909   */\n      tag_234\n        /* \"#utility.yul\":2904:2908   */\n      dup3\n        /* \"#utility.yul\":2882:2909   */\n      tag_164\n      jump\t// in\n    tag_234:\n        /* \"#utility.yul\":2874:2880   */\n      dup2\n        /* \"#utility.yul\":2870:2910   */\n      add\n        /* \"#utility.yul\":3012:3018   */\n      dup2\n        /* \"#utility.yul\":3000:3010   */\n      dup2\n        /* \"#utility.yul\":2997:3019   */\n      lt\n        /* \"#utility.yul\":2976:2994   */\n      0xffffffffffffffff\n        /* \"#utility.yul\":2964:2974   */\n      dup3\n        /* \"#utility.yul\":2961:2995   */\n      gt\n        /* \"#utility.yul\":2958:3020   */\n      or\n        /* \"#utility.yul\":2955:3043   */\n      iszero\n      tag_235\n      jumpi\n        /* \"#utility.yul\":3023:3041   */\n      tag_236\n      tag_168\n      jump\t// in\n    tag_236:\n        /* \"#utility.yul\":2955:3043   */\n    tag_235:\n        /* \"#utility.yul\":3063:3073   */\n      dup1\n        /* \"#utility.yul\":3059:3061   */\n      0x40\n        /* \"#utility.yul\":3052:3074   */\n      mstore\n        /* \"#utility.yul\":2842:3080   */\n      pop\n        /* \"#utility.yul\":2799:3080   */\n      pop\n      pop\n      jump\t// out\n        /* \"#utility.yul\":3086:3215   */\n    tag_170:\n        /* \"#utility.yul\":3120:3126   */\n      0x00\n        /* \"#utility.yul\":3147:3167   */\n      tag_238\n      tag_155\n      jump\t// in\n    tag_238:\n        /* \"#utility.yul\":3137:3167   */\n      swap1\n      pop\n        /* \"#utility.yul\":3176:3209   */\n      tag_239\n        /* \"#utility.yul\":3204:3208   */\n      dup3\n        /* \"#utility.yul\":3196:3202   */\n      dup3\n        /* \"#utility.yul\":3176:3209   */\n      tag_169\n      jump\t// in\n    tag_239:\n        /* \"#utility.yul\":3086:3215   */\n      swap2\n      swap1\n      pop\n      jump\t// out\n        /* \"#utility.yul\":3221:3529   */\n    tag_171:\n        /* \"#utility.yul\":3283:3287   */\n      0x00\n        /* \"#utility.yul\":3373:3391   */\n      0xffffffffffffffff\n        /* \"#utility.yul\":3365:3371   */\n      dup3\n        /* \"#utility.yul\":3362:3392   */\n      gt\n        /* \"#utility.yul\":3359:3415   */\n      iszero\n      tag_241\n      jumpi\n        /* \"#utility.yul\":3395:3413   */\n      tag_242\n      tag_168\n      jump\t// in\n    tag_242:\n        /* \"#utility.yul\":3359:3415   */\n    tag_241:\n        /* \"#utility.yul\":3433:3462   */\n      tag_243\n        /* \"#utility.yul\":3455:3461   */\n      dup3\n        /* \"#utility.yul\":3433:3462   */\n      tag_164\n      jump\t// in\n    tag_243:\n        /* \"#utility.yul\":3425:3462   */\n      swap1\n      pop\n        /* \"#utility.yul\":3517:3521   */\n      0x20\n        /* \"#utility.yul\":3511:3515   */\n      dup2\n        /* \"#utility.yul\":3507:3522   */\n      add\n        /* \"#utility.yul\":3499:3522   */\n      swap1\n      pop\n        /* \"#utility.yul\":3221:3529   */\n      swap2\n      swap1\n      pop\n      jump\t// out\n        /* \"#utility.yul\":3535:3681   */\n    tag_172:\n        /* \"#utility.yul\":3632:3638   */\n      dup3\n        /* \"#utility.yul\":3627:3630   */\n      dup2\n        /* \"#utility.yul\":3622:3625   */\n      dup4\n        /* \"#utility.yul\":3609:3639   */\n      calldatacopy\n        /* \"#utility.yul\":3673:3674   */\n      0x00\n        /* \"#utility.yul\":3664:3670   */\n      dup4\n        /* \"#utility.yul\":3659:3662   */\n      dup4\n        /* \"#utility.yul\":3655:3671   */\n      add\n        /* \"#utility.yul\":3648:3675   */\n      mstore\n        /* \"#utility.yul\":3535:3681   */\n      pop\n      pop\n      pop\n      jump\t// out\n        /* \"#utility.yul\":3687:4112   */\n    tag_173:\n        /* \"#utility.yul\":3765:3770   */\n      0x00\n        /* \"#utility.yul\":3790:3856   */\n      tag_246\n        /* \"#utility.yul\":3806:3855   */\n      tag_247\n        /* \"#utility.yul\":3848:3854   */\n      dup5\n        /* \"#utility.yul\":3806:3855   */\n      tag_171\n      jump\t// in\n    tag_247:\n        /* \"#utility.yul\":3790:3856   */\n      tag_170\n      jump\t// in\n    tag_246:\n        /* \"#utility.yul\":3781:3856   */\n      swap1\n      pop\n        /* \"#utility.yul\":3879:3885   */\n      dup3\n        /* \"#utility.yul\":3872:3877   */\n      dup2\n        /* \"#utility.yul\":3865:3886   */\n      mstore\n        /* \"#utility.yul\":3917:3921   */\n      0x20\n        /* \"#utility.yul\":3910:3915   */\n      dup2\n        /* \"#utility.yul\":3906:3922   */\n      add\n        /* \"#utility.yul\":3955:3958   */\n      dup5\n        /* \"#utility.yul\":3946:3952   */\n      dup5\n        /* \"#utility.yul\":3941:3944   */\n      dup5\n        /* \"#utility.yul\":3937:3953   */\n      add\n        /* \"#utility.yul\":3934:3959   */\n      gt\n        /* \"#utility.yul\":3931:4043   */\n      iszero\n      tag_248\n      jumpi\n        /* \"#utility.yul\":3962:4041   */\n      tag_249\n      tag_167\n      jump\t// in\n    tag_249:\n        /* \"#utility.yul\":3931:4043   */\n    tag_248:\n        /* \"#utility.yul\":4052:4106   */\n      tag_250\n        /* \"#utility.yul\":4099:4105   */\n      dup5\n        /* \"#utility.yul\":4094:4097   */\n      dup3\n        /* \"#utility.yul\":4089:4092   */\n      dup6\n        /* \"#utility.yul\":4052:4106   */\n      tag_172\n      jump\t// in\n    tag_250:\n        /* \"#utility.yul\":3771:4112   */\n      pop\n        /* \"#utility.yul\":3687:4112   */\n      swap4\n      swap3\n      pop\n      pop\n      pop\n      jump\t// out\n        /* \"#utility.yul\":4132:4472   */\n    tag_174:\n        /* \"#utility.yul\":4188:4193   */\n      0x00\n        /* \"#utility.yul\":4237:4240   */\n      dup3\n        /* \"#utility.yul\":4230:4234   */\n      0x1f\n        /* \"#utility.yul\":4222:4228   */\n      dup4\n        /* \"#utility.yul\":4218:4235   */\n      add\n        /* \"#utility.yul\":4214:4241   */\n      slt\n        /* \"#utility.yul\":4204:4326   */\n      tag_252\n      jumpi\n        /* \"#utility.yul\":4245:4324   */\n      tag_253\n      tag_166\n      jump\t// in\n    tag_253:\n        /* \"#utility.yul\":4204:4326   */\n    tag_252:\n        /* \"#utility.yul\":4362:4368   */\n      dup2\n        /* \"#utility.yul\":4349:4369   */\n      calldataload\n        /* \"#utility.yul\":4387:4466   */\n      tag_254\n        /* \"#utility.yul\":4462:4465   */\n      dup5\n        /* \"#utility.yul\":4454:4460   */\n      dup3\n        /* \"#utility.yul\":4447:4451   */\n      0x20\n        /* \"#utility.yul\":4439:4445   */\n      dup7\n        /* \"#utility.yul\":4435:4452   */\n      add\n        /* \"#utility.yul\":4387:4466   */\n      tag_173\n      jump\t// in\n    tag_254:\n        /* \"#utility.yul\":4378:4466   */\n      swap2\n      pop\n        /* \"#utility.yul\":4194:4472   */\n      pop\n        /* \"#utility.yul\":4132:4472   */\n      swap3\n      swap2\n      pop\n      pop\n      jump\t// out\n        /* \"#utility.yul\":4478:4987   */\n    tag_24:\n        /* \"#utility.yul\":4547:4553   */\n      0x00\n        /* \"#utility.yul\":4596:4598   */\n      0x20\n        /* \"#utility.yul\":4584:4593   */\n      dup3\n        /* \"#utility.yul\":4575:4582   */\n      dup5\n        /* \"#utility.yul\":4571:4594   */\n      sub\n        /* \"#utility.yul\":4567:4599   */\n      slt\n        /* \"#utility.yul\":4564:4683   */\n      iszero\n      tag_256\n      jumpi\n        /* \"#utility.yul\":4602:4681   */\n      tag_257\n      tag_156\n      jump\t// in\n    tag_257:\n        /* \"#utility.yul\":4564:4683   */\n    tag_256:\n        /* \"#utility.yul\":4750:4751   */\n      0x00\n        /* \"#utility.yul\":4739:4748   */\n      dup3\n        /* \"#utility.yul\":4735:4752   */\n      add\n        /* \"#utility.yul\":4722:4753   */\n      calldataload\n        /* \"#utility.yul\":4780:4798   */\n      0xffffffffffffffff\n        /* \"#utility.yul\":4772:4778   */\n      dup2\n        /* \"#utility.yul\":4769:4799   */\n      gt\n        /* \"#utility.yul\":4766:4883   */\n      iszero\n      tag_258\n      jumpi\n        /* \"#utility.yul\":4802:4881   */\n      tag_259\n      tag_157\n      jump\t// in\n    tag_259:\n        /* \"#utility.yul\":4766:4883   */\n    tag_258:\n        /* \"#utility.yul\":4907:4970   */\n      tag_260\n        /* \"#utility.yul\":4962:4969   */\n      dup5\n        /* \"#utility.yul\":4953:4959   */\n      dup3\n        /* \"#utility.yul\":4942:4951   */\n      dup6\n        /* \"#utility.yul\":4938:4960   */\n      add\n        /* \"#utility.yul\":4907:4970   */\n      tag_174\n      jump\t// in\n    tag_260:\n        /* \"#utility.yul\":4897:4970   */\n      swap2\n      pop\n        /* \"#utility.yul\":4693:4980   */\n      pop\n        /* \"#utility.yul\":4478:4987   */\n      swap3\n      swap2\n      pop\n      pop\n      jump\t// out\n        /* \"#utility.yul\":4993:5117   */\n    tag_175:\n        /* \"#utility.yul\":5070:5076   */\n      0x00\n        /* \"#utility.yul\":5104:5109   */\n      dup2\n        /* \"#utility.yul\":5098:5110   */\n      mload\n        /* \"#utility.yul\":5088:5110   */\n      swap1\n      pop\n        /* \"#utility.yul\":4993:5117   */\n      swap2\n      swap1\n      pop\n      jump\t// out\n        /* \"#utility.yul\":5123:5317   */\n    tag_176:\n        /* \"#utility.yul\":5232:5243   */\n      0x00\n        /* \"#utility.yul\":5266:5272   */\n      dup3\n        /* \"#utility.yul\":5261:5264   */\n      dup3\n        /* \"#utility.yul\":5254:5273   */\n      mstore\n        /* \"#utility.yul\":5306:5310   */\n      0x20\n        /* \"#utility.yul\":5301:5304   */\n      dup3\n        /* \"#utility.yul\":5297:5311   */\n      add\n        /* \"#utility.yul\":5282:5311   */\n      swap1\n      pop\n        /* \"#utility.yul\":5123:5317   */\n      swap3\n      swap2\n      pop\n      pop\n      jump\t// out\n        /* \"#utility.yul\":5323:5465   */\n    tag_177:\n        /* \"#utility.yul\":5400:5404   */\n      0x00\n        /* \"#utility.yul\":5423:5426   */\n      dup2\n        /* \"#utility.yul\":5415:5426   */\n      swap1\n      pop\n        /* \"#utility.yul\":5453:5457   */\n      0x20\n        /* \"#utility.yul\":5448:5451   */\n      dup3\n        /* \"#utility.yul\":5444:5458   */\n      add\n        /* \"#utility.yul\":5436:5458   */\n      swap1\n      pop\n        /* \"#utility.yul\":5323:5465   */\n      swap2\n      swap1\n      pop\n      jump\t// out\n        /* \"#utility.yul\":5471:5630   */\n    tag_178:\n        /* \"#utility.yul\":5545:5556   */\n      0x00\n        /* \"#utility.yul\":5579:5585   */\n      dup3\n        /* \"#utility.yul\":5574:5577   */\n      dup3\n        /* \"#utility.yul\":5567:5586   */\n      mstore\n        /* \"#utility.yul\":5619:5623   */\n      0x20\n        /* \"#utility.yul\":5614:5617   */\n      dup3\n        /* \"#utility.yul\":5610:5624   */\n      add\n        /* \"#utility.yul\":5595:5624   */\n      swap1\n      pop\n        /* \"#utility.yul\":5471:5630   */\n      swap3\n      swap2\n      pop\n      pop\n      jump\t// out\n        /* \"#utility.yul\":5636:5993   */\n    tag_179:\n        /* \"#utility.yul\":5714:5717   */\n      0x00\n        /* \"#utility.yul\":5742:5781   */\n      tag_266\n        /* \"#utility.yul\":5775:5780   */\n      dup3\n        /* \"#utility.yul\":5742:5781   */\n      tag_161\n      jump\t// in\n    tag_266:\n        /* \"#utility.yul\":5797:5858   */\n      tag_267\n        /* \"#utility.yul\":5851:5857   */\n      dup2\n        /* \"#utility.yul\":5846:5849   */\n      dup6\n        /* \"#utility.yul\":5797:5858   */\n      tag_178\n      jump\t// in\n    tag_267:\n        /* \"#utility.yul\":5790:5858   */\n      swap4\n      pop\n        /* \"#utility.yul\":5867:5932   */\n      tag_268\n        /* \"#utility.yul\":5925:5931   */\n      dup2\n        /* \"#utility.yul\":5920:5923   */\n      dup6\n        /* \"#utility.yul\":5913:5917   */\n      0x20\n        /* \"#utility.yul\":5906:5911   */\n      dup7\n        /* \"#utility.yul\":5902:5918   */\n      add\n        /* \"#utility.yul\":5867:5932   */\n      tag_163\n      jump\t// in\n    tag_268:\n        /* \"#utility.yul\":5957:5986   */\n      tag_269\n        /* \"#utility.yul\":5979:5985   */\n      dup2\n        /* \"#utility.yul\":5957:5986   */\n      tag_164\n      jump\t// in\n    tag_269:\n        /* \"#utility.yul\":5952:5955   */\n      dup5\n        /* \"#utility.yul\":5948:5987   */\n      add\n        /* \"#utility.yul\":5941:5987   */\n      swap2\n      pop\n        /* \"#utility.yul\":5718:5993   */\n      pop\n        /* \"#utility.yul\":5636:5993   */\n      swap3\n      swap2\n      pop\n      pop\n      jump\t// out\n        /* \"#utility.yul\":5999:6195   */\n    tag_180:\n        /* \"#utility.yul\":6088:6098   */\n      0x00\n        /* \"#utility.yul\":6123:6189   */\n      tag_271\n        /* \"#utility.yul\":6185:6188   */\n      dup4\n        /* \"#utility.yul\":6177:6183   */\n      dup4\n        /* \"#utility.yul\":6123:6189   */\n      tag_179\n      jump\t// in\n    tag_271:\n        /* \"#utility.yul\":6109:6189   */\n      swap1\n      pop\n        /* \"#utility.yul\":5999:6195   */\n      swap3\n      swap2\n      pop\n      pop\n      jump\t// out\n        /* \"#utility.yul\":6201:6324   */\n    tag_181:\n        /* \"#utility.yul\":6281:6285   */\n      0x00\n        /* \"#utility.yul\":6313:6317   */\n      0x20\n        /* \"#utility.yul\":6308:6311   */\n      dup3\n        /* \"#utility.yul\":6304:6318   */\n      add\n        /* \"#utility.yul\":6296:6318   */\n      swap1\n      pop\n        /* \"#utility.yul\":6201:6324   */\n      swap2\n      swap1\n      pop\n      jump\t// out\n        /* \"#utility.yul\":6358:7349   */\n    tag_182:\n        /* \"#utility.yul\":6497:6500   */\n      0x00\n        /* \"#utility.yul\":6526:6590   */\n      tag_274\n        /* \"#utility.yul\":6584:6589   */\n      dup3\n        /* \"#utility.yul\":6526:6590   */\n      tag_175\n      jump\t// in\n    tag_274:\n        /* \"#utility.yul\":6606:6702   */\n      tag_275\n        /* \"#utility.yul\":6695:6701   */\n      dup2\n        /* \"#utility.yul\":6690:6693   */\n      dup6\n        /* \"#utility.yul\":6606:6702   */\n      tag_176\n      jump\t// in\n    tag_275:\n        /* \"#utility.yul\":6599:6702   */\n      swap4\n      pop\n        /* \"#utility.yul\":6728:6731   */\n      dup4\n        /* \"#utility.yul\":6773:6777   */\n      0x20\n        /* \"#utility.yul\":6765:6771   */\n      dup3\n        /* \"#utility.yul\":6761:6778   */\n      mul\n        /* \"#utility.yul\":6756:6759   */\n      dup6\n        /* \"#utility.yul\":6752:6779   */\n      add\n        /* \"#utility.yul\":6803:6869   */\n      tag_276\n        /* \"#utility.yul\":6863:6868   */\n      dup6\n        /* \"#utility.yul\":6803:6869   */\n      tag_177\n      jump\t// in\n    tag_276:\n        /* \"#utility.yul\":6892:6899   */\n      dup1\n        /* \"#utility.yul\":6923:6924   */\n      0x00\n        /* \"#utility.yul\":6908:7304   */\n    tag_277:\n        /* \"#utility.yul\":6933:6939   */\n      dup6\n        /* \"#utility.yul\":6930:6931   */\n      dup2\n        /* \"#utility.yul\":6927:6940   */\n      lt\n        /* \"#utility.yul\":6908:7304   */\n      iszero\n      tag_279\n      jumpi\n        /* \"#utility.yul\":7004:7013   */\n      dup5\n        /* \"#utility.yul\":6998:7002   */\n      dup5\n        /* \"#utility.yul\":6994:7014   */\n      sub\n        /* \"#utility.yul\":6989:6992   */\n      dup10\n        /* \"#utility.yul\":6982:7015   */\n      mstore\n        /* \"#utility.yul\":7055:7061   */\n      dup2\n        /* \"#utility.yul\":7049:7062   */\n      mload\n        /* \"#utility.yul\":7083:7167   */\n      tag_280\n        /* \"#utility.yul\":7162:7166   */\n      dup6\n        /* \"#utility.yul\":7147:7160   */\n      dup3\n        /* \"#utility.yul\":7083:7167   */\n      tag_180\n      jump\t// in\n    tag_280:\n        /* \"#utility.yul\":7075:7167   */\n      swap5\n      pop\n        /* \"#utility.yul\":7190:7260   */\n      tag_281\n        /* \"#utility.yul\":7253:7259   */\n      dup4\n        /* \"#utility.yul\":7190:7260   */\n      tag_181\n      jump\t// in\n    tag_281:\n        /* \"#utility.yul\":7180:7260   */\n      swap3\n      pop\n        /* \"#utility.yul\":7289:7293   */\n      0x20\n        /* \"#utility.yul\":7284:7287   */\n      dup11\n        /* \"#utility.yul\":7280:7294   */\n      add\n        /* \"#utility.yul\":7273:7294   */\n      swap10\n      pop\n        /* \"#utility.yul\":6968:7304   */\n      pop\n        /* \"#utility.yul\":6955:6956   */\n      0x01\n        /* \"#utility.yul\":6952:6953   */\n      dup2\n        /* \"#utility.yul\":6948:6957   */\n      add\n        /* \"#utility.yul\":6943:6957   */\n      swap1\n      pop\n        /* \"#utility.yul\":6908:7304   */\n      jump(tag_277)\n    tag_279:\n        /* \"#utility.yul\":6912:6926   */\n      pop\n        /* \"#utility.yul\":7320:7324   */\n      dup3\n        /* \"#utility.yul\":7313:7324   */\n      swap8\n      pop\n        /* \"#utility.yul\":7340:7343   */\n      dup8\n        /* \"#utility.yul\":7333:7343   */\n      swap6\n      pop\n        /* \"#utility.yul\":6502:7349   */\n      pop\n      pop\n      pop\n      pop\n      pop\n        /* \"#utility.yul\":6358:7349   */\n      swap3\n      swap2\n      pop\n      pop\n      jump\t// out\n        /* \"#utility.yul\":7355:7768   */\n    tag_29:\n        /* \"#utility.yul\":7518:7522   */\n      0x00\n        /* \"#utility.yul\":7556:7558   */\n      0x20\n        /* \"#utility.yul\":7545:7554   */\n      dup3\n        /* \"#utility.yul\":7541:7559   */\n      add\n        /* \"#utility.yul\":7533:7559   */\n      swap1\n      pop\n        /* \"#utility.yul\":7605:7614   */\n      dup2\n        /* \"#utility.yul\":7599:7603   */\n      dup2\n        /* \"#utility.yul\":7595:7615   */\n      sub\n        /* \"#utility.yul\":7591:7592   */\n      0x00\n        /* \"#utility.yul\":7580:7589   */\n      dup4\n        /* \"#utility.yul\":7576:7593   */\n      add\n        /* \"#utility.yul\":7569:7616   */\n      mstore\n        /* \"#utility.yul\":7633:7761   */\n      tag_283\n        /* \"#utility.yul\":7756:7760   */\n      dup2\n        /* \"#utility.yul\":7747:7753   */\n      dup5\n        /* \"#utility.yul\":7633:7761   */\n      tag_182\n      jump\t// in\n    tag_283:\n        /* \"#utility.yul\":7625:7761   */\n      swap1\n      pop\n        /* \"#utility.yul\":7355:7768   */\n      swap3\n      swap2\n      pop\n      pop\n      jump\t// out\n        /* \"#utility.yul\":7774:7954   */\n    tag_51:\n        /* \"#utility.yul\":7822:7899   */\n      0x4e487b7100000000000000000000000000000000000000000000000000000000\n        /* \"#utility.yul\":7819:7820   */\n      0x00\n        /* \"#utility.yul\":7812:7900   */\n      mstore\n        /* \"#utility.yul\":7919:7923   */\n      0x32\n        /* \"#utility.yul\":7916:7917   */\n      0x04\n        /* \"#utility.yul\":7909:7924   */\n      mstore\n        /* \"#utility.yul\":7943:7947   */\n      0x24\n        /* \"#utility.yul\":7940:7941   */\n      0x00\n        /* \"#utility.yul\":7933:7948   */\n      revert\n        /* \"#utility.yul\":7960:8140   */\n    tag_183:\n        /* \"#utility.yul\":8008:8085   */\n      0x4e487b7100000000000000000000000000000000000000000000000000000000\n        /* \"#utility.yul\":8005:8006   */\n      0x00\n        /* \"#utility.yul\":7998:8086   */\n      mstore\n        /* \"#utility.yul\":8105:8109   */\n      0x22\n        /* \"#utility.yul\":8102:8103   */\n      0x04\n        /* \"#utility.yul\":8095:8110   */\n      mstore\n        /* \"#utility.yul\":8129:8133   */\n      0x24\n        /* \"#utility.yul\":8126:8127   */\n      0x00\n        /* \"#utility.yul\":8119:8134   */\n      revert\n        /* \"#utility.yul\":8146:8466   */\n    tag_54:\n        /* \"#utility.yul\":8190:8196   */\n      0x00\n        /* \"#utility.yul\":8227:8228   */\n      0x02\n        /* \"#utility.yul\":8221:8225   */\n      dup3\n        /* \"#utility.yul\":8217:8229   */\n      div\n        /* \"#utility.yul\":8207:8229   */\n      swap1\n      pop\n        /* \"#utility.yul\":8274:8275   */\n      0x01\n        /* \"#utility.yul\":8268:8272   */\n      dup3\n        /* \"#utility.yul\":8264:8276   */\n      and\n        /* \"#utility.yul\":8295:8313   */\n      dup1\n        /* \"#utility.yul\":8285:8366   */\n      tag_287\n      jumpi\n        /* \"#utility.yul\":8351:8355   */\n      0x7f\n        /* \"#utility.yul\":8343:8349   */\n      dup3\n        /* \"#utility.yul\":8339:8356   */\n      and\n        /* \"#utility.yul\":8329:8356   */\n      swap2\n      pop\n        /* \"#utility.yul\":8285:8366   */\n    tag_287:\n        /* \"#utility.yul\":8413:8415   */\n      0x20\n        /* \"#utility.yul\":8405:8411   */\n      dup3\n        /* \"#utility.yul\":8402:8416   */\n      lt\n        /* \"#utility.yul\":8382:8400   */\n      dup2\n        /* \"#utility.yul\":8379:8417   */\n      sub\n        /* \"#utility.yul\":8376:8460   */\n      tag_288\n      jumpi\n        /* \"#utility.yul\":8432:8450   */\n      tag_289\n      tag_183\n      jump\t// in\n    tag_289:\n        /* \"#utility.yul\":8376:8460   */\n    tag_288:\n        /* \"#utility.yul\":8197:8466   */\n      pop\n        /* \"#utility.yul\":8146:8466   */\n      swap2\n      swap1\n      pop\n      jump\t// out\n        /* \"#utility.yul\":8472:8613   */\n    tag_184:\n        /* \"#utility.yul\":8521:8525   */\n      0x00\n        /* \"#utility.yul\":8544:8547   */\n      dup2\n        /* \"#utility.yul\":8536:8547   */\n      swap1\n      pop\n        /* \"#utility.yul\":8567:8570   */\n      dup2\n        /* \"#utility.yul\":8564:8565   */\n      0x00\n        /* \"#utility.yul\":8557:8571   */\n      mstore\n        /* \"#utility.yul\":8601:8605   */\n      0x20\n        /* \"#utility.yul\":8598:8599   */\n      0x00\n        /* \"#utility.yul\":8588:8606   */\n      keccak256\n        /* \"#utility.yul\":8580:8606   */\n      swap1\n      pop\n        /* \"#utility.yul\":8472:8613   */\n      swap2\n      swap1\n      pop\n      jump\t// out\n        /* \"#utility.yul\":8619:8712   */\n    tag_185:\n        /* \"#utility.yul\":8656:8662   */\n      0x00\n        /* \"#utility.yul\":8703:8705   */\n      0x20\n        /* \"#utility.yul\":8698:8700   */\n      0x1f\n        /* \"#utility.yul\":8691:8696   */\n      dup4\n        /* \"#utility.yul\":8687:8701   */\n      add\n        /* \"#utility.yul\":8683:8706   */\n      div\n        /* \"#utility.yul\":8673:8706   */\n      swap1\n      pop\n        /* \"#utility.yul\":8619:8712   */\n      swap2\n      swap1\n      pop\n      jump\t// out\n        /* \"#utility.yul\":8718:8825   */\n    tag_186:\n        /* \"#utility.yul\":8762:8770   */\n      0x00\n        /* \"#utility.yul\":8812:8817   */\n      dup3\n        /* \"#utility.yul\":8806:8810   */\n      dup3\n        /* \"#utility.yul\":8802:8818   */\n      shl\n        /* \"#utility.yul\":8781:8818   */\n      swap1\n      pop\n        /* \"#utility.yul\":8718:8825   */\n      swap3\n      swap2\n      pop\n      pop\n      jump\t// out\n        /* \"#utility.yul\":8831:9224   */\n    tag_187:\n        /* \"#utility.yul\":8900:8906   */\n      0x00\n        /* \"#utility.yul\":8950:8951   */\n      0x08\n        /* \"#utility.yul\":8938:8948   */\n      dup4\n        /* \"#utility.yul\":8934:8952   */\n      mul\n        /* \"#utility.yul\":8973:9070   */\n      tag_294\n        /* \"#utility.yul\":9003:9069   */\n      0xffffffffffffffffffffffffffffffffffffffffffffffffffffffffffffffff\n        /* \"#utility.yul\":8992:9001   */\n      dup3\n        /* \"#utility.yul\":8973:9070   */\n      tag_186\n      jump\t// in\n    tag_294:\n        /* \"#utility.yul\":9091:9130   */\n      tag_295\n        /* \"#utility.yul\":9121:9129   */\n      dup7\n        /* \"#utility.yul\":9110:9119   */\n      dup4\n        /* \"#utility.yul\":9091:9130   */\n      tag_186\n      jump\t// in\n    tag_295:\n        /* \"#utility.yul\":9079:9130   */\n      swap6\n      pop\n        /* \"#utility.yul\":9163:9167   */\n      dup1\n        /* \"#utility.yul\":9159:9168   */\n      not\n        /* \"#utility.yul\":9152:9157   */\n      dup5\n        /* \"#utility.yul\":9148:9169   */\n      and\n        /* \"#utility.yul\":9139:9169   */\n      swap4\n      pop\n        /* \"#utility.yul\":9212:9216   */\n      dup1\n        /* \"#utility.yul\":9202:9210   */\n      dup7\n        /* \"#utility.yul\":9198:9217   */\n      and\n        /* \"#utility.yul\":9191:9196   */\n      dup5\n        /* \"#utility.yul\":9188:9218   */\n      or\n        /* \"#utility.yul\":9178:9218   */\n      swap3\n      pop\n        /* \"#utility.yul\":8907:9224   */\n      pop\n      pop\n        /* \"#utility.yul\":8831:9224   */\n      swap4\n      swap3\n      pop\n      pop\n      pop\n      jump\t// out\n        /* \"#utility.yul\":9230:9290   */\n    tag_188:\n        /* \"#utility.yul\":9258:9261   */\n      0x00\n        /* \"#utility.yul\":9279:9284   */\n      dup2\n        /* \"#utility.yul\":9272:9284   */\n      swap1\n      pop\n        /* \"#utility.yul\":9230:9290   */\n      swap2\n      swap1\n      pop\n      jump\t// out\n        /* \"#utility.yul\":9296:9438   */\n    tag_189:\n        /* \"#utility.yul\":9346:9355   */\n      0x00\n        /* \"#utility.yul\":9379:9432   */\n      tag_298\n        /* \"#utility.yul\":9397:9431   */\n      tag_299\n        /* \"#utility.yul\":9406:9430   */\n      tag_300\n        /* \"#utility.yul\":9424:9429   */\n      dup5\n        /* \"#utility.yul\":9406:9430   */\n      tag_158\n      jump\t// in\n    tag_300:\n        /* \"#utility.yul\":9397:9431   */\n      tag_188\n      jump\t// in\n    tag_299:\n        /* \"#utility.yul\":9379:9432   */\n      tag_158\n      jump\t// in\n    tag_298:\n        /* \"#utility.yul\":9366:9432   */\n      swap1\n      pop\n        /* \"#utility.yul\":9296:9438   */\n      swap2\n      swap1\n      pop\n      jump\t// out\n        /* \"#utility.yul\":9444:9519   */\n    tag_190:\n        /* \"#utility.yul\":9487:9490   */\n      0x00\n        /* \"#utility.yul\":9508:9513   */\n      dup2\n        /* \"#utility.yul\":9501:9513   */\n      swap1\n      pop\n        /* \"#utility.yul\":9444:9519   */\n      swap2\n      swap1\n      pop\n      jump\t// out\n        /* \"#utility.yul\":9525:9794   */\n    tag_191:\n        /* \"#utility.yul\":9635:9674   */\n      tag_303\n        /* \"#utility.yul\":9666:9673   */\n      dup4\n        /* \"#utility.yul\":9635:9674   */\n      tag_189\n      jump\t// in\n    tag_303:\n        /* \"#utility.yul\":9696:9787   */\n      tag_304\n        /* \"#utility.yul\":9745:9786   */\n      tag_305\n        /* \"#utility.yul\":9769:9785   */\n      dup3\n        /* \"#utility.yul\":9745:9786   */\n      tag_190\n      jump\t// in\n    tag_305:\n        /* \"#utility.yul\":9737:9743   */\n      dup5\n        /* \"#utility.yul\":9730:9734   */\n      dup5\n        /* \"#utility.yul\":9724:9735   */\n      sload\n        /* \"#utility.yul\":9696:9787   */\n      tag_187\n      jump\t// in\n    tag_304:\n        /* \"#utility.yul\":9690:9694   */\n      dup3\n        /* \"#utility.yul\":9683:9788   */\n      sstore\n        /* \"#utility.yul\":9601:9794   */\n      pop\n        /* \"#utility.yul\":9525:9794   */\n      pop\n      pop\n      pop\n      jump\t// out\n        /* \"#utility.yul\":9800:9873   */\n    tag_192:\n        /* \"#utility.yul\":9845:9848   */\n      0x00\n        /* \"#utility.yul\":9800:9873   */\n      swap1\n      jump\t// out\n        /* \"#utility.yul\":9879:10068   */\n    tag_193:\n        /* \"#utility.yul\":9956:9988   */\n      tag_308\n      tag_192\n      jump\t// in\n    tag_308:\n        /* \"#utility.yul\":9997:10062   */\n      tag_309\n        /* \"#utility.yul\":10055:10061   */\n      dup2\n        /* \"#utility.yul\":10047:10053   */\n      dup5\n        /* \"#utility.yul\":10041:10045   */\n      dup5\n        /* \"#utility.yul\":9997:10062   */\n      tag_191\n      jump\t// in\n    tag_309:\n        /* \"#utility.yul\":9932:10068   */\n      pop\n        /* \"#utility.yul\":9879:10068   */\n      pop\n      pop\n      jump\t// out\n        /* \"#utility.yul\":10074:10260   */\n    tag_194:\n        /* \"#utility.yul\":10134:10254   */\n    tag_311:\n        /* \"#utility.yul\":10151:10154   */\n      dup2\n        /* \"#utility.yul\":10144:10149   */\n      dup2\n        /* \"#utility.yul\":10141:10155   */\n      lt\n        /* \"#utility.yul\":10134:10254   */\n      iszero\n      tag_313\n      jumpi\n        /* \"#utility.yul\":10205:10244   */\n      tag_314\n        /* \"#utility.yul\":10242:10243   */\n      0x00\n        /* \"#utility.yul\":10235:10240   */\n      dup3\n        /* \"#utility.yul\":10205:10244   */\n      tag_193\n      jump\t// in\n    tag_314:\n        /* \"#utility.yul\":10178:10179   */\n      0x01\n        /* \"#utility.yul\":10171:10176   */\n      dup2\n        /* \"#utility.yul\":10167:10180   */\n      add\n        /* \"#utility.yul\":10158:10180   */\n      swap1\n      pop\n        /* \"#utility.yul\":10134:10254   */\n      jump(tag_311)\n    tag_313:\n        /* \"#utility.yul\":10074:10260   */\n      pop\n      pop\n      jump\t// out\n        /* \"#utility.yul\":10266:10809   */\n    tag_195:\n        /* \"#utility.yul\":10367:10369   */\n      0x1f\n        /* \"#utility.yul\":10362:10365   */\n      dup3\n        /* \"#utility.yul\":10359:10370   */\n      gt\n        /* \"#utility.yul\":10356:10802   */\n      iszero\n      tag_316\n      jumpi\n        /* \"#utility.yul\":10401:10439   */\n      tag_317\n        /* \"#utility.yul\":10433:10438   */\n      dup2\n        /* \"#utility.yul\":10401:10439   */\n      tag_184\n      jump\t// in\n    tag_317:\n        /* \"#utility.yul\":10485:10514   */\n      tag_318\n        /* \"#utility.yul\":10503:10513   */\n      dup5\n        /* \"#utility.yul\":10485:10514   */\n      tag_185\n      jump\t// in\n    tag_318:\n        /* \"#utility.yul\":10475:10483   */\n      dup2\n        /* \"#utility.yul\":10471:10515   */\n      add\n        /* \"#utility.yul\":10668:10670   */\n      0x20\n        /* \"#utility.yul\":10656:10666   */\n      dup6\n        /* \"#utility.yul\":10653:10671   */\n      lt\n        /* \"#utility.yul\":10650:10699   */\n      iszero\n      tag_319\n      jumpi\n        /* \"#utility.yul\":10689:10697   */\n      dup2\n        /* \"#utility.yul\":10674:10697   */\n      swap1\n      pop\n        /* \"#utility.yul\":10650:10699   */\n    tag_319:\n        /* \"#utility.yul\":10712:10792   */\n      tag_320\n        /* \"#utility.yul\":10768:10790   */\n      tag_321\n        /* \"#utility.yul\":10786:10789   */\n      dup6\n        /* \"#utility.yul\":10768:10790   */\n      tag_185\n      jump\t// in\n    tag_321:\n        /* \"#utility.yul\":10758:10766   */\n      dup4\n        /* \"#utility.yul\":10754:10791   */\n      add\n        /* \"#utility.yul\":10741:10752   */\n      dup3\n        /* \"#utility.yul\":10712:10792   */\n      tag_194\n      jump\t// in\n    tag_320:\n        /* \"#utility.yul\":10371:10802   */\n      pop\n      pop\n        /* \"#utility.yul\":10356:10802   */\n    tag_316:\n        /* \"#utility.yul\":10266:10809   */\n      pop\n      pop\n      pop\n      jump\t// out\n        /* \"#utility.yul\":10815:10932   */\n    tag_196:\n        /* \"#utility.yul\":10869:10877   */\n      0x00\n        /* \"#utility.yul\":10919:10924   */\n      dup3\n        /* \"#utility.yul\":10913:10917   */\n      dup3\n        /* \"#utility.yul\":10909:10925   */\n      shr\n        /* \"#utility.yul\":10888:10925   */\n      swap1\n      pop\n        /* \"#utility.yul\":10815:10932   */\n      swap3\n      swap2\n      pop\n      pop\n      jump\t// out\n        /* \"#utility.yul\":10938:11107   */\n    tag_197:\n        /* \"#utility.yul\":10982:10988   */\n      0x00\n        /* \"#utility.yul\":11015:11066   */\n      tag_324\n        /* \"#utility.yul\":11063:11064   */\n      0x00\n        /* \"#utility.yul\":11059:11065   */\n      not\n        /* \"#utility.yul\":11051:11056   */\n      dup5\n        /* \"#utility.yul\":11048:11049   */\n      0x08\n        /* \"#utility.yul\":11044:11057   */\n      mul\n        /* \"#utility.yul\":11015:11066   */\n      tag_196\n      jump\t// in\n    tag_324:\n        /* \"#utility.yul\":11011:11067   */\n      not\n        /* \"#utility.yul\":11096:11100   */\n      dup1\n        /* \"#utility.yul\":11090:11094   */\n      dup4\n        /* \"#utility.yul\":11086:11101   */\n      and\n        /* \"#utility.yul\":11076:11101   */\n      swap2\n      pop\n        /* \"#utility.yul\":10989:11107   */\n      pop\n        /* \"#utility.yul\":10938:11107   */\n      swap3\n      swap2\n      pop\n      pop\n      jump\t// out\n        /* \"#utility.yul\":11112:11407   */\n    tag_198:\n        /* \"#utility.yul\":11188:11192   */\n      0x00\n        /* \"#utility.yul\":11334:11363   */\n      tag_326\n        /* \"#utility.yul\":11359:11362   */\n      dup4\n        /* \"#utility.yul\":11353:11357   */\n      dup4\n        /* \"#utility.yul\":11334:11363   */\n      tag_197\n      jump\t// in\n    tag_326:\n        /* \"#utility.yul\":11326:11363   */\n      swap2\n      pop\n        /* \"#utility.yul\":11396:11399   */\n      dup3\n        /* \"#utility.yul\":11393:11394   */\n      0x02\n        /* \"#utility.yul\":11389:11400   */\n      mul\n        /* \"#utility.yul\":11383:11387   */\n      dup3\n        /* \"#utility.yul\":11380:11401   */\n      or\n        /* \"#utility.yul\":11372:11401   */\n      swap1\n      pop\n        /* \"#utility.yul\":11112:11407   */\n      swap3\n      swap2\n      pop\n      pop\n      jump\t// out\n        /* \"#utility.yul\":11412:12807   */\n    tag_68:\n        /* \"#utility.yul\":11529:11566   */\n      tag_328\n        /* \"#utility.yul\":11562:11565   */\n      dup3\n        /* \"#utility.yul\":11529:11566   */\n      tag_161\n      jump\t// in\n    tag_328:\n        /* \"#utility.yul\":11631:11649   */\n      0xffffffffffffffff\n        /* \"#utility.yul\":11623:11629   */\n      dup2\n        /* \"#utility.yul\":11620:11650   */\n      gt\n        /* \"#utility.yul\":11617:11673   */\n      iszero\n      tag_329\n      jumpi\n        /* \"#utility.yul\":11653:11671   */\n      tag_330\n      tag_168\n      jump\t// in\n    tag_330:\n        /* \"#utility.yul\":11617:11673   */\n    tag_329:\n        /* \"#utility.yul\":11697:11735   */\n      tag_331\n        /* \"#utility.yul\":11729:11733   */\n      dup3\n        /* \"#utility.yul\":11723:11734   */\n      sload\n        /* \"#utility.yul\":11697:11735   */\n      tag_54\n      jump\t// in\n    tag_331:\n        /* \"#utility.yul\":11782:11849   */\n      tag_332\n        /* \"#utility.yul\":11842:11848   */\n      dup3\n        /* \"#utility.yul\":11834:11840   */\n      dup3\n        /* \"#utility.yul\":11828:11832   */\n      dup6\n        /* \"#utility.yul\":11782:11849   */\n      tag_195\n      jump\t// in\n    tag_332:\n        /* \"#utility.yul\":11876:11877   */\n      0x00\n        /* \"#utility.yul\":11900:11904   */\n      0x20\n        /* \"#utility.yul\":11887:11904   */\n      swap1\n      pop\n        /* \"#utility.yul\":11932:11934   */\n      0x1f\n        /* \"#utility.yul\":11924:11930   */\n      dup4\n        /* \"#utility.yul\":11921:11935   */\n      gt\n        /* \"#utility.yul\":11949:11950   */\n      0x01\n        /* \"#utility.yul\":11944:12562   */\n      dup2\n      eq\n      tag_334\n      jumpi\n        /* \"#utility.yul\":12606:12607   */\n      0x00\n        /* \"#utility.yul\":12623:12629   */\n      dup5\n        /* \"#utility.yul\":12620:12697   */\n      iszero\n      tag_335\n      jumpi\n        /* \"#utility.yul\":12672:12681   */\n      dup3\n        /* \"#utility.yul\":12667:12670   */\n      dup8\n        /* \"#utility.yul\":12663:12682   */\n      add\n        /* \"#utility.yul\":12657:12683   */\n      mload\n        /* \"#utility.yul\":12648:12683   */\n      swap1\n      pop\n        /* \"#utility.yul\":12620:12697   */\n    tag_335:\n        /* \"#utility.yul\":12723:12790   */\n      tag_336\n        /* \"#utility.yul\":12783:12789   */\n      dup6\n        /* \"#utility.yul\":12776:12781   */\n      dup3\n        /* \"#utility.yul\":12723:12790   */\n      tag_198\n      jump\t// in\n    tag_336:\n        /* \"#utility.yul\":12717:12721   */\n      dup7\n        /* \"#utility.yul\":12710:12791   */\n      sstore\n        /* \"#utility.yul\":12579:12801   */\n      pop\n        /* \"#utility.yul\":11914:12801   */\n      jump(tag_333)\n        /* \"#utility.yul\":11944:12562   */\n    tag_334:\n        /* \"#utility.yul\":11996:12000   */\n      0x1f\n        /* \"#utility.yul\":11992:12001   */\n      not\n        /* \"#utility.yul\":11984:11990   */\n      dup5\n        /* \"#utility.yul\":11980:12002   */\n      and\n        /* \"#utility.yul\":12030:12067   */\n      tag_337\n        /* \"#utility.yul\":12062:12066   */\n      dup7\n        /* \"#utility.yul\":12030:12067   */\n      tag_184\n      jump\t// in\n    tag_337:\n        /* \"#utility.yul\":12089:12090   */\n      0x00\n        /* \"#utility.yul\":12103:12311   */\n    tag_338:\n        /* \"#utility.yul\":12117:12124   */\n      dup3\n        /* \"#utility.yul\":12114:12115   */\n      dup2\n        /* \"#utility.yul\":12111:12125   */\n      lt\n        /* \"#utility.yul\":12103:12311   */\n      iszero\n      tag_340\n      jumpi\n        /* \"#utility.yul\":12196:12205   */\n      dup5\n        /* \"#utility.yul\":12191:12194   */\n      dup10\n        /* \"#utility.yul\":12187:12206   */\n      add\n        /* \"#utility.yul\":12181:12207   */\n      mload\n        /* \"#utility.yul\":12173:12179   */\n      dup3\n        /* \"#utility.yul\":12166:12208   */\n      sstore\n        /* \"#utility.yul\":12247:12248   */\n      0x01\n        /* \"#utility.yul\":12239:12245   */\n      dup3\n        /* \"#utility.yul\":12235:12249   */\n      add\n        /* \"#utility.yul\":12225:12249   */\n      swap2\n      pop\n        /* \"#utility.yul\":12294:12296   */\n      0x20\n        /* \"#utility.yul\":12283:12292   */\n      dup6\n        /* \"#utility.yul\":12279:12297   */\n      add\n        /* \"#utility.yul\":12266:12297   */\n      swap5\n      pop\n        /* \"#utility.yul\":12140:12144   */\n      0x20\n        /* \"#utility.yul\":12137:12138   */\n      dup2\n        /* \"#utility.yul\":12133:12145   */\n      add\n        /* \"#utility.yul\":12128:12145   */\n      swap1\n      pop\n        /* \"#utility.yul\":12103:12311   */\n      jump(tag_338)\n    tag_340:\n        /* \"#utility.yul\":12339:12345   */\n      dup7\n        /* \"#utility.yul\":12330:12337   */\n      dup4\n        /* \"#utility.yul\":12327:12346   */\n      lt\n        /* \"#utility.yul\":12324:12503   */\n      iszero\n      tag_341\n      jumpi\n        /* \"#utility.yul\":12397:12406   */\n      dup5\n        /* \"#utility.yul\":12392:12395   */\n      dup10\n        /* \"#utility.yul\":12388:12407   */\n      add\n        /* \"#utility.yul\":12382:12408   */\n      mload\n        /* \"#utility.yul\":12440:12488   */\n      tag_342\n        /* \"#utility.yul\":12482:12486   */\n      0x1f\n        /* \"#utility.yul\":12474:12480   */\n      dup10\n        /* \"#utility.yul\":12470:12487   */\n      and\n        /* \"#utility.yul\":12459:12468   */\n      dup3\n        /* \"#utility.yul\":12440:12488   */\n      tag_197\n      jump\t// in\n    tag_342:\n        /* \"#utility.yul\":12432:12438   */\n      dup4\n        /* \"#utility.yul\":12425:12489   */\n      sstore\n        /* \"#utility.yul\":12347:12503   */\n      pop\n        /* \"#utility.yul\":12324:12503   */\n    tag_341:\n        /* \"#utility.yul\":12549:12550   */\n      0x01\n        /* \"#utility.yul\":12545:12546   */\n      0x02\n        /* \"#utility.yul\":12537:12543   */\n      dup9\n        /* \"#utility.yul\":12533:12547   */\n      mul\n        /* \"#utility.yul\":12529:12551   */\n      add\n        /* \"#utility.yul\":12523:12527   */\n      dup9\n        /* \"#utility.yul\":12516:12552   */\n      sstore\n        /* \"#utility.yul\":11951:12562   */\n      pop\n      pop\n      pop\n        /* \"#utility.yul\":11914:12801   */\n    tag_333:\n      pop\n        /* \"#utility.yul\":11504:12807   */\n      pop\n      pop\n      pop\n        /* \"#utility.yul\":11412:12807   */\n      pop\n      pop\n      jump\t// out\n        /* \"#utility.yul\":12813:12993   */\n    tag_199:\n        /* \"#utility.yul\":12861:12938   */\n      0x4e487b7100000000000000000000000000000000000000000000000000000000\n        /* \"#utility.yul\":12858:12859   */\n      0x00\n        /* \"#utility.yul\":12851:12939   */\n      mstore\n        /* \"#utility.yul\":12958:12962   */\n      0x11\n        /* \"#utility.yul\":12955:12956   */\n      0x04\n        /* \"#utility.yul\":12948:12963   */\n      mstore\n        /* \"#utility.yul\":12982:12986   */\n      0x24\n        /* \"#utility.yul\":12979:12980   */\n      0x00\n        /* \"#utility.yul\":12972:12987   */\n      revert\n        /* \"#utility.yul\":12999:13193   */\n    tag_116:\n        /* \"#utility.yul\":13039:13043   */\n      0x00\n        /* \"#utility.yul\":13059:13079   */\n      tag_345\n        /* \"#utility.yul\":13077:13078   */\n      dup3\n        /* \"#utility.yul\":13059:13079   */\n      tag_158\n      jump\t// in\n    tag_345:\n        /* \"#utility.yul\":13054:13079   */\n      swap2\n      pop\n        /* \"#utility.yul\":13093:13113   */\n      tag_346\n        /* \"#utility.yul\":13111:13112   */\n      dup4\n        /* \"#utility.yul\":13093:13113   */\n      tag_158\n      jump\t// in\n    tag_346:\n        /* \"#utility.yul\":13088:13113   */\n      swap3\n      pop\n        /* \"#utility.yul\":13137:13138   */\n      dup3\n        /* \"#utility.yul\":13134:13135   */\n      dup3\n        /* \"#utility.yul\":13130:13139   */\n      sub\n        /* \"#utility.yul\":13122:13139   */\n      swap1\n      pop\n        /* \"#utility.yul\":13161:13162   */\n      dup2\n        /* \"#utility.yul\":13155:13159   */\n      dup2\n        /* \"#utility.yul\":13152:13163   */\n      gt\n        /* \"#utility.yul\":13149:13186   */\n      iszero\n      tag_347\n      jumpi\n        /* \"#utility.yul\":13166:13184   */\n      tag_348\n      tag_199\n      jump\t// in\n    tag_348:\n        /* \"#utility.yul\":13149:13186   */\n    tag_347:\n        /* \"#utility.yul\":12999:13193   */\n      swap3\n      swap2\n      pop\n      pop\n      jump\t// out\n        /* \"#utility.yul\":13199:13390   */\n    tag_118:\n        /* \"#utility.yul\":13239:13242   */\n      0x00\n        /* \"#utility.yul\":13258:13278   */\n      tag_350\n        /* \"#utility.yul\":13276:13277   */\n      dup3\n        /* \"#utility.yul\":13258:13278   */\n      tag_158\n      jump\t// in\n    tag_350:\n        /* \"#utility.yul\":13253:13278   */\n      swap2\n      pop\n        /* \"#utility.yul\":13292:13312   */\n      tag_351\n        /* \"#utility.yul\":13310:13311   */\n      dup4\n        /* \"#utility.yul\":13292:13312   */\n      tag_158\n      jump\t// in\n    tag_351:\n        /* \"#utility.yul\":13287:13312   */\n      swap3\n      pop\n        /* \"#utility.yul\":13335:13336   */\n      dup3\n        /* \"#utility.yul\":13332:13333   */\n      dup3\n        /* \"#utility.yul\":13328:13337   */\n      add\n        /* \"#utility.yul\":13321:13337   */\n      swap1\n      pop\n        /* \"#utility.yul\":13356:13359   */\n      dup1\n        /* \"#utility.yul\":13353:13354   */\n      dup3\n        /* \"#utility.yul\":13350:13360   */\n      gt\n        /* \"#utility.yul\":13347:13383   */\n      iszero\n      tag_352\n      jumpi\n        /* \"#utility.yul\":13363:13381   */\n      tag_353\n      tag_199\n      jump\t// in\n    tag_353:\n        /* \"#utility.yul\":13347:13383   */\n    tag_352:\n        /* \"#utility.yul\":13199:13390   */\n      swap3\n      swap2\n      pop\n      pop\n      jump\t// out\n        /* \"#utility.yul\":13396:13549   */\n    tag_200:\n        /* \"#utility.yul\":13449:13455   */\n      0x00\n        /* \"#utility.yul\":13483:13488   */\n      dup2\n        /* \"#utility.yul\":13477:13489   */\n      sload\n        /* \"#utility.yul\":13467:13489   */\n      swap1\n      pop\n        /* \"#utility.yul\":13509:13542   */\n      tag_355\n        /* \"#utility.yul\":13535:13541   */\n      dup2\n        /* \"#utility.yul\":13509:13542   */\n      tag_54\n      jump\t// in\n    tag_355:\n        /* \"#utility.yul\":13499:13542   */\n      swap1\n      pop\n        /* \"#utility.yul\":13396:13549   */\n      swap2\n      swap1\n      pop\n      jump\t// out\n        /* \"#utility.yul\":13555:13700   */\n    tag_201:\n        /* \"#utility.yul\":13608:13612   */\n      0x00\n        /* \"#utility.yul\":13631:13634   */\n      dup2\n        /* \"#utility.yul\":13623:13634   */\n      swap1\n      pop\n        /* \"#utility.yul\":13654:13657   */\n      dup2\n        /* \"#utility.yul\":13651:13652   */\n      0x00\n        /* \"#utility.yul\":13644:13658   */\n      mstore\n        /* \"#utility.yul\":13688:13692   */\n      0x20\n        /* \"#utility.yul\":13685:13686   */\n      0x00\n        /* \"#utility.yul\":13675:13693   */\n      keccak256\n        /* \"#utility.yul\":13667:13693   */\n      swap1\n      pop\n        /* \"#utility.yul\":13555:13700   */\n      swap2\n      swap1\n      pop\n      jump\t// out\n        /* \"#utility.yul\":13706:15169   */\n    tag_126:\n        /* \"#utility.yul\":13821:13824   */\n      dup2\n        /* \"#utility.yul\":13815:13819   */\n      dup2\n        /* \"#utility.yul\":13812:13825   */\n      sub\n        /* \"#utility.yul\":13809:13835   */\n      tag_358\n      jumpi\n        /* \"#utility.yul\":13828:13833   */\n      pop\n      pop\n      jump(tag_357)\n        /* \"#utility.yul\":13809:13835   */\n    tag_358:\n        /* \"#utility.yul\":13859:13897   */\n      tag_359\n        /* \"#utility.yul\":13893:13896   */\n      dup3\n        /* \"#utility.yul\":13859:13897   */\n      tag_200\n      jump\t// in\n    tag_359:\n        /* \"#utility.yul\":13962:13980   */\n      0xffffffffffffffff\n        /* \"#utility.yul\":13954:13960   */\n      dup2\n        /* \"#utility.yul\":13951:13981   */\n      gt\n        /* \"#utility.yul\":13948:14004   */\n      iszero\n      tag_360\n      jumpi\n        /* \"#utility.yul\":13984:14002   */\n      tag_361\n      tag_168\n      jump\t// in\n    tag_361:\n        /* \"#utility.yul\":13948:14004   */\n    tag_360:\n        /* \"#utility.yul\":14028:14066   */\n      tag_362\n        /* \"#utility.yul\":14060:14064   */\n      dup3\n        /* \"#utility.yul\":14054:14065   */\n      sload\n        /* \"#utility.yul\":14028:14066   */\n      tag_54\n      jump\t// in\n    tag_362:\n        /* \"#utility.yul\":14113:14180   */\n      tag_363\n        /* \"#utility.yul\":14173:14179   */\n      dup3\n        /* \"#utility.yul\":14165:14171   */\n      dup3\n        /* \"#utility.yul\":14159:14163   */\n      dup6\n        /* \"#utility.yul\":14113:14180   */\n      tag_195\n      jump\t// in\n    tag_363:\n        /* \"#utility.yul\":14207:14208   */\n      0x00\n        /* \"#utility.yul\":14236:14238   */\n      0x1f\n        /* \"#utility.yul\":14228:14234   */\n      dup4\n        /* \"#utility.yul\":14225:14239   */\n      gt\n        /* \"#utility.yul\":14253:14254   */\n      0x01\n        /* \"#utility.yul\":14248:14924   */\n      dup2\n      eq\n      tag_365\n      jumpi\n        /* \"#utility.yul\":14968:14969   */\n      0x00\n        /* \"#utility.yul\":14985:14991   */\n      dup5\n        /* \"#utility.yul\":14982:15059   */\n      iszero\n      tag_366\n      jumpi\n        /* \"#utility.yul\":15034:15043   */\n      dup3\n        /* \"#utility.yul\":15029:15032   */\n      dup8\n        /* \"#utility.yul\":15025:15044   */\n      add\n        /* \"#utility.yul\":15019:15045   */\n      sload\n        /* \"#utility.yul\":15010:15045   */\n      swap1\n      pop\n        /* \"#utility.yul\":14982:15059   */\n    tag_366:\n        /* \"#utility.yul\":15085:15152   */\n      tag_367\n        /* \"#utility.yul\":15145:15151   */\n      dup6\n        /* \"#utility.yul\":15138:15143   */\n      dup3\n        /* \"#utility.yul\":15085:15152   */\n      tag_198\n      jump\t// in\n    tag_367:\n        /* \"#utility.yul\":15079:15083   */\n      dup7\n        /* \"#utility.yul\":15072:15153   */\n      sstore\n        /* \"#utility.yul\":14941:15163   */\n      pop\n        /* \"#utility.yul\":14218:15163   */\n      jump(tag_364)\n        /* \"#utility.yul\":14248:14924   */\n    tag_365:\n        /* \"#utility.yul\":14300:14304   */\n      0x1f\n        /* \"#utility.yul\":14296:14305   */\n      not\n        /* \"#utility.yul\":14288:14294   */\n      dup5\n        /* \"#utility.yul\":14284:14306   */\n      and\n        /* \"#utility.yul\":14326:14366   */\n      tag_368\n        /* \"#utility.yul\":14362:14365   */\n      dup8\n        /* \"#utility.yul\":14326:14366   */\n      tag_201\n      jump\t// in\n    tag_368:\n        /* \"#utility.yul\":14319:14366   */\n      swap7\n      pop\n        /* \"#utility.yul\":14393:14430   */\n      tag_369\n        /* \"#utility.yul\":14425:14429   */\n      dup7\n        /* \"#utility.yul\":14393:14430   */\n      tag_184\n      jump\t// in\n    tag_369:\n        /* \"#utility.yul\":14452:14453   */\n      0x00\n        /* \"#utility.yul\":14466:14673   */\n    tag_370:\n        /* \"#utility.yul\":14480:14487   */\n      dup3\n        /* \"#utility.yul\":14477:14478   */\n      dup2\n        /* \"#utility.yul\":14474:14488   */\n      lt\n        /* \"#utility.yul\":14466:14673   */\n      iszero\n      tag_372\n      jumpi\n        /* \"#utility.yul\":14559:14568   */\n      dup5\n        /* \"#utility.yul\":14554:14557   */\n      dup10\n        /* \"#utility.yul\":14550:14569   */\n      add\n        /* \"#utility.yul\":14544:14570   */\n      sload\n        /* \"#utility.yul\":14536:14542   */\n      dup3\n        /* \"#utility.yul\":14529:14571   */\n      sstore\n        /* \"#utility.yul\":14610:14611   */\n      0x01\n        /* \"#utility.yul\":14602:14608   */\n      dup3\n        /* \"#utility.yul\":14598:14612   */\n      add\n        /* \"#utility.yul\":14588:14612   */\n      swap2\n      pop\n        /* \"#utility.yul\":14657:14658   */\n      0x01\n        /* \"#utility.yul\":14646:14655   */\n      dup6\n        /* \"#utility.yul\":14642:14659   */\n      add\n        /* \"#utility.yul\":14629:14659   */\n      swap5\n      pop\n        /* \"#utility.yul\":14503:14507   */\n      0x20\n        /* \"#utility.yul\":14500:14501   */\n      dup2\n        /* \"#utility.yul\":14496:14508   */\n      add\n        /* \"#utility.yul\":14491:14508   */\n      swap1\n      pop\n        /* \"#utility.yul\":14466:14673   */\n      jump(tag_370)\n    tag_372:\n        /* \"#utility.yul\":14701:14707   */\n      dup7\n        /* \"#utility.yul\":14692:14699   */\n      dup4\n        /* \"#utility.yul\":14689:14708   */\n      lt\n        /* \"#utility.yul\":14686:14865   */\n      iszero\n      tag_373\n      jumpi\n        /* \"#utility.yul\":14759:14768   */\n      dup5\n        /* \"#utility.yul\":14754:14757   */\n      dup10\n        /* \"#utility.yul\":14750:14769   */\n      add\n        /* \"#utility.yul\":14744:14770   */\n      sload\n        /* \"#utility.yul\":14802:14850   */\n      tag_374\n        /* \"#utility.yul\":14844:14848   */\n      0x1f\n        /* \"#utility.yul\":14836:14842   */\n      dup10\n        /* \"#utility.yul\":14832:14849   */\n      and\n        /* \"#utility.yul\":14821:14830   */\n      dup3\n        /* \"#utility.yul\":14802:14850   */\n      tag_197\n      jump\t// in\n    tag_374:\n        /* \"#utility.yul\":14794:14800   */\n      dup4\n        /* \"#utility.yul\":14787:14851   */\n      sstore\n        /* \"#utility.yul\":14709:14865   */\n      pop\n        /* \"#utility.yul\":14686:14865   */\n    tag_373:\n        /* \"#utility.yul\":14911:14912   */\n      0x01\n        /* \"#utility.yul\":14907:14908   */\n      0x02\n        /* \"#utility.yul\":14899:14905   */\n      dup9\n        /* \"#utility.yul\":14895:14909   */\n      mul\n        /* \"#utility.yul\":14891:14913   */\n      add\n        /* \"#utility.yul\":14885:14889   */\n      dup9\n        /* \"#utility.yul\":14878:14914   */\n      sstore\n        /* \"#utility.yul\":14255:14924   */\n      pop\n      pop\n      pop\n        /* \"#utility.yul\":14218:15163   */\n    tag_364:\n      pop\n        /* \"#utility.yul\":13799:15169   */\n      pop\n      pop\n      pop\n        /* \"#utility.yul\":13706:15169   */\n      pop\n      pop\n    tag_357:\n      jump\t// out\n        /* \"#utility.yul\":15175:15408   */\n    tag_128:\n        /* \"#utility.yul\":15214:15217   */\n      0x00\n        /* \"#utility.yul\":15237:15261   */\n      tag_376\n        /* \"#utility.yul\":15255:15260   */\n      dup3\n        /* \"#utility.yul\":15237:15261   */\n      tag_158\n      jump\t// in\n    tag_376:\n        /* \"#utility.yul\":15228:15261   */\n      swap2\n      pop\n        /* \"#utility.yul\":15283:15349   */\n      0xffffffffffffffffffffffffffffffffffffffffffffffffffffffffffffffff\n        /* \"#utility.yul\":15276:15281   */\n      dup3\n        /* \"#utility.yul\":15273:15350   */\n      sub\n        /* \"#utility.yul\":15270:15373   */\n      tag_377\n      jumpi\n        /* \"#utility.yul\":15353:15371   */\n      tag_378\n      tag_199\n      jump\t// in\n    tag_378:\n        /* \"#utility.yul\":15270:15373   */\n    tag_377:\n        /* \"#utility.yul\":15400:15401   */\n      0x01\n        /* \"#utility.yul\":15393:15398   */\n      dup3\n        /* \"#utility.yul\":15389:15402   */\n      add\n        /* \"#utility.yul\":15382:15402   */\n      swap1\n      pop\n        /* \"#utility.yul\":15175:15408   */\n      swap2\n      swap1\n      pop\n      jump\t// out\n        /* \"#utility.yul\":15414:15594   */\n    tag_136:\n        /* \"#utility.yul\":15462:15539   */\n      0x4e487b7100000000000000000000000000000000000000000000000000000000\n        /* \"#utility.yul\":15459:15460   */\n      0x00\n        /* \"#utility.yul\":15452:15540   */\n      mstore\n        /* \"#utility.yul\":15559:15563   */\n      0x31\n        /* \"#utility.yul\":15556:15557   */\n      0x04\n        /* \"#utility.yul\":15549:15564   */\n      mstore\n        /* \"#utility.yul\":15583:15587   */\n      0x24\n        /* \"#utility.yul\":15580:15581   */\n      0x00\n        /* \"#utility.yul\":15573:15588   */\n      revert\n\n    auxdata: 0xa2646970667358221220539e33bfbeefc22a5759f5d497c476bf6e28d5ed5e819b10b976fb338b53052464736f6c63430008120033\n}\n",
				"bytecode": {
					"linkReferences": {},
					"object": "608060405234801561001057600080fd5b50611223806100206000396000f3fe608060405234801561001057600080fd5b50600436106100935760003560e01c8063bc8bc2b411610066578063bc8bc2b41461011e578063dd68afb61461014e578063e29672ba1461017e578063fdacd5761461019c578063fe1c7f6f146101b857610093565b80631bfc269b146100985780636e3c6738146100c857806395ffebf5146100e4578063982abb8914610100575b600080fd5b6100b260048036038101906100ad9190610934565b6101e8565b6040516100bf91906109f1565b60405180910390f35b6100e260048036038101906100dd9190610934565b610298565b005b6100fe60048036038101906100f99190610b48565b6102c5565b005b6101086102fd565b6040516101159190610c9d565b60405180910390f35b61013860048036038101906101339190610934565b6103d6565b60405161014591906109f1565b60405180910390f35b61016860048036038101906101639190610934565b610482565b60405161017591906109f1565b60405180910390f35b610186610532565b6040516101939190610c9d565b60405180910390f35b6101b660048036038101906101b19190610934565b61060b565b005b6101d260048036038101906101cd9190610934565b6107e1565b6040516101df91906109f1565b60405180910390f35b6060600182815481106101fe576101fd610cbf565b5b90600052602060002001805461021390610d1d565b80601f016020809104026020016040519081016040528092919081815260200182805461023f90610d1d565b801561028c5780601f106102615761010080835404028352916020019161028c565b820191906000526020600020905b81548152906001019060200180831161026f57829003601f168201915b50505050509050919050565b600081815481106102ac576102ab610cbf565b5b9060005260206000200160006102c2919061088d565b50565b6000819080600181540180825580915050600190039060005260206000200160009091909190915090816102f99190610efa565b5050565b60606000805480602002602001604051908101604052809291908181526020016000905b828210156103cd57838290600052602060002001805461034090610d1d565b80601f016020809104026020016040519081016040528092919081815260200182805461036c90610d1d565b80156103b95780601f1061038e576101008083540402835291602001916103b9565b820191906000526020600020905b81548152906001019060200180831161039c57829003601f168201915b505050505081526020019060010190610321565b50505050905090565b600081815481106103e657600080fd5b90600052602060002001600091509050805461040190610d1d565b80601f016020809104026020016040519081016040528092919081815260200182805461042d90610d1d565b801561047a5780601f1061044f5761010080835404028352916020019161047a565b820191906000526020600020905b81548152906001019060200180831161045d57829003601f168201915b505050505081565b60606000828154811061049857610497610cbf565b5b9060005260206000200180546104ad90610d1d565b80601f01602080910402602001604051908101604052809291908181526020018280546104d990610d1d565b80156105265780601f106104fb57610100808354040283529160200191610526565b820191906000526020600020905b81548152906001019060200180831161050957829003601f168201915b50505050509050919050565b60606001805480602002602001604051908101604052809291908181526020016000905b8282101561060257838290600052602060002001805461057590610d1d565b80601f01602080910402602001604051908101604052809291908181526020018280546105a190610d1d565b80156105ee5780601f106105c3576101008083540402835291602001916105ee565b820191906000526020600020905b8154815290600101906020018083116105d157829003601f168201915b505050505081526020019060010190610556565b50505050905090565b60008082815481106106205761061f610cbf565b5b90600052602060002001805461063590610d1d565b80601f016020809104026020016040519081016040528092919081815260200182805461066190610d1d565b80156106ae5780601f10610683576101008083540402835291602001916106ae565b820191906000526020600020905b81548152906001019060200180831161069157829003601f168201915b5050505050905060008290505b60016000805490506106cd9190610ffb565b81101561073c5760006001826106e3919061102f565b815481106106f4576106f3610cbf565b5b906000526020600020016000828154811061071257610711610cbf565b5b906000526020600020019081610728919061108e565b50808061073490611176565b9150506106bb565b50600060016000805490506107519190610ffb565b8154811061076257610761610cbf565b5b906000526020600020016000610778919061088d565b600080548061078a576107896111be565b5b6001900381819060005260206000200160006107a6919061088d565b90556001819080600181540180825580915050600190039060005260206000200160009091909190915090816107dc9190610efa565b505050565b600181815481106107f157600080fd5b90600052602060002001600091509050805461080c90610d1d565b80601f016020809104026020016040519081016040528092919081815260200182805461083890610d1d565b80156108855780601f1061085a57610100808354040283529160200191610885565b820191906000526020600020905b81548152906001019060200180831161086857829003601f168201915b505050505081565b50805461089990610d1d565b6000825580601f106108ab57506108ca565b601f0160209004906000526020600020908101906108c991906108cd565b5b50565b5b808211156108e65760008160009055506001016108ce565b5090565b6000604051905090565b600080fd5b600080fd5b6000819050919050565b610911816108fe565b811461091c57600080fd5b50565b60008135905061092e81610908565b92915050565b60006020828403121561094a576109496108f4565b5b60006109588482850161091f565b91505092915050565b600081519050919050565b600082825260208201905092915050565b60005b8381101561099b578082015181840152602081019050610980565b60008484015250505050565b6000601f19601f8301169050919050565b60006109c382610961565b6109cd818561096c565b93506109dd81856020860161097d565b6109e6816109a7565b840191505092915050565b60006020820190508181036000830152610a0b81846109b8565b905092915050565b600080fd5b600080fd5b7f4e487b7100000000000000000000000000000000000000000000000000000000600052604160045260246000fd5b610a55826109a7565b810181811067ffffffffffffffff82111715610a7457610a73610a1d565b5b80604052505050565b6000610a876108ea565b9050610a938282610a4c565b919050565b600067ffffffffffffffff821115610ab357610ab2610a1d565b5b610abc826109a7565b9050602081019050919050565b82818337600083830152505050565b6000610aeb610ae684610a98565b610a7d565b905082815260208101848484011115610b0757610b06610a18565b5b610b12848285610ac9565b509392505050565b600082601f830112610b2f57610b2e610a13565b5b8135610b3f848260208601610ad8565b91505092915050565b600060208284031215610b5e57610b5d6108f4565b5b600082013567ffffffffffffffff811115610b7c57610b7b6108f9565b5b610b8884828501610b1a565b91505092915050565b600081519050919050565b600082825260208201905092915050565b6000819050602082019050919050565b600082825260208201905092915050565b6000610bd982610961565b610be38185610bbd565b9350610bf381856020860161097d565b610bfc816109a7565b840191505092915050565b6000610c138383610bce565b905092915050565b6000602082019050919050565b6000610c3382610b91565b610c3d8185610b9c565b935083602082028501610c4f85610bad565b8060005b85811015610c8b5784840389528151610c6c8582610c07565b9450610c7783610c1b565b925060208a01995050600181019050610c53565b50829750879550505050505092915050565b60006020820190508181036000830152610cb78184610c28565b905092915050565b7f4e487b7100000000000000000000000000000000000000000000000000000000600052603260045260246000fd5b7f4e487b7100000000000000000000000000000000000000000000000000000000600052602260045260246000fd5b60006002820490506001821680610d3557607f821691505b602082108103610d4857610d47610cee565b5b50919050565b60008190508160005260206000209050919050565b60006020601f8301049050919050565b600082821b905092915050565b600060088302610db07fffffffffffffffffffffffffffffffffffffffffffffffffffffffffffffffff82610d73565b610dba8683610d73565b95508019841693508086168417925050509392505050565b6000819050919050565b6000610df7610df2610ded846108fe565b610dd2565b6108fe565b9050919050565b6000819050919050565b610e1183610ddc565b610e25610e1d82610dfe565b848454610d80565b825550505050565b600090565b610e3a610e2d565b610e45818484610e08565b505050565b5b81811015610e6957610e5e600082610e32565b600181019050610e4b565b5050565b601f821115610eae57610e7f81610d4e565b610e8884610d63565b81016020851015610e97578190505b610eab610ea385610d63565b830182610e4a565b50505b505050565b600082821c905092915050565b6000610ed160001984600802610eb3565b1980831691505092915050565b6000610eea8383610ec0565b9150826002028217905092915050565b610f0382610961565b67ffffffffffffffff811115610f1c57610f1b610a1d565b5b610f268254610d1d565b610f31828285610e6d565b600060209050601f831160018114610f645760008415610f52578287015190505b610f5c8582610ede565b865550610fc4565b601f198416610f7286610d4e565b60005b82811015610f9a57848901518255600182019150602085019450602081019050610f75565b86831015610fb75784890151610fb3601f891682610ec0565b8355505b6001600288020188555050505b505050505050565b7f4e487b7100000000000000000000000000000000000000000000000000000000600052601160045260246000fd5b6000611006826108fe565b9150611011836108fe565b925082820390508181111561102957611028610fcc565b5b92915050565b600061103a826108fe565b9150611045836108fe565b925082820190508082111561105d5761105c610fcc565b5b92915050565b60008154905061107281610d1d565b9050919050565b60008190508160005260206000209050919050565b81810361109c575050611174565b6110a582611063565b67ffffffffffffffff8111156110be576110bd610a1d565b5b6110c88254610d1d565b6110d3828285610e6d565b6000601f83116001811461110257600084156110f0578287015490505b6110fa8582610ede565b86555061116d565b601f19841661111087611079565b965061111b86610d4e565b60005b828110156111435784890154825560018201915060018501945060208101905061111e565b86831015611160578489015461115c601f891682610ec0565b8355505b6001600288020188555050505b5050505050505b565b6000611181826108fe565b91507fffffffffffffffffffffffffffffffffffffffffffffffffffffffffffffffff82036111b3576111b2610fcc565b5b600182019050919050565b7f4e487b7100000000000000000000000000000000000000000000000000000000600052603160045260246000fdfea2646970667358221220539e33bfbeefc22a5759f5d497c476bf6e28d5ed5e819b10b976fb338b53052464736f6c63430008120033",
					"opcodes": "PUSH1 0x80 PUSH1 0x40 MSTORE CALLVALUE DUP1 ISZERO PUSH2 0x10 JUMPI PUSH1 0x0 DUP1 REVERT JUMPDEST POP PUSH2 0x1223 DUP1 PUSH2 0x20 PUSH1 0x0 CODECOPY PUSH1 0x0 RETURN INVALID PUSH1 0x80 PUSH1 0x40 MSTORE CALLVALUE DUP1 ISZERO PUSH2 0x10 JUMPI PUSH1 0x0 DUP1 REVERT JUMPDEST POP PUSH1 0x4 CALLDATASIZE LT PUSH2 0x93 JUMPI PUSH1 0x0 CALLDATALOAD PUSH1 0xE0 SHR DUP1 PUSH4 0xBC8BC2B4 GT PUSH2 0x66 JUMPI DUP1 PUSH4 0xBC8BC2B4 EQ PUSH2 0x11E JUMPI DUP1 PUSH4 0xDD68AFB6 EQ PUSH2 0x14E JUMPI DUP1 PUSH4 0xE29672BA EQ PUSH2 0x17E JUMPI DUP1 PUSH4 0xFDACD576 EQ PUSH2 0x19C JUMPI DUP1 PUSH4 0xFE1C7F6F EQ PUSH2 0x1B8 JUMPI PUSH2 0x93 JUMP JUMPDEST DUP1 PUSH4 0x1BFC269B EQ PUSH2 0x98 JUMPI DUP1 PUSH4 0x6E3C6738 EQ PUSH2 0xC8 JUMPI DUP1 PUSH4 0x95FFEBF5 EQ PUSH2 0xE4 JUMPI DUP1 PUSH4 0x982ABB89 EQ PUSH2 0x100 JUMPI JUMPDEST PUSH1 0x0 DUP1 REVERT JUMPDEST PUSH2 0xB2 PUSH1 0x4 DUP1 CALLDATASIZE SUB DUP2 ADD SWAP1 PUSH2 0xAD SWAP2 SWAP1 PUSH2 0x934 JUMP JUMPDEST PUSH2 0x1E8 JUMP JUMPDEST PUSH1 0x40 MLOAD PUSH2 0xBF SWAP2 SWAP1 PUSH2 0x9F1 JUMP JUMPDEST PUSH1 0x40 MLOAD DUP1 SWAP2 SUB SWAP1 RETURN JUMPDEST PUSH2 0xE2 PUSH1 0x4 DUP1 CALLDATASIZE SUB DUP2 ADD SWAP1 PUSH2 0xDD SWAP2 SWAP1 PUSH2 0x934 JUMP JUMPDEST PUSH2 0x298 JUMP JUMPDEST STOP JUMPDEST PUSH2 0xFE PUSH1 0x4 DUP1 CALLDATASIZE SUB DUP2 ADD SWAP1 PUSH2 0xF9 SWAP2 SWAP1 PUSH2 0xB48 JUMP JUMPDEST PUSH2 0x2C5 JUMP JUMPDEST STOP JUMPDEST PUSH2 0x108 PUSH2 0x2FD JUMP JUMPDEST PUSH1 0x40 MLOAD PUSH2 0x115 SWAP2 SWAP1 PUSH2 0xC9D JUMP JUMPDEST PUSH1 0x40 MLOAD DUP1 SWAP2 SUB SWAP1 RETURN JUMPDEST PUSH2 0x138 PUSH1 0x4 DUP1 CALLDATASIZE SUB DUP2 ADD SWAP1 PUSH2 0x133 SWAP2 SWAP1 PUSH2 0x934 JUMP JUMPDEST PUSH2 0x3D6 JUMP JUMPDEST PUSH1 0x40 MLOAD PUSH2 0x145 SWAP2 SWAP1 PUSH2 0x9F1 JUMP JUMPDEST PUSH1 0x40 MLOAD DUP1 SWAP2 SUB SWAP1 RETURN JUMPDEST PUSH2 0x168 PUSH1 0x4 DUP1 CALLDATASIZE SUB DUP2 ADD SWAP1 PUSH2 0x163 SWAP2 SWAP1 PUSH2 0x934 JUMP JUMPDEST PUSH2 0x482 JUMP JUMPDEST PUSH1 0x40 MLOAD PUSH2 0x175 SWAP2 SWAP1 PUSH2 0x9F1 JUMP JUMPDEST PUSH1 0x40 MLOAD DUP1 SWAP2 SUB SWAP1 RETURN JUMPDEST PUSH2 0x186 PUSH2 0x532 JUMP JUMPDEST PUSH1 0x40 MLOAD PUSH2 0x193 SWAP2 SWAP1 PUSH2 0xC9D JUMP JUMPDEST PUSH1 0x40 MLOAD DUP1 SWAP2 SUB SWAP1 RETURN JUMPDEST PUSH2 0x1B6 PUSH1 0x4 DUP1 CALLDATASIZE SUB DUP2 ADD SWAP1 PUSH2 0x1B1 SWAP2 SWAP1 PUSH2 0x934 JUMP JUMPDEST PUSH2 0x60B JUMP JUMPDEST STOP JUMPDEST PUSH2 0x1D2 PUSH1 0x4 DUP1 CALLDATASIZE SUB DUP2 ADD SWAP1 PUSH2 0x1CD SWAP2 SWAP1 PUSH2 0x934 JUMP JUMPDEST PUSH2 0x7E1 JUMP JUMPDEST PUSH1 0x40 MLOAD PUSH2 0x1DF SWAP2 SWAP1 PUSH2 0x9F1 JUMP JUMPDEST PUSH1 0x40 MLOAD DUP1 SWAP2 SUB SWAP1 RETURN JUMPDEST PUSH1 0x60 PUSH1 0x1 DUP3 DUP2 SLOAD DUP2 LT PUSH2 0x1FE JUMPI PUSH2 0x1FD PUSH2 0xCBF JUMP JUMPDEST JUMPDEST SWAP1 PUSH1 0x0 MSTORE PUSH1 0x20 PUSH1 0x0 KECCAK256 ADD DUP1 SLOAD PUSH2 0x213 SWAP1 PUSH2 0xD1D JUMP JUMPDEST DUP1 PUSH1 0x1F ADD PUSH1 0x20 DUP1 SWAP2 DIV MUL PUSH1 0x20 ADD PUSH1 0x40 MLOAD SWAP1 DUP2 ADD PUSH1 0x40 MSTORE DUP1 SWAP3 SWAP2 SWAP1 DUP2 DUP2 MSTORE PUSH1 0x20 ADD DUP3 DUP1 SLOAD PUSH2 0x23F SWAP1 PUSH2 0xD1D JUMP JUMPDEST DUP1 ISZERO PUSH2 0x28C JUMPI DUP1 PUSH1 0x1F LT PUSH2 0x261 JUMPI PUSH2 0x100 DUP1 DUP4 SLOAD DIV MUL DUP4 MSTORE SWAP2 PUSH1 0x20 ADD SWAP2 PUSH2 0x28C JUMP JUMPDEST DUP3 ADD SWAP2 SWAP1 PUSH1 0x0 MSTORE PUSH1 0x20 PUSH1 0x0 KECCAK256 SWAP1 JUMPDEST DUP2 SLOAD DUP2 MSTORE SWAP1 PUSH1 0x1 ADD SWAP1 PUSH1 0x20 ADD DUP1 DUP4 GT PUSH2 0x26F JUMPI DUP3 SWAP1 SUB PUSH1 0x1F AND DUP3 ADD SWAP2 JUMPDEST POP POP POP POP POP SWAP1 POP SWAP2 SWAP1 POP JUMP JUMPDEST PUSH1 0x0 DUP2 DUP2 SLOAD DUP2 LT PUSH2 0x2AC JUMPI PUSH2 0x2AB PUSH2 0xCBF JUMP JUMPDEST JUMPDEST SWAP1 PUSH1 0x0 MSTORE PUSH1 0x20 PUSH1 0x0 KECCAK256 ADD PUSH1 0x0 PUSH2 0x2C2 SWAP2 SWAP1 PUSH2 0x88D JUMP JUMPDEST POP JUMP JUMPDEST PUSH1 0x0 DUP2 SWAP1 DUP1 PUSH1 0x1 DUP2 SLOAD ADD DUP1 DUP3 SSTORE DUP1 SWAP2 POP POP PUSH1 0x1 SWAP1 SUB SWAP1 PUSH1 0x0 MSTORE PUSH1 0x20 PUSH1 0x0 KECCAK256 ADD PUSH1 0x0 SWAP1 SWAP2 SWAP1 SWAP2 SWAP1 SWAP2 POP SWAP1 DUP2 PUSH2 0x2F9 SWAP2 SWAP1 PUSH2 0xEFA JUMP JUMPDEST POP POP JUMP JUMPDEST PUSH1 0x60 PUSH1 0x0 DUP1 SLOAD DUP1 PUSH1 0x20 MUL PUSH1 0x20 ADD PUSH1 0x40 MLOAD SWAP1 DUP2 ADD PUSH1 0x40 MSTORE DUP1 SWAP3 SWAP2 SWAP1 DUP2 DUP2 MSTORE PUSH1 0x20 ADD PUSH1 0x0 SWAP1 JUMPDEST DUP3 DUP3 LT ISZERO PUSH2 0x3CD JUMPI DUP4 DUP3 SWAP1 PUSH1 0x0 MSTORE PUSH1 0x20 PUSH1 0x0 KECCAK256 ADD DUP1 SLOAD PUSH2 0x340 SWAP1 PUSH2 0xD1D JUMP JUMPDEST DUP1 PUSH1 0x1F ADD PUSH1 0x20 DUP1 SWAP2 DIV MUL PUSH1 0x20 ADD PUSH1 0x40 MLOAD SWAP1 DUP2 ADD PUSH1 0x40 MSTORE DUP1 SWAP3 SWAP2 SWAP1 DUP2 DUP2 MSTORE PUSH1 0x20 ADD DUP3 DUP1 SLOAD PUSH2 0x36C SWAP1 PUSH2 0xD1D JUMP JUMPDEST DUP1 ISZERO PUSH2 0x3B9 JUMPI DUP1 PUSH1 0x1F LT PUSH2 0x38E JUMPI PUSH2 0x100 DUP1 DUP4 SLOAD DIV MUL DUP4 MSTORE SWAP2 PUSH1 0x20 ADD SWAP2 PUSH2 0x3B9 JUMP JUMPDEST DUP3 ADD SWAP2 SWAP1 PUSH1 0x0 MSTORE PUSH1 0x20 PUSH1 0x0 KECCAK256 SWAP1 JUMPDEST DUP2 SLOAD DUP2 MSTORE SWAP1 PUSH1 0x1 ADD SWAP1 PUSH1 0x20 ADD DUP1 DUP4 GT PUSH2 0x39C JUMPI DUP3 SWAP1 SUB PUSH1 0x1F AND DUP3 ADD SWAP2 JUMPDEST POP POP POP POP POP DUP2 MSTORE PUSH1 0x20 ADD SWAP1 PUSH1 0x1 ADD SWAP1 PUSH2 0x321 JUMP JUMPDEST POP POP POP POP SWAP1 POP SWAP1 JUMP JUMPDEST PUSH1 0x0 DUP2 DUP2 SLOAD DUP2 LT PUSH2 0x3E6 JUMPI PUSH1 0x0 DUP1 REVERT JUMPDEST SWAP1 PUSH1 0x0 MSTORE PUSH1 0x20 PUSH1 0x0 KECCAK256 ADD PUSH1 0x0 SWAP2 POP SWAP1 POP DUP1 SLOAD PUSH2 0x401 SWAP1 PUSH2 0xD1D JUMP JUMPDEST DUP1 PUSH1 0x1F ADD PUSH1 0x20 DUP1 SWAP2 DIV MUL PUSH1 0x20 ADD PUSH1 0x40 MLOAD SWAP1 DUP2 ADD PUSH1 0x40 MSTORE DUP1 SWAP3 SWAP2 SWAP1 DUP2 DUP2 MSTORE PUSH1 0x20 ADD DUP3 DUP1 SLOAD PUSH2 0x42D SWAP1 PUSH2 0xD1D JUMP JUMPDEST DUP1 ISZERO PUSH2 0x47A JUMPI DUP1 PUSH1 0x1F LT PUSH2 0x44F JUMPI PUSH2 0x100 DUP1 DUP4 SLOAD DIV MUL DUP4 MSTORE SWAP2 PUSH1 0x20 ADD SWAP2 PUSH2 0x47A JUMP JUMPDEST DUP3 ADD SWAP2 SWAP1 PUSH1 0x0 MSTORE PUSH1 0x20 PUSH1 0x0 KECCAK256 SWAP1 JUMPDEST DUP2 SLOAD DUP2 MSTORE SWAP1 PUSH1 0x1 ADD SWAP1 PUSH1 0x20 ADD DUP1 DUP4 GT PUSH2 0x45D JUMPI DUP3 SWAP1 SUB PUSH1 0x1F AND DUP3 ADD SWAP2 JUMPDEST POP POP POP POP POP DUP2 JUMP JUMPDEST PUSH1 0x60 PUSH1 0x0 DUP3 DUP2 SLOAD DUP2 LT PUSH2 0x498 JUMPI PUSH2 0x497 PUSH2 0xCBF JUMP JUMPDEST JUMPDEST SWAP1 PUSH1 0x0 MSTORE PUSH1 0x20 PUSH1 0x0 KECCAK256 ADD DUP1 SLOAD PUSH2 0x4AD SWAP1 PUSH2 0xD1D JUMP JUMPDEST DUP1 PUSH1 0x1F ADD PUSH1 0x20 DUP1 SWAP2 DIV MUL PUSH1 0x20 ADD PUSH1 0x40 MLOAD SWAP1 DUP2 ADD PUSH1 0x40 MSTORE DUP1 SWAP3 SWAP2 SWAP1 DUP2 DUP2 MSTORE PUSH1 0x20 ADD DUP3 DUP1 SLOAD PUSH2 0x4D9 SWAP1 PUSH2 0xD1D JUMP JUMPDEST DUP1 ISZERO PUSH2 0x526 JUMPI DUP1 PUSH1 0x1F LT PUSH2 0x4FB JUMPI PUSH2 0x100 DUP1 DUP4 SLOAD DIV MUL DUP4 MSTORE SWAP2 PUSH1 0x20 ADD SWAP2 PUSH2 0x526 JUMP JUMPDEST DUP3 ADD SWAP2 SWAP1 PUSH1 0x0 MSTORE PUSH1 0x20 PUSH1 0x0 KECCAK256 SWAP1 JUMPDEST DUP2 SLOAD DUP2 MSTORE SWAP1 PUSH1 0x1 ADD SWAP1 PUSH1 0x20 ADD DUP1 DUP4 GT PUSH2 0x509 JUMPI DUP3 SWAP1 SUB PUSH1 0x1F AND DUP3 ADD SWAP2 JUMPDEST POP POP POP POP POP SWAP1 POP SWAP2 SWAP1 POP JUMP JUMPDEST PUSH1 0x60 PUSH1 0x1 DUP1 SLOAD DUP1 PUSH1 0x20 MUL PUSH1 0x20 ADD PUSH1 0x40 MLOAD SWAP1 DUP2 ADD PUSH1 0x40 MSTORE DUP1 SWAP3 SWAP2 SWAP1 DUP2 DUP2 MSTORE PUSH1 0x20 ADD PUSH1 0x0 SWAP1 JUMPDEST DUP3 DUP3 LT ISZERO PUSH2 0x602 JUMPI DUP4 DUP3 SWAP1 PUSH1 0x0 MSTORE PUSH1 0x20 PUSH1 0x0 KECCAK256 ADD DUP1 SLOAD PUSH2 0x575 SWAP1 PUSH2 0xD1D JUMP JUMPDEST DUP1 PUSH1 0x1F ADD PUSH1 0x20 DUP1 SWAP2 DIV MUL PUSH1 0x20 ADD PUSH1 0x40 MLOAD SWAP1 DUP2 ADD PUSH1 0x40 MSTORE DUP1 SWAP3 SWAP2 SWAP1 DUP2 DUP2 MSTORE PUSH1 0x20 ADD DUP3 DUP1 SLOAD PUSH2 0x5A1 SWAP1 PUSH2 0xD1D JUMP JUMPDEST DUP1 ISZERO PUSH2 0x5EE JUMPI DUP1 PUSH1 0x1F LT PUSH2 0x5C3 JUMPI PUSH2 0x100 DUP1 DUP4 SLOAD DIV MUL DUP4 MSTORE SWAP2 PUSH1 0x20 ADD SWAP2 PUSH2 0x5EE JUMP JUMPDEST DUP3 ADD SWAP2 SWAP1 PUSH1 0x0 MSTORE PUSH1 0x20 PUSH1 0x0 KECCAK256 SWAP1 JUMPDEST DUP2 SLOAD DUP2 MSTORE SWAP1 PUSH1 0x1 ADD SWAP1 PUSH1 0x20 ADD DUP1 DUP4 GT PUSH2 0x5D1 JUMPI DUP3 SWAP1 SUB PUSH1 0x1F AND DUP3 ADD SWAP2 JUMPDEST POP POP POP POP POP DUP2 MSTORE PUSH1 0x20 ADD SWAP1 PUSH1 0x1 ADD SWAP1 PUSH2 0x556 JUMP JUMPDEST POP POP POP POP SWAP1 POP SWAP1 JUMP JUMPDEST PUSH1 0x0 DUP1 DUP3 DUP2 SLOAD DUP2 LT PUSH2 0x620 JUMPI PUSH2 0x61F PUSH2 0xCBF JUMP JUMPDEST JUMPDEST SWAP1 PUSH1 0x0 MSTORE PUSH1 0x20 PUSH1 0x0 KECCAK256 ADD DUP1 SLOAD PUSH2 0x635 SWAP1 PUSH2 0xD1D JUMP JUMPDEST DUP1 PUSH1 0x1F ADD PUSH1 0x20 DUP1 SWAP2 DIV MUL PUSH1 0x20 ADD PUSH1 0x40 MLOAD SWAP1 DUP2 ADD PUSH1 0x40 MSTORE DUP1 SWAP3 SWAP2 SWAP1 DUP2 DUP2 MSTORE PUSH1 0x20 ADD DUP3 DUP1 SLOAD PUSH2 0x661 SWAP1 PUSH2 0xD1D JUMP JUMPDEST DUP1 ISZERO PUSH2 0x6AE JUMPI DUP1 PUSH1 0x1F LT PUSH2 0x683 JUMPI PUSH2 0x100 DUP1 DUP4 SLOAD DIV MUL DUP4 MSTORE SWAP2 PUSH1 0x20 ADD SWAP2 PUSH2 0x6AE JUMP JUMPDEST DUP3 ADD SWAP2 SWAP1 PUSH1 0x0 MSTORE PUSH1 0x20 PUSH1 0x0 KECCAK256 SWAP1 JUMPDEST DUP2 SLOAD DUP2 MSTORE SWAP1 PUSH1 0x1 ADD SWAP1 PUSH1 0x20 ADD DUP1 DUP4 GT PUSH2 0x691 JUMPI DUP3 SWAP1 SUB PUSH1 0x1F AND DUP3 ADD SWAP2 JUMPDEST POP POP POP POP POP SWAP1 POP PUSH1 0x0 DUP3 SWAP1 POP JUMPDEST PUSH1 0x1 PUSH1 0x0 DUP1 SLOAD SWAP1 POP PUSH2 0x6CD SWAP2 SWAP1 PUSH2 0xFFB JUMP JUMPDEST DUP2 LT ISZERO PUSH2 0x73C JUMPI PUSH1 0x0 PUSH1 0x1 DUP3 PUSH2 0x6E3 SWAP2 SWAP1 PUSH2 0x102F JUMP JUMPDEST DUP2 SLOAD DUP2 LT PUSH2 0x6F4 JUMPI PUSH2 0x6F3 PUSH2 0xCBF JUMP JUMPDEST JUMPDEST SWAP1 PUSH1 0x0 MSTORE PUSH1 0x20 PUSH1 0x0 KECCAK256 ADD PUSH1 0x0 DUP3 DUP2 SLOAD DUP2 LT PUSH2 0x712 JUMPI PUSH2 0x711 PUSH2 0xCBF JUMP JUMPDEST JUMPDEST SWAP1 PUSH1 0x0 MSTORE PUSH1 0x20 PUSH1 0x0 KECCAK256 ADD SWAP1 DUP2 PUSH2 0x728 SWAP2 SWAP1 PUSH2 0x108E JUMP JUMPDEST POP DUP1 DUP1 PUSH2 0x734 SWAP1 PUSH2 0x1176 JUMP JUMPDEST SWAP2 POP POP PUSH2 0x6BB JUMP JUMPDEST POP PUSH1 0x0 PUSH1 0x1 PUSH1 0x0 DUP1 SLOAD SWAP1 POP PUSH2 0x751 SWAP2 SWAP1 PUSH2 0xFFB JUMP JUMPDEST DUP2 SLOAD DUP2 LT PUSH2 0x762 JUMPI PUSH2 0x761 PUSH2 0xCBF JUMP JUMPDEST JUMPDEST SWAP1 PUSH1 0x0 MSTORE PUSH1 0x20 PUSH1 0x0 KECCAK256 ADD PUSH1 0x0 PUSH2 0x778 SWAP2 SWAP1 PUSH2 0x88D JUMP JUMPDEST PUSH1 0x0 DUP1 SLOAD DUP1 PUSH2 0x78A JUMPI PUSH2 0x789 PUSH2 0x11BE JUMP JUMPDEST JUMPDEST PUSH1 0x1 SWAP1 SUB DUP2 DUP2 SWAP1 PUSH1 0x0 MSTORE PUSH1 0x20 PUSH1 0x0 KECCAK256 ADD PUSH1 0x0 PUSH2 0x7A6 SWAP2 SWAP1 PUSH2 0x88D JUMP JUMPDEST SWAP1 SSTORE PUSH1 0x1 DUP2 SWAP1 DUP1 PUSH1 0x1 DUP2 SLOAD ADD DUP1 DUP3 SSTORE DUP1 SWAP2 POP POP PUSH1 0x1 SWAP1 SUB SWAP1 PUSH1 0x0 MSTORE PUSH1 0x20 PUSH1 0x0 KECCAK256 ADD PUSH1 0x0 SWAP1 SWAP2 SWAP1 SWAP2 SWAP1 SWAP2 POP SWAP1 DUP2 PUSH2 0x7DC SWAP2 SWAP1 PUSH2 0xEFA JUMP JUMPDEST POP POP POP JUMP JUMPDEST PUSH1 0x1 DUP2 DUP2 SLOAD DUP2 LT PUSH2 0x7F1 JUMPI PUSH1 0x0 DUP1 REVERT JUMPDEST SWAP1 PUSH1 0x0 MSTORE PUSH1 0x20 PUSH1 0x0 KECCAK256 ADD PUSH1 0x0 SWAP2 POP SWAP1 POP DUP1 SLOAD PUSH2 0x80C SWAP1 PUSH2 0xD1D JUMP JUMPDEST DUP1 PUSH1 0x1F ADD PUSH1 0x20 DUP1 SWAP2 DIV MUL PUSH1 0x20 ADD PUSH1 0x40 MLOAD SWAP1 DUP2 ADD PUSH1 0x40 MSTORE DUP1 SWAP3 SWAP2 SWAP1 DUP2 DUP2 MSTORE PUSH1 0x20 ADD DUP3 DUP1 SLOAD PUSH2 0x838 SWAP1 PUSH2 0xD1D JUMP JUMPDEST DUP1 ISZERO PUSH2 0x885 JUMPI DUP1 PUSH1 0x1F LT PUSH2 0x85A JUMPI PUSH2 0x100 DUP1 DUP4 SLOAD DIV MUL DUP4 MSTORE SWAP2 PUSH1 0x20 ADD SWAP2 PUSH2 0x885 JUMP JUMPDEST DUP3 ADD SWAP2 SWAP1 PUSH1 0x0 MSTORE PUSH1 0x20 PUSH1 0x0 KECCAK256 SWAP1 JUMPDEST DUP2 SLOAD DUP2 MSTORE SWAP1 PUSH1 0x1 ADD SWAP1 PUSH1 0x20 ADD DUP1 DUP4 GT PUSH2 0x868 JUMPI DUP3 SWAP1 SUB PUSH1 0x1F AND DUP3 ADD SWAP2 JUMPDEST POP POP POP POP POP DUP2 JUMP JUMPDEST POP DUP1 SLOAD PUSH2 0x899 SWAP1 PUSH2 0xD1D JUMP JUMPDEST PUSH1 0x0 DUP3 SSTORE DUP1 PUSH1 0x1F LT PUSH2 0x8AB JUMPI POP PUSH2 0x8CA JUMP JUMPDEST PUSH1 0x1F ADD PUSH1 0x20 SWAP1 DIV SWAP1 PUSH1 0x0 MSTORE PUSH1 0x20 PUSH1 0x0 KECCAK256 SWAP1 DUP2 ADD SWAP1 PUSH2 0x8C9 SWAP2 SWAP1 PUSH2 0x8CD JUMP JUMPDEST JUMPDEST POP JUMP JUMPDEST JUMPDEST DUP1 DUP3 GT ISZERO PUSH2 0x8E6 JUMPI PUSH1 0x0 DUP2 PUSH1 0x0 SWAP1 SSTORE POP PUSH1 0x1 ADD PUSH2 0x8CE JUMP JUMPDEST POP SWAP1 JUMP JUMPDEST PUSH1 0x0 PUSH1 0x40 MLOAD SWAP1 POP SWAP1 JUMP JUMPDEST PUSH1 0x0 DUP1 REVERT JUMPDEST PUSH1 0x0 DUP1 REVERT JUMPDEST PUSH1 0x0 DUP2 SWAP1 POP SWAP2 SWAP1 POP JUMP JUMPDEST PUSH2 0x911 DUP2 PUSH2 0x8FE JUMP JUMPDEST DUP2 EQ PUSH2 0x91C JUMPI PUSH1 0x0 DUP1 REVERT JUMPDEST POP JUMP JUMPDEST PUSH1 0x0 DUP2 CALLDATALOAD SWAP1 POP PUSH2 0x92E DUP2 PUSH2 0x908 JUMP JUMPDEST SWAP3 SWAP2 POP POP JUMP JUMPDEST PUSH1 0x0 PUSH1 0x20 DUP3 DUP5 SUB SLT ISZERO PUSH2 0x94A JUMPI PUSH2 0x949 PUSH2 0x8F4 JUMP JUMPDEST JUMPDEST PUSH1 0x0 PUSH2 0x958 DUP5 DUP3 DUP6 ADD PUSH2 0x91F JUMP JUMPDEST SWAP2 POP POP SWAP3 SWAP2 POP POP JUMP JUMPDEST PUSH1 0x0 DUP2 MLOAD SWAP1 POP SWAP2 SWAP1 POP JUMP JUMPDEST PUSH1 0x0 DUP3 DUP3 MSTORE PUSH1 0x20 DUP3 ADD SWAP1 POP SWAP3 SWAP2 POP POP JUMP JUMPDEST PUSH1 0x0 JUMPDEST DUP4 DUP2 LT ISZERO PUSH2 0x99B JUMPI DUP1 DUP3 ADD MLOAD DUP2 DUP5 ADD MSTORE PUSH1 0x20 DUP2 ADD SWAP1 POP PUSH2 0x980 JUMP JUMPDEST PUSH1 0x0 DUP5 DUP5 ADD MSTORE POP POP POP POP JUMP JUMPDEST PUSH1 0x0 PUSH1 0x1F NOT PUSH1 0x1F DUP4 ADD AND SWAP1 POP SWAP2 SWAP1 POP JUMP JUMPDEST PUSH1 0x0 PUSH2 0x9C3 DUP3 PUSH2 0x961 JUMP JUMPDEST PUSH2 0x9CD DUP2 DUP6 PUSH2 0x96C JUMP JUMPDEST SWAP4 POP PUSH2 0x9DD DUP2 DUP6 PUSH1 0x20 DUP7 ADD PUSH2 0x97D JUMP JUMPDEST PUSH2 0x9E6 DUP2 PUSH2 0x9A7 JUMP JUMPDEST DUP5 ADD SWAP2 POP POP SWAP3 SWAP2 POP POP JUMP JUMPDEST PUSH1 0x0 PUSH1 0x20 DUP3 ADD SWAP1 POP DUP2 DUP2 SUB PUSH1 0x0 DUP4 ADD MSTORE PUSH2 0xA0B DUP2 DUP5 PUSH2 0x9B8 JUMP JUMPDEST SWAP1 POP SWAP3 SWAP2 POP POP JUMP JUMPDEST PUSH1 0x0 DUP1 REVERT JUMPDEST PUSH1 0x0 DUP1 REVERT JUMPDEST PUSH32 0x4E487B7100000000000000000000000000000000000000000000000000000000 PUSH1 0x0 MSTORE PUSH1 0x41 PUSH1 0x4 MSTORE PUSH1 0x24 PUSH1 0x0 REVERT JUMPDEST PUSH2 0xA55 DUP3 PUSH2 0x9A7 JUMP JUMPDEST DUP2 ADD DUP2 DUP2 LT PUSH8 0xFFFFFFFFFFFFFFFF DUP3 GT OR ISZERO PUSH2 0xA74 JUMPI PUSH2 0xA73 PUSH2 0xA1D JUMP JUMPDEST JUMPDEST DUP1 PUSH1 0x40 MSTORE POP POP POP JUMP JUMPDEST PUSH1 0x0 PUSH2 0xA87 PUSH2 0x8EA JUMP JUMPDEST SWAP1 POP PUSH2 0xA93 DUP3 DUP3 PUSH2 0xA4C JUMP JUMPDEST SWAP2 SWAP1 POP JUMP JUMPDEST PUSH1 0x0 PUSH8 0xFFFFFFFFFFFFFFFF DUP3 GT ISZERO PUSH2 0xAB3 JUMPI PUSH2 0xAB2 PUSH2 0xA1D JUMP JUMPDEST JUMPDEST PUSH2 0xABC DUP3 PUSH2 0x9A7 JUMP JUMPDEST SWAP1 POP PUSH1 0x20 DUP2 ADD SWAP1 POP SWAP2 SWAP1 POP JUMP JUMPDEST DUP3 DUP2 DUP4 CALLDATACOPY PUSH1 0x0 DUP4 DUP4 ADD MSTORE POP POP POP JUMP JUMPDEST PUSH1 0x0 PUSH2 0xAEB PUSH2 0xAE6 DUP5 PUSH2 0xA98 JUMP JUMPDEST PUSH2 0xA7D JUMP JUMPDEST SWAP1 POP DUP3 DUP2 MSTORE PUSH1 0x20 DUP2 ADD DUP5 DUP5 DUP5 ADD GT ISZERO PUSH2 0xB07 JUMPI PUSH2 0xB06 PUSH2 0xA18 JUMP JUMPDEST JUMPDEST PUSH2 0xB12 DUP5 DUP3 DUP6 PUSH2 0xAC9 JUMP JUMPDEST POP SWAP4 SWAP3 POP POP POP JUMP JUMPDEST PUSH1 0x0 DUP3 PUSH1 0x1F DUP4 ADD SLT PUSH2 0xB2F JUMPI PUSH2 0xB2E PUSH2 0xA13 JUMP JUMPDEST JUMPDEST DUP2 CALLDATALOAD PUSH2 0xB3F DUP5 DUP3 PUSH1 0x20 DUP7 ADD PUSH2 0xAD8 JUMP JUMPDEST SWAP2 POP POP SWAP3 SWAP2 POP POP JUMP JUMPDEST PUSH1 0x0 PUSH1 0x20 DUP3 DUP5 SUB SLT ISZERO PUSH2 0xB5E JUMPI PUSH2 0xB5D PUSH2 0x8F4 JUMP JUMPDEST JUMPDEST PUSH1 0x0 DUP3 ADD CALLDATALOAD PUSH8 0xFFFFFFFFFFFFFFFF DUP2 GT ISZERO PUSH2 0xB7C JUMPI PUSH2 0xB7B PUSH2 0x8F9 JUMP JUMPDEST JUMPDEST PUSH2 0xB88 DUP5 DUP3 DUP6 ADD PUSH2 0xB1A JUMP JUMPDEST SWAP2 POP POP SWAP3 SWAP2 POP POP JUMP JUMPDEST PUSH1 0x0 DUP2 MLOAD SWAP1 POP SWAP2 SWAP1 POP JUMP JUMPDEST PUSH1 0x0 DUP3 DUP3 MSTORE PUSH1 0x20 DUP3 ADD SWAP1 POP SWAP3 SWAP2 POP POP JUMP JUMPDEST PUSH1 0x0 DUP2 SWAP1 POP PUSH1 0x20 DUP3 ADD SWAP1 POP SWAP2 SWAP1 POP JUMP JUMPDEST PUSH1 0x0 DUP3 DUP3 MSTORE PUSH1 0x20 DUP3 ADD SWAP1 POP SWAP3 SWAP2 POP POP JUMP JUMPDEST PUSH1 0x0 PUSH2 0xBD9 DUP3 PUSH2 0x961 JUMP JUMPDEST PUSH2 0xBE3 DUP2 DUP6 PUSH2 0xBBD JUMP JUMPDEST SWAP4 POP PUSH2 0xBF3 DUP2 DUP6 PUSH1 0x20 DUP7 ADD PUSH2 0x97D JUMP JUMPDEST PUSH2 0xBFC DUP2 PUSH2 0x9A7 JUMP JUMPDEST DUP5 ADD SWAP2 POP POP SWAP3 SWAP2 POP POP JUMP JUMPDEST PUSH1 0x0 PUSH2 0xC13 DUP4 DUP4 PUSH2 0xBCE JUMP JUMPDEST SWAP1 POP SWAP3 SWAP2 POP POP JUMP JUMPDEST PUSH1 0x0 PUSH1 0x20 DUP3 ADD SWAP1 POP SWAP2 SWAP1 POP JUMP JUMPDEST PUSH1 0x0 PUSH2 0xC33 DUP3 PUSH2 0xB91 JUMP JUMPDEST PUSH2 0xC3D DUP2 DUP6 PUSH2 0xB9C JUMP JUMPDEST SWAP4 POP DUP4 PUSH1 0x20 DUP3 MUL DUP6 ADD PUSH2 0xC4F DUP6 PUSH2 0xBAD JUMP JUMPDEST DUP1 PUSH1 0x0 JUMPDEST DUP6 DUP2 LT ISZERO PUSH2 0xC8B JUMPI DUP5 DUP5 SUB DUP10 MSTORE DUP2 MLOAD PUSH2 0xC6C DUP6 DUP3 PUSH2 0xC07 JUMP JUMPDEST SWAP5 POP PUSH2 0xC77 DUP4 PUSH2 0xC1B JUMP JUMPDEST SWAP3 POP PUSH1 0x20 DUP11 ADD SWAP10 POP POP PUSH1 0x1 DUP2 ADD SWAP1 POP PUSH2 0xC53 JUMP JUMPDEST POP DUP3 SWAP8 POP DUP8 SWAP6 POP POP POP POP POP POP SWAP3 SWAP2 POP POP JUMP JUMPDEST PUSH1 0x0 PUSH1 0x20 DUP3 ADD SWAP1 POP DUP2 DUP2 SUB PUSH1 0x0 DUP4 ADD MSTORE PUSH2 0xCB7 DUP2 DUP5 PUSH2 0xC28 JUMP JUMPDEST SWAP1 POP SWAP3 SWAP2 POP POP JUMP JUMPDEST PUSH32 0x4E487B7100000000000000000000000000000000000000000000000000000000 PUSH1 0x0 MSTORE PUSH1 0x32 PUSH1 0x4 MSTORE PUSH1 0x24 PUSH1 0x0 REVERT JUMPDEST PUSH32 0x4E487B7100000000000000000000000000000000000000000000000000000000 PUSH1 0x0 MSTORE PUSH1 0x22 PUSH1 0x4 MSTORE PUSH1 0x24 PUSH1 0x0 REVERT JUMPDEST PUSH1 0x0 PUSH1 0x2 DUP3 DIV SWAP1 POP PUSH1 0x1 DUP3 AND DUP1 PUSH2 0xD35 JUMPI PUSH1 0x7F DUP3 AND SWAP2 POP JUMPDEST PUSH1 0x20 DUP3 LT DUP2 SUB PUSH2 0xD48 JUMPI PUSH2 0xD47 PUSH2 0xCEE JUMP JUMPDEST JUMPDEST POP SWAP2 SWAP1 POP JUMP JUMPDEST PUSH1 0x0 DUP2 SWAP1 POP DUP2 PUSH1 0x0 MSTORE PUSH1 0x20 PUSH1 0x0 KECCAK256 SWAP1 POP SWAP2 SWAP1 POP JUMP JUMPDEST PUSH1 0x0 PUSH1 0x20 PUSH1 0x1F DUP4 ADD DIV SWAP1 POP SWAP2 SWAP1 POP JUMP JUMPDEST PUSH1 0x0 DUP3 DUP3 SHL SWAP1 POP SWAP3 SWAP2 POP POP JUMP JUMPDEST PUSH1 0x0 PUSH1 0x8 DUP4 MUL PUSH2 0xDB0 PUSH32 0xFFFFFFFFFFFFFFFFFFFFFFFFFFFFFFFFFFFFFFFFFFFFFFFFFFFFFFFFFFFFFFFF DUP3 PUSH2 0xD73 JUMP JUMPDEST PUSH2 0xDBA DUP7 DUP4 PUSH2 0xD73 JUMP JUMPDEST SWAP6 POP DUP1 NOT DUP5 AND SWAP4 POP DUP1 DUP7 AND DUP5 OR SWAP3 POP POP POP SWAP4 SWAP3 POP POP POP JUMP JUMPDEST PUSH1 0x0 DUP2 SWAP1 POP SWAP2 SWAP1 POP JUMP JUMPDEST PUSH1 0x0 PUSH2 0xDF7 PUSH2 0xDF2 PUSH2 0xDED DUP5 PUSH2 0x8FE JUMP JUMPDEST PUSH2 0xDD2 JUMP JUMPDEST PUSH2 0x8FE JUMP JUMPDEST SWAP1 POP SWAP2 SWAP1 POP JUMP JUMPDEST PUSH1 0x0 DUP2 SWAP1 POP SWAP2 SWAP1 POP JUMP JUMPDEST PUSH2 0xE11 DUP4 PUSH2 0xDDC JUMP JUMPDEST PUSH2 0xE25 PUSH2 0xE1D DUP3 PUSH2 0xDFE JUMP JUMPDEST DUP5 DUP5 SLOAD PUSH2 0xD80 JUMP JUMPDEST DUP3 SSTORE POP POP POP POP JUMP JUMPDEST PUSH1 0x0 SWAP1 JUMP JUMPDEST PUSH2 0xE3A PUSH2 0xE2D JUMP JUMPDEST PUSH2 0xE45 DUP2 DUP5 DUP5 PUSH2 0xE08 JUMP JUMPDEST POP POP POP JUMP JUMPDEST JUMPDEST DUP2 DUP2 LT ISZERO PUSH2 0xE69 JUMPI PUSH2 0xE5E PUSH1 0x0 DUP3 PUSH2 0xE32 JUMP JUMPDEST PUSH1 0x1 DUP2 ADD SWAP1 POP PUSH2 0xE4B JUMP JUMPDEST POP POP JUMP JUMPDEST PUSH1 0x1F DUP3 GT ISZERO PUSH2 0xEAE JUMPI PUSH2 0xE7F DUP2 PUSH2 0xD4E JUMP JUMPDEST PUSH2 0xE88 DUP5 PUSH2 0xD63 JUMP JUMPDEST DUP2 ADD PUSH1 0x20 DUP6 LT ISZERO PUSH2 0xE97 JUMPI DUP2 SWAP1 POP JUMPDEST PUSH2 0xEAB PUSH2 0xEA3 DUP6 PUSH2 0xD63 JUMP JUMPDEST DUP4 ADD DUP3 PUSH2 0xE4A JUMP JUMPDEST POP POP JUMPDEST POP POP POP JUMP JUMPDEST PUSH1 0x0 DUP3 DUP3 SHR SWAP1 POP SWAP3 SWAP2 POP POP JUMP JUMPDEST PUSH1 0x0 PUSH2 0xED1 PUSH1 0x0 NOT DUP5 PUSH1 0x8 MUL PUSH2 0xEB3 JUMP JUMPDEST NOT DUP1 DUP4 AND SWAP2 POP POP SWAP3 SWAP2 POP POP JUMP JUMPDEST PUSH1 0x0 PUSH2 0xEEA DUP4 DUP4 PUSH2 0xEC0 JUMP JUMPDEST SWAP2 POP DUP3 PUSH1 0x2 MUL DUP3 OR SWAP1 POP SWAP3 SWAP2 POP POP JUMP JUMPDEST PUSH2 0xF03 DUP3 PUSH2 0x961 JUMP JUMPDEST PUSH8 0xFFFFFFFFFFFFFFFF DUP2 GT ISZERO PUSH2 0xF1C JUMPI PUSH2 0xF1B PUSH2 0xA1D JUMP JUMPDEST JUMPDEST PUSH2 0xF26 DUP3 SLOAD PUSH2 0xD1D JUMP JUMPDEST PUSH2 0xF31 DUP3 DUP3 DUP6 PUSH2 0xE6D JUMP JUMPDEST PUSH1 0x0 PUSH1 0x20 SWAP1 POP PUSH1 0x1F DUP4 GT PUSH1 0x1 DUP2 EQ PUSH2 0xF64 JUMPI PUSH1 0x0 DUP5 ISZERO PUSH2 0xF52 JUMPI DUP3 DUP8 ADD MLOAD SWAP1 POP JUMPDEST PUSH2 0xF5C DUP6 DUP3 PUSH2 0xEDE JUMP JUMPDEST DUP7 SSTORE POP PUSH2 0xFC4 JUMP JUMPDEST PUSH1 0x1F NOT DUP5 AND PUSH2 0xF72 DUP7 PUSH2 0xD4E JUMP JUMPDEST PUSH1 0x0 JUMPDEST DUP3 DUP2 LT ISZERO PUSH2 0xF9A JUMPI DUP5 DUP10 ADD MLOAD DUP3 SSTORE PUSH1 0x1 DUP3 ADD SWAP2 POP PUSH1 0x20 DUP6 ADD SWAP5 POP PUSH1 0x20 DUP2 ADD SWAP1 POP PUSH2 0xF75 JUMP JUMPDEST DUP7 DUP4 LT ISZERO PUSH2 0xFB7 JUMPI DUP5 DUP10 ADD MLOAD PUSH2 0xFB3 PUSH1 0x1F DUP10 AND DUP3 PUSH2 0xEC0 JUMP JUMPDEST DUP4 SSTORE POP JUMPDEST PUSH1 0x1 PUSH1 0x2 DUP9 MUL ADD DUP9 SSTORE POP POP POP JUMPDEST POP POP POP POP POP POP JUMP JUMPDEST PUSH32 0x4E487B7100000000000000000000000000000000000000000000000000000000 PUSH1 0x0 MSTORE PUSH1 0x11 PUSH1 0x4 MSTORE PUSH1 0x24 PUSH1 0x0 REVERT JUMPDEST PUSH1 0x0 PUSH2 0x1006 DUP3 PUSH2 0x8FE JUMP JUMPDEST SWAP2 POP PUSH2 0x1011 DUP4 PUSH2 0x8FE JUMP JUMPDEST SWAP3 POP DUP3 DUP3 SUB SWAP1 POP DUP2 DUP2 GT ISZERO PUSH2 0x1029 JUMPI PUSH2 0x1028 PUSH2 0xFCC JUMP JUMPDEST JUMPDEST SWAP3 SWAP2 POP POP JUMP JUMPDEST PUSH1 0x0 PUSH2 0x103A DUP3 PUSH2 0x8FE JUMP JUMPDEST SWAP2 POP PUSH2 0x1045 DUP4 PUSH2 0x8FE JUMP JUMPDEST SWAP3 POP DUP3 DUP3 ADD SWAP1 POP DUP1 DUP3 GT ISZERO PUSH2 0x105D JUMPI PUSH2 0x105C PUSH2 0xFCC JUMP JUMPDEST JUMPDEST SWAP3 SWAP2 POP POP JUMP JUMPDEST PUSH1 0x0 DUP2 SLOAD SWAP1 POP PUSH2 0x1072 DUP2 PUSH2 0xD1D JUMP JUMPDEST SWAP1 POP SWAP2 SWAP1 POP JUMP JUMPDEST PUSH1 0x0 DUP2 SWAP1 POP DUP2 PUSH1 0x0 MSTORE PUSH1 0x20 PUSH1 0x0 KECCAK256 SWAP1 POP SWAP2 SWAP1 POP JUMP JUMPDEST DUP2 DUP2 SUB PUSH2 0x109C JUMPI POP POP PUSH2 0x1174 JUMP JUMPDEST PUSH2 0x10A5 DUP3 PUSH2 0x1063 JUMP JUMPDEST PUSH8 0xFFFFFFFFFFFFFFFF DUP2 GT ISZERO PUSH2 0x10BE JUMPI PUSH2 0x10BD PUSH2 0xA1D JUMP JUMPDEST JUMPDEST PUSH2 0x10C8 DUP3 SLOAD PUSH2 0xD1D JUMP JUMPDEST PUSH2 0x10D3 DUP3 DUP3 DUP6 PUSH2 0xE6D JUMP JUMPDEST PUSH1 0x0 PUSH1 0x1F DUP4 GT PUSH1 0x1 DUP2 EQ PUSH2 0x1102 JUMPI PUSH1 0x0 DUP5 ISZERO PUSH2 0x10F0 JUMPI DUP3 DUP8 ADD SLOAD SWAP1 POP JUMPDEST PUSH2 0x10FA DUP6 DUP3 PUSH2 0xEDE JUMP JUMPDEST DUP7 SSTORE POP PUSH2 0x116D JUMP JUMPDEST PUSH1 0x1F NOT DUP5 AND PUSH2 0x1110 DUP8 PUSH2 0x1079 JUMP JUMPDEST SWAP7 POP PUSH2 0x111B DUP7 PUSH2 0xD4E JUMP JUMPDEST PUSH1 0x0 JUMPDEST DUP3 DUP2 LT ISZERO PUSH2 0x1143 JUMPI DUP5 DUP10 ADD SLOAD DUP3 SSTORE PUSH1 0x1 DUP3 ADD SWAP2 POP PUSH1 0x1 DUP6 ADD SWAP5 POP PUSH1 0x20 DUP2 ADD SWAP1 POP PUSH2 0x111E JUMP JUMPDEST DUP7 DUP4 LT ISZERO PUSH2 0x1160 JUMPI DUP5 DUP10 ADD SLOAD PUSH2 0x115C PUSH1 0x1F DUP10 AND DUP3 PUSH2 0xEC0 JUMP JUMPDEST DUP4 SSTORE POP JUMPDEST PUSH1 0x1 PUSH1 0x2 DUP9 MUL ADD DUP9 SSTORE POP POP POP JUMPDEST POP POP POP POP POP POP JUMPDEST JUMP JUMPDEST PUSH1 0x0 PUSH2 0x1181 DUP3 PUSH2 0x8FE JUMP JUMPDEST SWAP2 POP PUSH32 0xFFFFFFFFFFFFFFFFFFFFFFFFFFFFFFFFFFFFFFFFFFFFFFFFFFFFFFFFFFFFFFFF DUP3 SUB PUSH2 0x11B3 JUMPI PUSH2 0x11B2 PUSH2 0xFCC JUMP JUMPDEST JUMPDEST PUSH1 0x1 DUP3 ADD SWAP1 POP SWAP2 SWAP1 POP JUMP JUMPDEST PUSH32 0x4E487B7100000000000000000000000000000000000000000000000000000000 PUSH1 0x0 MSTORE PUSH1 0x31 PUSH1 0x4 MSTORE PUSH1 0x24 PUSH1 0x0 REVERT INVALID LOG2 PUSH5 0x6970667358 0x22 SLT KECCAK256 MSTORE8 SWAP15 CALLER 0xBF 0xBE 0xEF 0xC2 0x2A JUMPI MSIZE CREATE2 0xD4 SWAP8 0xC4 PUSH23 0xBF6E28D5ED5E819B10B976FB338B53052464736F6C6343 STOP ADDMOD SLT STOP CALLER "
				},
				"gasEstimates": {
					"creation": {
						"codeDepositCost": "928600",
						"executionCost": "968",
						"totalCost": "929568"
					},
					"external": {
						"addTodo(string)": "infinite",
						"deleteTodo(uint256)": "infinite",
						"getAllCompleted()": "infinite",
						"getAllTodo()": "infinite",
						"getCompleted(uint256)": "infinite",
						"getTodo(uint256)": "infinite",
						"setCompleted(uint256)": "infinite",
						"todoCompleted(uint256)": "infinite",
						"todos(uint256)": "infinite"
					}
				},
				"methodIdentifiers": {
					"addTodo(string)": "95ffebf5",
					"deleteTodo(uint256)": "6e3c6738",
					"getAllCompleted()": "e29672ba",
					"getAllTodo()": "982abb89",
					"getCompleted(uint256)": "1bfc269b",
					"getTodo(uint256)": "dd68afb6",
					"setCompleted(uint256)": "fdacd576",
					"todoCompleted(uint256)": "fe1c7f6f",
					"todos(uint256)": "bc8bc2b4"
				}
			},
			"storageLayout": {
				"storage": [
					{
						"astId": 4,
						"contract": "todolist.sol:TodoList",
						"label": "todos",
						"offset": 0,
						"slot": "0",
						"type": "t_array(t_string_storage)dyn_storage"
					},
					{
						"astId": 7,
						"contract": "todolist.sol:TodoList",
						"label": "todoCompleted",
						"offset": 0,
						"slot": "1",
						"type": "t_array(t_string_storage)dyn_storage"
					}
				],
				"types": {
					"t_array(t_string_storage)dyn_storage": {
						"base": "t_string_storage",
						"encoding": "dynamic_array",
						"label": "string[]",
						"numberOfBytes": "32"
					},
					"t_string_storage": {
						"encoding": "bytes",
						"label": "string",
						"numberOfBytes": "32"
					}
				}
			},
			"userdoc": {
				"kind": "user",
				"methods": {},
				"version": 1
			}
		}
	}
}