{
	"todoListPendingCountSeconds.sol": {
		"TodoList": {
			"abi": [
				{
					"inputs": [],
					"stateMutability": "nonpayable",
					"type": "constructor"
				},
				{
					"inputs": [
						{
							"internalType": "string",
							"name": "content",
							"type": "string"
						}
					],
					"name": "addTodo",
					"outputs": [],
					"stateMutability": "nonpayable",
					"type": "function"
				},
				{
					"inputs": [],
					"name": "clearCompleted",
					"outputs": [],
					"stateMutability": "nonpayable",
					"type": "function"
				},
				{
					"inputs": [
						{
							"internalType": "uint256",
							"name": "index",
							"type": "uint256"
						}
					],
					"name": "clearPending",
					"outputs": [],
					"stateMutability": "nonpayable",
					"type": "function"
				},
				{
					"inputs": [
						{
							"internalType": "uint256",
							"name": "index",
							"type": "uint256"
						}
					],
					"name": "deleteTodoByIndex",
					"outputs": [],
					"stateMutability": "nonpayable",
					"type": "function"
				},
				{
					"inputs": [],
					"name": "getAllCompleted",
					"outputs": [
						{
							"internalType": "string[]",
							"name": "",
							"type": "string[]"
						}
					],
					"stateMutability": "view",
					"type": "function"
				},
				{
					"inputs": [],
					"name": "getAllPending",
					"outputs": [
						{
							"internalType": "string[]",
							"name": "",
							"type": "string[]"
						}
					],
					"stateMutability": "view",
					"type": "function"
				},
				{
					"inputs": [],
					"name": "getAllTodo",
					"outputs": [
						{
							"internalType": "string[]",
							"name": "",
							"type": "string[]"
						}
					],
					"stateMutability": "view",
					"type": "function"
				},
				{
					"inputs": [
						{
							"internalType": "uint256",
							"name": "index",
							"type": "uint256"
						}
					],
					"name": "getCompletedByIndex",
					"outputs": [
						{
							"internalType": "string",
							"name": "",
							"type": "string"
						}
					],
					"stateMutability": "view",
					"type": "function"
				},
				{
					"inputs": [],
					"name": "getCompletedCount",
					"outputs": [
						{
							"internalType": "uint256",
							"name": "",
							"type": "uint256"
						}
					],
					"stateMutability": "view",
					"type": "function"
				},
				{
					"inputs": [
						{
							"internalType": "uint256",
							"name": "index",
							"type": "uint256"
						}
					],
					"name": "getPendingByIndex",
					"outputs": [
						{
							"internalType": "string",
							"name": "",
							"type": "string"
						}
					],
					"stateMutability": "view",
					"type": "function"
				},
				{
					"inputs": [],
					"name": "getPendingCount",
					"outputs": [
						{
							"internalType": "uint256",
							"name": "",
							"type": "uint256"
						}
					],
					"stateMutability": "view",
					"type": "function"
				},
				{
					"inputs": [
						{
							"internalType": "uint256",
							"name": "index",
							"type": "uint256"
						}
					],
					"name": "getTodoByIndex",
					"outputs": [
						{
							"internalType": "string",
							"name": "",
							"type": "string"
						}
					],
					"stateMutability": "view",
					"type": "function"
				},
				{
					"inputs": [],
					"name": "getTodoCount",
					"outputs": [
						{
							"internalType": "uint256",
							"name": "",
							"type": "uint256"
						}
					],
					"stateMutability": "view",
					"type": "function"
				},
				{
					"inputs": [],
					"name": "n",
					"outputs": [
						{
							"internalType": "uint256",
							"name": "",
							"type": "uint256"
						}
					],
					"stateMutability": "view",
					"type": "function"
				},
				{
					"inputs": [
						{
							"internalType": "uint256",
							"name": "index",
							"type": "uint256"
						}
					],
					"name": "setCompleted",
					"outputs": [],
					"stateMutability": "nonpayable",
					"type": "function"
				},
				{
					"inputs": [
						{
							"internalType": "uint256",
							"name": "index",
							"type": "uint256"
						}
					],
					"name": "setPending",
					"outputs": [],
					"stateMutability": "nonpayable",
					"type": "function"
				},
				{
					"inputs": [
						{
							"internalType": "uint256",
							"name": "",
							"type": "uint256"
						}
					],
					"name": "todoCompleted",
					"outputs": [
						{
							"internalType": "string",
							"name": "content",
							"type": "string"
						},
						{
							"internalType": "uint256",
							"name": "createTime",
							"type": "uint256"
						},
						{
							"internalType": "bool",
							"name": "isPending",
							"type": "bool"
						}
					],
					"stateMutability": "view",
					"type": "function"
				},
				{
					"inputs": [
						{
							"internalType": "uint256",
							"name": "",
							"type": "uint256"
						}
					],
					"name": "todoPending",
					"outputs": [
						{
							"internalType": "string",
							"name": "content",
							"type": "string"
						},
						{
							"internalType": "uint256",
							"name": "createTime",
							"type": "uint256"
						},
						{
							"internalType": "bool",
							"name": "isPending",
							"type": "bool"
						}
					],
					"stateMutability": "view",
					"type": "function"
				},
				{
					"inputs": [
						{
							"internalType": "uint256",
							"name": "",
							"type": "uint256"
						}
					],
					"name": "todos",
					"outputs": [
						{
							"internalType": "string",
							"name": "content",
							"type": "string"
						},
						{
							"internalType": "uint256",
							"name": "createTime",
							"type": "uint256"
						},
						{
							"internalType": "bool",
							"name": "isPending",
							"type": "bool"
						}
					],
					"stateMutability": "view",
					"type": "function"
				}
			],
			"devdoc": {
				"kind": "dev",
				"methods": {},
				"version": 1
			},
			"evm": {
				"assembly": "    /* \"todoListPendingCountSeconds.sol\":61:3519  contract TodoList {... */\n  mstore(0x40, 0x80)\n    /* \"todoListPendingCountSeconds.sol\":320:336  constructor() {} */\n  callvalue\n  dup1\n  iszero\n  tag_1\n  jumpi\n  0x00\n  dup1\n  revert\ntag_1:\n  pop\n    /* \"todoListPendingCountSeconds.sol\":61:3519  contract TodoList {... */\n  dataSize(sub_0)\n  dup1\n  dataOffset(sub_0)\n  0x00\n  codecopy\n  0x00\n  return\nstop\n\nsub_0: assembly {\n        /* \"todoListPendingCountSeconds.sol\":61:3519  contract TodoList {... */\n      mstore(0x40, 0x80)\n      callvalue\n      dup1\n      iszero\n      tag_1\n      jumpi\n      0x00\n      dup1\n      revert\n    tag_1:\n      pop\n      jumpi(tag_2, lt(calldatasize, 0x04))\n      shr(0xe0, calldataload(0x00))\n      dup1\n      0xbc8bc2b4\n      gt\n      tag_22\n      jumpi\n      dup1\n      0xe29672ba\n      gt\n      tag_23\n      jumpi\n      dup1\n      0xe29672ba\n      eq\n      tag_17\n      jumpi\n      dup1\n      0xf112ba72\n      eq\n      tag_18\n      jumpi\n      dup1\n      0xfcab4fa6\n      eq\n      tag_19\n      jumpi\n      dup1\n      0xfdacd576\n      eq\n      tag_20\n      jumpi\n      dup1\n      0xfe1c7f6f\n      eq\n      tag_21\n      jumpi\n      jump(tag_2)\n    tag_23:\n      dup1\n      0xbc8bc2b4\n      eq\n      tag_12\n      jumpi\n      dup1\n      0xc101d3f0\n      eq\n      tag_13\n      jumpi\n      dup1\n      0xc195fc74\n      eq\n      tag_14\n      jumpi\n      dup1\n      0xcd6aab58\n      eq\n      tag_15\n      jumpi\n      dup1\n      0xd795ede1\n      eq\n      tag_16\n      jumpi\n      jump(tag_2)\n    tag_22:\n      dup1\n      0x95ffebf5\n      gt\n      tag_24\n      jumpi\n      dup1\n      0x95ffebf5\n      eq\n      tag_7\n      jumpi\n      dup1\n      0x982abb89\n      eq\n      tag_8\n      jumpi\n      dup1\n      0xa66fc514\n      eq\n      tag_9\n      jumpi\n      dup1\n      0xa7d59b59\n      eq\n      tag_10\n      jumpi\n      dup1\n      0xb2514afa\n      eq\n      tag_11\n      jumpi\n      jump(tag_2)\n    tag_24:\n      dup1\n      0x0b43c02c\n      eq\n      tag_3\n      jumpi\n      dup1\n      0x104a7cd8\n      eq\n      tag_4\n      jumpi\n      dup1\n      0x2e52d606\n      eq\n      tag_5\n      jumpi\n      dup1\n      0x67b37dc9\n      eq\n      tag_6\n      jumpi\n    tag_2:\n      0x00\n      dup1\n      revert\n        /* \"todoListPendingCountSeconds.sol\":3169:3517  function clearPending(uint256 index) external {... */\n    tag_3:\n      tag_25\n      0x04\n      dup1\n      calldatasize\n      sub\n      dup2\n      add\n      swap1\n      tag_26\n      swap2\n      swap1\n      tag_27\n      jump\t// in\n    tag_26:\n      tag_28\n      jump\t// in\n    tag_25:\n      stop\n        /* \"todoListPendingCountSeconds.sol\":1337:1429  function getTodoCount() external view returns (uint256) {... */\n    tag_4:\n      tag_29\n      tag_30\n      jump\t// in\n    tag_29:\n      mload(0x40)\n      tag_31\n      swap2\n      swap1\n      tag_32\n      jump\t// in\n    tag_31:\n      mload(0x40)\n      dup1\n      swap2\n      sub\n      swap1\n      return\n        /* \"todoListPendingCountSeconds.sol\":275:304  uint256 public constant n = 1 */\n    tag_5:\n      tag_33\n      tag_34\n      jump\t// in\n    tag_33:\n      mload(0x40)\n      tag_35\n      swap2\n      swap1\n      tag_32\n      jump\t// in\n    tag_35:\n      mload(0x40)\n      dup1\n      swap2\n      sub\n      swap1\n      return\n        /* \"todoListPendingCountSeconds.sol\":1973:2107  function getCompletedByIndex(uint256 index) external view returns (string memory) {... */\n    tag_6:\n      tag_36\n      0x04\n      dup1\n      calldatasize\n      sub\n      dup2\n      add\n      swap1\n      tag_37\n      swap2\n      swap1\n      tag_27\n      jump\t// in\n    tag_37:\n      tag_38\n      jump\t// in\n    tag_36:\n      mload(0x40)\n      tag_39\n      swap2\n      swap1\n      tag_40\n      jump\t// in\n    tag_39:\n      mload(0x40)\n      dup1\n      swap2\n      sub\n      swap1\n      return\n        /* \"todoListPendingCountSeconds.sol\":342:528  function addTodo(string memory content) external {... */\n    tag_7:\n      tag_41\n      0x04\n      dup1\n      calldatasize\n      sub\n      dup2\n      add\n      swap1\n      tag_42\n      swap2\n      swap1\n      tag_43\n      jump\t// in\n    tag_42:\n      tag_44\n      jump\t// in\n    tag_41:\n      stop\n        /* \"todoListPendingCountSeconds.sol\":2249:2507  function getAllTodo() external view returns (string[] memory) {... */\n    tag_8:\n      tag_45\n      tag_46\n      jump\t// in\n    tag_45:\n      mload(0x40)\n      tag_47\n      swap2\n      swap1\n      tag_48\n      jump\t// in\n    tag_47:\n      mload(0x40)\n      dup1\n      swap2\n      sub\n      swap1\n      return\n        /* \"todoListPendingCountSeconds.sol\":3091:3163  function clearCompleted() external {... */\n    tag_9:\n      tag_49\n      tag_50\n      jump\t// in\n    tag_49:\n      stop\n        /* \"todoListPendingCountSeconds.sol\":2113:2243  function getPendingByIndex(uint256 index) external view returns (string memory) {... */\n    tag_10:\n      tag_51\n      0x04\n      dup1\n      calldatasize\n      sub\n      dup2\n      add\n      swap1\n      tag_52\n      swap2\n      swap1\n      tag_27\n      jump\t// in\n    tag_52:\n      tag_53\n      jump\t// in\n    tag_51:\n      mload(0x40)\n      tag_54\n      swap2\n      swap1\n      tag_40\n      jump\t// in\n    tag_54:\n      mload(0x40)\n      dup1\n      swap2\n      sub\n      swap1\n      return\n        /* \"todoListPendingCountSeconds.sol\":244:269  Todo[] public todoPending */\n    tag_11:\n      tag_55\n      0x04\n      dup1\n      calldatasize\n      sub\n      dup2\n      add\n      swap1\n      tag_56\n      swap2\n      swap1\n      tag_27\n      jump\t// in\n    tag_56:\n      tag_57\n      jump\t// in\n    tag_55:\n      mload(0x40)\n      tag_58\n      swap4\n      swap3\n      swap2\n      swap1\n      tag_59\n      jump\t// in\n    tag_58:\n      mload(0x40)\n      dup1\n      swap2\n      sub\n      swap1\n      return\n        /* \"todoListPendingCountSeconds.sol\":186:205  Todo[] public todos */\n    tag_12:\n      tag_60\n      0x04\n      dup1\n      calldatasize\n      sub\n      dup2\n      add\n      swap1\n      tag_61\n      swap2\n      swap1\n      tag_27\n      jump\t// in\n    tag_61:\n      tag_62\n      jump\t// in\n    tag_60:\n      mload(0x40)\n      tag_63\n      swap4\n      swap3\n      swap2\n      swap1\n      tag_59\n      jump\t// in\n    tag_63:\n      mload(0x40)\n      dup1\n      swap2\n      sub\n      swap1\n      return\n        /* \"todoListPendingCountSeconds.sol\":1780:1967  function deleteTodoByIndex(uint256 index) external {... */\n    tag_13:\n      tag_64\n      0x04\n      dup1\n      calldatasize\n      sub\n      dup2\n      add\n      swap1\n      tag_65\n      swap2\n      swap1\n      tag_27\n      jump\t// in\n    tag_65:\n      tag_66\n      jump\t// in\n    tag_64:\n      stop\n        /* \"todoListPendingCountSeconds.sol\":817:1331  function setPending(uint256 index) external {... */\n    tag_14:\n      tag_67\n      0x04\n      dup1\n      calldatasize\n      sub\n      dup2\n      add\n      swap1\n      tag_68\n      swap2\n      swap1\n      tag_27\n      jump\t// in\n    tag_68:\n      tag_69\n      jump\t// in\n    tag_67:\n      stop\n        /* \"todoListPendingCountSeconds.sol\":1653:1774  function getTodoByIndex(uint256 index) external view returns (string memory) {... */\n    tag_15:\n      tag_70\n      0x04\n      dup1\n      calldatasize\n      sub\n      dup2\n      add\n      swap1\n      tag_71\n      swap2\n      swap1\n      tag_27\n      jump\t// in\n    tag_71:\n      tag_72\n      jump\t// in\n    tag_70:\n      mload(0x40)\n      tag_73\n      swap2\n      swap1\n      tag_40\n      jump\t// in\n    tag_73:\n      mload(0x40)\n      dup1\n      swap2\n      sub\n      swap1\n      return\n        /* \"todoListPendingCountSeconds.sol\":1546:1647  function getPendingCount() external view returns (uint256) {... */\n    tag_16:\n      tag_74\n      tag_75\n      jump\t// in\n    tag_74:\n      mload(0x40)\n      tag_76\n      swap2\n      swap1\n      tag_32\n      jump\t// in\n    tag_76:\n      mload(0x40)\n      dup1\n      swap2\n      sub\n      swap1\n      return\n        /* \"todoListPendingCountSeconds.sol\":2513:2800  function getAllCompleted() external view returns (string[] memory) {... */\n    tag_17:\n      tag_77\n      tag_78\n      jump\t// in\n    tag_77:\n      mload(0x40)\n      tag_79\n      swap2\n      swap1\n      tag_48\n      jump\t// in\n    tag_79:\n      mload(0x40)\n      dup1\n      swap2\n      sub\n      swap1\n      return\n        /* \"todoListPendingCountSeconds.sol\":2806:3085  function getAllPending() external view returns (string[] memory) {... */\n    tag_18:\n      tag_80\n      tag_81\n      jump\t// in\n    tag_80:\n      mload(0x40)\n      tag_82\n      swap2\n      swap1\n      tag_48\n      jump\t// in\n    tag_82:\n      mload(0x40)\n      dup1\n      swap2\n      sub\n      swap1\n      return\n        /* \"todoListPendingCountSeconds.sol\":1435:1540  function getCompletedCount() external view returns (uint256) {... */\n    tag_19:\n      tag_83\n      tag_84\n      jump\t// in\n    tag_83:\n      mload(0x40)\n      tag_85\n      swap2\n      swap1\n      tag_32\n      jump\t// in\n    tag_85:\n      mload(0x40)\n      dup1\n      swap2\n      sub\n      swap1\n      return\n        /* \"todoListPendingCountSeconds.sol\":534:811  function setCompleted(uint256 index) external {... */\n    tag_20:\n      tag_86\n      0x04\n      dup1\n      calldatasize\n      sub\n      dup2\n      add\n      swap1\n      tag_87\n      swap2\n      swap1\n      tag_27\n      jump\t// in\n    tag_87:\n      tag_88\n      jump\t// in\n    tag_86:\n      stop\n        /* \"todoListPendingCountSeconds.sol\":211:238  Todo[] public todoCompleted */\n    tag_21:\n      tag_89\n      0x04\n      dup1\n      calldatasize\n      sub\n      dup2\n      add\n      swap1\n      tag_90\n      swap2\n      swap1\n      tag_27\n      jump\t// in\n    tag_90:\n      tag_91\n      jump\t// in\n    tag_89:\n      mload(0x40)\n      tag_92\n      swap4\n      swap3\n      swap2\n      swap1\n      tag_59\n      jump\t// in\n    tag_92:\n      mload(0x40)\n      dup1\n      swap2\n      sub\n      swap1\n      return\n        /* \"todoListPendingCountSeconds.sol\":3169:3517  function clearPending(uint256 index) external {... */\n    tag_28:\n        /* \"todoListPendingCountSeconds.sol\":3225:3243  uint256 createTime */\n      0x00\n        /* \"todoListPendingCountSeconds.sol\":3246:3257  todoPending */\n      0x02\n        /* \"todoListPendingCountSeconds.sol\":3258:3263  index */\n      dup3\n        /* \"todoListPendingCountSeconds.sol\":3246:3264  todoPending[index] */\n      dup2\n      sload\n      dup2\n      lt\n      tag_94\n      jumpi\n      tag_95\n      tag_96\n      jump\t// in\n    tag_95:\n    tag_94:\n      swap1\n      0x00\n      mstore\n      keccak256(0x00, 0x20)\n      swap1\n      0x03\n      mul\n      add\n        /* \"todoListPendingCountSeconds.sol\":3246:3275  todoPending[index].createTime */\n      0x01\n      add\n      sload\n        /* \"todoListPendingCountSeconds.sol\":3225:3275  uint256 createTime = todoPending[index].createTime */\n      swap1\n      pop\n        /* \"todoListPendingCountSeconds.sol\":303:304  1 */\n      0x01\n        /* \"todoListPendingCountSeconds.sol\":3311:3321  createTime */\n      dup2\n        /* \"todoListPendingCountSeconds.sol\":3293:3308  block.timestamp */\n      timestamp\n        /* \"todoListPendingCountSeconds.sol\":3293:3321  block.timestamp - createTime */\n      tag_98\n      swap2\n      swap1\n      tag_99\n      jump\t// in\n    tag_98:\n        /* \"todoListPendingCountSeconds.sol\":3293:3325  block.timestamp - createTime > n */\n      gt\n        /* \"todoListPendingCountSeconds.sol\":3285:3356  require(block.timestamp - createTime > n, \"Pending is not expired yet\") */\n      tag_100\n      jumpi\n      mload(0x40)\n      0x08c379a000000000000000000000000000000000000000000000000000000000\n      dup2\n      mstore\n      0x04\n      add\n      tag_101\n      swap1\n      tag_102\n      jump\t// in\n    tag_101:\n      mload(0x40)\n      dup1\n      swap2\n      sub\n      swap1\n      revert\n    tag_100:\n        /* \"todoListPendingCountSeconds.sol\":3372:3381  uint256 i */\n      0x00\n        /* \"todoListPendingCountSeconds.sol\":3384:3389  index */\n      dup3\n        /* \"todoListPendingCountSeconds.sol\":3372:3389  uint256 i = index */\n      swap1\n      pop\n        /* \"todoListPendingCountSeconds.sol\":3367:3484  for (uint256 i = index; i < todoPending.length - 1; i++) {... */\n    tag_103:\n        /* \"todoListPendingCountSeconds.sol\":3416:3417  1 */\n      0x01\n        /* \"todoListPendingCountSeconds.sol\":3395:3406  todoPending */\n      0x02\n        /* \"todoListPendingCountSeconds.sol\":3395:3413  todoPending.length */\n      dup1\n      sload\n      swap1\n      pop\n        /* \"todoListPendingCountSeconds.sol\":3395:3417  todoPending.length - 1 */\n      tag_106\n      swap2\n      swap1\n      tag_99\n      jump\t// in\n    tag_106:\n        /* \"todoListPendingCountSeconds.sol\":3391:3392  i */\n      dup2\n        /* \"todoListPendingCountSeconds.sol\":3391:3417  i < todoPending.length - 1 */\n      lt\n        /* \"todoListPendingCountSeconds.sol\":3367:3484  for (uint256 i = index; i < todoPending.length - 1; i++) {... */\n      iszero\n      tag_104\n      jumpi\n        /* \"todoListPendingCountSeconds.sol\":3455:3466  todoPending */\n      0x02\n        /* \"todoListPendingCountSeconds.sol\":3471:3472  1 */\n      0x01\n        /* \"todoListPendingCountSeconds.sol\":3467:3468  i */\n      dup3\n        /* \"todoListPendingCountSeconds.sol\":3467:3472  i + 1 */\n      tag_107\n      swap2\n      swap1\n      tag_108\n      jump\t// in\n    tag_107:\n        /* \"todoListPendingCountSeconds.sol\":3455:3473  todoPending[i + 1] */\n      dup2\n      sload\n      dup2\n      lt\n      tag_109\n      jumpi\n      tag_110\n      tag_96\n      jump\t// in\n    tag_110:\n    tag_109:\n      swap1\n      0x00\n      mstore\n      keccak256(0x00, 0x20)\n      swap1\n      0x03\n      mul\n      add\n        /* \"todoListPendingCountSeconds.sol\":3438:3449  todoPending */\n      0x02\n        /* \"todoListPendingCountSeconds.sol\":3450:3451  i */\n      dup3\n        /* \"todoListPendingCountSeconds.sol\":3438:3452  todoPending[i] */\n      dup2\n      sload\n      dup2\n      lt\n      tag_112\n      jumpi\n      tag_113\n      tag_96\n      jump\t// in\n    tag_113:\n    tag_112:\n      swap1\n      0x00\n      mstore\n      keccak256(0x00, 0x20)\n      swap1\n      0x03\n      mul\n      add\n        /* \"todoListPendingCountSeconds.sol\":3438:3473  todoPending[i] = todoPending[i + 1] */\n      0x00\n      dup3\n      add\n      dup2\n      0x00\n      add\n      swap1\n      dup2\n      tag_115\n      swap2\n      swap1\n      tag_116\n      jump\t// in\n    tag_115:\n      pop\n      0x01\n      dup3\n      add\n      sload\n      dup2\n      0x01\n      add\n      sstore\n      0x02\n      dup3\n      add\n      0x00\n      swap1\n      sload\n      swap1\n      0x0100\n      exp\n      swap1\n      div\n      0xff\n      and\n      dup2\n      0x02\n      add\n      exp(0x0100, 0x00)\n      dup2\n      sload\n      dup2\n      0xff\n      mul\n      not\n      and\n      swap1\n      dup4\n      iszero\n      iszero\n      mul\n      or\n      swap1\n      sstore\n      pop\n      swap1\n      pop\n      pop\n        /* \"todoListPendingCountSeconds.sol\":3419:3422  i++ */\n      dup1\n      dup1\n      tag_117\n      swap1\n      tag_118\n      jump\t// in\n    tag_117:\n      swap2\n      pop\n      pop\n        /* \"todoListPendingCountSeconds.sol\":3367:3484  for (uint256 i = index; i < todoPending.length - 1; i++) {... */\n      jump(tag_103)\n    tag_104:\n      pop\n        /* \"todoListPendingCountSeconds.sol\":3493:3504  todoPending */\n      0x02\n        /* \"todoListPendingCountSeconds.sol\":3493:3510  todoPending.pop() */\n      dup1\n      sload\n      dup1\n      tag_119\n      jumpi\n      tag_120\n      tag_121\n      jump\t// in\n    tag_120:\n    tag_119:\n      0x01\n      swap1\n      sub\n      dup2\n      dup2\n      swap1\n      0x00\n      mstore\n      keccak256(0x00, 0x20)\n      swap1\n      0x03\n      mul\n      add\n      0x00\n      dup1\n      dup3\n      add\n      0x00\n      tag_123\n      swap2\n      swap1\n      tag_124\n      jump\t// in\n    tag_123:\n      0x01\n      dup3\n      add\n      0x00\n      swap1\n      sstore\n      0x02\n      dup3\n      add\n      exp(0x0100, 0x00)\n      dup2\n      sload\n      swap1\n      0xff\n      mul\n      not\n      and\n      swap1\n      sstore\n      pop\n      pop\n      swap1\n      sstore\n        /* \"todoListPendingCountSeconds.sol\":3215:3517  {... */\n      pop\n        /* \"todoListPendingCountSeconds.sol\":3169:3517  function clearPending(uint256 index) external {... */\n      pop\n      jump\t// out\n        /* \"todoListPendingCountSeconds.sol\":1337:1429  function getTodoCount() external view returns (uint256) {... */\n    tag_30:\n        /* \"todoListPendingCountSeconds.sol\":1384:1391  uint256 */\n      0x00\n        /* \"todoListPendingCountSeconds.sol\":1410:1415  todos */\n      dup1\n        /* \"todoListPendingCountSeconds.sol\":1410:1422  todos.length */\n      dup1\n      sload\n      swap1\n      pop\n        /* \"todoListPendingCountSeconds.sol\":1403:1422  return todos.length */\n      swap1\n      pop\n        /* \"todoListPendingCountSeconds.sol\":1337:1429  function getTodoCount() external view returns (uint256) {... */\n      swap1\n      jump\t// out\n        /* \"todoListPendingCountSeconds.sol\":275:304  uint256 public constant n = 1 */\n    tag_34:\n        /* \"todoListPendingCountSeconds.sol\":303:304  1 */\n      0x01\n        /* \"todoListPendingCountSeconds.sol\":275:304  uint256 public constant n = 1 */\n      dup2\n      jump\t// out\n        /* \"todoListPendingCountSeconds.sol\":1973:2107  function getCompletedByIndex(uint256 index) external view returns (string memory) {... */\n    tag_38:\n        /* \"todoListPendingCountSeconds.sol\":2040:2053  string memory */\n      0x60\n        /* \"todoListPendingCountSeconds.sol\":2072:2085  todoCompleted */\n      0x01\n        /* \"todoListPendingCountSeconds.sol\":2086:2091  index */\n      dup3\n        /* \"todoListPendingCountSeconds.sol\":2072:2092  todoCompleted[index] */\n      dup2\n      sload\n      dup2\n      lt\n      tag_127\n      jumpi\n      tag_128\n      tag_96\n      jump\t// in\n    tag_128:\n    tag_127:\n      swap1\n      0x00\n      mstore\n      keccak256(0x00, 0x20)\n      swap1\n      0x03\n      mul\n      add\n        /* \"todoListPendingCountSeconds.sol\":2072:2100  todoCompleted[index].content */\n      0x00\n      add\n        /* \"todoListPendingCountSeconds.sol\":2065:2100  return todoCompleted[index].content */\n      dup1\n      sload\n      tag_130\n      swap1\n      tag_131\n      jump\t// in\n    tag_130:\n      dup1\n      0x1f\n      add\n      0x20\n      dup1\n      swap2\n      div\n      mul\n      0x20\n      add\n      mload(0x40)\n      swap1\n      dup2\n      add\n      0x40\n      mstore\n      dup1\n      swap3\n      swap2\n      swap1\n      dup2\n      dup2\n      mstore\n      0x20\n      add\n      dup3\n      dup1\n      sload\n      tag_132\n      swap1\n      tag_131\n      jump\t// in\n    tag_132:\n      dup1\n      iszero\n      tag_133\n      jumpi\n      dup1\n      0x1f\n      lt\n      tag_134\n      jumpi\n      0x0100\n      dup1\n      dup4\n      sload\n      div\n      mul\n      dup4\n      mstore\n      swap2\n      0x20\n      add\n      swap2\n      jump(tag_133)\n    tag_134:\n      dup3\n      add\n      swap2\n      swap1\n      0x00\n      mstore\n      keccak256(0x00, 0x20)\n      swap1\n    tag_135:\n      dup2\n      sload\n      dup2\n      mstore\n      swap1\n      0x01\n      add\n      swap1\n      0x20\n      add\n      dup1\n      dup4\n      gt\n      tag_135\n      jumpi\n      dup3\n      swap1\n      sub\n      0x1f\n      and\n      dup3\n      add\n      swap2\n    tag_133:\n      pop\n      pop\n      pop\n      pop\n      pop\n      swap1\n      pop\n        /* \"todoListPendingCountSeconds.sol\":1973:2107  function getCompletedByIndex(uint256 index) external view returns (string memory) {... */\n      swap2\n      swap1\n      pop\n      jump\t// out\n        /* \"todoListPendingCountSeconds.sol\":342:528  function addTodo(string memory content) external {... */\n    tag_44:\n        /* \"todoListPendingCountSeconds.sol\":401:406  todos */\n      0x00\n        /* \"todoListPendingCountSeconds.sol\":412:520  Todo({... */\n      mload(0x40)\n      dup1\n      0x60\n      add\n      0x40\n      mstore\n      dup1\n        /* \"todoListPendingCountSeconds.sol\":437:444  content */\n      dup4\n        /* \"todoListPendingCountSeconds.sol\":412:520  Todo({... */\n      dup2\n      mstore\n      0x20\n      add\n        /* \"todoListPendingCountSeconds.sol\":467:482  block.timestamp */\n      timestamp\n        /* \"todoListPendingCountSeconds.sol\":412:520  Todo({... */\n      dup2\n      mstore\n      0x20\n      add\n        /* \"todoListPendingCountSeconds.sol\":504:509  false */\n      0x00\n        /* \"todoListPendingCountSeconds.sol\":412:520  Todo({... */\n      iszero\n      iszero\n      dup2\n      mstore\n      pop\n        /* \"todoListPendingCountSeconds.sol\":401:521  todos.push(Todo({... */\n      swap1\n      dup1\n      0x01\n      dup2\n      sload\n      add\n      dup1\n      dup3\n      sstore\n      dup1\n      swap2\n      pop\n      pop\n      0x01\n      swap1\n      sub\n      swap1\n      0x00\n      mstore\n      keccak256(0x00, 0x20)\n      swap1\n      0x03\n      mul\n      add\n      0x00\n      swap1\n      swap2\n      swap1\n      swap2\n      swap1\n      swap2\n      pop\n      0x00\n      dup3\n      add\n      mload\n      dup2\n      0x00\n      add\n      swap1\n      dup2\n      tag_138\n      swap2\n      swap1\n      tag_139\n      jump\t// in\n    tag_138:\n      pop\n      0x20\n      dup3\n      add\n      mload\n      dup2\n      0x01\n      add\n      sstore\n      0x40\n      dup3\n      add\n      mload\n      dup2\n      0x02\n      add\n      exp(0x0100, 0x00)\n      dup2\n      sload\n      dup2\n      0xff\n      mul\n      not\n      and\n      swap1\n      dup4\n      iszero\n      iszero\n      mul\n      or\n      swap1\n      sstore\n      pop\n      pop\n      pop\n        /* \"todoListPendingCountSeconds.sol\":342:528  function addTodo(string memory content) external {... */\n      pop\n      jump\t// out\n        /* \"todoListPendingCountSeconds.sol\":2249:2507  function getAllTodo() external view returns (string[] memory) {... */\n    tag_46:\n        /* \"todoListPendingCountSeconds.sol\":2294:2309  string[] memory */\n      0x60\n        /* \"todoListPendingCountSeconds.sol\":2321:2343  string[] memory result */\n      0x00\n        /* \"todoListPendingCountSeconds.sol\":2359:2364  todos */\n      dup1\n        /* \"todoListPendingCountSeconds.sol\":2359:2371  todos.length */\n      dup1\n      sload\n      swap1\n      pop\n        /* \"todoListPendingCountSeconds.sol\":2346:2372  new string[](todos.length) */\n      0xffffffffffffffff\n      dup2\n      gt\n      iszero\n      tag_141\n      jumpi\n      tag_142\n      tag_143\n      jump\t// in\n    tag_142:\n    tag_141:\n      mload(0x40)\n      swap1\n      dup1\n      dup3\n      mstore\n      dup1\n      0x20\n      mul\n      0x20\n      add\n      dup3\n      add\n      0x40\n      mstore\n      dup1\n      iszero\n      tag_144\n      jumpi\n      dup2\n      0x20\n      add\n    tag_145:\n      0x60\n      dup2\n      mstore\n      0x20\n      add\n      swap1\n      0x01\n      swap1\n      sub\n      swap1\n      dup2\n      tag_145\n      jumpi\n      swap1\n      pop\n    tag_144:\n      pop\n        /* \"todoListPendingCountSeconds.sol\":2321:2372  string[] memory result = new string[](todos.length) */\n      swap1\n      pop\n        /* \"todoListPendingCountSeconds.sol\":2387:2396  uint256 i */\n      0x00\n        /* \"todoListPendingCountSeconds.sol\":2382:2478  for (uint256 i = 0; i < todos.length; i++) {... */\n    tag_146:\n        /* \"todoListPendingCountSeconds.sol\":2406:2411  todos */\n      0x00\n        /* \"todoListPendingCountSeconds.sol\":2406:2418  todos.length */\n      dup1\n      sload\n      swap1\n      pop\n        /* \"todoListPendingCountSeconds.sol\":2402:2403  i */\n      dup2\n        /* \"todoListPendingCountSeconds.sol\":2402:2418  i < todos.length */\n      lt\n        /* \"todoListPendingCountSeconds.sol\":2382:2478  for (uint256 i = 0; i < todos.length; i++) {... */\n      iszero\n      tag_147\n      jumpi\n        /* \"todoListPendingCountSeconds.sol\":2451:2456  todos */\n      0x00\n        /* \"todoListPendingCountSeconds.sol\":2457:2458  i */\n      dup2\n        /* \"todoListPendingCountSeconds.sol\":2451:2459  todos[i] */\n      dup2\n      sload\n      dup2\n      lt\n      tag_149\n      jumpi\n      tag_150\n      tag_96\n      jump\t// in\n    tag_150:\n    tag_149:\n      swap1\n      0x00\n      mstore\n      keccak256(0x00, 0x20)\n      swap1\n      0x03\n      mul\n      add\n        /* \"todoListPendingCountSeconds.sol\":2451:2467  todos[i].content */\n      0x00\n      add\n        /* \"todoListPendingCountSeconds.sol\":2439:2467  result[i] = todos[i].content */\n      dup1\n      sload\n      tag_152\n      swap1\n      tag_131\n      jump\t// in\n    tag_152:\n      dup1\n      0x1f\n      add\n      0x20\n      dup1\n      swap2\n      div\n      mul\n      0x20\n      add\n      mload(0x40)\n      swap1\n      dup2\n      add\n      0x40\n      mstore\n      dup1\n      swap3\n      swap2\n      swap1\n      dup2\n      dup2\n      mstore\n      0x20\n      add\n      dup3\n      dup1\n      sload\n      tag_153\n      swap1\n      tag_131\n      jump\t// in\n    tag_153:\n      dup1\n      iszero\n      tag_154\n      jumpi\n      dup1\n      0x1f\n      lt\n      tag_155\n      jumpi\n      0x0100\n      dup1\n      dup4\n      sload\n      div\n      mul\n      dup4\n      mstore\n      swap2\n      0x20\n      add\n      swap2\n      jump(tag_154)\n    tag_155:\n      dup3\n      add\n      swap2\n      swap1\n      0x00\n      mstore\n      keccak256(0x00, 0x20)\n      swap1\n    tag_156:\n      dup2\n      sload\n      dup2\n      mstore\n      swap1\n      0x01\n      add\n      swap1\n      0x20\n      add\n      dup1\n      dup4\n      gt\n      tag_156\n      jumpi\n      dup3\n      swap1\n      sub\n      0x1f\n      and\n      dup3\n      add\n      swap2\n    tag_154:\n      pop\n      pop\n      pop\n      pop\n      pop\n        /* \"todoListPendingCountSeconds.sol\":2439:2445  result */\n      dup3\n        /* \"todoListPendingCountSeconds.sol\":2446:2447  i */\n      dup3\n        /* \"todoListPendingCountSeconds.sol\":2439:2448  result[i] */\n      dup2\n      mload\n      dup2\n      lt\n      tag_157\n      jumpi\n      tag_158\n      tag_96\n      jump\t// in\n    tag_158:\n    tag_157:\n      0x20\n      mul\n      0x20\n      add\n      add\n        /* \"todoListPendingCountSeconds.sol\":2439:2467  result[i] = todos[i].content */\n      dup2\n      swap1\n      mstore\n      pop\n        /* \"todoListPendingCountSeconds.sol\":2420:2423  i++ */\n      dup1\n      dup1\n      tag_159\n      swap1\n      tag_118\n      jump\t// in\n    tag_159:\n      swap2\n      pop\n      pop\n        /* \"todoListPendingCountSeconds.sol\":2382:2478  for (uint256 i = 0; i < todos.length; i++) {... */\n      jump(tag_146)\n    tag_147:\n      pop\n        /* \"todoListPendingCountSeconds.sol\":2494:2500  result */\n      dup1\n        /* \"todoListPendingCountSeconds.sol\":2487:2500  return result */\n      swap2\n      pop\n      pop\n        /* \"todoListPendingCountSeconds.sol\":2249:2507  function getAllTodo() external view returns (string[] memory) {... */\n      swap1\n      jump\t// out\n        /* \"todoListPendingCountSeconds.sol\":3091:3163  function clearCompleted() external {... */\n    tag_50:\n        /* \"todoListPendingCountSeconds.sol\":3143:3156  todoCompleted */\n      0x01\n      0x00\n        /* \"todoListPendingCountSeconds.sol\":3136:3156  delete todoCompleted */\n      tag_161\n      swap2\n      swap1\n      tag_162\n      jump\t// in\n    tag_161:\n        /* \"todoListPendingCountSeconds.sol\":3091:3163  function clearCompleted() external {... */\n      jump\t// out\n        /* \"todoListPendingCountSeconds.sol\":2113:2243  function getPendingByIndex(uint256 index) external view returns (string memory) {... */\n    tag_53:\n        /* \"todoListPendingCountSeconds.sol\":2178:2191  string memory */\n      0x60\n        /* \"todoListPendingCountSeconds.sol\":2210:2221  todoPending */\n      0x02\n        /* \"todoListPendingCountSeconds.sol\":2222:2227  index */\n      dup3\n        /* \"todoListPendingCountSeconds.sol\":2210:2228  todoPending[index] */\n      dup2\n      sload\n      dup2\n      lt\n      tag_164\n      jumpi\n      tag_165\n      tag_96\n      jump\t// in\n    tag_165:\n    tag_164:\n      swap1\n      0x00\n      mstore\n      keccak256(0x00, 0x20)\n      swap1\n      0x03\n      mul\n      add\n        /* \"todoListPendingCountSeconds.sol\":2210:2236  todoPending[index].content */\n      0x00\n      add\n        /* \"todoListPendingCountSeconds.sol\":2203:2236  return todoPending[index].content */\n      dup1\n      sload\n      tag_167\n      swap1\n      tag_131\n      jump\t// in\n    tag_167:\n      dup1\n      0x1f\n      add\n      0x20\n      dup1\n      swap2\n      div\n      mul\n      0x20\n      add\n      mload(0x40)\n      swap1\n      dup2\n      add\n      0x40\n      mstore\n      dup1\n      swap3\n      swap2\n      swap1\n      dup2\n      dup2\n      mstore\n      0x20\n      add\n      dup3\n      dup1\n      sload\n      tag_168\n      swap1\n      tag_131\n      jump\t// in\n    tag_168:\n      dup1\n      iszero\n      tag_169\n      jumpi\n      dup1\n      0x1f\n      lt\n      tag_170\n      jumpi\n      0x0100\n      dup1\n      dup4\n      sload\n      div\n      mul\n      dup4\n      mstore\n      swap2\n      0x20\n      add\n      swap2\n      jump(tag_169)\n    tag_170:\n      dup3\n      add\n      swap2\n      swap1\n      0x00\n      mstore\n      keccak256(0x00, 0x20)\n      swap1\n    tag_171:\n      dup2\n      sload\n      dup2\n      mstore\n      swap1\n      0x01\n      add\n      swap1\n      0x20\n      add\n      dup1\n      dup4\n      gt\n      tag_171\n      jumpi\n      dup3\n      swap1\n      sub\n      0x1f\n      and\n      dup3\n      add\n      swap2\n    tag_169:\n      pop\n      pop\n      pop\n      pop\n      pop\n      swap1\n      pop\n        /* \"todoListPendingCountSeconds.sol\":2113:2243  function getPendingByIndex(uint256 index) external view returns (string memory) {... */\n      swap2\n      swap1\n      pop\n      jump\t// out\n        /* \"todoListPendingCountSeconds.sol\":244:269  Todo[] public todoPending */\n    tag_57:\n      0x02\n      dup2\n      dup2\n      sload\n      dup2\n      lt\n      tag_172\n      jumpi\n      0x00\n      dup1\n      revert\n    tag_172:\n      swap1\n      0x00\n      mstore\n      keccak256(0x00, 0x20)\n      swap1\n      0x03\n      mul\n      add\n      0x00\n      swap2\n      pop\n      swap1\n      pop\n      dup1\n      0x00\n      add\n      dup1\n      sload\n      tag_174\n      swap1\n      tag_131\n      jump\t// in\n    tag_174:\n      dup1\n      0x1f\n      add\n      0x20\n      dup1\n      swap2\n      div\n      mul\n      0x20\n      add\n      mload(0x40)\n      swap1\n      dup2\n      add\n      0x40\n      mstore\n      dup1\n      swap3\n      swap2\n      swap1\n      dup2\n      dup2\n      mstore\n      0x20\n      add\n      dup3\n      dup1\n      sload\n      tag_175\n      swap1\n      tag_131\n      jump\t// in\n    tag_175:\n      dup1\n      iszero\n      tag_176\n      jumpi\n      dup1\n      0x1f\n      lt\n      tag_177\n      jumpi\n      0x0100\n      dup1\n      dup4\n      sload\n      div\n      mul\n      dup4\n      mstore\n      swap2\n      0x20\n      add\n      swap2\n      jump(tag_176)\n    tag_177:\n      dup3\n      add\n      swap2\n      swap1\n      0x00\n      mstore\n      keccak256(0x00, 0x20)\n      swap1\n    tag_178:\n      dup2\n      sload\n      dup2\n      mstore\n      swap1\n      0x01\n      add\n      swap1\n      0x20\n      add\n      dup1\n      dup4\n      gt\n      tag_178\n      jumpi\n      dup3\n      swap1\n      sub\n      0x1f\n      and\n      dup3\n      add\n      swap2\n    tag_176:\n      pop\n      pop\n      pop\n      pop\n      pop\n      swap1\n      dup1\n      0x01\n      add\n      sload\n      swap1\n      dup1\n      0x02\n      add\n      0x00\n      swap1\n      sload\n      swap1\n      0x0100\n      exp\n      swap1\n      div\n      0xff\n      and\n      swap1\n      pop\n      dup4\n      jump\t// out\n        /* \"todoListPendingCountSeconds.sol\":186:205  Todo[] public todos */\n    tag_62:\n      0x00\n      dup2\n      dup2\n      sload\n      dup2\n      lt\n      tag_179\n      jumpi\n      0x00\n      dup1\n      revert\n    tag_179:\n      swap1\n      0x00\n      mstore\n      keccak256(0x00, 0x20)\n      swap1\n      0x03\n      mul\n      add\n      0x00\n      swap2\n      pop\n      swap1\n      pop\n      dup1\n      0x00\n      add\n      dup1\n      sload\n      tag_181\n      swap1\n      tag_131\n      jump\t// in\n    tag_181:\n      dup1\n      0x1f\n      add\n      0x20\n      dup1\n      swap2\n      div\n      mul\n      0x20\n      add\n      mload(0x40)\n      swap1\n      dup2\n      add\n      0x40\n      mstore\n      dup1\n      swap3\n      swap2\n      swap1\n      dup2\n      dup2\n      mstore\n      0x20\n      add\n      dup3\n      dup1\n      sload\n      tag_182\n      swap1\n      tag_131\n      jump\t// in\n    tag_182:\n      dup1\n      iszero\n      tag_183\n      jumpi\n      dup1\n      0x1f\n      lt\n      tag_184\n      jumpi\n      0x0100\n      dup1\n      dup4\n      sload\n      div\n      mul\n      dup4\n      mstore\n      swap2\n      0x20\n      add\n      swap2\n      jump(tag_183)\n    tag_184:\n      dup3\n      add\n      swap2\n      swap1\n      0x00\n      mstore\n      keccak256(0x00, 0x20)\n      swap1\n    tag_185:\n      dup2\n      sload\n      dup2\n      mstore\n      swap1\n      0x01\n      add\n      swap1\n      0x20\n      add\n      dup1\n      dup4\n      gt\n      tag_185\n      jumpi\n      dup3\n      swap1\n      sub\n      0x1f\n      and\n      dup3\n      add\n      swap2\n    tag_183:\n      pop\n      pop\n      pop\n      pop\n      pop\n      swap1\n      dup1\n      0x01\n      add\n      sload\n      swap1\n      dup1\n      0x02\n      add\n      0x00\n      swap1\n      sload\n      swap1\n      0x0100\n      exp\n      swap1\n      div\n      0xff\n      and\n      swap1\n      pop\n      dup4\n      jump\t// out\n        /* \"todoListPendingCountSeconds.sol\":1780:1967  function deleteTodoByIndex(uint256 index) external {... */\n    tag_66:\n        /* \"todoListPendingCountSeconds.sol\":1846:1855  uint256 i */\n      0x00\n        /* \"todoListPendingCountSeconds.sol\":1858:1863  index */\n      dup2\n        /* \"todoListPendingCountSeconds.sol\":1846:1863  uint256 i = index */\n      swap1\n      pop\n        /* \"todoListPendingCountSeconds.sol\":1841:1940  for (uint256 i = index; i < todos.length - 1; i++) {... */\n    tag_187:\n        /* \"todoListPendingCountSeconds.sol\":1884:1885  1 */\n      0x01\n        /* \"todoListPendingCountSeconds.sol\":1869:1874  todos */\n      0x00\n        /* \"todoListPendingCountSeconds.sol\":1869:1881  todos.length */\n      dup1\n      sload\n      swap1\n      pop\n        /* \"todoListPendingCountSeconds.sol\":1869:1885  todos.length - 1 */\n      tag_190\n      swap2\n      swap1\n      tag_99\n      jump\t// in\n    tag_190:\n        /* \"todoListPendingCountSeconds.sol\":1865:1866  i */\n      dup2\n        /* \"todoListPendingCountSeconds.sol\":1865:1885  i < todos.length - 1 */\n      lt\n        /* \"todoListPendingCountSeconds.sol\":1841:1940  for (uint256 i = index; i < todos.length - 1; i++) {... */\n      iszero\n      tag_188\n      jumpi\n        /* \"todoListPendingCountSeconds.sol\":1917:1922  todos */\n      0x00\n        /* \"todoListPendingCountSeconds.sol\":1927:1928  1 */\n      0x01\n        /* \"todoListPendingCountSeconds.sol\":1923:1924  i */\n      dup3\n        /* \"todoListPendingCountSeconds.sol\":1923:1928  i + 1 */\n      tag_191\n      swap2\n      swap1\n      tag_108\n      jump\t// in\n    tag_191:\n        /* \"todoListPendingCountSeconds.sol\":1917:1929  todos[i + 1] */\n      dup2\n      sload\n      dup2\n      lt\n      tag_192\n      jumpi\n      tag_193\n      tag_96\n      jump\t// in\n    tag_193:\n    tag_192:\n      swap1\n      0x00\n      mstore\n      keccak256(0x00, 0x20)\n      swap1\n      0x03\n      mul\n      add\n        /* \"todoListPendingCountSeconds.sol\":1906:1911  todos */\n      0x00\n        /* \"todoListPendingCountSeconds.sol\":1912:1913  i */\n      dup3\n        /* \"todoListPendingCountSeconds.sol\":1906:1914  todos[i] */\n      dup2\n      sload\n      dup2\n      lt\n      tag_195\n      jumpi\n      tag_196\n      tag_96\n      jump\t// in\n    tag_196:\n    tag_195:\n      swap1\n      0x00\n      mstore\n      keccak256(0x00, 0x20)\n      swap1\n      0x03\n      mul\n      add\n        /* \"todoListPendingCountSeconds.sol\":1906:1929  todos[i] = todos[i + 1] */\n      0x00\n      dup3\n      add\n      dup2\n      0x00\n      add\n      swap1\n      dup2\n      tag_198\n      swap2\n      swap1\n      tag_116\n      jump\t// in\n    tag_198:\n      pop\n      0x01\n      dup3\n      add\n      sload\n      dup2\n      0x01\n      add\n      sstore\n      0x02\n      dup3\n      add\n      0x00\n      swap1\n      sload\n      swap1\n      0x0100\n      exp\n      swap1\n      div\n      0xff\n      and\n      dup2\n      0x02\n      add\n      exp(0x0100, 0x00)\n      dup2\n      sload\n      dup2\n      0xff\n      mul\n      not\n      and\n      swap1\n      dup4\n      iszero\n      iszero\n      mul\n      or\n      swap1\n      sstore\n      pop\n      swap1\n      pop\n      pop\n        /* \"todoListPendingCountSeconds.sol\":1887:1890  i++ */\n      dup1\n      dup1\n      tag_199\n      swap1\n      tag_118\n      jump\t// in\n    tag_199:\n      swap2\n      pop\n      pop\n        /* \"todoListPendingCountSeconds.sol\":1841:1940  for (uint256 i = index; i < todos.length - 1; i++) {... */\n      jump(tag_187)\n    tag_188:\n      pop\n        /* \"todoListPendingCountSeconds.sol\":1949:1954  todos */\n      0x00\n        /* \"todoListPendingCountSeconds.sol\":1949:1960  todos.pop() */\n      dup1\n      sload\n      dup1\n      tag_200\n      jumpi\n      tag_201\n      tag_121\n      jump\t// in\n    tag_201:\n    tag_200:\n      0x01\n      swap1\n      sub\n      dup2\n      dup2\n      swap1\n      0x00\n      mstore\n      keccak256(0x00, 0x20)\n      swap1\n      0x03\n      mul\n      add\n      0x00\n      dup1\n      dup3\n      add\n      0x00\n      tag_203\n      swap2\n      swap1\n      tag_124\n      jump\t// in\n    tag_203:\n      0x01\n      dup3\n      add\n      0x00\n      swap1\n      sstore\n      0x02\n      dup3\n      add\n      exp(0x0100, 0x00)\n      dup2\n      sload\n      swap1\n      0xff\n      mul\n      not\n      and\n      swap1\n      sstore\n      pop\n      pop\n      swap1\n      sstore\n        /* \"todoListPendingCountSeconds.sol\":1780:1967  function deleteTodoByIndex(uint256 index) external {... */\n      pop\n      jump\t// out\n        /* \"todoListPendingCountSeconds.sol\":817:1331  function setPending(uint256 index) external {... */\n    tag_69:\n        /* \"todoListPendingCountSeconds.sol\":871:894  Todo memory pendingTodo */\n      0x00\n        /* \"todoListPendingCountSeconds.sol\":897:902  todos */\n      dup1\n        /* \"todoListPendingCountSeconds.sol\":903:908  index */\n      dup3\n        /* \"todoListPendingCountSeconds.sol\":897:909  todos[index] */\n      dup2\n      sload\n      dup2\n      lt\n      tag_205\n      jumpi\n      tag_206\n      tag_96\n      jump\t// in\n    tag_206:\n    tag_205:\n      swap1\n      0x00\n      mstore\n      keccak256(0x00, 0x20)\n      swap1\n      0x03\n      mul\n      add\n        /* \"todoListPendingCountSeconds.sol\":871:909  Todo memory pendingTodo = todos[index] */\n      mload(0x40)\n      dup1\n      0x60\n      add\n      0x40\n      mstore\n      swap1\n      dup2\n      0x00\n      dup3\n      add\n      dup1\n      sload\n      tag_208\n      swap1\n      tag_131\n      jump\t// in\n    tag_208:\n      dup1\n      0x1f\n      add\n      0x20\n      dup1\n      swap2\n      div\n      mul\n      0x20\n      add\n      mload(0x40)\n      swap1\n      dup2\n      add\n      0x40\n      mstore\n      dup1\n      swap3\n      swap2\n      swap1\n      dup2\n      dup2\n      mstore\n      0x20\n      add\n      dup3\n      dup1\n      sload\n      tag_209\n      swap1\n      tag_131\n      jump\t// in\n    tag_209:\n      dup1\n      iszero\n      tag_210\n      jumpi\n      dup1\n      0x1f\n      lt\n      tag_211\n      jumpi\n      0x0100\n      dup1\n      dup4\n      sload\n      div\n      mul\n      dup4\n      mstore\n      swap2\n      0x20\n      add\n      swap2\n      jump(tag_210)\n    tag_211:\n      dup3\n      add\n      swap2\n      swap1\n      0x00\n      mstore\n      keccak256(0x00, 0x20)\n      swap1\n    tag_212:\n      dup2\n      sload\n      dup2\n      mstore\n      swap1\n      0x01\n      add\n      swap1\n      0x20\n      add\n      dup1\n      dup4\n      gt\n      tag_212\n      jumpi\n      dup3\n      swap1\n      sub\n      0x1f\n      and\n      dup3\n      add\n      swap2\n    tag_210:\n      pop\n      pop\n      pop\n      pop\n      pop\n      dup2\n      mstore\n      0x20\n      add\n      0x01\n      dup3\n      add\n      sload\n      dup2\n      mstore\n      0x20\n      add\n      0x02\n      dup3\n      add\n      0x00\n      swap1\n      sload\n      swap1\n      0x0100\n      exp\n      swap1\n      div\n      0xff\n      and\n      iszero\n      iszero\n      iszero\n      iszero\n      dup2\n      mstore\n      pop\n      pop\n      swap1\n      pop\n        /* \"todoListPendingCountSeconds.sol\":929:940  pendingTodo */\n      dup1\n        /* \"todoListPendingCountSeconds.sol\":929:950  pendingTodo.isPending */\n      0x40\n      add\n      mload\n        /* \"todoListPendingCountSeconds.sol\":928:950  !pendingTodo.isPending */\n      iszero\n        /* \"todoListPendingCountSeconds.sol\":920:978  require(!pendingTodo.isPending, \"Todo is already pending\") */\n      tag_213\n      jumpi\n      mload(0x40)\n      0x08c379a000000000000000000000000000000000000000000000000000000000\n      dup2\n      mstore\n      0x04\n      add\n      tag_214\n      swap1\n      tag_215\n      jump\t// in\n    tag_214:\n      mload(0x40)\n      dup1\n      swap2\n      sub\n      swap1\n      revert\n    tag_213:\n        /* \"todoListPendingCountSeconds.sol\":994:1003  uint256 i */\n      0x00\n        /* \"todoListPendingCountSeconds.sol\":1006:1011  index */\n      dup3\n        /* \"todoListPendingCountSeconds.sol\":994:1011  uint256 i = index */\n      swap1\n      pop\n        /* \"todoListPendingCountSeconds.sol\":989:1088  for (uint256 i = index; i < todos.length - 1; i++) {... */\n    tag_216:\n        /* \"todoListPendingCountSeconds.sol\":1032:1033  1 */\n      0x01\n        /* \"todoListPendingCountSeconds.sol\":1017:1022  todos */\n      0x00\n        /* \"todoListPendingCountSeconds.sol\":1017:1029  todos.length */\n      dup1\n      sload\n      swap1\n      pop\n        /* \"todoListPendingCountSeconds.sol\":1017:1033  todos.length - 1 */\n      tag_219\n      swap2\n      swap1\n      tag_99\n      jump\t// in\n    tag_219:\n        /* \"todoListPendingCountSeconds.sol\":1013:1014  i */\n      dup2\n        /* \"todoListPendingCountSeconds.sol\":1013:1033  i < todos.length - 1 */\n      lt\n        /* \"todoListPendingCountSeconds.sol\":989:1088  for (uint256 i = index; i < todos.length - 1; i++) {... */\n      iszero\n      tag_217\n      jumpi\n        /* \"todoListPendingCountSeconds.sol\":1065:1070  todos */\n      0x00\n        /* \"todoListPendingCountSeconds.sol\":1075:1076  1 */\n      0x01\n        /* \"todoListPendingCountSeconds.sol\":1071:1072  i */\n      dup3\n        /* \"todoListPendingCountSeconds.sol\":1071:1076  i + 1 */\n      tag_220\n      swap2\n      swap1\n      tag_108\n      jump\t// in\n    tag_220:\n        /* \"todoListPendingCountSeconds.sol\":1065:1077  todos[i + 1] */\n      dup2\n      sload\n      dup2\n      lt\n      tag_221\n      jumpi\n      tag_222\n      tag_96\n      jump\t// in\n    tag_222:\n    tag_221:\n      swap1\n      0x00\n      mstore\n      keccak256(0x00, 0x20)\n      swap1\n      0x03\n      mul\n      add\n        /* \"todoListPendingCountSeconds.sol\":1054:1059  todos */\n      0x00\n        /* \"todoListPendingCountSeconds.sol\":1060:1061  i */\n      dup3\n        /* \"todoListPendingCountSeconds.sol\":1054:1062  todos[i] */\n      dup2\n      sload\n      dup2\n      lt\n      tag_224\n      jumpi\n      tag_225\n      tag_96\n      jump\t// in\n    tag_225:\n    tag_224:\n      swap1\n      0x00\n      mstore\n      keccak256(0x00, 0x20)\n      swap1\n      0x03\n      mul\n      add\n        /* \"todoListPendingCountSeconds.sol\":1054:1077  todos[i] = todos[i + 1] */\n      0x00\n      dup3\n      add\n      dup2\n      0x00\n      add\n      swap1\n      dup2\n      tag_227\n      swap2\n      swap1\n      tag_116\n      jump\t// in\n    tag_227:\n      pop\n      0x01\n      dup3\n      add\n      sload\n      dup2\n      0x01\n      add\n      sstore\n      0x02\n      dup3\n      add\n      0x00\n      swap1\n      sload\n      swap1\n      0x0100\n      exp\n      swap1\n      div\n      0xff\n      and\n      dup2\n      0x02\n      add\n      exp(0x0100, 0x00)\n      dup2\n      sload\n      dup2\n      0xff\n      mul\n      not\n      and\n      swap1\n      dup4\n      iszero\n      iszero\n      mul\n      or\n      swap1\n      sstore\n      pop\n      swap1\n      pop\n      pop\n        /* \"todoListPendingCountSeconds.sol\":1035:1038  i++ */\n      dup1\n      dup1\n      tag_228\n      swap1\n      tag_118\n      jump\t// in\n    tag_228:\n      swap2\n      pop\n      pop\n        /* \"todoListPendingCountSeconds.sol\":989:1088  for (uint256 i = index; i < todos.length - 1; i++) {... */\n      jump(tag_216)\n    tag_217:\n      pop\n        /* \"todoListPendingCountSeconds.sol\":1097:1102  todos */\n      0x00\n        /* \"todoListPendingCountSeconds.sol\":1097:1108  todos.pop() */\n      dup1\n      sload\n      dup1\n      tag_229\n      jumpi\n      tag_230\n      tag_121\n      jump\t// in\n    tag_230:\n    tag_229:\n      0x01\n      swap1\n      sub\n      dup2\n      dup2\n      swap1\n      0x00\n      mstore\n      keccak256(0x00, 0x20)\n      swap1\n      0x03\n      mul\n      add\n      0x00\n      dup1\n      dup3\n      add\n      0x00\n      tag_232\n      swap2\n      swap1\n      tag_124\n      jump\t// in\n    tag_232:\n      0x01\n      dup3\n      add\n      0x00\n      swap1\n      sstore\n      0x02\n      dup3\n      add\n      exp(0x0100, 0x00)\n      dup2\n      sload\n      swap1\n      0xff\n      mul\n      not\n      and\n      swap1\n      sstore\n      pop\n      pop\n      swap1\n      sstore\n        /* \"todoListPendingCountSeconds.sol\":303:304  1 */\n      0x01\n        /* \"todoListPendingCountSeconds.sol\":1141:1152  pendingTodo */\n      dup2\n        /* \"todoListPendingCountSeconds.sol\":1141:1163  pendingTodo.createTime */\n      0x20\n      add\n      mload\n        /* \"todoListPendingCountSeconds.sol\":1123:1138  block.timestamp */\n      timestamp\n        /* \"todoListPendingCountSeconds.sol\":1123:1163  block.timestamp - pendingTodo.createTime */\n      tag_233\n      swap2\n      swap1\n      tag_99\n      jump\t// in\n    tag_233:\n        /* \"todoListPendingCountSeconds.sol\":1123:1167  block.timestamp - pendingTodo.createTime > n */\n      gt\n        /* \"todoListPendingCountSeconds.sol\":1119:1325  if (block.timestamp - pendingTodo.createTime > n) {... */\n      iszero\n      tag_234\n      jumpi\n        /* \"todoListPendingCountSeconds.sol\":1183:1194  todoPending */\n      0x02\n        /* \"todoListPendingCountSeconds.sol\":1200:1211  pendingTodo */\n      dup2\n        /* \"todoListPendingCountSeconds.sol\":1183:1212  todoPending.push(pendingTodo) */\n      swap1\n      dup1\n      0x01\n      dup2\n      sload\n      add\n      dup1\n      dup3\n      sstore\n      dup1\n      swap2\n      pop\n      pop\n      0x01\n      swap1\n      sub\n      swap1\n      0x00\n      mstore\n      keccak256(0x00, 0x20)\n      swap1\n      0x03\n      mul\n      add\n      0x00\n      swap1\n      swap2\n      swap1\n      swap2\n      swap1\n      swap2\n      pop\n      0x00\n      dup3\n      add\n      mload\n      dup2\n      0x00\n      add\n      swap1\n      dup2\n      tag_236\n      swap2\n      swap1\n      tag_139\n      jump\t// in\n    tag_236:\n      pop\n      0x20\n      dup3\n      add\n      mload\n      dup2\n      0x01\n      add\n      sstore\n      0x40\n      dup3\n      add\n      mload\n      dup2\n      0x02\n      add\n      exp(0x0100, 0x00)\n      dup2\n      sload\n      dup2\n      0xff\n      mul\n      not\n      and\n      swap1\n      dup4\n      iszero\n      iszero\n      mul\n      or\n      swap1\n      sstore\n      pop\n      pop\n      pop\n        /* \"todoListPendingCountSeconds.sol\":1119:1325  if (block.timestamp - pendingTodo.createTime > n) {... */\n      jump(tag_237)\n    tag_234:\n        /* \"todoListPendingCountSeconds.sol\":1267:1271  true */\n      0x01\n        /* \"todoListPendingCountSeconds.sol\":1243:1254  pendingTodo */\n      dup2\n        /* \"todoListPendingCountSeconds.sol\":1243:1264  pendingTodo.isPending */\n      0x40\n      add\n        /* \"todoListPendingCountSeconds.sol\":1243:1271  pendingTodo.isPending = true */\n      swap1\n      iszero\n      iszero\n      swap1\n      dup2\n      iszero\n      iszero\n      dup2\n      mstore\n      pop\n      pop\n        /* \"todoListPendingCountSeconds.sol\":1285:1296  todoPending */\n      0x02\n        /* \"todoListPendingCountSeconds.sol\":1302:1313  pendingTodo */\n      dup2\n        /* \"todoListPendingCountSeconds.sol\":1285:1314  todoPending.push(pendingTodo) */\n      swap1\n      dup1\n      0x01\n      dup2\n      sload\n      add\n      dup1\n      dup3\n      sstore\n      dup1\n      swap2\n      pop\n      pop\n      0x01\n      swap1\n      sub\n      swap1\n      0x00\n      mstore\n      keccak256(0x00, 0x20)\n      swap1\n      0x03\n      mul\n      add\n      0x00\n      swap1\n      swap2\n      swap1\n      swap2\n      swap1\n      swap2\n      pop\n      0x00\n      dup3\n      add\n      mload\n      dup2\n      0x00\n      add\n      swap1\n      dup2\n      tag_239\n      swap2\n      swap1\n      tag_139\n      jump\t// in\n    tag_239:\n      pop\n      0x20\n      dup3\n      add\n      mload\n      dup2\n      0x01\n      add\n      sstore\n      0x40\n      dup3\n      add\n      mload\n      dup2\n      0x02\n      add\n      exp(0x0100, 0x00)\n      dup2\n      sload\n      dup2\n      0xff\n      mul\n      not\n      and\n      swap1\n      dup4\n      iszero\n      iszero\n      mul\n      or\n      swap1\n      sstore\n      pop\n      pop\n      pop\n        /* \"todoListPendingCountSeconds.sol\":1119:1325  if (block.timestamp - pendingTodo.createTime > n) {... */\n    tag_237:\n        /* \"todoListPendingCountSeconds.sol\":861:1331  {... */\n      pop\n        /* \"todoListPendingCountSeconds.sol\":817:1331  function setPending(uint256 index) external {... */\n      pop\n      jump\t// out\n        /* \"todoListPendingCountSeconds.sol\":1653:1774  function getTodoByIndex(uint256 index) external view returns (string memory) {... */\n    tag_72:\n        /* \"todoListPendingCountSeconds.sol\":1715:1728  string memory */\n      0x60\n        /* \"todoListPendingCountSeconds.sol\":1747:1752  todos */\n      0x00\n        /* \"todoListPendingCountSeconds.sol\":1753:1758  index */\n      dup3\n        /* \"todoListPendingCountSeconds.sol\":1747:1759  todos[index] */\n      dup2\n      sload\n      dup2\n      lt\n      tag_241\n      jumpi\n      tag_242\n      tag_96\n      jump\t// in\n    tag_242:\n    tag_241:\n      swap1\n      0x00\n      mstore\n      keccak256(0x00, 0x20)\n      swap1\n      0x03\n      mul\n      add\n        /* \"todoListPendingCountSeconds.sol\":1747:1767  todos[index].content */\n      0x00\n      add\n        /* \"todoListPendingCountSeconds.sol\":1740:1767  return todos[index].content */\n      dup1\n      sload\n      tag_244\n      swap1\n      tag_131\n      jump\t// in\n    tag_244:\n      dup1\n      0x1f\n      add\n      0x20\n      dup1\n      swap2\n      div\n      mul\n      0x20\n      add\n      mload(0x40)\n      swap1\n      dup2\n      add\n      0x40\n      mstore\n      dup1\n      swap3\n      swap2\n      swap1\n      dup2\n      dup2\n      mstore\n      0x20\n      add\n      dup3\n      dup1\n      sload\n      tag_245\n      swap1\n      tag_131\n      jump\t// in\n    tag_245:\n      dup1\n      iszero\n      tag_246\n      jumpi\n      dup1\n      0x1f\n      lt\n      tag_247\n      jumpi\n      0x0100\n      dup1\n      dup4\n      sload\n      div\n      mul\n      dup4\n      mstore\n      swap2\n      0x20\n      add\n      swap2\n      jump(tag_246)\n    tag_247:\n      dup3\n      add\n      swap2\n      swap1\n      0x00\n      mstore\n      keccak256(0x00, 0x20)\n      swap1\n    tag_248:\n      dup2\n      sload\n      dup2\n      mstore\n      swap1\n      0x01\n      add\n      swap1\n      0x20\n      add\n      dup1\n      dup4\n      gt\n      tag_248\n      jumpi\n      dup3\n      swap1\n      sub\n      0x1f\n      and\n      dup3\n      add\n      swap2\n    tag_246:\n      pop\n      pop\n      pop\n      pop\n      pop\n      swap1\n      pop\n        /* \"todoListPendingCountSeconds.sol\":1653:1774  function getTodoByIndex(uint256 index) external view returns (string memory) {... */\n      swap2\n      swap1\n      pop\n      jump\t// out\n        /* \"todoListPendingCountSeconds.sol\":1546:1647  function getPendingCount() external view returns (uint256) {... */\n    tag_75:\n        /* \"todoListPendingCountSeconds.sol\":1596:1603  uint256 */\n      0x00\n        /* \"todoListPendingCountSeconds.sol\":1622:1633  todoPending */\n      0x02\n        /* \"todoListPendingCountSeconds.sol\":1622:1640  todoPending.length */\n      dup1\n      sload\n      swap1\n      pop\n        /* \"todoListPendingCountSeconds.sol\":1615:1640  return todoPending.length */\n      swap1\n      pop\n        /* \"todoListPendingCountSeconds.sol\":1546:1647  function getPendingCount() external view returns (uint256) {... */\n      swap1\n      jump\t// out\n        /* \"todoListPendingCountSeconds.sol\":2513:2800  function getAllCompleted() external view returns (string[] memory) {... */\n    tag_78:\n        /* \"todoListPendingCountSeconds.sol\":2563:2578  string[] memory */\n      0x60\n        /* \"todoListPendingCountSeconds.sol\":2590:2612  string[] memory result */\n      0x00\n        /* \"todoListPendingCountSeconds.sol\":2628:2641  todoCompleted */\n      0x01\n        /* \"todoListPendingCountSeconds.sol\":2628:2648  todoCompleted.length */\n      dup1\n      sload\n      swap1\n      pop\n        /* \"todoListPendingCountSeconds.sol\":2615:2649  new string[](todoCompleted.length) */\n      0xffffffffffffffff\n      dup2\n      gt\n      iszero\n      tag_251\n      jumpi\n      tag_252\n      tag_143\n      jump\t// in\n    tag_252:\n    tag_251:\n      mload(0x40)\n      swap1\n      dup1\n      dup3\n      mstore\n      dup1\n      0x20\n      mul\n      0x20\n      add\n      dup3\n      add\n      0x40\n      mstore\n      dup1\n      iszero\n      tag_253\n      jumpi\n      dup2\n      0x20\n      add\n    tag_254:\n      0x60\n      dup2\n      mstore\n      0x20\n      add\n      swap1\n      0x01\n      swap1\n      sub\n      swap1\n      dup2\n      tag_254\n      jumpi\n      swap1\n      pop\n    tag_253:\n      pop\n        /* \"todoListPendingCountSeconds.sol\":2590:2649  string[] memory result = new string[](todoCompleted.length) */\n      swap1\n      pop\n        /* \"todoListPendingCountSeconds.sol\":2664:2673  uint256 i */\n      0x00\n        /* \"todoListPendingCountSeconds.sol\":2659:2771  for (uint256 i = 0; i < todoCompleted.length; i++) {... */\n    tag_255:\n        /* \"todoListPendingCountSeconds.sol\":2683:2696  todoCompleted */\n      0x01\n        /* \"todoListPendingCountSeconds.sol\":2683:2703  todoCompleted.length */\n      dup1\n      sload\n      swap1\n      pop\n        /* \"todoListPendingCountSeconds.sol\":2679:2680  i */\n      dup2\n        /* \"todoListPendingCountSeconds.sol\":2679:2703  i < todoCompleted.length */\n      lt\n        /* \"todoListPendingCountSeconds.sol\":2659:2771  for (uint256 i = 0; i < todoCompleted.length; i++) {... */\n      iszero\n      tag_256\n      jumpi\n        /* \"todoListPendingCountSeconds.sol\":2736:2749  todoCompleted */\n      0x01\n        /* \"todoListPendingCountSeconds.sol\":2750:2751  i */\n      dup2\n        /* \"todoListPendingCountSeconds.sol\":2736:2752  todoCompleted[i] */\n      dup2\n      sload\n      dup2\n      lt\n      tag_258\n      jumpi\n      tag_259\n      tag_96\n      jump\t// in\n    tag_259:\n    tag_258:\n      swap1\n      0x00\n      mstore\n      keccak256(0x00, 0x20)\n      swap1\n      0x03\n      mul\n      add\n        /* \"todoListPendingCountSeconds.sol\":2736:2760  todoCompleted[i].content */\n      0x00\n      add\n        /* \"todoListPendingCountSeconds.sol\":2724:2760  result[i] = todoCompleted[i].content */\n      dup1\n      sload\n      tag_261\n      swap1\n      tag_131\n      jump\t// in\n    tag_261:\n      dup1\n      0x1f\n      add\n      0x20\n      dup1\n      swap2\n      div\n      mul\n      0x20\n      add\n      mload(0x40)\n      swap1\n      dup2\n      add\n      0x40\n      mstore\n      dup1\n      swap3\n      swap2\n      swap1\n      dup2\n      dup2\n      mstore\n      0x20\n      add\n      dup3\n      dup1\n      sload\n      tag_262\n      swap1\n      tag_131\n      jump\t// in\n    tag_262:\n      dup1\n      iszero\n      tag_263\n      jumpi\n      dup1\n      0x1f\n      lt\n      tag_264\n      jumpi\n      0x0100\n      dup1\n      dup4\n      sload\n      div\n      mul\n      dup4\n      mstore\n      swap2\n      0x20\n      add\n      swap2\n      jump(tag_263)\n    tag_264:\n      dup3\n      add\n      swap2\n      swap1\n      0x00\n      mstore\n      keccak256(0x00, 0x20)\n      swap1\n    tag_265:\n      dup2\n      sload\n      dup2\n      mstore\n      swap1\n      0x01\n      add\n      swap1\n      0x20\n      add\n      dup1\n      dup4\n      gt\n      tag_265\n      jumpi\n      dup3\n      swap1\n      sub\n      0x1f\n      and\n      dup3\n      add\n      swap2\n    tag_263:\n      pop\n      pop\n      pop\n      pop\n      pop\n        /* \"todoListPendingCountSeconds.sol\":2724:2730  result */\n      dup3\n        /* \"todoListPendingCountSeconds.sol\":2731:2732  i */\n      dup3\n        /* \"todoListPendingCountSeconds.sol\":2724:2733  result[i] */\n      dup2\n      mload\n      dup2\n      lt\n      tag_266\n      jumpi\n      tag_267\n      tag_96\n      jump\t// in\n    tag_267:\n    tag_266:\n      0x20\n      mul\n      0x20\n      add\n      add\n        /* \"todoListPendingCountSeconds.sol\":2724:2760  result[i] = todoCompleted[i].content */\n      dup2\n      swap1\n      mstore\n      pop\n        /* \"todoListPendingCountSeconds.sol\":2705:2708  i++ */\n      dup1\n      dup1\n      tag_268\n      swap1\n      tag_118\n      jump\t// in\n    tag_268:\n      swap2\n      pop\n      pop\n        /* \"todoListPendingCountSeconds.sol\":2659:2771  for (uint256 i = 0; i < todoCompleted.length; i++) {... */\n      jump(tag_255)\n    tag_256:\n      pop\n        /* \"todoListPendingCountSeconds.sol\":2787:2793  result */\n      dup1\n        /* \"todoListPendingCountSeconds.sol\":2780:2793  return result */\n      swap2\n      pop\n      pop\n        /* \"todoListPendingCountSeconds.sol\":2513:2800  function getAllCompleted() external view returns (string[] memory) {... */\n      swap1\n      jump\t// out\n        /* \"todoListPendingCountSeconds.sol\":2806:3085  function getAllPending() external view returns (string[] memory) {... */\n    tag_81:\n        /* \"todoListPendingCountSeconds.sol\":2854:2869  string[] memory */\n      0x60\n        /* \"todoListPendingCountSeconds.sol\":2881:2903  string[] memory result */\n      0x00\n        /* \"todoListPendingCountSeconds.sol\":2919:2930  todoPending */\n      0x02\n        /* \"todoListPendingCountSeconds.sol\":2919:2937  todoPending.length */\n      dup1\n      sload\n      swap1\n      pop\n        /* \"todoListPendingCountSeconds.sol\":2906:2938  new string[](todoPending.length) */\n      0xffffffffffffffff\n      dup2\n      gt\n      iszero\n      tag_270\n      jumpi\n      tag_271\n      tag_143\n      jump\t// in\n    tag_271:\n    tag_270:\n      mload(0x40)\n      swap1\n      dup1\n      dup3\n      mstore\n      dup1\n      0x20\n      mul\n      0x20\n      add\n      dup3\n      add\n      0x40\n      mstore\n      dup1\n      iszero\n      tag_272\n      jumpi\n      dup2\n      0x20\n      add\n    tag_273:\n      0x60\n      dup2\n      mstore\n      0x20\n      add\n      swap1\n      0x01\n      swap1\n      sub\n      swap1\n      dup2\n      tag_273\n      jumpi\n      swap1\n      pop\n    tag_272:\n      pop\n        /* \"todoListPendingCountSeconds.sol\":2881:2938  string[] memory result = new string[](todoPending.length) */\n      swap1\n      pop\n        /* \"todoListPendingCountSeconds.sol\":2953:2962  uint256 i */\n      0x00\n        /* \"todoListPendingCountSeconds.sol\":2948:3056  for (uint256 i = 0; i < todoPending.length; i++) {... */\n    tag_274:\n        /* \"todoListPendingCountSeconds.sol\":2972:2983  todoPending */\n      0x02\n        /* \"todoListPendingCountSeconds.sol\":2972:2990  todoPending.length */\n      dup1\n      sload\n      swap1\n      pop\n        /* \"todoListPendingCountSeconds.sol\":2968:2969  i */\n      dup2\n        /* \"todoListPendingCountSeconds.sol\":2968:2990  i < todoPending.length */\n      lt\n        /* \"todoListPendingCountSeconds.sol\":2948:3056  for (uint256 i = 0; i < todoPending.length; i++) {... */\n      iszero\n      tag_275\n      jumpi\n        /* \"todoListPendingCountSeconds.sol\":3023:3034  todoPending */\n      0x02\n        /* \"todoListPendingCountSeconds.sol\":3035:3036  i */\n      dup2\n        /* \"todoListPendingCountSeconds.sol\":3023:3037  todoPending[i] */\n      dup2\n      sload\n      dup2\n      lt\n      tag_277\n      jumpi\n      tag_278\n      tag_96\n      jump\t// in\n    tag_278:\n    tag_277:\n      swap1\n      0x00\n      mstore\n      keccak256(0x00, 0x20)\n      swap1\n      0x03\n      mul\n      add\n        /* \"todoListPendingCountSeconds.sol\":3023:3045  todoPending[i].content */\n      0x00\n      add\n        /* \"todoListPendingCountSeconds.sol\":3011:3045  result[i] = todoPending[i].content */\n      dup1\n      sload\n      tag_280\n      swap1\n      tag_131\n      jump\t// in\n    tag_280:\n      dup1\n      0x1f\n      add\n      0x20\n      dup1\n      swap2\n      div\n      mul\n      0x20\n      add\n      mload(0x40)\n      swap1\n      dup2\n      add\n      0x40\n      mstore\n      dup1\n      swap3\n      swap2\n      swap1\n      dup2\n      dup2\n      mstore\n      0x20\n      add\n      dup3\n      dup1\n      sload\n      tag_281\n      swap1\n      tag_131\n      jump\t// in\n    tag_281:\n      dup1\n      iszero\n      tag_282\n      jumpi\n      dup1\n      0x1f\n      lt\n      tag_283\n      jumpi\n      0x0100\n      dup1\n      dup4\n      sload\n      div\n      mul\n      dup4\n      mstore\n      swap2\n      0x20\n      add\n      swap2\n      jump(tag_282)\n    tag_283:\n      dup3\n      add\n      swap2\n      swap1\n      0x00\n      mstore\n      keccak256(0x00, 0x20)\n      swap1\n    tag_284:\n      dup2\n      sload\n      dup2\n      mstore\n      swap1\n      0x01\n      add\n      swap1\n      0x20\n      add\n      dup1\n      dup4\n      gt\n      tag_284\n      jumpi\n      dup3\n      swap1\n      sub\n      0x1f\n      and\n      dup3\n      add\n      swap2\n    tag_282:\n      pop\n      pop\n      pop\n      pop\n      pop\n        /* \"todoListPendingCountSeconds.sol\":3011:3017  result */\n      dup3\n        /* \"todoListPendingCountSeconds.sol\":3018:3019  i */\n      dup3\n        /* \"todoListPendingCountSeconds.sol\":3011:3020  result[i] */\n      dup2\n      mload\n      dup2\n      lt\n      tag_285\n      jumpi\n      tag_286\n      tag_96\n      jump\t// in\n    tag_286:\n    tag_285:\n      0x20\n      mul\n      0x20\n      add\n      add\n        /* \"todoListPendingCountSeconds.sol\":3011:3045  result[i] = todoPending[i].content */\n      dup2\n      swap1\n      mstore\n      pop\n        /* \"todoListPendingCountSeconds.sol\":2992:2995  i++ */\n      dup1\n      dup1\n      tag_287\n      swap1\n      tag_118\n      jump\t// in\n    tag_287:\n      swap2\n      pop\n      pop\n        /* \"todoListPendingCountSeconds.sol\":2948:3056  for (uint256 i = 0; i < todoPending.length; i++) {... */\n      jump(tag_274)\n    tag_275:\n      pop\n        /* \"todoListPendingCountSeconds.sol\":3072:3078  result */\n      dup1\n        /* \"todoListPendingCountSeconds.sol\":3065:3078  return result */\n      swap2\n      pop\n      pop\n        /* \"todoListPendingCountSeconds.sol\":2806:3085  function getAllPending() external view returns (string[] memory) {... */\n      swap1\n      jump\t// out\n        /* \"todoListPendingCountSeconds.sol\":1435:1540  function getCompletedCount() external view returns (uint256) {... */\n    tag_84:\n        /* \"todoListPendingCountSeconds.sol\":1487:1494  uint256 */\n      0x00\n        /* \"todoListPendingCountSeconds.sol\":1513:1526  todoCompleted */\n      0x01\n        /* \"todoListPendingCountSeconds.sol\":1513:1533  todoCompleted.length */\n      dup1\n      sload\n      swap1\n      pop\n        /* \"todoListPendingCountSeconds.sol\":1506:1533  return todoCompleted.length */\n      swap1\n      pop\n        /* \"todoListPendingCountSeconds.sol\":1435:1540  function getCompletedCount() external view returns (uint256) {... */\n      swap1\n      jump\t// out\n        /* \"todoListPendingCountSeconds.sol\":534:811  function setCompleted(uint256 index) external {... */\n    tag_88:\n        /* \"todoListPendingCountSeconds.sol\":590:615  Todo memory completedTodo */\n      0x00\n        /* \"todoListPendingCountSeconds.sol\":618:623  todos */\n      dup1\n        /* \"todoListPendingCountSeconds.sol\":624:629  index */\n      dup3\n        /* \"todoListPendingCountSeconds.sol\":618:630  todos[index] */\n      dup2\n      sload\n      dup2\n      lt\n      tag_290\n      jumpi\n      tag_291\n      tag_96\n      jump\t// in\n    tag_291:\n    tag_290:\n      swap1\n      0x00\n      mstore\n      keccak256(0x00, 0x20)\n      swap1\n      0x03\n      mul\n      add\n        /* \"todoListPendingCountSeconds.sol\":590:630  Todo memory completedTodo = todos[index] */\n      mload(0x40)\n      dup1\n      0x60\n      add\n      0x40\n      mstore\n      swap1\n      dup2\n      0x00\n      dup3\n      add\n      dup1\n      sload\n      tag_293\n      swap1\n      tag_131\n      jump\t// in\n    tag_293:\n      dup1\n      0x1f\n      add\n      0x20\n      dup1\n      swap2\n      div\n      mul\n      0x20\n      add\n      mload(0x40)\n      swap1\n      dup2\n      add\n      0x40\n      mstore\n      dup1\n      swap3\n      swap2\n      swap1\n      dup2\n      dup2\n      mstore\n      0x20\n      add\n      dup3\n      dup1\n      sload\n      tag_294\n      swap1\n      tag_131\n      jump\t// in\n    tag_294:\n      dup1\n      iszero\n      tag_295\n      jumpi\n      dup1\n      0x1f\n      lt\n      tag_296\n      jumpi\n      0x0100\n      dup1\n      dup4\n      sload\n      div\n      mul\n      dup4\n      mstore\n      swap2\n      0x20\n      add\n      swap2\n      jump(tag_295)\n    tag_296:\n      dup3\n      add\n      swap2\n      swap1\n      0x00\n      mstore\n      keccak256(0x00, 0x20)\n      swap1\n    tag_297:\n      dup2\n      sload\n      dup2\n      mstore\n      swap1\n      0x01\n      add\n      swap1\n      0x20\n      add\n      dup1\n      dup4\n      gt\n      tag_297\n      jumpi\n      dup3\n      swap1\n      sub\n      0x1f\n      and\n      dup3\n      add\n      swap2\n    tag_295:\n      pop\n      pop\n      pop\n      pop\n      pop\n      dup2\n      mstore\n      0x20\n      add\n      0x01\n      dup3\n      add\n      sload\n      dup2\n      mstore\n      0x20\n      add\n      0x02\n      dup3\n      add\n      0x00\n      swap1\n      sload\n      swap1\n      0x0100\n      exp\n      swap1\n      div\n      0xff\n      and\n      iszero\n      iszero\n      iszero\n      iszero\n      dup2\n      mstore\n      pop\n      pop\n      swap1\n      pop\n        /* \"todoListPendingCountSeconds.sol\":646:655  uint256 i */\n      0x00\n        /* \"todoListPendingCountSeconds.sol\":658:663  index */\n      dup3\n        /* \"todoListPendingCountSeconds.sol\":646:663  uint256 i = index */\n      swap1\n      pop\n        /* \"todoListPendingCountSeconds.sol\":641:740  for (uint256 i = index; i < todos.length - 1; i++) {... */\n    tag_298:\n        /* \"todoListPendingCountSeconds.sol\":684:685  1 */\n      0x01\n        /* \"todoListPendingCountSeconds.sol\":669:674  todos */\n      0x00\n        /* \"todoListPendingCountSeconds.sol\":669:681  todos.length */\n      dup1\n      sload\n      swap1\n      pop\n        /* \"todoListPendingCountSeconds.sol\":669:685  todos.length - 1 */\n      tag_301\n      swap2\n      swap1\n      tag_99\n      jump\t// in\n    tag_301:\n        /* \"todoListPendingCountSeconds.sol\":665:666  i */\n      dup2\n        /* \"todoListPendingCountSeconds.sol\":665:685  i < todos.length - 1 */\n      lt\n        /* \"todoListPendingCountSeconds.sol\":641:740  for (uint256 i = index; i < todos.length - 1; i++) {... */\n      iszero\n      tag_299\n      jumpi\n        /* \"todoListPendingCountSeconds.sol\":717:722  todos */\n      0x00\n        /* \"todoListPendingCountSeconds.sol\":727:728  1 */\n      0x01\n        /* \"todoListPendingCountSeconds.sol\":723:724  i */\n      dup3\n        /* \"todoListPendingCountSeconds.sol\":723:728  i + 1 */\n      tag_302\n      swap2\n      swap1\n      tag_108\n      jump\t// in\n    tag_302:\n        /* \"todoListPendingCountSeconds.sol\":717:729  todos[i + 1] */\n      dup2\n      sload\n      dup2\n      lt\n      tag_303\n      jumpi\n      tag_304\n      tag_96\n      jump\t// in\n    tag_304:\n    tag_303:\n      swap1\n      0x00\n      mstore\n      keccak256(0x00, 0x20)\n      swap1\n      0x03\n      mul\n      add\n        /* \"todoListPendingCountSeconds.sol\":706:711  todos */\n      0x00\n        /* \"todoListPendingCountSeconds.sol\":712:713  i */\n      dup3\n        /* \"todoListPendingCountSeconds.sol\":706:714  todos[i] */\n      dup2\n      sload\n      dup2\n      lt\n      tag_306\n      jumpi\n      tag_307\n      tag_96\n      jump\t// in\n    tag_307:\n    tag_306:\n      swap1\n      0x00\n      mstore\n      keccak256(0x00, 0x20)\n      swap1\n      0x03\n      mul\n      add\n        /* \"todoListPendingCountSeconds.sol\":706:729  todos[i] = todos[i + 1] */\n      0x00\n      dup3\n      add\n      dup2\n      0x00\n      add\n      swap1\n      dup2\n      tag_309\n      swap2\n      swap1\n      tag_116\n      jump\t// in\n    tag_309:\n      pop\n      0x01\n      dup3\n      add\n      sload\n      dup2\n      0x01\n      add\n      sstore\n      0x02\n      dup3\n      add\n      0x00\n      swap1\n      sload\n      swap1\n      0x0100\n      exp\n      swap1\n      div\n      0xff\n      and\n      dup2\n      0x02\n      add\n      exp(0x0100, 0x00)\n      dup2\n      sload\n      dup2\n      0xff\n      mul\n      not\n      and\n      swap1\n      dup4\n      iszero\n      iszero\n      mul\n      or\n      swap1\n      sstore\n      pop\n      swap1\n      pop\n      pop\n        /* \"todoListPendingCountSeconds.sol\":687:690  i++ */\n      dup1\n      dup1\n      tag_310\n      swap1\n      tag_118\n      jump\t// in\n    tag_310:\n      swap2\n      pop\n      pop\n        /* \"todoListPendingCountSeconds.sol\":641:740  for (uint256 i = index; i < todos.length - 1; i++) {... */\n      jump(tag_298)\n    tag_299:\n      pop\n        /* \"todoListPendingCountSeconds.sol\":749:754  todos */\n      0x00\n        /* \"todoListPendingCountSeconds.sol\":749:760  todos.pop() */\n      dup1\n      sload\n      dup1\n      tag_311\n      jumpi\n      tag_312\n      tag_121\n      jump\t// in\n    tag_312:\n    tag_311:\n      0x01\n      swap1\n      sub\n      dup2\n      dup2\n      swap1\n      0x00\n      mstore\n      keccak256(0x00, 0x20)\n      swap1\n      0x03\n      mul\n      add\n      0x00\n      dup1\n      dup3\n      add\n      0x00\n      tag_314\n      swap2\n      swap1\n      tag_124\n      jump\t// in\n    tag_314:\n      0x01\n      dup3\n      add\n      0x00\n      swap1\n      sstore\n      0x02\n      dup3\n      add\n      exp(0x0100, 0x00)\n      dup2\n      sload\n      swap1\n      0xff\n      mul\n      not\n      and\n      swap1\n      sstore\n      pop\n      pop\n      swap1\n      sstore\n        /* \"todoListPendingCountSeconds.sol\":771:784  todoCompleted */\n      0x01\n        /* \"todoListPendingCountSeconds.sol\":790:803  completedTodo */\n      dup2\n        /* \"todoListPendingCountSeconds.sol\":771:804  todoCompleted.push(completedTodo) */\n      swap1\n      dup1\n      0x01\n      dup2\n      sload\n      add\n      dup1\n      dup3\n      sstore\n      dup1\n      swap2\n      pop\n      pop\n      0x01\n      swap1\n      sub\n      swap1\n      0x00\n      mstore\n      keccak256(0x00, 0x20)\n      swap1\n      0x03\n      mul\n      add\n      0x00\n      swap1\n      swap2\n      swap1\n      swap2\n      swap1\n      swap2\n      pop\n      0x00\n      dup3\n      add\n      mload\n      dup2\n      0x00\n      add\n      swap1\n      dup2\n      tag_316\n      swap2\n      swap1\n      tag_139\n      jump\t// in\n    tag_316:\n      pop\n      0x20\n      dup3\n      add\n      mload\n      dup2\n      0x01\n      add\n      sstore\n      0x40\n      dup3\n      add\n      mload\n      dup2\n      0x02\n      add\n      exp(0x0100, 0x00)\n      dup2\n      sload\n      dup2\n      0xff\n      mul\n      not\n      and\n      swap1\n      dup4\n      iszero\n      iszero\n      mul\n      or\n      swap1\n      sstore\n      pop\n      pop\n      pop\n        /* \"todoListPendingCountSeconds.sol\":580:811  {... */\n      pop\n        /* \"todoListPendingCountSeconds.sol\":534:811  function setCompleted(uint256 index) external {... */\n      pop\n      jump\t// out\n        /* \"todoListPendingCountSeconds.sol\":211:238  Todo[] public todoCompleted */\n    tag_91:\n      0x01\n      dup2\n      dup2\n      sload\n      dup2\n      lt\n      tag_317\n      jumpi\n      0x00\n      dup1\n      revert\n    tag_317:\n      swap1\n      0x00\n      mstore\n      keccak256(0x00, 0x20)\n      swap1\n      0x03\n      mul\n      add\n      0x00\n      swap2\n      pop\n      swap1\n      pop\n      dup1\n      0x00\n      add\n      dup1\n      sload\n      tag_319\n      swap1\n      tag_131\n      jump\t// in\n    tag_319:\n      dup1\n      0x1f\n      add\n      0x20\n      dup1\n      swap2\n      div\n      mul\n      0x20\n      add\n      mload(0x40)\n      swap1\n      dup2\n      add\n      0x40\n      mstore\n      dup1\n      swap3\n      swap2\n      swap1\n      dup2\n      dup2\n      mstore\n      0x20\n      add\n      dup3\n      dup1\n      sload\n      tag_320\n      swap1\n      tag_131\n      jump\t// in\n    tag_320:\n      dup1\n      iszero\n      tag_321\n      jumpi\n      dup1\n      0x1f\n      lt\n      tag_322\n      jumpi\n      0x0100\n      dup1\n      dup4\n      sload\n      div\n      mul\n      dup4\n      mstore\n      swap2\n      0x20\n      add\n      swap2\n      jump(tag_321)\n    tag_322:\n      dup3\n      add\n      swap2\n      swap1\n      0x00\n      mstore\n      keccak256(0x00, 0x20)\n      swap1\n    tag_323:\n      dup2\n      sload\n      dup2\n      mstore\n      swap1\n      0x01\n      add\n      swap1\n      0x20\n      add\n      dup1\n      dup4\n      gt\n      tag_323\n      jumpi\n      dup3\n      swap1\n      sub\n      0x1f\n      and\n      dup3\n      add\n      swap2\n    tag_321:\n      pop\n      pop\n      pop\n      pop\n      pop\n      swap1\n      dup1\n      0x01\n      add\n      sload\n      swap1\n      dup1\n      0x02\n      add\n      0x00\n      swap1\n      sload\n      swap1\n      0x0100\n      exp\n      swap1\n      div\n      0xff\n      and\n      swap1\n      pop\n      dup4\n      jump\t// out\n    tag_124:\n      pop\n      dup1\n      sload\n      tag_324\n      swap1\n      tag_131\n      jump\t// in\n    tag_324:\n      0x00\n      dup3\n      sstore\n      dup1\n      0x1f\n      lt\n      tag_326\n      jumpi\n      pop\n      jump(tag_325)\n    tag_326:\n      0x1f\n      add\n      0x20\n      swap1\n      div\n      swap1\n      0x00\n      mstore\n      keccak256(0x00, 0x20)\n      swap1\n      dup2\n      add\n      swap1\n      tag_327\n      swap2\n      swap1\n      tag_328\n      jump\t// in\n    tag_327:\n    tag_325:\n      pop\n      jump\t// out\n    tag_162:\n      pop\n      dup1\n      sload\n      0x00\n      dup3\n      sstore\n      0x03\n      mul\n      swap1\n      0x00\n      mstore\n      keccak256(0x00, 0x20)\n      swap1\n      dup2\n      add\n      swap1\n      tag_330\n      swap2\n      swap1\n      tag_331\n      jump\t// in\n    tag_330:\n      pop\n      jump\t// out\n    tag_328:\n    tag_332:\n      dup1\n      dup3\n      gt\n      iszero\n      tag_333\n      jumpi\n      0x00\n      dup2\n      0x00\n      swap1\n      sstore\n      pop\n      0x01\n      add\n      jump(tag_332)\n    tag_333:\n      pop\n      swap1\n      jump\t// out\n    tag_331:\n    tag_334:\n      dup1\n      dup3\n      gt\n      iszero\n      tag_335\n      jumpi\n      0x00\n      dup1\n      dup3\n      add\n      0x00\n      tag_336\n      swap2\n      swap1\n      tag_124\n      jump\t// in\n    tag_336:\n      0x01\n      dup3\n      add\n      0x00\n      swap1\n      sstore\n      0x02\n      dup3\n      add\n      exp(0x0100, 0x00)\n      dup2\n      sload\n      swap1\n      0xff\n      mul\n      not\n      and\n      swap1\n      sstore\n      pop\n      0x03\n      add\n      jump(tag_334)\n    tag_335:\n      pop\n      swap1\n      jump\t// out\n        /* \"#utility.yul\":7:82   */\n    tag_337:\n        /* \"#utility.yul\":40:46   */\n      0x00\n        /* \"#utility.yul\":73:75   */\n      0x40\n        /* \"#utility.yul\":67:76   */\n      mload\n        /* \"#utility.yul\":57:76   */\n      swap1\n      pop\n        /* \"#utility.yul\":7:82   */\n      swap1\n      jump\t// out\n        /* \"#utility.yul\":88:205   */\n    tag_338:\n        /* \"#utility.yul\":197:198   */\n      0x00\n        /* \"#utility.yul\":194:195   */\n      dup1\n        /* \"#utility.yul\":187:199   */\n      revert\n        /* \"#utility.yul\":211:328   */\n    tag_339:\n        /* \"#utility.yul\":320:321   */\n      0x00\n        /* \"#utility.yul\":317:318   */\n      dup1\n        /* \"#utility.yul\":310:322   */\n      revert\n        /* \"#utility.yul\":334:411   */\n    tag_340:\n        /* \"#utility.yul\":371:378   */\n      0x00\n        /* \"#utility.yul\":400:405   */\n      dup2\n        /* \"#utility.yul\":389:405   */\n      swap1\n      pop\n        /* \"#utility.yul\":334:411   */\n      swap2\n      swap1\n      pop\n      jump\t// out\n        /* \"#utility.yul\":417:539   */\n    tag_341:\n        /* \"#utility.yul\":490:514   */\n      tag_395\n        /* \"#utility.yul\":508:513   */\n      dup2\n        /* \"#utility.yul\":490:514   */\n      tag_340\n      jump\t// in\n    tag_395:\n        /* \"#utility.yul\":483:488   */\n      dup2\n        /* \"#utility.yul\":480:515   */\n      eq\n        /* \"#utility.yul\":470:533   */\n      tag_396\n      jumpi\n        /* \"#utility.yul\":529:530   */\n      0x00\n        /* \"#utility.yul\":526:527   */\n      dup1\n        /* \"#utility.yul\":519:531   */\n      revert\n        /* \"#utility.yul\":470:533   */\n    tag_396:\n        /* \"#utility.yul\":417:539   */\n      pop\n      jump\t// out\n        /* \"#utility.yul\":545:684   */\n    tag_342:\n        /* \"#utility.yul\":591:596   */\n      0x00\n        /* \"#utility.yul\":629:635   */\n      dup2\n        /* \"#utility.yul\":616:636   */\n      calldataload\n        /* \"#utility.yul\":607:636   */\n      swap1\n      pop\n        /* \"#utility.yul\":645:678   */\n      tag_398\n        /* \"#utility.yul\":672:677   */\n      dup2\n        /* \"#utility.yul\":645:678   */\n      tag_341\n      jump\t// in\n    tag_398:\n        /* \"#utility.yul\":545:684   */\n      swap3\n      swap2\n      pop\n      pop\n      jump\t// out\n        /* \"#utility.yul\":690:1019   */\n    tag_27:\n        /* \"#utility.yul\":749:755   */\n      0x00\n        /* \"#utility.yul\":798:800   */\n      0x20\n        /* \"#utility.yul\":786:795   */\n      dup3\n        /* \"#utility.yul\":777:784   */\n      dup5\n        /* \"#utility.yul\":773:796   */\n      sub\n        /* \"#utility.yul\":769:801   */\n      slt\n        /* \"#utility.yul\":766:885   */\n      iszero\n      tag_400\n      jumpi\n        /* \"#utility.yul\":804:883   */\n      tag_401\n      tag_338\n      jump\t// in\n    tag_401:\n        /* \"#utility.yul\":766:885   */\n    tag_400:\n        /* \"#utility.yul\":924:925   */\n      0x00\n        /* \"#utility.yul\":949:1002   */\n      tag_402\n        /* \"#utility.yul\":994:1001   */\n      dup5\n        /* \"#utility.yul\":985:991   */\n      dup3\n        /* \"#utility.yul\":974:983   */\n      dup6\n        /* \"#utility.yul\":970:992   */\n      add\n        /* \"#utility.yul\":949:1002   */\n      tag_342\n      jump\t// in\n    tag_402:\n        /* \"#utility.yul\":939:1002   */\n      swap2\n      pop\n        /* \"#utility.yul\":895:1012   */\n      pop\n        /* \"#utility.yul\":690:1019   */\n      swap3\n      swap2\n      pop\n      pop\n      jump\t// out\n        /* \"#utility.yul\":1025:1143   */\n    tag_343:\n        /* \"#utility.yul\":1112:1136   */\n      tag_404\n        /* \"#utility.yul\":1130:1135   */\n      dup2\n        /* \"#utility.yul\":1112:1136   */\n      tag_340\n      jump\t// in\n    tag_404:\n        /* \"#utility.yul\":1107:1110   */\n      dup3\n        /* \"#utility.yul\":1100:1137   */\n      mstore\n        /* \"#utility.yul\":1025:1143   */\n      pop\n      pop\n      jump\t// out\n        /* \"#utility.yul\":1149:1371   */\n    tag_32:\n        /* \"#utility.yul\":1242:1246   */\n      0x00\n        /* \"#utility.yul\":1280:1282   */\n      0x20\n        /* \"#utility.yul\":1269:1278   */\n      dup3\n        /* \"#utility.yul\":1265:1283   */\n      add\n        /* \"#utility.yul\":1257:1283   */\n      swap1\n      pop\n        /* \"#utility.yul\":1293:1364   */\n      tag_406\n        /* \"#utility.yul\":1361:1362   */\n      0x00\n        /* \"#utility.yul\":1350:1359   */\n      dup4\n        /* \"#utility.yul\":1346:1363   */\n      add\n        /* \"#utility.yul\":1337:1343   */\n      dup5\n        /* \"#utility.yul\":1293:1364   */\n      tag_343\n      jump\t// in\n    tag_406:\n        /* \"#utility.yul\":1149:1371   */\n      swap3\n      swap2\n      pop\n      pop\n      jump\t// out\n        /* \"#utility.yul\":1377:1476   */\n    tag_344:\n        /* \"#utility.yul\":1429:1435   */\n      0x00\n        /* \"#utility.yul\":1463:1468   */\n      dup2\n        /* \"#utility.yul\":1457:1469   */\n      mload\n        /* \"#utility.yul\":1447:1469   */\n      swap1\n      pop\n        /* \"#utility.yul\":1377:1476   */\n      swap2\n      swap1\n      pop\n      jump\t// out\n        /* \"#utility.yul\":1482:1651   */\n    tag_345:\n        /* \"#utility.yul\":1566:1577   */\n      0x00\n        /* \"#utility.yul\":1600:1606   */\n      dup3\n        /* \"#utility.yul\":1595:1598   */\n      dup3\n        /* \"#utility.yul\":1588:1607   */\n      mstore\n        /* \"#utility.yul\":1640:1644   */\n      0x20\n        /* \"#utility.yul\":1635:1638   */\n      dup3\n        /* \"#utility.yul\":1631:1645   */\n      add\n        /* \"#utility.yul\":1616:1645   */\n      swap1\n      pop\n        /* \"#utility.yul\":1482:1651   */\n      swap3\n      swap2\n      pop\n      pop\n      jump\t// out\n        /* \"#utility.yul\":1657:1903   */\n    tag_346:\n        /* \"#utility.yul\":1738:1739   */\n      0x00\n        /* \"#utility.yul\":1748:1861   */\n    tag_410:\n        /* \"#utility.yul\":1762:1768   */\n      dup4\n        /* \"#utility.yul\":1759:1760   */\n      dup2\n        /* \"#utility.yul\":1756:1769   */\n      lt\n        /* \"#utility.yul\":1748:1861   */\n      iszero\n      tag_412\n      jumpi\n        /* \"#utility.yul\":1847:1848   */\n      dup1\n        /* \"#utility.yul\":1842:1845   */\n      dup3\n        /* \"#utility.yul\":1838:1849   */\n      add\n        /* \"#utility.yul\":1832:1850   */\n      mload\n        /* \"#utility.yul\":1828:1829   */\n      dup2\n        /* \"#utility.yul\":1823:1826   */\n      dup5\n        /* \"#utility.yul\":1819:1830   */\n      add\n        /* \"#utility.yul\":1812:1851   */\n      mstore\n        /* \"#utility.yul\":1784:1786   */\n      0x20\n        /* \"#utility.yul\":1781:1782   */\n      dup2\n        /* \"#utility.yul\":1777:1787   */\n      add\n        /* \"#utility.yul\":1772:1787   */\n      swap1\n      pop\n        /* \"#utility.yul\":1748:1861   */\n      jump(tag_410)\n    tag_412:\n        /* \"#utility.yul\":1895:1896   */\n      0x00\n        /* \"#utility.yul\":1886:1892   */\n      dup5\n        /* \"#utility.yul\":1881:1884   */\n      dup5\n        /* \"#utility.yul\":1877:1893   */\n      add\n        /* \"#utility.yul\":1870:1897   */\n      mstore\n        /* \"#utility.yul\":1719:1903   */\n      pop\n        /* \"#utility.yul\":1657:1903   */\n      pop\n      pop\n      pop\n      jump\t// out\n        /* \"#utility.yul\":1909:2011   */\n    tag_347:\n        /* \"#utility.yul\":1950:1956   */\n      0x00\n        /* \"#utility.yul\":2001:2003   */\n      0x1f\n        /* \"#utility.yul\":1997:2004   */\n      not\n        /* \"#utility.yul\":1992:1994   */\n      0x1f\n        /* \"#utility.yul\":1985:1990   */\n      dup4\n        /* \"#utility.yul\":1981:1995   */\n      add\n        /* \"#utility.yul\":1977:2005   */\n      and\n        /* \"#utility.yul\":1967:2005   */\n      swap1\n      pop\n        /* \"#utility.yul\":1909:2011   */\n      swap2\n      swap1\n      pop\n      jump\t// out\n        /* \"#utility.yul\":2017:2394   */\n    tag_348:\n        /* \"#utility.yul\":2105:2108   */\n      0x00\n        /* \"#utility.yul\":2133:2172   */\n      tag_415\n        /* \"#utility.yul\":2166:2171   */\n      dup3\n        /* \"#utility.yul\":2133:2172   */\n      tag_344\n      jump\t// in\n    tag_415:\n        /* \"#utility.yul\":2188:2259   */\n      tag_416\n        /* \"#utility.yul\":2252:2258   */\n      dup2\n        /* \"#utility.yul\":2247:2250   */\n      dup6\n        /* \"#utility.yul\":2188:2259   */\n      tag_345\n      jump\t// in\n    tag_416:\n        /* \"#utility.yul\":2181:2259   */\n      swap4\n      pop\n        /* \"#utility.yul\":2268:2333   */\n      tag_417\n        /* \"#utility.yul\":2326:2332   */\n      dup2\n        /* \"#utility.yul\":2321:2324   */\n      dup6\n        /* \"#utility.yul\":2314:2318   */\n      0x20\n        /* \"#utility.yul\":2307:2312   */\n      dup7\n        /* \"#utility.yul\":2303:2319   */\n      add\n        /* \"#utility.yul\":2268:2333   */\n      tag_346\n      jump\t// in\n    tag_417:\n        /* \"#utility.yul\":2358:2387   */\n      tag_418\n        /* \"#utility.yul\":2380:2386   */\n      dup2\n        /* \"#utility.yul\":2358:2387   */\n      tag_347\n      jump\t// in\n    tag_418:\n        /* \"#utility.yul\":2353:2356   */\n      dup5\n        /* \"#utility.yul\":2349:2388   */\n      add\n        /* \"#utility.yul\":2342:2388   */\n      swap2\n      pop\n        /* \"#utility.yul\":2109:2394   */\n      pop\n        /* \"#utility.yul\":2017:2394   */\n      swap3\n      swap2\n      pop\n      pop\n      jump\t// out\n        /* \"#utility.yul\":2400:2713   */\n    tag_40:\n        /* \"#utility.yul\":2513:2517   */\n      0x00\n        /* \"#utility.yul\":2551:2553   */\n      0x20\n        /* \"#utility.yul\":2540:2549   */\n      dup3\n        /* \"#utility.yul\":2536:2554   */\n      add\n        /* \"#utility.yul\":2528:2554   */\n      swap1\n      pop\n        /* \"#utility.yul\":2600:2609   */\n      dup2\n        /* \"#utility.yul\":2594:2598   */\n      dup2\n        /* \"#utility.yul\":2590:2610   */\n      sub\n        /* \"#utility.yul\":2586:2587   */\n      0x00\n        /* \"#utility.yul\":2575:2584   */\n      dup4\n        /* \"#utility.yul\":2571:2588   */\n      add\n        /* \"#utility.yul\":2564:2611   */\n      mstore\n        /* \"#utility.yul\":2628:2706   */\n      tag_420\n        /* \"#utility.yul\":2701:2705   */\n      dup2\n        /* \"#utility.yul\":2692:2698   */\n      dup5\n        /* \"#utility.yul\":2628:2706   */\n      tag_348\n      jump\t// in\n    tag_420:\n        /* \"#utility.yul\":2620:2706   */\n      swap1\n      pop\n        /* \"#utility.yul\":2400:2713   */\n      swap3\n      swap2\n      pop\n      pop\n      jump\t// out\n        /* \"#utility.yul\":2719:2836   */\n    tag_349:\n        /* \"#utility.yul\":2828:2829   */\n      0x00\n        /* \"#utility.yul\":2825:2826   */\n      dup1\n        /* \"#utility.yul\":2818:2830   */\n      revert\n        /* \"#utility.yul\":2842:2959   */\n    tag_350:\n        /* \"#utility.yul\":2951:2952   */\n      0x00\n        /* \"#utility.yul\":2948:2949   */\n      dup1\n        /* \"#utility.yul\":2941:2953   */\n      revert\n        /* \"#utility.yul\":2965:3145   */\n    tag_143:\n        /* \"#utility.yul\":3013:3090   */\n      0x4e487b7100000000000000000000000000000000000000000000000000000000\n        /* \"#utility.yul\":3010:3011   */\n      0x00\n        /* \"#utility.yul\":3003:3091   */\n      mstore\n        /* \"#utility.yul\":3110:3114   */\n      0x41\n        /* \"#utility.yul\":3107:3108   */\n      0x04\n        /* \"#utility.yul\":3100:3115   */\n      mstore\n        /* \"#utility.yul\":3134:3138   */\n      0x24\n        /* \"#utility.yul\":3131:3132   */\n      0x00\n        /* \"#utility.yul\":3124:3139   */\n      revert\n        /* \"#utility.yul\":3151:3432   */\n    tag_351:\n        /* \"#utility.yul\":3234:3261   */\n      tag_425\n        /* \"#utility.yul\":3256:3260   */\n      dup3\n        /* \"#utility.yul\":3234:3261   */\n      tag_347\n      jump\t// in\n    tag_425:\n        /* \"#utility.yul\":3226:3232   */\n      dup2\n        /* \"#utility.yul\":3222:3262   */\n      add\n        /* \"#utility.yul\":3364:3370   */\n      dup2\n        /* \"#utility.yul\":3352:3362   */\n      dup2\n        /* \"#utility.yul\":3349:3371   */\n      lt\n        /* \"#utility.yul\":3328:3346   */\n      0xffffffffffffffff\n        /* \"#utility.yul\":3316:3326   */\n      dup3\n        /* \"#utility.yul\":3313:3347   */\n      gt\n        /* \"#utility.yul\":3310:3372   */\n      or\n        /* \"#utility.yul\":3307:3395   */\n      iszero\n      tag_426\n      jumpi\n        /* \"#utility.yul\":3375:3393   */\n      tag_427\n      tag_143\n      jump\t// in\n    tag_427:\n        /* \"#utility.yul\":3307:3395   */\n    tag_426:\n        /* \"#utility.yul\":3415:3425   */\n      dup1\n        /* \"#utility.yul\":3411:3413   */\n      0x40\n        /* \"#utility.yul\":3404:3426   */\n      mstore\n        /* \"#utility.yul\":3194:3432   */\n      pop\n        /* \"#utility.yul\":3151:3432   */\n      pop\n      pop\n      jump\t// out\n        /* \"#utility.yul\":3438:3567   */\n    tag_352:\n        /* \"#utility.yul\":3472:3478   */\n      0x00\n        /* \"#utility.yul\":3499:3519   */\n      tag_429\n      tag_337\n      jump\t// in\n    tag_429:\n        /* \"#utility.yul\":3489:3519   */\n      swap1\n      pop\n        /* \"#utility.yul\":3528:3561   */\n      tag_430\n        /* \"#utility.yul\":3556:3560   */\n      dup3\n        /* \"#utility.yul\":3548:3554   */\n      dup3\n        /* \"#utility.yul\":3528:3561   */\n      tag_351\n      jump\t// in\n    tag_430:\n        /* \"#utility.yul\":3438:3567   */\n      swap2\n      swap1\n      pop\n      jump\t// out\n        /* \"#utility.yul\":3573:3881   */\n    tag_353:\n        /* \"#utility.yul\":3635:3639   */\n      0x00\n        /* \"#utility.yul\":3725:3743   */\n      0xffffffffffffffff\n        /* \"#utility.yul\":3717:3723   */\n      dup3\n        /* \"#utility.yul\":3714:3744   */\n      gt\n        /* \"#utility.yul\":3711:3767   */\n      iszero\n      tag_432\n      jumpi\n        /* \"#utility.yul\":3747:3765   */\n      tag_433\n      tag_143\n      jump\t// in\n    tag_433:\n        /* \"#utility.yul\":3711:3767   */\n    tag_432:\n        /* \"#utility.yul\":3785:3814   */\n      tag_434\n        /* \"#utility.yul\":3807:3813   */\n      dup3\n        /* \"#utility.yul\":3785:3814   */\n      tag_347\n      jump\t// in\n    tag_434:\n        /* \"#utility.yul\":3777:3814   */\n      swap1\n      pop\n        /* \"#utility.yul\":3869:3873   */\n      0x20\n        /* \"#utility.yul\":3863:3867   */\n      dup2\n        /* \"#utility.yul\":3859:3874   */\n      add\n        /* \"#utility.yul\":3851:3874   */\n      swap1\n      pop\n        /* \"#utility.yul\":3573:3881   */\n      swap2\n      swap1\n      pop\n      jump\t// out\n        /* \"#utility.yul\":3887:4033   */\n    tag_354:\n        /* \"#utility.yul\":3984:3990   */\n      dup3\n        /* \"#utility.yul\":3979:3982   */\n      dup2\n        /* \"#utility.yul\":3974:3977   */\n      dup4\n        /* \"#utility.yul\":3961:3991   */\n      calldatacopy\n        /* \"#utility.yul\":4025:4026   */\n      0x00\n        /* \"#utility.yul\":4016:4022   */\n      dup4\n        /* \"#utility.yul\":4011:4014   */\n      dup4\n        /* \"#utility.yul\":4007:4023   */\n      add\n        /* \"#utility.yul\":4000:4027   */\n      mstore\n        /* \"#utility.yul\":3887:4033   */\n      pop\n      pop\n      pop\n      jump\t// out\n        /* \"#utility.yul\":4039:4464   */\n    tag_355:\n        /* \"#utility.yul\":4117:4122   */\n      0x00\n        /* \"#utility.yul\":4142:4208   */\n      tag_437\n        /* \"#utility.yul\":4158:4207   */\n      tag_438\n        /* \"#utility.yul\":4200:4206   */\n      dup5\n        /* \"#utility.yul\":4158:4207   */\n      tag_353\n      jump\t// in\n    tag_438:\n        /* \"#utility.yul\":4142:4208   */\n      tag_352\n      jump\t// in\n    tag_437:\n        /* \"#utility.yul\":4133:4208   */\n      swap1\n      pop\n        /* \"#utility.yul\":4231:4237   */\n      dup3\n        /* \"#utility.yul\":4224:4229   */\n      dup2\n        /* \"#utility.yul\":4217:4238   */\n      mstore\n        /* \"#utility.yul\":4269:4273   */\n      0x20\n        /* \"#utility.yul\":4262:4267   */\n      dup2\n        /* \"#utility.yul\":4258:4274   */\n      add\n        /* \"#utility.yul\":4307:4310   */\n      dup5\n        /* \"#utility.yul\":4298:4304   */\n      dup5\n        /* \"#utility.yul\":4293:4296   */\n      dup5\n        /* \"#utility.yul\":4289:4305   */\n      add\n        /* \"#utility.yul\":4286:4311   */\n      gt\n        /* \"#utility.yul\":4283:4395   */\n      iszero\n      tag_439\n      jumpi\n        /* \"#utility.yul\":4314:4393   */\n      tag_440\n      tag_350\n      jump\t// in\n    tag_440:\n        /* \"#utility.yul\":4283:4395   */\n    tag_439:\n        /* \"#utility.yul\":4404:4458   */\n      tag_441\n        /* \"#utility.yul\":4451:4457   */\n      dup5\n        /* \"#utility.yul\":4446:4449   */\n      dup3\n        /* \"#utility.yul\":4441:4444   */\n      dup6\n        /* \"#utility.yul\":4404:4458   */\n      tag_354\n      jump\t// in\n    tag_441:\n        /* \"#utility.yul\":4123:4464   */\n      pop\n        /* \"#utility.yul\":4039:4464   */\n      swap4\n      swap3\n      pop\n      pop\n      pop\n      jump\t// out\n        /* \"#utility.yul\":4484:4824   */\n    tag_356:\n        /* \"#utility.yul\":4540:4545   */\n      0x00\n        /* \"#utility.yul\":4589:4592   */\n      dup3\n        /* \"#utility.yul\":4582:4586   */\n      0x1f\n        /* \"#utility.yul\":4574:4580   */\n      dup4\n        /* \"#utility.yul\":4570:4587   */\n      add\n        /* \"#utility.yul\":4566:4593   */\n      slt\n        /* \"#utility.yul\":4556:4678   */\n      tag_443\n      jumpi\n        /* \"#utility.yul\":4597:4676   */\n      tag_444\n      tag_349\n      jump\t// in\n    tag_444:\n        /* \"#utility.yul\":4556:4678   */\n    tag_443:\n        /* \"#utility.yul\":4714:4720   */\n      dup2\n        /* \"#utility.yul\":4701:4721   */\n      calldataload\n        /* \"#utility.yul\":4739:4818   */\n      tag_445\n        /* \"#utility.yul\":4814:4817   */\n      dup5\n        /* \"#utility.yul\":4806:4812   */\n      dup3\n        /* \"#utility.yul\":4799:4803   */\n      0x20\n        /* \"#utility.yul\":4791:4797   */\n      dup7\n        /* \"#utility.yul\":4787:4804   */\n      add\n        /* \"#utility.yul\":4739:4818   */\n      tag_355\n      jump\t// in\n    tag_445:\n        /* \"#utility.yul\":4730:4818   */\n      swap2\n      pop\n        /* \"#utility.yul\":4546:4824   */\n      pop\n        /* \"#utility.yul\":4484:4824   */\n      swap3\n      swap2\n      pop\n      pop\n      jump\t// out\n        /* \"#utility.yul\":4830:5339   */\n    tag_43:\n        /* \"#utility.yul\":4899:4905   */\n      0x00\n        /* \"#utility.yul\":4948:4950   */\n      0x20\n        /* \"#utility.yul\":4936:4945   */\n      dup3\n        /* \"#utility.yul\":4927:4934   */\n      dup5\n        /* \"#utility.yul\":4923:4946   */\n      sub\n        /* \"#utility.yul\":4919:4951   */\n      slt\n        /* \"#utility.yul\":4916:5035   */\n      iszero\n      tag_447\n      jumpi\n        /* \"#utility.yul\":4954:5033   */\n      tag_448\n      tag_338\n      jump\t// in\n    tag_448:\n        /* \"#utility.yul\":4916:5035   */\n    tag_447:\n        /* \"#utility.yul\":5102:5103   */\n      0x00\n        /* \"#utility.yul\":5091:5100   */\n      dup3\n        /* \"#utility.yul\":5087:5104   */\n      add\n        /* \"#utility.yul\":5074:5105   */\n      calldataload\n        /* \"#utility.yul\":5132:5150   */\n      0xffffffffffffffff\n        /* \"#utility.yul\":5124:5130   */\n      dup2\n        /* \"#utility.yul\":5121:5151   */\n      gt\n        /* \"#utility.yul\":5118:5235   */\n      iszero\n      tag_449\n      jumpi\n        /* \"#utility.yul\":5154:5233   */\n      tag_450\n      tag_339\n      jump\t// in\n    tag_450:\n        /* \"#utility.yul\":5118:5235   */\n    tag_449:\n        /* \"#utility.yul\":5259:5322   */\n      tag_451\n        /* \"#utility.yul\":5314:5321   */\n      dup5\n        /* \"#utility.yul\":5305:5311   */\n      dup3\n        /* \"#utility.yul\":5294:5303   */\n      dup6\n        /* \"#utility.yul\":5290:5312   */\n      add\n        /* \"#utility.yul\":5259:5322   */\n      tag_356\n      jump\t// in\n    tag_451:\n        /* \"#utility.yul\":5249:5322   */\n      swap2\n      pop\n        /* \"#utility.yul\":5045:5332   */\n      pop\n        /* \"#utility.yul\":4830:5339   */\n      swap3\n      swap2\n      pop\n      pop\n      jump\t// out\n        /* \"#utility.yul\":5345:5469   */\n    tag_357:\n        /* \"#utility.yul\":5422:5428   */\n      0x00\n        /* \"#utility.yul\":5456:5461   */\n      dup2\n        /* \"#utility.yul\":5450:5462   */\n      mload\n        /* \"#utility.yul\":5440:5462   */\n      swap1\n      pop\n        /* \"#utility.yul\":5345:5469   */\n      swap2\n      swap1\n      pop\n      jump\t// out\n        /* \"#utility.yul\":5475:5669   */\n    tag_358:\n        /* \"#utility.yul\":5584:5595   */\n      0x00\n        /* \"#utility.yul\":5618:5624   */\n      dup3\n        /* \"#utility.yul\":5613:5616   */\n      dup3\n        /* \"#utility.yul\":5606:5625   */\n      mstore\n        /* \"#utility.yul\":5658:5662   */\n      0x20\n        /* \"#utility.yul\":5653:5656   */\n      dup3\n        /* \"#utility.yul\":5649:5663   */\n      add\n        /* \"#utility.yul\":5634:5663   */\n      swap1\n      pop\n        /* \"#utility.yul\":5475:5669   */\n      swap3\n      swap2\n      pop\n      pop\n      jump\t// out\n        /* \"#utility.yul\":5675:5817   */\n    tag_359:\n        /* \"#utility.yul\":5752:5756   */\n      0x00\n        /* \"#utility.yul\":5775:5778   */\n      dup2\n        /* \"#utility.yul\":5767:5778   */\n      swap1\n      pop\n        /* \"#utility.yul\":5805:5809   */\n      0x20\n        /* \"#utility.yul\":5800:5803   */\n      dup3\n        /* \"#utility.yul\":5796:5810   */\n      add\n        /* \"#utility.yul\":5788:5810   */\n      swap1\n      pop\n        /* \"#utility.yul\":5675:5817   */\n      swap2\n      swap1\n      pop\n      jump\t// out\n        /* \"#utility.yul\":5823:5982   */\n    tag_360:\n        /* \"#utility.yul\":5897:5908   */\n      0x00\n        /* \"#utility.yul\":5931:5937   */\n      dup3\n        /* \"#utility.yul\":5926:5929   */\n      dup3\n        /* \"#utility.yul\":5919:5938   */\n      mstore\n        /* \"#utility.yul\":5971:5975   */\n      0x20\n        /* \"#utility.yul\":5966:5969   */\n      dup3\n        /* \"#utility.yul\":5962:5976   */\n      add\n        /* \"#utility.yul\":5947:5976   */\n      swap1\n      pop\n        /* \"#utility.yul\":5823:5982   */\n      swap3\n      swap2\n      pop\n      pop\n      jump\t// out\n        /* \"#utility.yul\":5988:6345   */\n    tag_361:\n        /* \"#utility.yul\":6066:6069   */\n      0x00\n        /* \"#utility.yul\":6094:6133   */\n      tag_457\n        /* \"#utility.yul\":6127:6132   */\n      dup3\n        /* \"#utility.yul\":6094:6133   */\n      tag_344\n      jump\t// in\n    tag_457:\n        /* \"#utility.yul\":6149:6210   */\n      tag_458\n        /* \"#utility.yul\":6203:6209   */\n      dup2\n        /* \"#utility.yul\":6198:6201   */\n      dup6\n        /* \"#utility.yul\":6149:6210   */\n      tag_360\n      jump\t// in\n    tag_458:\n        /* \"#utility.yul\":6142:6210   */\n      swap4\n      pop\n        /* \"#utility.yul\":6219:6284   */\n      tag_459\n        /* \"#utility.yul\":6277:6283   */\n      dup2\n        /* \"#utility.yul\":6272:6275   */\n      dup6\n        /* \"#utility.yul\":6265:6269   */\n      0x20\n        /* \"#utility.yul\":6258:6263   */\n      dup7\n        /* \"#utility.yul\":6254:6270   */\n      add\n        /* \"#utility.yul\":6219:6284   */\n      tag_346\n      jump\t// in\n    tag_459:\n        /* \"#utility.yul\":6309:6338   */\n      tag_460\n        /* \"#utility.yul\":6331:6337   */\n      dup2\n        /* \"#utility.yul\":6309:6338   */\n      tag_347\n      jump\t// in\n    tag_460:\n        /* \"#utility.yul\":6304:6307   */\n      dup5\n        /* \"#utility.yul\":6300:6339   */\n      add\n        /* \"#utility.yul\":6293:6339   */\n      swap2\n      pop\n        /* \"#utility.yul\":6070:6345   */\n      pop\n        /* \"#utility.yul\":5988:6345   */\n      swap3\n      swap2\n      pop\n      pop\n      jump\t// out\n        /* \"#utility.yul\":6351:6547   */\n    tag_362:\n        /* \"#utility.yul\":6440:6450   */\n      0x00\n        /* \"#utility.yul\":6475:6541   */\n      tag_462\n        /* \"#utility.yul\":6537:6540   */\n      dup4\n        /* \"#utility.yul\":6529:6535   */\n      dup4\n        /* \"#utility.yul\":6475:6541   */\n      tag_361\n      jump\t// in\n    tag_462:\n        /* \"#utility.yul\":6461:6541   */\n      swap1\n      pop\n        /* \"#utility.yul\":6351:6547   */\n      swap3\n      swap2\n      pop\n      pop\n      jump\t// out\n        /* \"#utility.yul\":6553:6676   */\n    tag_363:\n        /* \"#utility.yul\":6633:6637   */\n      0x00\n        /* \"#utility.yul\":6665:6669   */\n      0x20\n        /* \"#utility.yul\":6660:6663   */\n      dup3\n        /* \"#utility.yul\":6656:6670   */\n      add\n        /* \"#utility.yul\":6648:6670   */\n      swap1\n      pop\n        /* \"#utility.yul\":6553:6676   */\n      swap2\n      swap1\n      pop\n      jump\t// out\n        /* \"#utility.yul\":6710:7701   */\n    tag_364:\n        /* \"#utility.yul\":6849:6852   */\n      0x00\n        /* \"#utility.yul\":6878:6942   */\n      tag_465\n        /* \"#utility.yul\":6936:6941   */\n      dup3\n        /* \"#utility.yul\":6878:6942   */\n      tag_357\n      jump\t// in\n    tag_465:\n        /* \"#utility.yul\":6958:7054   */\n      tag_466\n        /* \"#utility.yul\":7047:7053   */\n      dup2\n        /* \"#utility.yul\":7042:7045   */\n      dup6\n        /* \"#utility.yul\":6958:7054   */\n      tag_358\n      jump\t// in\n    tag_466:\n        /* \"#utility.yul\":6951:7054   */\n      swap4\n      pop\n        /* \"#utility.yul\":7080:7083   */\n      dup4\n        /* \"#utility.yul\":7125:7129   */\n      0x20\n        /* \"#utility.yul\":7117:7123   */\n      dup3\n        /* \"#utility.yul\":7113:7130   */\n      mul\n        /* \"#utility.yul\":7108:7111   */\n      dup6\n        /* \"#utility.yul\":7104:7131   */\n      add\n        /* \"#utility.yul\":7155:7221   */\n      tag_467\n        /* \"#utility.yul\":7215:7220   */\n      dup6\n        /* \"#utility.yul\":7155:7221   */\n      tag_359\n      jump\t// in\n    tag_467:\n        /* \"#utility.yul\":7244:7251   */\n      dup1\n        /* \"#utility.yul\":7275:7276   */\n      0x00\n        /* \"#utility.yul\":7260:7656   */\n    tag_468:\n        /* \"#utility.yul\":7285:7291   */\n      dup6\n        /* \"#utility.yul\":7282:7283   */\n      dup2\n        /* \"#utility.yul\":7279:7292   */\n      lt\n        /* \"#utility.yul\":7260:7656   */\n      iszero\n      tag_470\n      jumpi\n        /* \"#utility.yul\":7356:7365   */\n      dup5\n        /* \"#utility.yul\":7350:7354   */\n      dup5\n        /* \"#utility.yul\":7346:7366   */\n      sub\n        /* \"#utility.yul\":7341:7344   */\n      dup10\n        /* \"#utility.yul\":7334:7367   */\n      mstore\n        /* \"#utility.yul\":7407:7413   */\n      dup2\n        /* \"#utility.yul\":7401:7414   */\n      mload\n        /* \"#utility.yul\":7435:7519   */\n      tag_471\n        /* \"#utility.yul\":7514:7518   */\n      dup6\n        /* \"#utility.yul\":7499:7512   */\n      dup3\n        /* \"#utility.yul\":7435:7519   */\n      tag_362\n      jump\t// in\n    tag_471:\n        /* \"#utility.yul\":7427:7519   */\n      swap5\n      pop\n        /* \"#utility.yul\":7542:7612   */\n      tag_472\n        /* \"#utility.yul\":7605:7611   */\n      dup4\n        /* \"#utility.yul\":7542:7612   */\n      tag_363\n      jump\t// in\n    tag_472:\n        /* \"#utility.yul\":7532:7612   */\n      swap3\n      pop\n        /* \"#utility.yul\":7641:7645   */\n      0x20\n        /* \"#utility.yul\":7636:7639   */\n      dup11\n        /* \"#utility.yul\":7632:7646   */\n      add\n        /* \"#utility.yul\":7625:7646   */\n      swap10\n      pop\n        /* \"#utility.yul\":7320:7656   */\n      pop\n        /* \"#utility.yul\":7307:7308   */\n      0x01\n        /* \"#utility.yul\":7304:7305   */\n      dup2\n        /* \"#utility.yul\":7300:7309   */\n      add\n        /* \"#utility.yul\":7295:7309   */\n      swap1\n      pop\n        /* \"#utility.yul\":7260:7656   */\n      jump(tag_468)\n    tag_470:\n        /* \"#utility.yul\":7264:7278   */\n      pop\n        /* \"#utility.yul\":7672:7676   */\n      dup3\n        /* \"#utility.yul\":7665:7676   */\n      swap8\n      pop\n        /* \"#utility.yul\":7692:7695   */\n      dup8\n        /* \"#utility.yul\":7685:7695   */\n      swap6\n      pop\n        /* \"#utility.yul\":6854:7701   */\n      pop\n      pop\n      pop\n      pop\n      pop\n        /* \"#utility.yul\":6710:7701   */\n      swap3\n      swap2\n      pop\n      pop\n      jump\t// out\n        /* \"#utility.yul\":7707:8120   */\n    tag_48:\n        /* \"#utility.yul\":7870:7874   */\n      0x00\n        /* \"#utility.yul\":7908:7910   */\n      0x20\n        /* \"#utility.yul\":7897:7906   */\n      dup3\n        /* \"#utility.yul\":7893:7911   */\n      add\n        /* \"#utility.yul\":7885:7911   */\n      swap1\n      pop\n        /* \"#utility.yul\":7957:7966   */\n      dup2\n        /* \"#utility.yul\":7951:7955   */\n      dup2\n        /* \"#utility.yul\":7947:7967   */\n      sub\n        /* \"#utility.yul\":7943:7944   */\n      0x00\n        /* \"#utility.yul\":7932:7941   */\n      dup4\n        /* \"#utility.yul\":7928:7945   */\n      add\n        /* \"#utility.yul\":7921:7968   */\n      mstore\n        /* \"#utility.yul\":7985:8113   */\n      tag_474\n        /* \"#utility.yul\":8108:8112   */\n      dup2\n        /* \"#utility.yul\":8099:8105   */\n      dup5\n        /* \"#utility.yul\":7985:8113   */\n      tag_364\n      jump\t// in\n    tag_474:\n        /* \"#utility.yul\":7977:8113   */\n      swap1\n      pop\n        /* \"#utility.yul\":7707:8120   */\n      swap3\n      swap2\n      pop\n      pop\n      jump\t// out\n        /* \"#utility.yul\":8126:8216   */\n    tag_365:\n        /* \"#utility.yul\":8160:8167   */\n      0x00\n        /* \"#utility.yul\":8203:8208   */\n      dup2\n        /* \"#utility.yul\":8196:8209   */\n      iszero\n        /* \"#utility.yul\":8189:8210   */\n      iszero\n        /* \"#utility.yul\":8178:8210   */\n      swap1\n      pop\n        /* \"#utility.yul\":8126:8216   */\n      swap2\n      swap1\n      pop\n      jump\t// out\n        /* \"#utility.yul\":8222:8331   */\n    tag_366:\n        /* \"#utility.yul\":8303:8324   */\n      tag_477\n        /* \"#utility.yul\":8318:8323   */\n      dup2\n        /* \"#utility.yul\":8303:8324   */\n      tag_365\n      jump\t// in\n    tag_477:\n        /* \"#utility.yul\":8298:8301   */\n      dup3\n        /* \"#utility.yul\":8291:8325   */\n      mstore\n        /* \"#utility.yul\":8222:8331   */\n      pop\n      pop\n      jump\t// out\n        /* \"#utility.yul\":8337:8858   */\n    tag_59:\n        /* \"#utility.yul\":8500:8504   */\n      0x00\n        /* \"#utility.yul\":8538:8540   */\n      0x60\n        /* \"#utility.yul\":8527:8536   */\n      dup3\n        /* \"#utility.yul\":8523:8541   */\n      add\n        /* \"#utility.yul\":8515:8541   */\n      swap1\n      pop\n        /* \"#utility.yul\":8587:8596   */\n      dup2\n        /* \"#utility.yul\":8581:8585   */\n      dup2\n        /* \"#utility.yul\":8577:8597   */\n      sub\n        /* \"#utility.yul\":8573:8574   */\n      0x00\n        /* \"#utility.yul\":8562:8571   */\n      dup4\n        /* \"#utility.yul\":8558:8575   */\n      add\n        /* \"#utility.yul\":8551:8598   */\n      mstore\n        /* \"#utility.yul\":8615:8693   */\n      tag_479\n        /* \"#utility.yul\":8688:8692   */\n      dup2\n        /* \"#utility.yul\":8679:8685   */\n      dup7\n        /* \"#utility.yul\":8615:8693   */\n      tag_348\n      jump\t// in\n    tag_479:\n        /* \"#utility.yul\":8607:8693   */\n      swap1\n      pop\n        /* \"#utility.yul\":8703:8775   */\n      tag_480\n        /* \"#utility.yul\":8771:8773   */\n      0x20\n        /* \"#utility.yul\":8760:8769   */\n      dup4\n        /* \"#utility.yul\":8756:8774   */\n      add\n        /* \"#utility.yul\":8747:8753   */\n      dup6\n        /* \"#utility.yul\":8703:8775   */\n      tag_343\n      jump\t// in\n    tag_480:\n        /* \"#utility.yul\":8785:8851   */\n      tag_481\n        /* \"#utility.yul\":8847:8849   */\n      0x40\n        /* \"#utility.yul\":8836:8845   */\n      dup4\n        /* \"#utility.yul\":8832:8850   */\n      add\n        /* \"#utility.yul\":8823:8829   */\n      dup5\n        /* \"#utility.yul\":8785:8851   */\n      tag_366\n      jump\t// in\n    tag_481:\n        /* \"#utility.yul\":8337:8858   */\n      swap5\n      swap4\n      pop\n      pop\n      pop\n      pop\n      jump\t// out\n        /* \"#utility.yul\":8864:9044   */\n    tag_96:\n        /* \"#utility.yul\":8912:8989   */\n      0x4e487b7100000000000000000000000000000000000000000000000000000000\n        /* \"#utility.yul\":8909:8910   */\n      0x00\n        /* \"#utility.yul\":8902:8990   */\n      mstore\n        /* \"#utility.yul\":9009:9013   */\n      0x32\n        /* \"#utility.yul\":9006:9007   */\n      0x04\n        /* \"#utility.yul\":8999:9014   */\n      mstore\n        /* \"#utility.yul\":9033:9037   */\n      0x24\n        /* \"#utility.yul\":9030:9031   */\n      0x00\n        /* \"#utility.yul\":9023:9038   */\n      revert\n        /* \"#utility.yul\":9050:9230   */\n    tag_367:\n        /* \"#utility.yul\":9098:9175   */\n      0x4e487b7100000000000000000000000000000000000000000000000000000000\n        /* \"#utility.yul\":9095:9096   */\n      0x00\n        /* \"#utility.yul\":9088:9176   */\n      mstore\n        /* \"#utility.yul\":9195:9199   */\n      0x11\n        /* \"#utility.yul\":9192:9193   */\n      0x04\n        /* \"#utility.yul\":9185:9200   */\n      mstore\n        /* \"#utility.yul\":9219:9223   */\n      0x24\n        /* \"#utility.yul\":9216:9217   */\n      0x00\n        /* \"#utility.yul\":9209:9224   */\n      revert\n        /* \"#utility.yul\":9236:9430   */\n    tag_99:\n        /* \"#utility.yul\":9276:9280   */\n      0x00\n        /* \"#utility.yul\":9296:9316   */\n      tag_485\n        /* \"#utility.yul\":9314:9315   */\n      dup3\n        /* \"#utility.yul\":9296:9316   */\n      tag_340\n      jump\t// in\n    tag_485:\n        /* \"#utility.yul\":9291:9316   */\n      swap2\n      pop\n        /* \"#utility.yul\":9330:9350   */\n      tag_486\n        /* \"#utility.yul\":9348:9349   */\n      dup4\n        /* \"#utility.yul\":9330:9350   */\n      tag_340\n      jump\t// in\n    tag_486:\n        /* \"#utility.yul\":9325:9350   */\n      swap3\n      pop\n        /* \"#utility.yul\":9374:9375   */\n      dup3\n        /* \"#utility.yul\":9371:9372   */\n      dup3\n        /* \"#utility.yul\":9367:9376   */\n      sub\n        /* \"#utility.yul\":9359:9376   */\n      swap1\n      pop\n        /* \"#utility.yul\":9398:9399   */\n      dup2\n        /* \"#utility.yul\":9392:9396   */\n      dup2\n        /* \"#utility.yul\":9389:9400   */\n      gt\n        /* \"#utility.yul\":9386:9423   */\n      iszero\n      tag_487\n      jumpi\n        /* \"#utility.yul\":9403:9421   */\n      tag_488\n      tag_367\n      jump\t// in\n    tag_488:\n        /* \"#utility.yul\":9386:9423   */\n    tag_487:\n        /* \"#utility.yul\":9236:9430   */\n      swap3\n      swap2\n      pop\n      pop\n      jump\t// out\n        /* \"#utility.yul\":9436:9612   */\n    tag_368:\n        /* \"#utility.yul\":9576:9604   */\n      0x50656e64696e67206973206e6f74206578706972656420796574000000000000\n        /* \"#utility.yul\":9572:9573   */\n      0x00\n        /* \"#utility.yul\":9564:9570   */\n      dup3\n        /* \"#utility.yul\":9560:9574   */\n      add\n        /* \"#utility.yul\":9553:9605   */\n      mstore\n        /* \"#utility.yul\":9436:9612   */\n      pop\n      jump\t// out\n        /* \"#utility.yul\":9618:9984   */\n    tag_369:\n        /* \"#utility.yul\":9760:9763   */\n      0x00\n        /* \"#utility.yul\":9781:9848   */\n      tag_491\n        /* \"#utility.yul\":9845:9847   */\n      0x1a\n        /* \"#utility.yul\":9840:9843   */\n      dup4\n        /* \"#utility.yul\":9781:9848   */\n      tag_345\n      jump\t// in\n    tag_491:\n        /* \"#utility.yul\":9774:9848   */\n      swap2\n      pop\n        /* \"#utility.yul\":9857:9950   */\n      tag_492\n        /* \"#utility.yul\":9946:9949   */\n      dup3\n        /* \"#utility.yul\":9857:9950   */\n      tag_368\n      jump\t// in\n    tag_492:\n        /* \"#utility.yul\":9975:9977   */\n      0x20\n        /* \"#utility.yul\":9970:9973   */\n      dup3\n        /* \"#utility.yul\":9966:9978   */\n      add\n        /* \"#utility.yul\":9959:9978   */\n      swap1\n      pop\n        /* \"#utility.yul\":9618:9984   */\n      swap2\n      swap1\n      pop\n      jump\t// out\n        /* \"#utility.yul\":9990:10409   */\n    tag_102:\n        /* \"#utility.yul\":10156:10160   */\n      0x00\n        /* \"#utility.yul\":10194:10196   */\n      0x20\n        /* \"#utility.yul\":10183:10192   */\n      dup3\n        /* \"#utility.yul\":10179:10197   */\n      add\n        /* \"#utility.yul\":10171:10197   */\n      swap1\n      pop\n        /* \"#utility.yul\":10243:10252   */\n      dup2\n        /* \"#utility.yul\":10237:10241   */\n      dup2\n        /* \"#utility.yul\":10233:10253   */\n      sub\n        /* \"#utility.yul\":10229:10230   */\n      0x00\n        /* \"#utility.yul\":10218:10227   */\n      dup4\n        /* \"#utility.yul\":10214:10231   */\n      add\n        /* \"#utility.yul\":10207:10254   */\n      mstore\n        /* \"#utility.yul\":10271:10402   */\n      tag_494\n        /* \"#utility.yul\":10397:10401   */\n      dup2\n        /* \"#utility.yul\":10271:10402   */\n      tag_369\n      jump\t// in\n    tag_494:\n        /* \"#utility.yul\":10263:10402   */\n      swap1\n      pop\n        /* \"#utility.yul\":9990:10409   */\n      swap2\n      swap1\n      pop\n      jump\t// out\n        /* \"#utility.yul\":10415:10606   */\n    tag_108:\n        /* \"#utility.yul\":10455:10458   */\n      0x00\n        /* \"#utility.yul\":10474:10494   */\n      tag_496\n        /* \"#utility.yul\":10492:10493   */\n      dup3\n        /* \"#utility.yul\":10474:10494   */\n      tag_340\n      jump\t// in\n    tag_496:\n        /* \"#utility.yul\":10469:10494   */\n      swap2\n      pop\n        /* \"#utility.yul\":10508:10528   */\n      tag_497\n        /* \"#utility.yul\":10526:10527   */\n      dup4\n        /* \"#utility.yul\":10508:10528   */\n      tag_340\n      jump\t// in\n    tag_497:\n        /* \"#utility.yul\":10503:10528   */\n      swap3\n      pop\n        /* \"#utility.yul\":10551:10552   */\n      dup3\n        /* \"#utility.yul\":10548:10549   */\n      dup3\n        /* \"#utility.yul\":10544:10553   */\n      add\n        /* \"#utility.yul\":10537:10553   */\n      swap1\n      pop\n        /* \"#utility.yul\":10572:10575   */\n      dup1\n        /* \"#utility.yul\":10569:10570   */\n      dup3\n        /* \"#utility.yul\":10566:10576   */\n      gt\n        /* \"#utility.yul\":10563:10599   */\n      iszero\n      tag_498\n      jumpi\n        /* \"#utility.yul\":10579:10597   */\n      tag_499\n      tag_367\n      jump\t// in\n    tag_499:\n        /* \"#utility.yul\":10563:10599   */\n    tag_498:\n        /* \"#utility.yul\":10415:10606   */\n      swap3\n      swap2\n      pop\n      pop\n      jump\t// out\n        /* \"#utility.yul\":10612:10792   */\n    tag_370:\n        /* \"#utility.yul\":10660:10737   */\n      0x4e487b7100000000000000000000000000000000000000000000000000000000\n        /* \"#utility.yul\":10657:10658   */\n      0x00\n        /* \"#utility.yul\":10650:10738   */\n      mstore\n        /* \"#utility.yul\":10757:10761   */\n      0x22\n        /* \"#utility.yul\":10754:10755   */\n      0x04\n        /* \"#utility.yul\":10747:10762   */\n      mstore\n        /* \"#utility.yul\":10781:10785   */\n      0x24\n        /* \"#utility.yul\":10778:10779   */\n      0x00\n        /* \"#utility.yul\":10771:10786   */\n      revert\n        /* \"#utility.yul\":10798:11118   */\n    tag_131:\n        /* \"#utility.yul\":10842:10848   */\n      0x00\n        /* \"#utility.yul\":10879:10880   */\n      0x02\n        /* \"#utility.yul\":10873:10877   */\n      dup3\n        /* \"#utility.yul\":10869:10881   */\n      div\n        /* \"#utility.yul\":10859:10881   */\n      swap1\n      pop\n        /* \"#utility.yul\":10926:10927   */\n      0x01\n        /* \"#utility.yul\":10920:10924   */\n      dup3\n        /* \"#utility.yul\":10916:10928   */\n      and\n        /* \"#utility.yul\":10947:10965   */\n      dup1\n        /* \"#utility.yul\":10937:11018   */\n      tag_502\n      jumpi\n        /* \"#utility.yul\":11003:11007   */\n      0x7f\n        /* \"#utility.yul\":10995:11001   */\n      dup3\n        /* \"#utility.yul\":10991:11008   */\n      and\n        /* \"#utility.yul\":10981:11008   */\n      swap2\n      pop\n        /* \"#utility.yul\":10937:11018   */\n    tag_502:\n        /* \"#utility.yul\":11065:11067   */\n      0x20\n        /* \"#utility.yul\":11057:11063   */\n      dup3\n        /* \"#utility.yul\":11054:11068   */\n      lt\n        /* \"#utility.yul\":11034:11052   */\n      dup2\n        /* \"#utility.yul\":11031:11069   */\n      sub\n        /* \"#utility.yul\":11028:11112   */\n      tag_503\n      jumpi\n        /* \"#utility.yul\":11084:11102   */\n      tag_504\n      tag_370\n      jump\t// in\n    tag_504:\n        /* \"#utility.yul\":11028:11112   */\n    tag_503:\n        /* \"#utility.yul\":10849:11118   */\n      pop\n        /* \"#utility.yul\":10798:11118   */\n      swap2\n      swap1\n      pop\n      jump\t// out\n        /* \"#utility.yul\":11124:11273   */\n    tag_371:\n        /* \"#utility.yul\":11173:11179   */\n      0x00\n        /* \"#utility.yul\":11207:11212   */\n      dup2\n        /* \"#utility.yul\":11201:11213   */\n      sload\n        /* \"#utility.yul\":11191:11213   */\n      swap1\n      pop\n        /* \"#utility.yul\":11233:11266   */\n      tag_506\n        /* \"#utility.yul\":11259:11265   */\n      dup2\n        /* \"#utility.yul\":11233:11266   */\n      tag_131\n      jump\t// in\n    tag_506:\n        /* \"#utility.yul\":11223:11266   */\n      swap1\n      pop\n        /* \"#utility.yul\":11124:11273   */\n      swap2\n      swap1\n      pop\n      jump\t// out\n        /* \"#utility.yul\":11279:11420   */\n    tag_372:\n        /* \"#utility.yul\":11328:11332   */\n      0x00\n        /* \"#utility.yul\":11351:11354   */\n      dup2\n        /* \"#utility.yul\":11343:11354   */\n      swap1\n      pop\n        /* \"#utility.yul\":11374:11377   */\n      dup2\n        /* \"#utility.yul\":11371:11372   */\n      0x00\n        /* \"#utility.yul\":11364:11378   */\n      mstore\n        /* \"#utility.yul\":11408:11412   */\n      0x20\n        /* \"#utility.yul\":11405:11406   */\n      0x00\n        /* \"#utility.yul\":11395:11413   */\n      keccak256\n        /* \"#utility.yul\":11387:11413   */\n      swap1\n      pop\n        /* \"#utility.yul\":11279:11420   */\n      swap2\n      swap1\n      pop\n      jump\t// out\n        /* \"#utility.yul\":11426:11519   */\n    tag_373:\n        /* \"#utility.yul\":11463:11469   */\n      0x00\n        /* \"#utility.yul\":11510:11512   */\n      0x20\n        /* \"#utility.yul\":11505:11507   */\n      0x1f\n        /* \"#utility.yul\":11498:11503   */\n      dup4\n        /* \"#utility.yul\":11494:11508   */\n      add\n        /* \"#utility.yul\":11490:11513   */\n      div\n        /* \"#utility.yul\":11480:11513   */\n      swap1\n      pop\n        /* \"#utility.yul\":11426:11519   */\n      swap2\n      swap1\n      pop\n      jump\t// out\n        /* \"#utility.yul\":11525:11632   */\n    tag_374:\n        /* \"#utility.yul\":11569:11577   */\n      0x00\n        /* \"#utility.yul\":11619:11624   */\n      dup3\n        /* \"#utility.yul\":11613:11617   */\n      dup3\n        /* \"#utility.yul\":11609:11625   */\n      shl\n        /* \"#utility.yul\":11588:11625   */\n      swap1\n      pop\n        /* \"#utility.yul\":11525:11632   */\n      swap3\n      swap2\n      pop\n      pop\n      jump\t// out\n        /* \"#utility.yul\":11638:12031   */\n    tag_375:\n        /* \"#utility.yul\":11707:11713   */\n      0x00\n        /* \"#utility.yul\":11757:11758   */\n      0x08\n        /* \"#utility.yul\":11745:11755   */\n      dup4\n        /* \"#utility.yul\":11741:11759   */\n      mul\n        /* \"#utility.yul\":11780:11877   */\n      tag_511\n        /* \"#utility.yul\":11810:11876   */\n      0xffffffffffffffffffffffffffffffffffffffffffffffffffffffffffffffff\n        /* \"#utility.yul\":11799:11808   */\n      dup3\n        /* \"#utility.yul\":11780:11877   */\n      tag_374\n      jump\t// in\n    tag_511:\n        /* \"#utility.yul\":11898:11937   */\n      tag_512\n        /* \"#utility.yul\":11928:11936   */\n      dup7\n        /* \"#utility.yul\":11917:11926   */\n      dup4\n        /* \"#utility.yul\":11898:11937   */\n      tag_374\n      jump\t// in\n    tag_512:\n        /* \"#utility.yul\":11886:11937   */\n      swap6\n      pop\n        /* \"#utility.yul\":11970:11974   */\n      dup1\n        /* \"#utility.yul\":11966:11975   */\n      not\n        /* \"#utility.yul\":11959:11964   */\n      dup5\n        /* \"#utility.yul\":11955:11976   */\n      and\n        /* \"#utility.yul\":11946:11976   */\n      swap4\n      pop\n        /* \"#utility.yul\":12019:12023   */\n      dup1\n        /* \"#utility.yul\":12009:12017   */\n      dup7\n        /* \"#utility.yul\":12005:12024   */\n      and\n        /* \"#utility.yul\":11998:12003   */\n      dup5\n        /* \"#utility.yul\":11995:12025   */\n      or\n        /* \"#utility.yul\":11985:12025   */\n      swap3\n      pop\n        /* \"#utility.yul\":11714:12031   */\n      pop\n      pop\n        /* \"#utility.yul\":11638:12031   */\n      swap4\n      swap3\n      pop\n      pop\n      pop\n      jump\t// out\n        /* \"#utility.yul\":12037:12097   */\n    tag_376:\n        /* \"#utility.yul\":12065:12068   */\n      0x00\n        /* \"#utility.yul\":12086:12091   */\n      dup2\n        /* \"#utility.yul\":12079:12091   */\n      swap1\n      pop\n        /* \"#utility.yul\":12037:12097   */\n      swap2\n      swap1\n      pop\n      jump\t// out\n        /* \"#utility.yul\":12103:12245   */\n    tag_377:\n        /* \"#utility.yul\":12153:12162   */\n      0x00\n        /* \"#utility.yul\":12186:12239   */\n      tag_515\n        /* \"#utility.yul\":12204:12238   */\n      tag_516\n        /* \"#utility.yul\":12213:12237   */\n      tag_517\n        /* \"#utility.yul\":12231:12236   */\n      dup5\n        /* \"#utility.yul\":12213:12237   */\n      tag_340\n      jump\t// in\n    tag_517:\n        /* \"#utility.yul\":12204:12238   */\n      tag_376\n      jump\t// in\n    tag_516:\n        /* \"#utility.yul\":12186:12239   */\n      tag_340\n      jump\t// in\n    tag_515:\n        /* \"#utility.yul\":12173:12239   */\n      swap1\n      pop\n        /* \"#utility.yul\":12103:12245   */\n      swap2\n      swap1\n      pop\n      jump\t// out\n        /* \"#utility.yul\":12251:12326   */\n    tag_378:\n        /* \"#utility.yul\":12294:12297   */\n      0x00\n        /* \"#utility.yul\":12315:12320   */\n      dup2\n        /* \"#utility.yul\":12308:12320   */\n      swap1\n      pop\n        /* \"#utility.yul\":12251:12326   */\n      swap2\n      swap1\n      pop\n      jump\t// out\n        /* \"#utility.yul\":12332:12601   */\n    tag_379:\n        /* \"#utility.yul\":12442:12481   */\n      tag_520\n        /* \"#utility.yul\":12473:12480   */\n      dup4\n        /* \"#utility.yul\":12442:12481   */\n      tag_377\n      jump\t// in\n    tag_520:\n        /* \"#utility.yul\":12503:12594   */\n      tag_521\n        /* \"#utility.yul\":12552:12593   */\n      tag_522\n        /* \"#utility.yul\":12576:12592   */\n      dup3\n        /* \"#utility.yul\":12552:12593   */\n      tag_378\n      jump\t// in\n    tag_522:\n        /* \"#utility.yul\":12544:12550   */\n      dup5\n        /* \"#utility.yul\":12537:12541   */\n      dup5\n        /* \"#utility.yul\":12531:12542   */\n      sload\n        /* \"#utility.yul\":12503:12594   */\n      tag_375\n      jump\t// in\n    tag_521:\n        /* \"#utility.yul\":12497:12501   */\n      dup3\n        /* \"#utility.yul\":12490:12595   */\n      sstore\n        /* \"#utility.yul\":12408:12601   */\n      pop\n        /* \"#utility.yul\":12332:12601   */\n      pop\n      pop\n      pop\n      jump\t// out\n        /* \"#utility.yul\":12607:12680   */\n    tag_380:\n        /* \"#utility.yul\":12652:12655   */\n      0x00\n        /* \"#utility.yul\":12607:12680   */\n      swap1\n      jump\t// out\n        /* \"#utility.yul\":12686:12875   */\n    tag_381:\n        /* \"#utility.yul\":12763:12795   */\n      tag_525\n      tag_380\n      jump\t// in\n    tag_525:\n        /* \"#utility.yul\":12804:12869   */\n      tag_526\n        /* \"#utility.yul\":12862:12868   */\n      dup2\n        /* \"#utility.yul\":12854:12860   */\n      dup5\n        /* \"#utility.yul\":12848:12852   */\n      dup5\n        /* \"#utility.yul\":12804:12869   */\n      tag_379\n      jump\t// in\n    tag_526:\n        /* \"#utility.yul\":12739:12875   */\n      pop\n        /* \"#utility.yul\":12686:12875   */\n      pop\n      pop\n      jump\t// out\n        /* \"#utility.yul\":12881:13067   */\n    tag_382:\n        /* \"#utility.yul\":12941:13061   */\n    tag_528:\n        /* \"#utility.yul\":12958:12961   */\n      dup2\n        /* \"#utility.yul\":12951:12956   */\n      dup2\n        /* \"#utility.yul\":12948:12962   */\n      lt\n        /* \"#utility.yul\":12941:13061   */\n      iszero\n      tag_530\n      jumpi\n        /* \"#utility.yul\":13012:13051   */\n      tag_531\n        /* \"#utility.yul\":13049:13050   */\n      0x00\n        /* \"#utility.yul\":13042:13047   */\n      dup3\n        /* \"#utility.yul\":13012:13051   */\n      tag_381\n      jump\t// in\n    tag_531:\n        /* \"#utility.yul\":12985:12986   */\n      0x01\n        /* \"#utility.yul\":12978:12983   */\n      dup2\n        /* \"#utility.yul\":12974:12987   */\n      add\n        /* \"#utility.yul\":12965:12987   */\n      swap1\n      pop\n        /* \"#utility.yul\":12941:13061   */\n      jump(tag_528)\n    tag_530:\n        /* \"#utility.yul\":12881:13067   */\n      pop\n      pop\n      jump\t// out\n        /* \"#utility.yul\":13073:13616   */\n    tag_383:\n        /* \"#utility.yul\":13174:13176   */\n      0x1f\n        /* \"#utility.yul\":13169:13172   */\n      dup3\n        /* \"#utility.yul\":13166:13177   */\n      gt\n        /* \"#utility.yul\":13163:13609   */\n      iszero\n      tag_533\n      jumpi\n        /* \"#utility.yul\":13208:13246   */\n      tag_534\n        /* \"#utility.yul\":13240:13245   */\n      dup2\n        /* \"#utility.yul\":13208:13246   */\n      tag_372\n      jump\t// in\n    tag_534:\n        /* \"#utility.yul\":13292:13321   */\n      tag_535\n        /* \"#utility.yul\":13310:13320   */\n      dup5\n        /* \"#utility.yul\":13292:13321   */\n      tag_373\n      jump\t// in\n    tag_535:\n        /* \"#utility.yul\":13282:13290   */\n      dup2\n        /* \"#utility.yul\":13278:13322   */\n      add\n        /* \"#utility.yul\":13475:13477   */\n      0x20\n        /* \"#utility.yul\":13463:13473   */\n      dup6\n        /* \"#utility.yul\":13460:13478   */\n      lt\n        /* \"#utility.yul\":13457:13506   */\n      iszero\n      tag_536\n      jumpi\n        /* \"#utility.yul\":13496:13504   */\n      dup2\n        /* \"#utility.yul\":13481:13504   */\n      swap1\n      pop\n        /* \"#utility.yul\":13457:13506   */\n    tag_536:\n        /* \"#utility.yul\":13519:13599   */\n      tag_537\n        /* \"#utility.yul\":13575:13597   */\n      tag_538\n        /* \"#utility.yul\":13593:13596   */\n      dup6\n        /* \"#utility.yul\":13575:13597   */\n      tag_373\n      jump\t// in\n    tag_538:\n        /* \"#utility.yul\":13565:13573   */\n      dup4\n        /* \"#utility.yul\":13561:13598   */\n      add\n        /* \"#utility.yul\":13548:13559   */\n      dup3\n        /* \"#utility.yul\":13519:13599   */\n      tag_382\n      jump\t// in\n    tag_537:\n        /* \"#utility.yul\":13178:13609   */\n      pop\n      pop\n        /* \"#utility.yul\":13163:13609   */\n    tag_533:\n        /* \"#utility.yul\":13073:13616   */\n      pop\n      pop\n      pop\n      jump\t// out\n        /* \"#utility.yul\":13622:13739   */\n    tag_384:\n        /* \"#utility.yul\":13676:13684   */\n      0x00\n        /* \"#utility.yul\":13726:13731   */\n      dup3\n        /* \"#utility.yul\":13720:13724   */\n      dup3\n        /* \"#utility.yul\":13716:13732   */\n      shr\n        /* \"#utility.yul\":13695:13732   */\n      swap1\n      pop\n        /* \"#utility.yul\":13622:13739   */\n      swap3\n      swap2\n      pop\n      pop\n      jump\t// out\n        /* \"#utility.yul\":13745:13914   */\n    tag_385:\n        /* \"#utility.yul\":13789:13795   */\n      0x00\n        /* \"#utility.yul\":13822:13873   */\n      tag_541\n        /* \"#utility.yul\":13870:13871   */\n      0x00\n        /* \"#utility.yul\":13866:13872   */\n      not\n        /* \"#utility.yul\":13858:13863   */\n      dup5\n        /* \"#utility.yul\":13855:13856   */\n      0x08\n        /* \"#utility.yul\":13851:13864   */\n      mul\n        /* \"#utility.yul\":13822:13873   */\n      tag_384\n      jump\t// in\n    tag_541:\n        /* \"#utility.yul\":13818:13874   */\n      not\n        /* \"#utility.yul\":13903:13907   */\n      dup1\n        /* \"#utility.yul\":13897:13901   */\n      dup4\n        /* \"#utility.yul\":13893:13908   */\n      and\n        /* \"#utility.yul\":13883:13908   */\n      swap2\n      pop\n        /* \"#utility.yul\":13796:13914   */\n      pop\n        /* \"#utility.yul\":13745:13914   */\n      swap3\n      swap2\n      pop\n      pop\n      jump\t// out\n        /* \"#utility.yul\":13919:14214   */\n    tag_386:\n        /* \"#utility.yul\":13995:13999   */\n      0x00\n        /* \"#utility.yul\":14141:14170   */\n      tag_543\n        /* \"#utility.yul\":14166:14169   */\n      dup4\n        /* \"#utility.yul\":14160:14164   */\n      dup4\n        /* \"#utility.yul\":14141:14170   */\n      tag_385\n      jump\t// in\n    tag_543:\n        /* \"#utility.yul\":14133:14170   */\n      swap2\n      pop\n        /* \"#utility.yul\":14203:14206   */\n      dup3\n        /* \"#utility.yul\":14200:14201   */\n      0x02\n        /* \"#utility.yul\":14196:14207   */\n      mul\n        /* \"#utility.yul\":14190:14194   */\n      dup3\n        /* \"#utility.yul\":14187:14208   */\n      or\n        /* \"#utility.yul\":14179:14208   */\n      swap1\n      pop\n        /* \"#utility.yul\":13919:14214   */\n      swap3\n      swap2\n      pop\n      pop\n      jump\t// out\n        /* \"#utility.yul\":14219:15670   */\n    tag_116:\n        /* \"#utility.yul\":14330:14333   */\n      dup2\n        /* \"#utility.yul\":14324:14328   */\n      dup2\n        /* \"#utility.yul\":14321:14334   */\n      sub\n        /* \"#utility.yul\":14318:14344   */\n      tag_545\n      jumpi\n        /* \"#utility.yul\":14337:14342   */\n      pop\n      pop\n      jump(tag_544)\n        /* \"#utility.yul\":14318:14344   */\n    tag_545:\n        /* \"#utility.yul\":14368:14402   */\n      tag_546\n        /* \"#utility.yul\":14398:14401   */\n      dup3\n        /* \"#utility.yul\":14368:14402   */\n      tag_371\n      jump\t// in\n    tag_546:\n        /* \"#utility.yul\":14467:14485   */\n      0xffffffffffffffff\n        /* \"#utility.yul\":14459:14465   */\n      dup2\n        /* \"#utility.yul\":14456:14486   */\n      gt\n        /* \"#utility.yul\":14453:14509   */\n      iszero\n      tag_547\n      jumpi\n        /* \"#utility.yul\":14489:14507   */\n      tag_548\n      tag_143\n      jump\t// in\n    tag_548:\n        /* \"#utility.yul\":14453:14509   */\n    tag_547:\n        /* \"#utility.yul\":14533:14571   */\n      tag_549\n        /* \"#utility.yul\":14565:14569   */\n      dup3\n        /* \"#utility.yul\":14559:14570   */\n      sload\n        /* \"#utility.yul\":14533:14571   */\n      tag_131\n      jump\t// in\n    tag_549:\n        /* \"#utility.yul\":14618:14685   */\n      tag_550\n        /* \"#utility.yul\":14678:14684   */\n      dup3\n        /* \"#utility.yul\":14670:14676   */\n      dup3\n        /* \"#utility.yul\":14664:14668   */\n      dup6\n        /* \"#utility.yul\":14618:14685   */\n      tag_383\n      jump\t// in\n    tag_550:\n        /* \"#utility.yul\":14712:14713   */\n      0x00\n        /* \"#utility.yul\":14741:14743   */\n      0x1f\n        /* \"#utility.yul\":14733:14739   */\n      dup4\n        /* \"#utility.yul\":14730:14744   */\n      gt\n        /* \"#utility.yul\":14758:14759   */\n      0x01\n        /* \"#utility.yul\":14753:15425   */\n      dup2\n      eq\n      tag_552\n      jumpi\n        /* \"#utility.yul\":15469:15470   */\n      0x00\n        /* \"#utility.yul\":15486:15492   */\n      dup5\n        /* \"#utility.yul\":15483:15560   */\n      iszero\n      tag_553\n      jumpi\n        /* \"#utility.yul\":15535:15544   */\n      dup3\n        /* \"#utility.yul\":15530:15533   */\n      dup8\n        /* \"#utility.yul\":15526:15545   */\n      add\n        /* \"#utility.yul\":15520:15546   */\n      sload\n        /* \"#utility.yul\":15511:15546   */\n      swap1\n      pop\n        /* \"#utility.yul\":15483:15560   */\n    tag_553:\n        /* \"#utility.yul\":15586:15653   */\n      tag_554\n        /* \"#utility.yul\":15646:15652   */\n      dup6\n        /* \"#utility.yul\":15639:15644   */\n      dup3\n        /* \"#utility.yul\":15586:15653   */\n      tag_386\n      jump\t// in\n    tag_554:\n        /* \"#utility.yul\":15580:15584   */\n      dup7\n        /* \"#utility.yul\":15573:15654   */\n      sstore\n        /* \"#utility.yul\":15442:15664   */\n      pop\n        /* \"#utility.yul\":14723:15664   */\n      jump(tag_551)\n        /* \"#utility.yul\":14753:15425   */\n    tag_552:\n        /* \"#utility.yul\":14805:14809   */\n      0x1f\n        /* \"#utility.yul\":14801:14810   */\n      not\n        /* \"#utility.yul\":14793:14799   */\n      dup5\n        /* \"#utility.yul\":14789:14811   */\n      and\n        /* \"#utility.yul\":14831:14867   */\n      tag_555\n        /* \"#utility.yul\":14863:14866   */\n      dup8\n        /* \"#utility.yul\":14831:14867   */\n      tag_372\n      jump\t// in\n    tag_555:\n        /* \"#utility.yul\":14824:14867   */\n      swap7\n      pop\n        /* \"#utility.yul\":14894:14931   */\n      tag_556\n        /* \"#utility.yul\":14926:14930   */\n      dup7\n        /* \"#utility.yul\":14894:14931   */\n      tag_372\n      jump\t// in\n    tag_556:\n        /* \"#utility.yul\":14953:14954   */\n      0x00\n        /* \"#utility.yul\":14967:15174   */\n    tag_557:\n        /* \"#utility.yul\":14981:14988   */\n      dup3\n        /* \"#utility.yul\":14978:14979   */\n      dup2\n        /* \"#utility.yul\":14975:14989   */\n      lt\n        /* \"#utility.yul\":14967:15174   */\n      iszero\n      tag_559\n      jumpi\n        /* \"#utility.yul\":15060:15069   */\n      dup5\n        /* \"#utility.yul\":15055:15058   */\n      dup10\n        /* \"#utility.yul\":15051:15070   */\n      add\n        /* \"#utility.yul\":15045:15071   */\n      sload\n        /* \"#utility.yul\":15037:15043   */\n      dup3\n        /* \"#utility.yul\":15030:15072   */\n      sstore\n        /* \"#utility.yul\":15111:15112   */\n      0x01\n        /* \"#utility.yul\":15103:15109   */\n      dup3\n        /* \"#utility.yul\":15099:15113   */\n      add\n        /* \"#utility.yul\":15089:15113   */\n      swap2\n      pop\n        /* \"#utility.yul\":15158:15159   */\n      0x01\n        /* \"#utility.yul\":15147:15156   */\n      dup6\n        /* \"#utility.yul\":15143:15160   */\n      add\n        /* \"#utility.yul\":15130:15160   */\n      swap5\n      pop\n        /* \"#utility.yul\":15004:15008   */\n      0x20\n        /* \"#utility.yul\":15001:15002   */\n      dup2\n        /* \"#utility.yul\":14997:15009   */\n      add\n        /* \"#utility.yul\":14992:15009   */\n      swap1\n      pop\n        /* \"#utility.yul\":14967:15174   */\n      jump(tag_557)\n    tag_559:\n        /* \"#utility.yul\":15202:15208   */\n      dup7\n        /* \"#utility.yul\":15193:15200   */\n      dup4\n        /* \"#utility.yul\":15190:15209   */\n      lt\n        /* \"#utility.yul\":15187:15366   */\n      iszero\n      tag_560\n      jumpi\n        /* \"#utility.yul\":15260:15269   */\n      dup5\n        /* \"#utility.yul\":15255:15258   */\n      dup10\n        /* \"#utility.yul\":15251:15270   */\n      add\n        /* \"#utility.yul\":15245:15271   */\n      sload\n        /* \"#utility.yul\":15303:15351   */\n      tag_561\n        /* \"#utility.yul\":15345:15349   */\n      0x1f\n        /* \"#utility.yul\":15337:15343   */\n      dup10\n        /* \"#utility.yul\":15333:15350   */\n      and\n        /* \"#utility.yul\":15322:15331   */\n      dup3\n        /* \"#utility.yul\":15303:15351   */\n      tag_385\n      jump\t// in\n    tag_561:\n        /* \"#utility.yul\":15295:15301   */\n      dup4\n        /* \"#utility.yul\":15288:15352   */\n      sstore\n        /* \"#utility.yul\":15210:15366   */\n      pop\n        /* \"#utility.yul\":15187:15366   */\n    tag_560:\n        /* \"#utility.yul\":15412:15413   */\n      0x01\n        /* \"#utility.yul\":15408:15409   */\n      0x02\n        /* \"#utility.yul\":15400:15406   */\n      dup9\n        /* \"#utility.yul\":15396:15410   */\n      mul\n        /* \"#utility.yul\":15392:15414   */\n      add\n        /* \"#utility.yul\":15386:15390   */\n      dup9\n        /* \"#utility.yul\":15379:15415   */\n      sstore\n        /* \"#utility.yul\":14760:15425   */\n      pop\n      pop\n      pop\n        /* \"#utility.yul\":14723:15664   */\n    tag_551:\n      pop\n        /* \"#utility.yul\":14308:15670   */\n      pop\n      pop\n      pop\n        /* \"#utility.yul\":14219:15670   */\n      pop\n      pop\n    tag_544:\n      jump\t// out\n        /* \"#utility.yul\":15676:15909   */\n    tag_118:\n        /* \"#utility.yul\":15715:15718   */\n      0x00\n        /* \"#utility.yul\":15738:15762   */\n      tag_563\n        /* \"#utility.yul\":15756:15761   */\n      dup3\n        /* \"#utility.yul\":15738:15762   */\n      tag_340\n      jump\t// in\n    tag_563:\n        /* \"#utility.yul\":15729:15762   */\n      swap2\n      pop\n        /* \"#utility.yul\":15784:15850   */\n      0xffffffffffffffffffffffffffffffffffffffffffffffffffffffffffffffff\n        /* \"#utility.yul\":15777:15782   */\n      dup3\n        /* \"#utility.yul\":15774:15851   */\n      sub\n        /* \"#utility.yul\":15771:15874   */\n      tag_564\n      jumpi\n        /* \"#utility.yul\":15854:15872   */\n      tag_565\n      tag_367\n      jump\t// in\n    tag_565:\n        /* \"#utility.yul\":15771:15874   */\n    tag_564:\n        /* \"#utility.yul\":15901:15902   */\n      0x01\n        /* \"#utility.yul\":15894:15899   */\n      dup3\n        /* \"#utility.yul\":15890:15903   */\n      add\n        /* \"#utility.yul\":15883:15903   */\n      swap1\n      pop\n        /* \"#utility.yul\":15676:15909   */\n      swap2\n      swap1\n      pop\n      jump\t// out\n        /* \"#utility.yul\":15915:16095   */\n    tag_121:\n        /* \"#utility.yul\":15963:16040   */\n      0x4e487b7100000000000000000000000000000000000000000000000000000000\n        /* \"#utility.yul\":15960:15961   */\n      0x00\n        /* \"#utility.yul\":15953:16041   */\n      mstore\n        /* \"#utility.yul\":16060:16064   */\n      0x31\n        /* \"#utility.yul\":16057:16058   */\n      0x04\n        /* \"#utility.yul\":16050:16065   */\n      mstore\n        /* \"#utility.yul\":16084:16088   */\n      0x24\n        /* \"#utility.yul\":16081:16082   */\n      0x00\n        /* \"#utility.yul\":16074:16089   */\n      revert\n        /* \"#utility.yul\":16101:17496   */\n    tag_139:\n        /* \"#utility.yul\":16218:16255   */\n      tag_568\n        /* \"#utility.yul\":16251:16254   */\n      dup3\n        /* \"#utility.yul\":16218:16255   */\n      tag_344\n      jump\t// in\n    tag_568:\n        /* \"#utility.yul\":16320:16338   */\n      0xffffffffffffffff\n        /* \"#utility.yul\":16312:16318   */\n      dup2\n        /* \"#utility.yul\":16309:16339   */\n      gt\n        /* \"#utility.yul\":16306:16362   */\n      iszero\n      tag_569\n      jumpi\n        /* \"#utility.yul\":16342:16360   */\n      tag_570\n      tag_143\n      jump\t// in\n    tag_570:\n        /* \"#utility.yul\":16306:16362   */\n    tag_569:\n        /* \"#utility.yul\":16386:16424   */\n      tag_571\n        /* \"#utility.yul\":16418:16422   */\n      dup3\n        /* \"#utility.yul\":16412:16423   */\n      sload\n        /* \"#utility.yul\":16386:16424   */\n      tag_131\n      jump\t// in\n    tag_571:\n        /* \"#utility.yul\":16471:16538   */\n      tag_572\n        /* \"#utility.yul\":16531:16537   */\n      dup3\n        /* \"#utility.yul\":16523:16529   */\n      dup3\n        /* \"#utility.yul\":16517:16521   */\n      dup6\n        /* \"#utility.yul\":16471:16538   */\n      tag_383\n      jump\t// in\n    tag_572:\n        /* \"#utility.yul\":16565:16566   */\n      0x00\n        /* \"#utility.yul\":16589:16593   */\n      0x20\n        /* \"#utility.yul\":16576:16593   */\n      swap1\n      pop\n        /* \"#utility.yul\":16621:16623   */\n      0x1f\n        /* \"#utility.yul\":16613:16619   */\n      dup4\n        /* \"#utility.yul\":16610:16624   */\n      gt\n        /* \"#utility.yul\":16638:16639   */\n      0x01\n        /* \"#utility.yul\":16633:17251   */\n      dup2\n      eq\n      tag_574\n      jumpi\n        /* \"#utility.yul\":17295:17296   */\n      0x00\n        /* \"#utility.yul\":17312:17318   */\n      dup5\n        /* \"#utility.yul\":17309:17386   */\n      iszero\n      tag_575\n      jumpi\n        /* \"#utility.yul\":17361:17370   */\n      dup3\n        /* \"#utility.yul\":17356:17359   */\n      dup8\n        /* \"#utility.yul\":17352:17371   */\n      add\n        /* \"#utility.yul\":17346:17372   */\n      mload\n        /* \"#utility.yul\":17337:17372   */\n      swap1\n      pop\n        /* \"#utility.yul\":17309:17386   */\n    tag_575:\n        /* \"#utility.yul\":17412:17479   */\n      tag_576\n        /* \"#utility.yul\":17472:17478   */\n      dup6\n        /* \"#utility.yul\":17465:17470   */\n      dup3\n        /* \"#utility.yul\":17412:17479   */\n      tag_386\n      jump\t// in\n    tag_576:\n        /* \"#utility.yul\":17406:17410   */\n      dup7\n        /* \"#utility.yul\":17399:17480   */\n      sstore\n        /* \"#utility.yul\":17268:17490   */\n      pop\n        /* \"#utility.yul\":16603:17490   */\n      jump(tag_573)\n        /* \"#utility.yul\":16633:17251   */\n    tag_574:\n        /* \"#utility.yul\":16685:16689   */\n      0x1f\n        /* \"#utility.yul\":16681:16690   */\n      not\n        /* \"#utility.yul\":16673:16679   */\n      dup5\n        /* \"#utility.yul\":16669:16691   */\n      and\n        /* \"#utility.yul\":16719:16756   */\n      tag_577\n        /* \"#utility.yul\":16751:16755   */\n      dup7\n        /* \"#utility.yul\":16719:16756   */\n      tag_372\n      jump\t// in\n    tag_577:\n        /* \"#utility.yul\":16778:16779   */\n      0x00\n        /* \"#utility.yul\":16792:17000   */\n    tag_578:\n        /* \"#utility.yul\":16806:16813   */\n      dup3\n        /* \"#utility.yul\":16803:16804   */\n      dup2\n        /* \"#utility.yul\":16800:16814   */\n      lt\n        /* \"#utility.yul\":16792:17000   */\n      iszero\n      tag_580\n      jumpi\n        /* \"#utility.yul\":16885:16894   */\n      dup5\n        /* \"#utility.yul\":16880:16883   */\n      dup10\n        /* \"#utility.yul\":16876:16895   */\n      add\n        /* \"#utility.yul\":16870:16896   */\n      mload\n        /* \"#utility.yul\":16862:16868   */\n      dup3\n        /* \"#utility.yul\":16855:16897   */\n      sstore\n        /* \"#utility.yul\":16936:16937   */\n      0x01\n        /* \"#utility.yul\":16928:16934   */\n      dup3\n        /* \"#utility.yul\":16924:16938   */\n      add\n        /* \"#utility.yul\":16914:16938   */\n      swap2\n      pop\n        /* \"#utility.yul\":16983:16985   */\n      0x20\n        /* \"#utility.yul\":16972:16981   */\n      dup6\n        /* \"#utility.yul\":16968:16986   */\n      add\n        /* \"#utility.yul\":16955:16986   */\n      swap5\n      pop\n        /* \"#utility.yul\":16829:16833   */\n      0x20\n        /* \"#utility.yul\":16826:16827   */\n      dup2\n        /* \"#utility.yul\":16822:16834   */\n      add\n        /* \"#utility.yul\":16817:16834   */\n      swap1\n      pop\n        /* \"#utility.yul\":16792:17000   */\n      jump(tag_578)\n    tag_580:\n        /* \"#utility.yul\":17028:17034   */\n      dup7\n        /* \"#utility.yul\":17019:17026   */\n      dup4\n        /* \"#utility.yul\":17016:17035   */\n      lt\n        /* \"#utility.yul\":17013:17192   */\n      iszero\n      tag_581\n      jumpi\n        /* \"#utility.yul\":17086:17095   */\n      dup5\n        /* \"#utility.yul\":17081:17084   */\n      dup10\n        /* \"#utility.yul\":17077:17096   */\n      add\n        /* \"#utility.yul\":17071:17097   */\n      mload\n        /* \"#utility.yul\":17129:17177   */\n      tag_582\n        /* \"#utility.yul\":17171:17175   */\n      0x1f\n        /* \"#utility.yul\":17163:17169   */\n      dup10\n        /* \"#utility.yul\":17159:17176   */\n      and\n        /* \"#utility.yul\":17148:17157   */\n      dup3\n        /* \"#utility.yul\":17129:17177   */\n      tag_385\n      jump\t// in\n    tag_582:\n        /* \"#utility.yul\":17121:17127   */\n      dup4\n        /* \"#utility.yul\":17114:17178   */\n      sstore\n        /* \"#utility.yul\":17036:17192   */\n      pop\n        /* \"#utility.yul\":17013:17192   */\n    tag_581:\n        /* \"#utility.yul\":17238:17239   */\n      0x01\n        /* \"#utility.yul\":17234:17235   */\n      0x02\n        /* \"#utility.yul\":17226:17232   */\n      dup9\n        /* \"#utility.yul\":17222:17236   */\n      mul\n        /* \"#utility.yul\":17218:17240   */\n      add\n        /* \"#utility.yul\":17212:17216   */\n      dup9\n        /* \"#utility.yul\":17205:17241   */\n      sstore\n        /* \"#utility.yul\":16640:17251   */\n      pop\n      pop\n      pop\n        /* \"#utility.yul\":16603:17490   */\n    tag_573:\n      pop\n        /* \"#utility.yul\":16193:17496   */\n      pop\n      pop\n      pop\n        /* \"#utility.yul\":16101:17496   */\n      pop\n      pop\n      jump\t// out\n        /* \"#utility.yul\":17502:17675   */\n    tag_387:\n        /* \"#utility.yul\":17642:17667   */\n      0x546f646f20697320616c72656164792070656e64696e67000000000000000000\n        /* \"#utility.yul\":17638:17639   */\n      0x00\n        /* \"#utility.yul\":17630:17636   */\n      dup3\n        /* \"#utility.yul\":17626:17640   */\n      add\n        /* \"#utility.yul\":17619:17668   */\n      mstore\n        /* \"#utility.yul\":17502:17675   */\n      pop\n      jump\t// out\n        /* \"#utility.yul\":17681:18047   */\n    tag_388:\n        /* \"#utility.yul\":17823:17826   */\n      0x00\n        /* \"#utility.yul\":17844:17911   */\n      tag_585\n        /* \"#utility.yul\":17908:17910   */\n      0x17\n        /* \"#utility.yul\":17903:17906   */\n      dup4\n        /* \"#utility.yul\":17844:17911   */\n      tag_345\n      jump\t// in\n    tag_585:\n        /* \"#utility.yul\":17837:17911   */\n      swap2\n      pop\n        /* \"#utility.yul\":17920:18013   */\n      tag_586\n        /* \"#utility.yul\":18009:18012   */\n      dup3\n        /* \"#utility.yul\":17920:18013   */\n      tag_387\n      jump\t// in\n    tag_586:\n        /* \"#utility.yul\":18038:18040   */\n      0x20\n        /* \"#utility.yul\":18033:18036   */\n      dup3\n        /* \"#utility.yul\":18029:18041   */\n      add\n        /* \"#utility.yul\":18022:18041   */\n      swap1\n      pop\n        /* \"#utility.yul\":17681:18047   */\n      swap2\n      swap1\n      pop\n      jump\t// out\n        /* \"#utility.yul\":18053:18472   */\n    tag_215:\n        /* \"#utility.yul\":18219:18223   */\n      0x00\n        /* \"#utility.yul\":18257:18259   */\n      0x20\n        /* \"#utility.yul\":18246:18255   */\n      dup3\n        /* \"#utility.yul\":18242:18260   */\n      add\n        /* \"#utility.yul\":18234:18260   */\n      swap1\n      pop\n        /* \"#utility.yul\":18306:18315   */\n      dup2\n        /* \"#utility.yul\":18300:18304   */\n      dup2\n        /* \"#utility.yul\":18296:18316   */\n      sub\n        /* \"#utility.yul\":18292:18293   */\n      0x00\n        /* \"#utility.yul\":18281:18290   */\n      dup4\n        /* \"#utility.yul\":18277:18294   */\n      add\n        /* \"#utility.yul\":18270:18317   */\n      mstore\n        /* \"#utility.yul\":18334:18465   */\n      tag_588\n        /* \"#utility.yul\":18460:18464   */\n      dup2\n        /* \"#utility.yul\":18334:18465   */\n      tag_388\n      jump\t// in\n    tag_588:\n        /* \"#utility.yul\":18326:18465   */\n      swap1\n      pop\n        /* \"#utility.yul\":18053:18472   */\n      swap2\n      swap1\n      pop\n      jump\t// out\n\n    auxdata: 0xa2646970667358221220aa2ded463c34f5e331bbcf85814fdb2fdaecc22ef238233185f2b02401611a4e64736f6c63430008120033\n}\n",
				"bytecode": {
					"linkReferences": {},
					"object": "608060405234801561001057600080fd5b506120f8806100206000396000f3fe608060405234801561001057600080fd5b50600436106101215760003560e01c8063bc8bc2b4116100ad578063e29672ba11610071578063e29672ba1461030c578063f112ba721461032a578063fcab4fa614610348578063fdacd57614610366578063fe1c7f6f1461038257610121565b8063bc8bc2b414610254578063c101d3f014610286578063c195fc74146102a2578063cd6aab58146102be578063d795ede1146102ee57610121565b806395ffebf5116100f457806395ffebf5146101ae578063982abb89146101ca578063a66fc514146101e8578063a7d59b59146101f2578063b2514afa1461022257610121565b80630b43c02c14610126578063104a7cd8146101425780632e52d6061461016057806367b37dc91461017e575b600080fd5b610140600480360381019061013b91906116c3565b6103b4565b005b61014a610559565b60405161015791906116ff565b60405180910390f35b610168610565565b60405161017591906116ff565b60405180910390f35b610198600480360381019061019391906116c3565b61056a565b6040516101a591906117aa565b60405180910390f35b6101c860048036038101906101c39190611901565b610621565b005b6101d26106af565b6040516101df9190611a56565b60405180910390f35b6101f06107fe565b005b61020c600480360381019061020791906116c3565b61080e565b60405161021991906117aa565b60405180910390f35b61023c600480360381019061023791906116c3565b6108c5565b60405161024b93929190611a93565b60405180910390f35b61026e600480360381019061026991906116c3565b610994565b60405161027d93929190611a93565b60405180910390f35b6102a0600480360381019061029b91906116c3565b610a63565b005b6102bc60048036038101906102b791906116c3565b610b8f565b005b6102d860048036038101906102d391906116c3565b610ef3565b6040516102e591906117aa565b60405180910390f35b6102f6610faa565b60405161030391906116ff565b60405180910390f35b610314610fb7565b6040516103219190611a56565b60405180910390f35b610332611107565b60405161033f9190611a56565b60405180910390f35b610350611257565b60405161035d91906116ff565b60405180910390f35b610380600480360381019061037b91906116c3565b611264565b005b61039c600480360381019061039791906116c3565b6114e6565b6040516103ab93929190611a93565b60405180910390f35b6000600282815481106103ca576103c9611ad1565b5b9060005260206000209060030201600101549050600181426103ec9190611b2f565b1161042c576040517f08c379a000000000000000000000000000000000000000000000000000000000815260040161042390611baf565b60405180910390fd5b60008290505b60016002805490506104449190611b2f565b8110156104fd57600260018261045a9190611bcf565b8154811061046b5761046a611ad1565b5b90600052602060002090600302016002828154811061048d5761048c611ad1565b5b9060005260206000209060030201600082018160000190816104af9190611e25565b50600182015481600101556002820160009054906101000a900460ff168160020160006101000a81548160ff02191690831515021790555090505080806104f590611f0d565b915050610432565b5060028054806105105761050f611f55565b5b60019003818190600052602060002090600302016000808201600061053591906115b5565b60018201600090556002820160006101000a81549060ff0219169055505090555050565b60008080549050905090565b600181565b6060600182815481106105805761057f611ad1565b5b9060005260206000209060030201600001805461059c90611c32565b80601f01602080910402602001604051908101604052809291908181526020018280546105c890611c32565b80156106155780601f106105ea57610100808354040283529160200191610615565b820191906000526020600020905b8154815290600101906020018083116105f857829003601f168201915b50505050509050919050565b60006040518060600160405280838152602001428152602001600015158152509080600181540180825580915050600190039060005260206000209060030201600090919091909150600082015181600001908161067f9190611f84565b506020820151816001015560408201518160020160006101000a81548160ff021916908315150217905550505050565b60606000808054905067ffffffffffffffff8111156106d1576106d06117d6565b5b60405190808252806020026020018201604052801561070457816020015b60608152602001906001900390816106ef5790505b50905060005b6000805490508110156107f6576000818154811061072b5761072a611ad1565b5b9060005260206000209060030201600001805461074790611c32565b80601f016020809104026020016040519081016040528092919081815260200182805461077390611c32565b80156107c05780601f10610795576101008083540402835291602001916107c0565b820191906000526020600020905b8154815290600101906020018083116107a357829003601f168201915b50505050508282815181106107d8576107d7611ad1565b5b602002602001018190525080806107ee90611f0d565b91505061070a565b508091505090565b6001600061080c91906115f5565b565b60606002828154811061082457610823611ad1565b5b9060005260206000209060030201600001805461084090611c32565b80601f016020809104026020016040519081016040528092919081815260200182805461086c90611c32565b80156108b95780601f1061088e576101008083540402835291602001916108b9565b820191906000526020600020905b81548152906001019060200180831161089c57829003601f168201915b50505050509050919050565b600281815481106108d557600080fd5b90600052602060002090600302016000915090508060000180546108f890611c32565b80601f016020809104026020016040519081016040528092919081815260200182805461092490611c32565b80156109715780601f1061094657610100808354040283529160200191610971565b820191906000526020600020905b81548152906001019060200180831161095457829003601f168201915b5050505050908060010154908060020160009054906101000a900460ff16905083565b600081815481106109a457600080fd5b90600052602060002090600302016000915090508060000180546109c790611c32565b80601f01602080910402602001604051908101604052809291908181526020018280546109f390611c32565b8015610a405780601f10610a1557610100808354040283529160200191610a40565b820191906000526020600020905b815481529060010190602001808311610a2357829003601f168201915b5050505050908060010154908060020160009054906101000a900460ff16905083565b60008190505b6001600080549050610a7b9190611b2f565b811015610b34576000600182610a919190611bcf565b81548110610aa257610aa1611ad1565b5b906000526020600020906003020160008281548110610ac457610ac3611ad1565b5b906000526020600020906003020160008201816000019081610ae69190611e25565b50600182015481600101556002820160009054906101000a900460ff168160020160006101000a81548160ff0219169083151502179055509050508080610b2c90611f0d565b915050610a69565b506000805480610b4757610b46611f55565b5b600190038181906000526020600020906003020160008082016000610b6c91906115b5565b60018201600090556002820160006101000a81549060ff02191690555050905550565b6000808281548110610ba457610ba3611ad1565b5b9060005260206000209060030201604051806060016040529081600082018054610bcd90611c32565b80601f0160208091040260200160405190810160405280929190818152602001828054610bf990611c32565b8015610c465780601f10610c1b57610100808354040283529160200191610c46565b820191906000526020600020905b815481529060010190602001808311610c2957829003601f168201915b50505050508152602001600182015481526020016002820160009054906101000a900460ff1615151515815250509050806040015115610cbb576040517f08c379a0000000000000000000000000000000000000000000000000000000008152600401610cb2906120a2565b60405180910390fd5b60008290505b6001600080549050610cd39190611b2f565b811015610d8c576000600182610ce99190611bcf565b81548110610cfa57610cf9611ad1565b5b906000526020600020906003020160008281548110610d1c57610d1b611ad1565b5b906000526020600020906003020160008201816000019081610d3e9190611e25565b50600182015481600101556002820160009054906101000a900460ff168160020160006101000a81548160ff0219169083151502179055509050508080610d8490611f0d565b915050610cc1565b506000805480610d9f57610d9e611f55565b5b600190038181906000526020600020906003020160008082016000610dc491906115b5565b60018201600090556002820160006101000a81549060ff0219169055505090556001816020015142610df69190611b2f565b1115610e6f5760028190806001815401808255809150506001900390600052602060002090600302016000909190919091506000820151816000019081610e3d9190611f84565b506020820151816001015560408201518160020160006101000a81548160ff0219169083151502179055505050610eef565b600181604001901515908115158152505060028190806001815401808255809150506001900390600052602060002090600302016000909190919091506000820151816000019081610ec19190611f84565b506020820151816001015560408201518160020160006101000a81548160ff02191690831515021790555050505b5050565b606060008281548110610f0957610f08611ad1565b5b90600052602060002090600302016000018054610f2590611c32565b80601f0160208091040260200160405190810160405280929190818152602001828054610f5190611c32565b8015610f9e5780601f10610f7357610100808354040283529160200191610f9e565b820191906000526020600020905b815481529060010190602001808311610f8157829003601f168201915b50505050509050919050565b6000600280549050905090565b6060600060018054905067ffffffffffffffff811115610fda57610fd96117d6565b5b60405190808252806020026020018201604052801561100d57816020015b6060815260200190600190039081610ff85790505b50905060005b6001805490508110156110ff576001818154811061103457611033611ad1565b5b9060005260206000209060030201600001805461105090611c32565b80601f016020809104026020016040519081016040528092919081815260200182805461107c90611c32565b80156110c95780601f1061109e576101008083540402835291602001916110c9565b820191906000526020600020905b8154815290600101906020018083116110ac57829003601f168201915b50505050508282815181106110e1576110e0611ad1565b5b602002602001018190525080806110f790611f0d565b915050611013565b508091505090565b6060600060028054905067ffffffffffffffff81111561112a576111296117d6565b5b60405190808252806020026020018201604052801561115d57816020015b60608152602001906001900390816111485790505b50905060005b60028054905081101561124f576002818154811061118457611183611ad1565b5b906000526020600020906003020160000180546111a090611c32565b80601f01602080910402602001604051908101604052809291908181526020018280546111cc90611c32565b80156112195780601f106111ee57610100808354040283529160200191611219565b820191906000526020600020905b8154815290600101906020018083116111fc57829003601f168201915b505050505082828151811061123157611230611ad1565b5b6020026020010181905250808061124790611f0d565b915050611163565b508091505090565b6000600180549050905090565b600080828154811061127957611278611ad1565b5b90600052602060002090600302016040518060600160405290816000820180546112a290611c32565b80601f01602080910402602001604051908101604052809291908181526020018280546112ce90611c32565b801561131b5780601f106112f05761010080835404028352916020019161131b565b820191906000526020600020905b8154815290600101906020018083116112fe57829003601f168201915b50505050508152602001600182015481526020016002820160009054906101000a900460ff161515151581525050905060008290505b60016000805490506113639190611b2f565b81101561141c5760006001826113799190611bcf565b8154811061138a57611389611ad1565b5b9060005260206000209060030201600082815481106113ac576113ab611ad1565b5b9060005260206000209060030201600082018160000190816113ce9190611e25565b50600182015481600101556002820160009054906101000a900460ff168160020160006101000a81548160ff021916908315150217905550905050808061141490611f0d565b915050611351565b50600080548061142f5761142e611f55565b5b60019003818190600052602060002090600302016000808201600061145491906115b5565b60018201600090556002820160006101000a81549060ff021916905550509055600181908060018154018082558091505060019003906000526020600020906003020160009091909190915060008201518160000190816114b59190611f84565b506020820151816001015560408201518160020160006101000a81548160ff02191690831515021790555050505050565b600181815481106114f657600080fd5b906000526020600020906003020160009150905080600001805461151990611c32565b80601f016020809104026020016040519081016040528092919081815260200182805461154590611c32565b80156115925780601f1061156757610100808354040283529160200191611592565b820191906000526020600020905b81548152906001019060200180831161157557829003601f168201915b5050505050908060010154908060020160009054906101000a900460ff16905083565b5080546115c190611c32565b6000825580601f106115d357506115f2565b601f0160209004906000526020600020908101906115f19190611619565b5b50565b50805460008255600302906000526020600020908101906116169190611636565b50565b5b8082111561163257600081600090555060010161161a565b5090565b5b80821115611675576000808201600061165091906115b5565b60018201600090556002820160006101000a81549060ff021916905550600301611637565b5090565b6000604051905090565b600080fd5b600080fd5b6000819050919050565b6116a08161168d565b81146116ab57600080fd5b50565b6000813590506116bd81611697565b92915050565b6000602082840312156116d9576116d8611683565b5b60006116e7848285016116ae565b91505092915050565b6116f98161168d565b82525050565b600060208201905061171460008301846116f0565b92915050565b600081519050919050565b600082825260208201905092915050565b60005b83811015611754578082015181840152602081019050611739565b60008484015250505050565b6000601f19601f8301169050919050565b600061177c8261171a565b6117868185611725565b9350611796818560208601611736565b61179f81611760565b840191505092915050565b600060208201905081810360008301526117c48184611771565b905092915050565b600080fd5b600080fd5b7f4e487b7100000000000000000000000000000000000000000000000000000000600052604160045260246000fd5b61180e82611760565b810181811067ffffffffffffffff8211171561182d5761182c6117d6565b5b80604052505050565b6000611840611679565b905061184c8282611805565b919050565b600067ffffffffffffffff82111561186c5761186b6117d6565b5b61187582611760565b9050602081019050919050565b82818337600083830152505050565b60006118a461189f84611851565b611836565b9050828152602081018484840111156118c0576118bf6117d1565b5b6118cb848285611882565b509392505050565b600082601f8301126118e8576118e76117cc565b5b81356118f8848260208601611891565b91505092915050565b60006020828403121561191757611916611683565b5b600082013567ffffffffffffffff81111561193557611934611688565b5b611941848285016118d3565b91505092915050565b600081519050919050565b600082825260208201905092915050565b6000819050602082019050919050565b600082825260208201905092915050565b60006119928261171a565b61199c8185611976565b93506119ac818560208601611736565b6119b581611760565b840191505092915050565b60006119cc8383611987565b905092915050565b6000602082019050919050565b60006119ec8261194a565b6119f68185611955565b935083602082028501611a0885611966565b8060005b85811015611a445784840389528151611a2585826119c0565b9450611a30836119d4565b925060208a01995050600181019050611a0c565b50829750879550505050505092915050565b60006020820190508181036000830152611a7081846119e1565b905092915050565b60008115159050919050565b611a8d81611a78565b82525050565b60006060820190508181036000830152611aad8186611771565b9050611abc60208301856116f0565b611ac96040830184611a84565b949350505050565b7f4e487b7100000000000000000000000000000000000000000000000000000000600052603260045260246000fd5b7f4e487b7100000000000000000000000000000000000000000000000000000000600052601160045260246000fd5b6000611b3a8261168d565b9150611b458361168d565b9250828203905081811115611b5d57611b5c611b00565b5b92915050565b7f50656e64696e67206973206e6f74206578706972656420796574000000000000600082015250565b6000611b99601a83611725565b9150611ba482611b63565b602082019050919050565b60006020820190508181036000830152611bc881611b8c565b9050919050565b6000611bda8261168d565b9150611be58361168d565b9250828201905080821115611bfd57611bfc611b00565b5b92915050565b7f4e487b7100000000000000000000000000000000000000000000000000000000600052602260045260246000fd5b60006002820490506001821680611c4a57607f821691505b602082108103611c5d57611c5c611c03565b5b50919050565b600081549050611c7281611c32565b9050919050565b60008190508160005260206000209050919050565b60006020601f8301049050919050565b600082821b905092915050565b600060088302611cdb7fffffffffffffffffffffffffffffffffffffffffffffffffffffffffffffffff82611c9e565b611ce58683611c9e565b95508019841693508086168417925050509392505050565b6000819050919050565b6000611d22611d1d611d188461168d565b611cfd565b61168d565b9050919050565b6000819050919050565b611d3c83611d07565b611d50611d4882611d29565b848454611cab565b825550505050565b600090565b611d65611d58565b611d70818484611d33565b505050565b5b81811015611d9457611d89600082611d5d565b600181019050611d76565b5050565b601f821115611dd957611daa81611c79565b611db384611c8e565b81016020851015611dc2578190505b611dd6611dce85611c8e565b830182611d75565b50505b505050565b600082821c905092915050565b6000611dfc60001984600802611dde565b1980831691505092915050565b6000611e158383611deb565b9150826002028217905092915050565b818103611e33575050611f0b565b611e3c82611c63565b67ffffffffffffffff811115611e5557611e546117d6565b5b611e5f8254611c32565b611e6a828285611d98565b6000601f831160018114611e995760008415611e87578287015490505b611e918582611e09565b865550611f04565b601f198416611ea787611c79565b9650611eb286611c79565b60005b82811015611eda57848901548255600182019150600185019450602081019050611eb5565b86831015611ef75784890154611ef3601f891682611deb565b8355505b6001600288020188555050505b5050505050505b565b6000611f188261168d565b91507fffffffffffffffffffffffffffffffffffffffffffffffffffffffffffffffff8203611f4a57611f49611b00565b5b600182019050919050565b7f4e487b7100000000000000000000000000000000000000000000000000000000600052603160045260246000fd5b611f8d8261171a565b67ffffffffffffffff811115611fa657611fa56117d6565b5b611fb08254611c32565b611fbb828285611d98565b600060209050601f831160018114611fee5760008415611fdc578287015190505b611fe68582611e09565b86555061204e565b601f198416611ffc86611c79565b60005b8281101561202457848901518255600182019150602085019450602081019050611fff565b86831015612041578489015161203d601f891682611deb565b8355505b6001600288020188555050505b505050505050565b7f546f646f20697320616c72656164792070656e64696e67000000000000000000600082015250565b600061208c601783611725565b915061209782612056565b602082019050919050565b600060208201905081810360008301526120bb8161207f565b905091905056fea2646970667358221220aa2ded463c34f5e331bbcf85814fdb2fdaecc22ef238233185f2b02401611a4e64736f6c63430008120033",
					"opcodes": "PUSH1 0x80 PUSH1 0x40 MSTORE CALLVALUE DUP1 ISZERO PUSH2 0x10 JUMPI PUSH1 0x0 DUP1 REVERT JUMPDEST POP PUSH2 0x20F8 DUP1 PUSH2 0x20 PUSH1 0x0 CODECOPY PUSH1 0x0 RETURN INVALID PUSH1 0x80 PUSH1 0x40 MSTORE CALLVALUE DUP1 ISZERO PUSH2 0x10 JUMPI PUSH1 0x0 DUP1 REVERT JUMPDEST POP PUSH1 0x4 CALLDATASIZE LT PUSH2 0x121 JUMPI PUSH1 0x0 CALLDATALOAD PUSH1 0xE0 SHR DUP1 PUSH4 0xBC8BC2B4 GT PUSH2 0xAD JUMPI DUP1 PUSH4 0xE29672BA GT PUSH2 0x71 JUMPI DUP1 PUSH4 0xE29672BA EQ PUSH2 0x30C JUMPI DUP1 PUSH4 0xF112BA72 EQ PUSH2 0x32A JUMPI DUP1 PUSH4 0xFCAB4FA6 EQ PUSH2 0x348 JUMPI DUP1 PUSH4 0xFDACD576 EQ PUSH2 0x366 JUMPI DUP1 PUSH4 0xFE1C7F6F EQ PUSH2 0x382 JUMPI PUSH2 0x121 JUMP JUMPDEST DUP1 PUSH4 0xBC8BC2B4 EQ PUSH2 0x254 JUMPI DUP1 PUSH4 0xC101D3F0 EQ PUSH2 0x286 JUMPI DUP1 PUSH4 0xC195FC74 EQ PUSH2 0x2A2 JUMPI DUP1 PUSH4 0xCD6AAB58 EQ PUSH2 0x2BE JUMPI DUP1 PUSH4 0xD795EDE1 EQ PUSH2 0x2EE JUMPI PUSH2 0x121 JUMP JUMPDEST DUP1 PUSH4 0x95FFEBF5 GT PUSH2 0xF4 JUMPI DUP1 PUSH4 0x95FFEBF5 EQ PUSH2 0x1AE JUMPI DUP1 PUSH4 0x982ABB89 EQ PUSH2 0x1CA JUMPI DUP1 PUSH4 0xA66FC514 EQ PUSH2 0x1E8 JUMPI DUP1 PUSH4 0xA7D59B59 EQ PUSH2 0x1F2 JUMPI DUP1 PUSH4 0xB2514AFA EQ PUSH2 0x222 JUMPI PUSH2 0x121 JUMP JUMPDEST DUP1 PUSH4 0xB43C02C EQ PUSH2 0x126 JUMPI DUP1 PUSH4 0x104A7CD8 EQ PUSH2 0x142 JUMPI DUP1 PUSH4 0x2E52D606 EQ PUSH2 0x160 JUMPI DUP1 PUSH4 0x67B37DC9 EQ PUSH2 0x17E JUMPI JUMPDEST PUSH1 0x0 DUP1 REVERT JUMPDEST PUSH2 0x140 PUSH1 0x4 DUP1 CALLDATASIZE SUB DUP2 ADD SWAP1 PUSH2 0x13B SWAP2 SWAP1 PUSH2 0x16C3 JUMP JUMPDEST PUSH2 0x3B4 JUMP JUMPDEST STOP JUMPDEST PUSH2 0x14A PUSH2 0x559 JUMP JUMPDEST PUSH1 0x40 MLOAD PUSH2 0x157 SWAP2 SWAP1 PUSH2 0x16FF JUMP JUMPDEST PUSH1 0x40 MLOAD DUP1 SWAP2 SUB SWAP1 RETURN JUMPDEST PUSH2 0x168 PUSH2 0x565 JUMP JUMPDEST PUSH1 0x40 MLOAD PUSH2 0x175 SWAP2 SWAP1 PUSH2 0x16FF JUMP JUMPDEST PUSH1 0x40 MLOAD DUP1 SWAP2 SUB SWAP1 RETURN JUMPDEST PUSH2 0x198 PUSH1 0x4 DUP1 CALLDATASIZE SUB DUP2 ADD SWAP1 PUSH2 0x193 SWAP2 SWAP1 PUSH2 0x16C3 JUMP JUMPDEST PUSH2 0x56A JUMP JUMPDEST PUSH1 0x40 MLOAD PUSH2 0x1A5 SWAP2 SWAP1 PUSH2 0x17AA JUMP JUMPDEST PUSH1 0x40 MLOAD DUP1 SWAP2 SUB SWAP1 RETURN JUMPDEST PUSH2 0x1C8 PUSH1 0x4 DUP1 CALLDATASIZE SUB DUP2 ADD SWAP1 PUSH2 0x1C3 SWAP2 SWAP1 PUSH2 0x1901 JUMP JUMPDEST PUSH2 0x621 JUMP JUMPDEST STOP JUMPDEST PUSH2 0x1D2 PUSH2 0x6AF JUMP JUMPDEST PUSH1 0x40 MLOAD PUSH2 0x1DF SWAP2 SWAP1 PUSH2 0x1A56 JUMP JUMPDEST PUSH1 0x40 MLOAD DUP1 SWAP2 SUB SWAP1 RETURN JUMPDEST PUSH2 0x1F0 PUSH2 0x7FE JUMP JUMPDEST STOP JUMPDEST PUSH2 0x20C PUSH1 0x4 DUP1 CALLDATASIZE SUB DUP2 ADD SWAP1 PUSH2 0x207 SWAP2 SWAP1 PUSH2 0x16C3 JUMP JUMPDEST PUSH2 0x80E JUMP JUMPDEST PUSH1 0x40 MLOAD PUSH2 0x219 SWAP2 SWAP1 PUSH2 0x17AA JUMP JUMPDEST PUSH1 0x40 MLOAD DUP1 SWAP2 SUB SWAP1 RETURN JUMPDEST PUSH2 0x23C PUSH1 0x4 DUP1 CALLDATASIZE SUB DUP2 ADD SWAP1 PUSH2 0x237 SWAP2 SWAP1 PUSH2 0x16C3 JUMP JUMPDEST PUSH2 0x8C5 JUMP JUMPDEST PUSH1 0x40 MLOAD PUSH2 0x24B SWAP4 SWAP3 SWAP2 SWAP1 PUSH2 0x1A93 JUMP JUMPDEST PUSH1 0x40 MLOAD DUP1 SWAP2 SUB SWAP1 RETURN JUMPDEST PUSH2 0x26E PUSH1 0x4 DUP1 CALLDATASIZE SUB DUP2 ADD SWAP1 PUSH2 0x269 SWAP2 SWAP1 PUSH2 0x16C3 JUMP JUMPDEST PUSH2 0x994 JUMP JUMPDEST PUSH1 0x40 MLOAD PUSH2 0x27D SWAP4 SWAP3 SWAP2 SWAP1 PUSH2 0x1A93 JUMP JUMPDEST PUSH1 0x40 MLOAD DUP1 SWAP2 SUB SWAP1 RETURN JUMPDEST PUSH2 0x2A0 PUSH1 0x4 DUP1 CALLDATASIZE SUB DUP2 ADD SWAP1 PUSH2 0x29B SWAP2 SWAP1 PUSH2 0x16C3 JUMP JUMPDEST PUSH2 0xA63 JUMP JUMPDEST STOP JUMPDEST PUSH2 0x2BC PUSH1 0x4 DUP1 CALLDATASIZE SUB DUP2 ADD SWAP1 PUSH2 0x2B7 SWAP2 SWAP1 PUSH2 0x16C3 JUMP JUMPDEST PUSH2 0xB8F JUMP JUMPDEST STOP JUMPDEST PUSH2 0x2D8 PUSH1 0x4 DUP1 CALLDATASIZE SUB DUP2 ADD SWAP1 PUSH2 0x2D3 SWAP2 SWAP1 PUSH2 0x16C3 JUMP JUMPDEST PUSH2 0xEF3 JUMP JUMPDEST PUSH1 0x40 MLOAD PUSH2 0x2E5 SWAP2 SWAP1 PUSH2 0x17AA JUMP JUMPDEST PUSH1 0x40 MLOAD DUP1 SWAP2 SUB SWAP1 RETURN JUMPDEST PUSH2 0x2F6 PUSH2 0xFAA JUMP JUMPDEST PUSH1 0x40 MLOAD PUSH2 0x303 SWAP2 SWAP1 PUSH2 0x16FF JUMP JUMPDEST PUSH1 0x40 MLOAD DUP1 SWAP2 SUB SWAP1 RETURN JUMPDEST PUSH2 0x314 PUSH2 0xFB7 JUMP JUMPDEST PUSH1 0x40 MLOAD PUSH2 0x321 SWAP2 SWAP1 PUSH2 0x1A56 JUMP JUMPDEST PUSH1 0x40 MLOAD DUP1 SWAP2 SUB SWAP1 RETURN JUMPDEST PUSH2 0x332 PUSH2 0x1107 JUMP JUMPDEST PUSH1 0x40 MLOAD PUSH2 0x33F SWAP2 SWAP1 PUSH2 0x1A56 JUMP JUMPDEST PUSH1 0x40 MLOAD DUP1 SWAP2 SUB SWAP1 RETURN JUMPDEST PUSH2 0x350 PUSH2 0x1257 JUMP JUMPDEST PUSH1 0x40 MLOAD PUSH2 0x35D SWAP2 SWAP1 PUSH2 0x16FF JUMP JUMPDEST PUSH1 0x40 MLOAD DUP1 SWAP2 SUB SWAP1 RETURN JUMPDEST PUSH2 0x380 PUSH1 0x4 DUP1 CALLDATASIZE SUB DUP2 ADD SWAP1 PUSH2 0x37B SWAP2 SWAP1 PUSH2 0x16C3 JUMP JUMPDEST PUSH2 0x1264 JUMP JUMPDEST STOP JUMPDEST PUSH2 0x39C PUSH1 0x4 DUP1 CALLDATASIZE SUB DUP2 ADD SWAP1 PUSH2 0x397 SWAP2 SWAP1 PUSH2 0x16C3 JUMP JUMPDEST PUSH2 0x14E6 JUMP JUMPDEST PUSH1 0x40 MLOAD PUSH2 0x3AB SWAP4 SWAP3 SWAP2 SWAP1 PUSH2 0x1A93 JUMP JUMPDEST PUSH1 0x40 MLOAD DUP1 SWAP2 SUB SWAP1 RETURN JUMPDEST PUSH1 0x0 PUSH1 0x2 DUP3 DUP2 SLOAD DUP2 LT PUSH2 0x3CA JUMPI PUSH2 0x3C9 PUSH2 0x1AD1 JUMP JUMPDEST JUMPDEST SWAP1 PUSH1 0x0 MSTORE PUSH1 0x20 PUSH1 0x0 KECCAK256 SWAP1 PUSH1 0x3 MUL ADD PUSH1 0x1 ADD SLOAD SWAP1 POP PUSH1 0x1 DUP2 TIMESTAMP PUSH2 0x3EC SWAP2 SWAP1 PUSH2 0x1B2F JUMP JUMPDEST GT PUSH2 0x42C JUMPI PUSH1 0x40 MLOAD PUSH32 0x8C379A000000000000000000000000000000000000000000000000000000000 DUP2 MSTORE PUSH1 0x4 ADD PUSH2 0x423 SWAP1 PUSH2 0x1BAF JUMP JUMPDEST PUSH1 0x40 MLOAD DUP1 SWAP2 SUB SWAP1 REVERT JUMPDEST PUSH1 0x0 DUP3 SWAP1 POP JUMPDEST PUSH1 0x1 PUSH1 0x2 DUP1 SLOAD SWAP1 POP PUSH2 0x444 SWAP2 SWAP1 PUSH2 0x1B2F JUMP JUMPDEST DUP2 LT ISZERO PUSH2 0x4FD JUMPI PUSH1 0x2 PUSH1 0x1 DUP3 PUSH2 0x45A SWAP2 SWAP1 PUSH2 0x1BCF JUMP JUMPDEST DUP2 SLOAD DUP2 LT PUSH2 0x46B JUMPI PUSH2 0x46A PUSH2 0x1AD1 JUMP JUMPDEST JUMPDEST SWAP1 PUSH1 0x0 MSTORE PUSH1 0x20 PUSH1 0x0 KECCAK256 SWAP1 PUSH1 0x3 MUL ADD PUSH1 0x2 DUP3 DUP2 SLOAD DUP2 LT PUSH2 0x48D JUMPI PUSH2 0x48C PUSH2 0x1AD1 JUMP JUMPDEST JUMPDEST SWAP1 PUSH1 0x0 MSTORE PUSH1 0x20 PUSH1 0x0 KECCAK256 SWAP1 PUSH1 0x3 MUL ADD PUSH1 0x0 DUP3 ADD DUP2 PUSH1 0x0 ADD SWAP1 DUP2 PUSH2 0x4AF SWAP2 SWAP1 PUSH2 0x1E25 JUMP JUMPDEST POP PUSH1 0x1 DUP3 ADD SLOAD DUP2 PUSH1 0x1 ADD SSTORE PUSH1 0x2 DUP3 ADD PUSH1 0x0 SWAP1 SLOAD SWAP1 PUSH2 0x100 EXP SWAP1 DIV PUSH1 0xFF AND DUP2 PUSH1 0x2 ADD PUSH1 0x0 PUSH2 0x100 EXP DUP2 SLOAD DUP2 PUSH1 0xFF MUL NOT AND SWAP1 DUP4 ISZERO ISZERO MUL OR SWAP1 SSTORE POP SWAP1 POP POP DUP1 DUP1 PUSH2 0x4F5 SWAP1 PUSH2 0x1F0D JUMP JUMPDEST SWAP2 POP POP PUSH2 0x432 JUMP JUMPDEST POP PUSH1 0x2 DUP1 SLOAD DUP1 PUSH2 0x510 JUMPI PUSH2 0x50F PUSH2 0x1F55 JUMP JUMPDEST JUMPDEST PUSH1 0x1 SWAP1 SUB DUP2 DUP2 SWAP1 PUSH1 0x0 MSTORE PUSH1 0x20 PUSH1 0x0 KECCAK256 SWAP1 PUSH1 0x3 MUL ADD PUSH1 0x0 DUP1 DUP3 ADD PUSH1 0x0 PUSH2 0x535 SWAP2 SWAP1 PUSH2 0x15B5 JUMP JUMPDEST PUSH1 0x1 DUP3 ADD PUSH1 0x0 SWAP1 SSTORE PUSH1 0x2 DUP3 ADD PUSH1 0x0 PUSH2 0x100 EXP DUP2 SLOAD SWAP1 PUSH1 0xFF MUL NOT AND SWAP1 SSTORE POP POP SWAP1 SSTORE POP POP JUMP JUMPDEST PUSH1 0x0 DUP1 DUP1 SLOAD SWAP1 POP SWAP1 POP SWAP1 JUMP JUMPDEST PUSH1 0x1 DUP2 JUMP JUMPDEST PUSH1 0x60 PUSH1 0x1 DUP3 DUP2 SLOAD DUP2 LT PUSH2 0x580 JUMPI PUSH2 0x57F PUSH2 0x1AD1 JUMP JUMPDEST JUMPDEST SWAP1 PUSH1 0x0 MSTORE PUSH1 0x20 PUSH1 0x0 KECCAK256 SWAP1 PUSH1 0x3 MUL ADD PUSH1 0x0 ADD DUP1 SLOAD PUSH2 0x59C SWAP1 PUSH2 0x1C32 JUMP JUMPDEST DUP1 PUSH1 0x1F ADD PUSH1 0x20 DUP1 SWAP2 DIV MUL PUSH1 0x20 ADD PUSH1 0x40 MLOAD SWAP1 DUP2 ADD PUSH1 0x40 MSTORE DUP1 SWAP3 SWAP2 SWAP1 DUP2 DUP2 MSTORE PUSH1 0x20 ADD DUP3 DUP1 SLOAD PUSH2 0x5C8 SWAP1 PUSH2 0x1C32 JUMP JUMPDEST DUP1 ISZERO PUSH2 0x615 JUMPI DUP1 PUSH1 0x1F LT PUSH2 0x5EA JUMPI PUSH2 0x100 DUP1 DUP4 SLOAD DIV MUL DUP4 MSTORE SWAP2 PUSH1 0x20 ADD SWAP2 PUSH2 0x615 JUMP JUMPDEST DUP3 ADD SWAP2 SWAP1 PUSH1 0x0 MSTORE PUSH1 0x20 PUSH1 0x0 KECCAK256 SWAP1 JUMPDEST DUP2 SLOAD DUP2 MSTORE SWAP1 PUSH1 0x1 ADD SWAP1 PUSH1 0x20 ADD DUP1 DUP4 GT PUSH2 0x5F8 JUMPI DUP3 SWAP1 SUB PUSH1 0x1F AND DUP3 ADD SWAP2 JUMPDEST POP POP POP POP POP SWAP1 POP SWAP2 SWAP1 POP JUMP JUMPDEST PUSH1 0x0 PUSH1 0x40 MLOAD DUP1 PUSH1 0x60 ADD PUSH1 0x40 MSTORE DUP1 DUP4 DUP2 MSTORE PUSH1 0x20 ADD TIMESTAMP DUP2 MSTORE PUSH1 0x20 ADD PUSH1 0x0 ISZERO ISZERO DUP2 MSTORE POP SWAP1 DUP1 PUSH1 0x1 DUP2 SLOAD ADD DUP1 DUP3 SSTORE DUP1 SWAP2 POP POP PUSH1 0x1 SWAP1 SUB SWAP1 PUSH1 0x0 MSTORE PUSH1 0x20 PUSH1 0x0 KECCAK256 SWAP1 PUSH1 0x3 MUL ADD PUSH1 0x0 SWAP1 SWAP2 SWAP1 SWAP2 SWAP1 SWAP2 POP PUSH1 0x0 DUP3 ADD MLOAD DUP2 PUSH1 0x0 ADD SWAP1 DUP2 PUSH2 0x67F SWAP2 SWAP1 PUSH2 0x1F84 JUMP JUMPDEST POP PUSH1 0x20 DUP3 ADD MLOAD DUP2 PUSH1 0x1 ADD SSTORE PUSH1 0x40 DUP3 ADD MLOAD DUP2 PUSH1 0x2 ADD PUSH1 0x0 PUSH2 0x100 EXP DUP2 SLOAD DUP2 PUSH1 0xFF MUL NOT AND SWAP1 DUP4 ISZERO ISZERO MUL OR SWAP1 SSTORE POP POP POP POP JUMP JUMPDEST PUSH1 0x60 PUSH1 0x0 DUP1 DUP1 SLOAD SWAP1 POP PUSH8 0xFFFFFFFFFFFFFFFF DUP2 GT ISZERO PUSH2 0x6D1 JUMPI PUSH2 0x6D0 PUSH2 0x17D6 JUMP JUMPDEST JUMPDEST PUSH1 0x40 MLOAD SWAP1 DUP1 DUP3 MSTORE DUP1 PUSH1 0x20 MUL PUSH1 0x20 ADD DUP3 ADD PUSH1 0x40 MSTORE DUP1 ISZERO PUSH2 0x704 JUMPI DUP2 PUSH1 0x20 ADD JUMPDEST PUSH1 0x60 DUP2 MSTORE PUSH1 0x20 ADD SWAP1 PUSH1 0x1 SWAP1 SUB SWAP1 DUP2 PUSH2 0x6EF JUMPI SWAP1 POP JUMPDEST POP SWAP1 POP PUSH1 0x0 JUMPDEST PUSH1 0x0 DUP1 SLOAD SWAP1 POP DUP2 LT ISZERO PUSH2 0x7F6 JUMPI PUSH1 0x0 DUP2 DUP2 SLOAD DUP2 LT PUSH2 0x72B JUMPI PUSH2 0x72A PUSH2 0x1AD1 JUMP JUMPDEST JUMPDEST SWAP1 PUSH1 0x0 MSTORE PUSH1 0x20 PUSH1 0x0 KECCAK256 SWAP1 PUSH1 0x3 MUL ADD PUSH1 0x0 ADD DUP1 SLOAD PUSH2 0x747 SWAP1 PUSH2 0x1C32 JUMP JUMPDEST DUP1 PUSH1 0x1F ADD PUSH1 0x20 DUP1 SWAP2 DIV MUL PUSH1 0x20 ADD PUSH1 0x40 MLOAD SWAP1 DUP2 ADD PUSH1 0x40 MSTORE DUP1 SWAP3 SWAP2 SWAP1 DUP2 DUP2 MSTORE PUSH1 0x20 ADD DUP3 DUP1 SLOAD PUSH2 0x773 SWAP1 PUSH2 0x1C32 JUMP JUMPDEST DUP1 ISZERO PUSH2 0x7C0 JUMPI DUP1 PUSH1 0x1F LT PUSH2 0x795 JUMPI PUSH2 0x100 DUP1 DUP4 SLOAD DIV MUL DUP4 MSTORE SWAP2 PUSH1 0x20 ADD SWAP2 PUSH2 0x7C0 JUMP JUMPDEST DUP3 ADD SWAP2 SWAP1 PUSH1 0x0 MSTORE PUSH1 0x20 PUSH1 0x0 KECCAK256 SWAP1 JUMPDEST DUP2 SLOAD DUP2 MSTORE SWAP1 PUSH1 0x1 ADD SWAP1 PUSH1 0x20 ADD DUP1 DUP4 GT PUSH2 0x7A3 JUMPI DUP3 SWAP1 SUB PUSH1 0x1F AND DUP3 ADD SWAP2 JUMPDEST POP POP POP POP POP DUP3 DUP3 DUP2 MLOAD DUP2 LT PUSH2 0x7D8 JUMPI PUSH2 0x7D7 PUSH2 0x1AD1 JUMP JUMPDEST JUMPDEST PUSH1 0x20 MUL PUSH1 0x20 ADD ADD DUP2 SWAP1 MSTORE POP DUP1 DUP1 PUSH2 0x7EE SWAP1 PUSH2 0x1F0D JUMP JUMPDEST SWAP2 POP POP PUSH2 0x70A JUMP JUMPDEST POP DUP1 SWAP2 POP POP SWAP1 JUMP JUMPDEST PUSH1 0x1 PUSH1 0x0 PUSH2 0x80C SWAP2 SWAP1 PUSH2 0x15F5 JUMP JUMPDEST JUMP JUMPDEST PUSH1 0x60 PUSH1 0x2 DUP3 DUP2 SLOAD DUP2 LT PUSH2 0x824 JUMPI PUSH2 0x823 PUSH2 0x1AD1 JUMP JUMPDEST JUMPDEST SWAP1 PUSH1 0x0 MSTORE PUSH1 0x20 PUSH1 0x0 KECCAK256 SWAP1 PUSH1 0x3 MUL ADD PUSH1 0x0 ADD DUP1 SLOAD PUSH2 0x840 SWAP1 PUSH2 0x1C32 JUMP JUMPDEST DUP1 PUSH1 0x1F ADD PUSH1 0x20 DUP1 SWAP2 DIV MUL PUSH1 0x20 ADD PUSH1 0x40 MLOAD SWAP1 DUP2 ADD PUSH1 0x40 MSTORE DUP1 SWAP3 SWAP2 SWAP1 DUP2 DUP2 MSTORE PUSH1 0x20 ADD DUP3 DUP1 SLOAD PUSH2 0x86C SWAP1 PUSH2 0x1C32 JUMP JUMPDEST DUP1 ISZERO PUSH2 0x8B9 JUMPI DUP1 PUSH1 0x1F LT PUSH2 0x88E JUMPI PUSH2 0x100 DUP1 DUP4 SLOAD DIV MUL DUP4 MSTORE SWAP2 PUSH1 0x20 ADD SWAP2 PUSH2 0x8B9 JUMP JUMPDEST DUP3 ADD SWAP2 SWAP1 PUSH1 0x0 MSTORE PUSH1 0x20 PUSH1 0x0 KECCAK256 SWAP1 JUMPDEST DUP2 SLOAD DUP2 MSTORE SWAP1 PUSH1 0x1 ADD SWAP1 PUSH1 0x20 ADD DUP1 DUP4 GT PUSH2 0x89C JUMPI DUP3 SWAP1 SUB PUSH1 0x1F AND DUP3 ADD SWAP2 JUMPDEST POP POP POP POP POP SWAP1 POP SWAP2 SWAP1 POP JUMP JUMPDEST PUSH1 0x2 DUP2 DUP2 SLOAD DUP2 LT PUSH2 0x8D5 JUMPI PUSH1 0x0 DUP1 REVERT JUMPDEST SWAP1 PUSH1 0x0 MSTORE PUSH1 0x20 PUSH1 0x0 KECCAK256 SWAP1 PUSH1 0x3 MUL ADD PUSH1 0x0 SWAP2 POP SWAP1 POP DUP1 PUSH1 0x0 ADD DUP1 SLOAD PUSH2 0x8F8 SWAP1 PUSH2 0x1C32 JUMP JUMPDEST DUP1 PUSH1 0x1F ADD PUSH1 0x20 DUP1 SWAP2 DIV MUL PUSH1 0x20 ADD PUSH1 0x40 MLOAD SWAP1 DUP2 ADD PUSH1 0x40 MSTORE DUP1 SWAP3 SWAP2 SWAP1 DUP2 DUP2 MSTORE PUSH1 0x20 ADD DUP3 DUP1 SLOAD PUSH2 0x924 SWAP1 PUSH2 0x1C32 JUMP JUMPDEST DUP1 ISZERO PUSH2 0x971 JUMPI DUP1 PUSH1 0x1F LT PUSH2 0x946 JUMPI PUSH2 0x100 DUP1 DUP4 SLOAD DIV MUL DUP4 MSTORE SWAP2 PUSH1 0x20 ADD SWAP2 PUSH2 0x971 JUMP JUMPDEST DUP3 ADD SWAP2 SWAP1 PUSH1 0x0 MSTORE PUSH1 0x20 PUSH1 0x0 KECCAK256 SWAP1 JUMPDEST DUP2 SLOAD DUP2 MSTORE SWAP1 PUSH1 0x1 ADD SWAP1 PUSH1 0x20 ADD DUP1 DUP4 GT PUSH2 0x954 JUMPI DUP3 SWAP1 SUB PUSH1 0x1F AND DUP3 ADD SWAP2 JUMPDEST POP POP POP POP POP SWAP1 DUP1 PUSH1 0x1 ADD SLOAD SWAP1 DUP1 PUSH1 0x2 ADD PUSH1 0x0 SWAP1 SLOAD SWAP1 PUSH2 0x100 EXP SWAP1 DIV PUSH1 0xFF AND SWAP1 POP DUP4 JUMP JUMPDEST PUSH1 0x0 DUP2 DUP2 SLOAD DUP2 LT PUSH2 0x9A4 JUMPI PUSH1 0x0 DUP1 REVERT JUMPDEST SWAP1 PUSH1 0x0 MSTORE PUSH1 0x20 PUSH1 0x0 KECCAK256 SWAP1 PUSH1 0x3 MUL ADD PUSH1 0x0 SWAP2 POP SWAP1 POP DUP1 PUSH1 0x0 ADD DUP1 SLOAD PUSH2 0x9C7 SWAP1 PUSH2 0x1C32 JUMP JUMPDEST DUP1 PUSH1 0x1F ADD PUSH1 0x20 DUP1 SWAP2 DIV MUL PUSH1 0x20 ADD PUSH1 0x40 MLOAD SWAP1 DUP2 ADD PUSH1 0x40 MSTORE DUP1 SWAP3 SWAP2 SWAP1 DUP2 DUP2 MSTORE PUSH1 0x20 ADD DUP3 DUP1 SLOAD PUSH2 0x9F3 SWAP1 PUSH2 0x1C32 JUMP JUMPDEST DUP1 ISZERO PUSH2 0xA40 JUMPI DUP1 PUSH1 0x1F LT PUSH2 0xA15 JUMPI PUSH2 0x100 DUP1 DUP4 SLOAD DIV MUL DUP4 MSTORE SWAP2 PUSH1 0x20 ADD SWAP2 PUSH2 0xA40 JUMP JUMPDEST DUP3 ADD SWAP2 SWAP1 PUSH1 0x0 MSTORE PUSH1 0x20 PUSH1 0x0 KECCAK256 SWAP1 JUMPDEST DUP2 SLOAD DUP2 MSTORE SWAP1 PUSH1 0x1 ADD SWAP1 PUSH1 0x20 ADD DUP1 DUP4 GT PUSH2 0xA23 JUMPI DUP3 SWAP1 SUB PUSH1 0x1F AND DUP3 ADD SWAP2 JUMPDEST POP POP POP POP POP SWAP1 DUP1 PUSH1 0x1 ADD SLOAD SWAP1 DUP1 PUSH1 0x2 ADD PUSH1 0x0 SWAP1 SLOAD SWAP1 PUSH2 0x100 EXP SWAP1 DIV PUSH1 0xFF AND SWAP1 POP DUP4 JUMP JUMPDEST PUSH1 0x0 DUP2 SWAP1 POP JUMPDEST PUSH1 0x1 PUSH1 0x0 DUP1 SLOAD SWAP1 POP PUSH2 0xA7B SWAP2 SWAP1 PUSH2 0x1B2F JUMP JUMPDEST DUP2 LT ISZERO PUSH2 0xB34 JUMPI PUSH1 0x0 PUSH1 0x1 DUP3 PUSH2 0xA91 SWAP2 SWAP1 PUSH2 0x1BCF JUMP JUMPDEST DUP2 SLOAD DUP2 LT PUSH2 0xAA2 JUMPI PUSH2 0xAA1 PUSH2 0x1AD1 JUMP JUMPDEST JUMPDEST SWAP1 PUSH1 0x0 MSTORE PUSH1 0x20 PUSH1 0x0 KECCAK256 SWAP1 PUSH1 0x3 MUL ADD PUSH1 0x0 DUP3 DUP2 SLOAD DUP2 LT PUSH2 0xAC4 JUMPI PUSH2 0xAC3 PUSH2 0x1AD1 JUMP JUMPDEST JUMPDEST SWAP1 PUSH1 0x0 MSTORE PUSH1 0x20 PUSH1 0x0 KECCAK256 SWAP1 PUSH1 0x3 MUL ADD PUSH1 0x0 DUP3 ADD DUP2 PUSH1 0x0 ADD SWAP1 DUP2 PUSH2 0xAE6 SWAP2 SWAP1 PUSH2 0x1E25 JUMP JUMPDEST POP PUSH1 0x1 DUP3 ADD SLOAD DUP2 PUSH1 0x1 ADD SSTORE PUSH1 0x2 DUP3 ADD PUSH1 0x0 SWAP1 SLOAD SWAP1 PUSH2 0x100 EXP SWAP1 DIV PUSH1 0xFF AND DUP2 PUSH1 0x2 ADD PUSH1 0x0 PUSH2 0x100 EXP DUP2 SLOAD DUP2 PUSH1 0xFF MUL NOT AND SWAP1 DUP4 ISZERO ISZERO MUL OR SWAP1 SSTORE POP SWAP1 POP POP DUP1 DUP1 PUSH2 0xB2C SWAP1 PUSH2 0x1F0D JUMP JUMPDEST SWAP2 POP POP PUSH2 0xA69 JUMP JUMPDEST POP PUSH1 0x0 DUP1 SLOAD DUP1 PUSH2 0xB47 JUMPI PUSH2 0xB46 PUSH2 0x1F55 JUMP JUMPDEST JUMPDEST PUSH1 0x1 SWAP1 SUB DUP2 DUP2 SWAP1 PUSH1 0x0 MSTORE PUSH1 0x20 PUSH1 0x0 KECCAK256 SWAP1 PUSH1 0x3 MUL ADD PUSH1 0x0 DUP1 DUP3 ADD PUSH1 0x0 PUSH2 0xB6C SWAP2 SWAP1 PUSH2 0x15B5 JUMP JUMPDEST PUSH1 0x1 DUP3 ADD PUSH1 0x0 SWAP1 SSTORE PUSH1 0x2 DUP3 ADD PUSH1 0x0 PUSH2 0x100 EXP DUP2 SLOAD SWAP1 PUSH1 0xFF MUL NOT AND SWAP1 SSTORE POP POP SWAP1 SSTORE POP JUMP JUMPDEST PUSH1 0x0 DUP1 DUP3 DUP2 SLOAD DUP2 LT PUSH2 0xBA4 JUMPI PUSH2 0xBA3 PUSH2 0x1AD1 JUMP JUMPDEST JUMPDEST SWAP1 PUSH1 0x0 MSTORE PUSH1 0x20 PUSH1 0x0 KECCAK256 SWAP1 PUSH1 0x3 MUL ADD PUSH1 0x40 MLOAD DUP1 PUSH1 0x60 ADD PUSH1 0x40 MSTORE SWAP1 DUP2 PUSH1 0x0 DUP3 ADD DUP1 SLOAD PUSH2 0xBCD SWAP1 PUSH2 0x1C32 JUMP JUMPDEST DUP1 PUSH1 0x1F ADD PUSH1 0x20 DUP1 SWAP2 DIV MUL PUSH1 0x20 ADD PUSH1 0x40 MLOAD SWAP1 DUP2 ADD PUSH1 0x40 MSTORE DUP1 SWAP3 SWAP2 SWAP1 DUP2 DUP2 MSTORE PUSH1 0x20 ADD DUP3 DUP1 SLOAD PUSH2 0xBF9 SWAP1 PUSH2 0x1C32 JUMP JUMPDEST DUP1 ISZERO PUSH2 0xC46 JUMPI DUP1 PUSH1 0x1F LT PUSH2 0xC1B JUMPI PUSH2 0x100 DUP1 DUP4 SLOAD DIV MUL DUP4 MSTORE SWAP2 PUSH1 0x20 ADD SWAP2 PUSH2 0xC46 JUMP JUMPDEST DUP3 ADD SWAP2 SWAP1 PUSH1 0x0 MSTORE PUSH1 0x20 PUSH1 0x0 KECCAK256 SWAP1 JUMPDEST DUP2 SLOAD DUP2 MSTORE SWAP1 PUSH1 0x1 ADD SWAP1 PUSH1 0x20 ADD DUP1 DUP4 GT PUSH2 0xC29 JUMPI DUP3 SWAP1 SUB PUSH1 0x1F AND DUP3 ADD SWAP2 JUMPDEST POP POP POP POP POP DUP2 MSTORE PUSH1 0x20 ADD PUSH1 0x1 DUP3 ADD SLOAD DUP2 MSTORE PUSH1 0x20 ADD PUSH1 0x2 DUP3 ADD PUSH1 0x0 SWAP1 SLOAD SWAP1 PUSH2 0x100 EXP SWAP1 DIV PUSH1 0xFF AND ISZERO ISZERO ISZERO ISZERO DUP2 MSTORE POP POP SWAP1 POP DUP1 PUSH1 0x40 ADD MLOAD ISZERO PUSH2 0xCBB JUMPI PUSH1 0x40 MLOAD PUSH32 0x8C379A000000000000000000000000000000000000000000000000000000000 DUP2 MSTORE PUSH1 0x4 ADD PUSH2 0xCB2 SWAP1 PUSH2 0x20A2 JUMP JUMPDEST PUSH1 0x40 MLOAD DUP1 SWAP2 SUB SWAP1 REVERT JUMPDEST PUSH1 0x0 DUP3 SWAP1 POP JUMPDEST PUSH1 0x1 PUSH1 0x0 DUP1 SLOAD SWAP1 POP PUSH2 0xCD3 SWAP2 SWAP1 PUSH2 0x1B2F JUMP JUMPDEST DUP2 LT ISZERO PUSH2 0xD8C JUMPI PUSH1 0x0 PUSH1 0x1 DUP3 PUSH2 0xCE9 SWAP2 SWAP1 PUSH2 0x1BCF JUMP JUMPDEST DUP2 SLOAD DUP2 LT PUSH2 0xCFA JUMPI PUSH2 0xCF9 PUSH2 0x1AD1 JUMP JUMPDEST JUMPDEST SWAP1 PUSH1 0x0 MSTORE PUSH1 0x20 PUSH1 0x0 KECCAK256 SWAP1 PUSH1 0x3 MUL ADD PUSH1 0x0 DUP3 DUP2 SLOAD DUP2 LT PUSH2 0xD1C JUMPI PUSH2 0xD1B PUSH2 0x1AD1 JUMP JUMPDEST JUMPDEST SWAP1 PUSH1 0x0 MSTORE PUSH1 0x20 PUSH1 0x0 KECCAK256 SWAP1 PUSH1 0x3 MUL ADD PUSH1 0x0 DUP3 ADD DUP2 PUSH1 0x0 ADD SWAP1 DUP2 PUSH2 0xD3E SWAP2 SWAP1 PUSH2 0x1E25 JUMP JUMPDEST POP PUSH1 0x1 DUP3 ADD SLOAD DUP2 PUSH1 0x1 ADD SSTORE PUSH1 0x2 DUP3 ADD PUSH1 0x0 SWAP1 SLOAD SWAP1 PUSH2 0x100 EXP SWAP1 DIV PUSH1 0xFF AND DUP2 PUSH1 0x2 ADD PUSH1 0x0 PUSH2 0x100 EXP DUP2 SLOAD DUP2 PUSH1 0xFF MUL NOT AND SWAP1 DUP4 ISZERO ISZERO MUL OR SWAP1 SSTORE POP SWAP1 POP POP DUP1 DUP1 PUSH2 0xD84 SWAP1 PUSH2 0x1F0D JUMP JUMPDEST SWAP2 POP POP PUSH2 0xCC1 JUMP JUMPDEST POP PUSH1 0x0 DUP1 SLOAD DUP1 PUSH2 0xD9F JUMPI PUSH2 0xD9E PUSH2 0x1F55 JUMP JUMPDEST JUMPDEST PUSH1 0x1 SWAP1 SUB DUP2 DUP2 SWAP1 PUSH1 0x0 MSTORE PUSH1 0x20 PUSH1 0x0 KECCAK256 SWAP1 PUSH1 0x3 MUL ADD PUSH1 0x0 DUP1 DUP3 ADD PUSH1 0x0 PUSH2 0xDC4 SWAP2 SWAP1 PUSH2 0x15B5 JUMP JUMPDEST PUSH1 0x1 DUP3 ADD PUSH1 0x0 SWAP1 SSTORE PUSH1 0x2 DUP3 ADD PUSH1 0x0 PUSH2 0x100 EXP DUP2 SLOAD SWAP1 PUSH1 0xFF MUL NOT AND SWAP1 SSTORE POP POP SWAP1 SSTORE PUSH1 0x1 DUP2 PUSH1 0x20 ADD MLOAD TIMESTAMP PUSH2 0xDF6 SWAP2 SWAP1 PUSH2 0x1B2F JUMP JUMPDEST GT ISZERO PUSH2 0xE6F JUMPI PUSH1 0x2 DUP2 SWAP1 DUP1 PUSH1 0x1 DUP2 SLOAD ADD DUP1 DUP3 SSTORE DUP1 SWAP2 POP POP PUSH1 0x1 SWAP1 SUB SWAP1 PUSH1 0x0 MSTORE PUSH1 0x20 PUSH1 0x0 KECCAK256 SWAP1 PUSH1 0x3 MUL ADD PUSH1 0x0 SWAP1 SWAP2 SWAP1 SWAP2 SWAP1 SWAP2 POP PUSH1 0x0 DUP3 ADD MLOAD DUP2 PUSH1 0x0 ADD SWAP1 DUP2 PUSH2 0xE3D SWAP2 SWAP1 PUSH2 0x1F84 JUMP JUMPDEST POP PUSH1 0x20 DUP3 ADD MLOAD DUP2 PUSH1 0x1 ADD SSTORE PUSH1 0x40 DUP3 ADD MLOAD DUP2 PUSH1 0x2 ADD PUSH1 0x0 PUSH2 0x100 EXP DUP2 SLOAD DUP2 PUSH1 0xFF MUL NOT AND SWAP1 DUP4 ISZERO ISZERO MUL OR SWAP1 SSTORE POP POP POP PUSH2 0xEEF JUMP JUMPDEST PUSH1 0x1 DUP2 PUSH1 0x40 ADD SWAP1 ISZERO ISZERO SWAP1 DUP2 ISZERO ISZERO DUP2 MSTORE POP POP PUSH1 0x2 DUP2 SWAP1 DUP1 PUSH1 0x1 DUP2 SLOAD ADD DUP1 DUP3 SSTORE DUP1 SWAP2 POP POP PUSH1 0x1 SWAP1 SUB SWAP1 PUSH1 0x0 MSTORE PUSH1 0x20 PUSH1 0x0 KECCAK256 SWAP1 PUSH1 0x3 MUL ADD PUSH1 0x0 SWAP1 SWAP2 SWAP1 SWAP2 SWAP1 SWAP2 POP PUSH1 0x0 DUP3 ADD MLOAD DUP2 PUSH1 0x0 ADD SWAP1 DUP2 PUSH2 0xEC1 SWAP2 SWAP1 PUSH2 0x1F84 JUMP JUMPDEST POP PUSH1 0x20 DUP3 ADD MLOAD DUP2 PUSH1 0x1 ADD SSTORE PUSH1 0x40 DUP3 ADD MLOAD DUP2 PUSH1 0x2 ADD PUSH1 0x0 PUSH2 0x100 EXP DUP2 SLOAD DUP2 PUSH1 0xFF MUL NOT AND SWAP1 DUP4 ISZERO ISZERO MUL OR SWAP1 SSTORE POP POP POP JUMPDEST POP POP JUMP JUMPDEST PUSH1 0x60 PUSH1 0x0 DUP3 DUP2 SLOAD DUP2 LT PUSH2 0xF09 JUMPI PUSH2 0xF08 PUSH2 0x1AD1 JUMP JUMPDEST JUMPDEST SWAP1 PUSH1 0x0 MSTORE PUSH1 0x20 PUSH1 0x0 KECCAK256 SWAP1 PUSH1 0x3 MUL ADD PUSH1 0x0 ADD DUP1 SLOAD PUSH2 0xF25 SWAP1 PUSH2 0x1C32 JUMP JUMPDEST DUP1 PUSH1 0x1F ADD PUSH1 0x20 DUP1 SWAP2 DIV MUL PUSH1 0x20 ADD PUSH1 0x40 MLOAD SWAP1 DUP2 ADD PUSH1 0x40 MSTORE DUP1 SWAP3 SWAP2 SWAP1 DUP2 DUP2 MSTORE PUSH1 0x20 ADD DUP3 DUP1 SLOAD PUSH2 0xF51 SWAP1 PUSH2 0x1C32 JUMP JUMPDEST DUP1 ISZERO PUSH2 0xF9E JUMPI DUP1 PUSH1 0x1F LT PUSH2 0xF73 JUMPI PUSH2 0x100 DUP1 DUP4 SLOAD DIV MUL DUP4 MSTORE SWAP2 PUSH1 0x20 ADD SWAP2 PUSH2 0xF9E JUMP JUMPDEST DUP3 ADD SWAP2 SWAP1 PUSH1 0x0 MSTORE PUSH1 0x20 PUSH1 0x0 KECCAK256 SWAP1 JUMPDEST DUP2 SLOAD DUP2 MSTORE SWAP1 PUSH1 0x1 ADD SWAP1 PUSH1 0x20 ADD DUP1 DUP4 GT PUSH2 0xF81 JUMPI DUP3 SWAP1 SUB PUSH1 0x1F AND DUP3 ADD SWAP2 JUMPDEST POP POP POP POP POP SWAP1 POP SWAP2 SWAP1 POP JUMP JUMPDEST PUSH1 0x0 PUSH1 0x2 DUP1 SLOAD SWAP1 POP SWAP1 POP SWAP1 JUMP JUMPDEST PUSH1 0x60 PUSH1 0x0 PUSH1 0x1 DUP1 SLOAD SWAP1 POP PUSH8 0xFFFFFFFFFFFFFFFF DUP2 GT ISZERO PUSH2 0xFDA JUMPI PUSH2 0xFD9 PUSH2 0x17D6 JUMP JUMPDEST JUMPDEST PUSH1 0x40 MLOAD SWAP1 DUP1 DUP3 MSTORE DUP1 PUSH1 0x20 MUL PUSH1 0x20 ADD DUP3 ADD PUSH1 0x40 MSTORE DUP1 ISZERO PUSH2 0x100D JUMPI DUP2 PUSH1 0x20 ADD JUMPDEST PUSH1 0x60 DUP2 MSTORE PUSH1 0x20 ADD SWAP1 PUSH1 0x1 SWAP1 SUB SWAP1 DUP2 PUSH2 0xFF8 JUMPI SWAP1 POP JUMPDEST POP SWAP1 POP PUSH1 0x0 JUMPDEST PUSH1 0x1 DUP1 SLOAD SWAP1 POP DUP2 LT ISZERO PUSH2 0x10FF JUMPI PUSH1 0x1 DUP2 DUP2 SLOAD DUP2 LT PUSH2 0x1034 JUMPI PUSH2 0x1033 PUSH2 0x1AD1 JUMP JUMPDEST JUMPDEST SWAP1 PUSH1 0x0 MSTORE PUSH1 0x20 PUSH1 0x0 KECCAK256 SWAP1 PUSH1 0x3 MUL ADD PUSH1 0x0 ADD DUP1 SLOAD PUSH2 0x1050 SWAP1 PUSH2 0x1C32 JUMP JUMPDEST DUP1 PUSH1 0x1F ADD PUSH1 0x20 DUP1 SWAP2 DIV MUL PUSH1 0x20 ADD PUSH1 0x40 MLOAD SWAP1 DUP2 ADD PUSH1 0x40 MSTORE DUP1 SWAP3 SWAP2 SWAP1 DUP2 DUP2 MSTORE PUSH1 0x20 ADD DUP3 DUP1 SLOAD PUSH2 0x107C SWAP1 PUSH2 0x1C32 JUMP JUMPDEST DUP1 ISZERO PUSH2 0x10C9 JUMPI DUP1 PUSH1 0x1F LT PUSH2 0x109E JUMPI PUSH2 0x100 DUP1 DUP4 SLOAD DIV MUL DUP4 MSTORE SWAP2 PUSH1 0x20 ADD SWAP2 PUSH2 0x10C9 JUMP JUMPDEST DUP3 ADD SWAP2 SWAP1 PUSH1 0x0 MSTORE PUSH1 0x20 PUSH1 0x0 KECCAK256 SWAP1 JUMPDEST DUP2 SLOAD DUP2 MSTORE SWAP1 PUSH1 0x1 ADD SWAP1 PUSH1 0x20 ADD DUP1 DUP4 GT PUSH2 0x10AC JUMPI DUP3 SWAP1 SUB PUSH1 0x1F AND DUP3 ADD SWAP2 JUMPDEST POP POP POP POP POP DUP3 DUP3 DUP2 MLOAD DUP2 LT PUSH2 0x10E1 JUMPI PUSH2 0x10E0 PUSH2 0x1AD1 JUMP JUMPDEST JUMPDEST PUSH1 0x20 MUL PUSH1 0x20 ADD ADD DUP2 SWAP1 MSTORE POP DUP1 DUP1 PUSH2 0x10F7 SWAP1 PUSH2 0x1F0D JUMP JUMPDEST SWAP2 POP POP PUSH2 0x1013 JUMP JUMPDEST POP DUP1 SWAP2 POP POP SWAP1 JUMP JUMPDEST PUSH1 0x60 PUSH1 0x0 PUSH1 0x2 DUP1 SLOAD SWAP1 POP PUSH8 0xFFFFFFFFFFFFFFFF DUP2 GT ISZERO PUSH2 0x112A JUMPI PUSH2 0x1129 PUSH2 0x17D6 JUMP JUMPDEST JUMPDEST PUSH1 0x40 MLOAD SWAP1 DUP1 DUP3 MSTORE DUP1 PUSH1 0x20 MUL PUSH1 0x20 ADD DUP3 ADD PUSH1 0x40 MSTORE DUP1 ISZERO PUSH2 0x115D JUMPI DUP2 PUSH1 0x20 ADD JUMPDEST PUSH1 0x60 DUP2 MSTORE PUSH1 0x20 ADD SWAP1 PUSH1 0x1 SWAP1 SUB SWAP1 DUP2 PUSH2 0x1148 JUMPI SWAP1 POP JUMPDEST POP SWAP1 POP PUSH1 0x0 JUMPDEST PUSH1 0x2 DUP1 SLOAD SWAP1 POP DUP2 LT ISZERO PUSH2 0x124F JUMPI PUSH1 0x2 DUP2 DUP2 SLOAD DUP2 LT PUSH2 0x1184 JUMPI PUSH2 0x1183 PUSH2 0x1AD1 JUMP JUMPDEST JUMPDEST SWAP1 PUSH1 0x0 MSTORE PUSH1 0x20 PUSH1 0x0 KECCAK256 SWAP1 PUSH1 0x3 MUL ADD PUSH1 0x0 ADD DUP1 SLOAD PUSH2 0x11A0 SWAP1 PUSH2 0x1C32 JUMP JUMPDEST DUP1 PUSH1 0x1F ADD PUSH1 0x20 DUP1 SWAP2 DIV MUL PUSH1 0x20 ADD PUSH1 0x40 MLOAD SWAP1 DUP2 ADD PUSH1 0x40 MSTORE DUP1 SWAP3 SWAP2 SWAP1 DUP2 DUP2 MSTORE PUSH1 0x20 ADD DUP3 DUP1 SLOAD PUSH2 0x11CC SWAP1 PUSH2 0x1C32 JUMP JUMPDEST DUP1 ISZERO PUSH2 0x1219 JUMPI DUP1 PUSH1 0x1F LT PUSH2 0x11EE JUMPI PUSH2 0x100 DUP1 DUP4 SLOAD DIV MUL DUP4 MSTORE SWAP2 PUSH1 0x20 ADD SWAP2 PUSH2 0x1219 JUMP JUMPDEST DUP3 ADD SWAP2 SWAP1 PUSH1 0x0 MSTORE PUSH1 0x20 PUSH1 0x0 KECCAK256 SWAP1 JUMPDEST DUP2 SLOAD DUP2 MSTORE SWAP1 PUSH1 0x1 ADD SWAP1 PUSH1 0x20 ADD DUP1 DUP4 GT PUSH2 0x11FC JUMPI DUP3 SWAP1 SUB PUSH1 0x1F AND DUP3 ADD SWAP2 JUMPDEST POP POP POP POP POP DUP3 DUP3 DUP2 MLOAD DUP2 LT PUSH2 0x1231 JUMPI PUSH2 0x1230 PUSH2 0x1AD1 JUMP JUMPDEST JUMPDEST PUSH1 0x20 MUL PUSH1 0x20 ADD ADD DUP2 SWAP1 MSTORE POP DUP1 DUP1 PUSH2 0x1247 SWAP1 PUSH2 0x1F0D JUMP JUMPDEST SWAP2 POP POP PUSH2 0x1163 JUMP JUMPDEST POP DUP1 SWAP2 POP POP SWAP1 JUMP JUMPDEST PUSH1 0x0 PUSH1 0x1 DUP1 SLOAD SWAP1 POP SWAP1 POP SWAP1 JUMP JUMPDEST PUSH1 0x0 DUP1 DUP3 DUP2 SLOAD DUP2 LT PUSH2 0x1279 JUMPI PUSH2 0x1278 PUSH2 0x1AD1 JUMP JUMPDEST JUMPDEST SWAP1 PUSH1 0x0 MSTORE PUSH1 0x20 PUSH1 0x0 KECCAK256 SWAP1 PUSH1 0x3 MUL ADD PUSH1 0x40 MLOAD DUP1 PUSH1 0x60 ADD PUSH1 0x40 MSTORE SWAP1 DUP2 PUSH1 0x0 DUP3 ADD DUP1 SLOAD PUSH2 0x12A2 SWAP1 PUSH2 0x1C32 JUMP JUMPDEST DUP1 PUSH1 0x1F ADD PUSH1 0x20 DUP1 SWAP2 DIV MUL PUSH1 0x20 ADD PUSH1 0x40 MLOAD SWAP1 DUP2 ADD PUSH1 0x40 MSTORE DUP1 SWAP3 SWAP2 SWAP1 DUP2 DUP2 MSTORE PUSH1 0x20 ADD DUP3 DUP1 SLOAD PUSH2 0x12CE SWAP1 PUSH2 0x1C32 JUMP JUMPDEST DUP1 ISZERO PUSH2 0x131B JUMPI DUP1 PUSH1 0x1F LT PUSH2 0x12F0 JUMPI PUSH2 0x100 DUP1 DUP4 SLOAD DIV MUL DUP4 MSTORE SWAP2 PUSH1 0x20 ADD SWAP2 PUSH2 0x131B JUMP JUMPDEST DUP3 ADD SWAP2 SWAP1 PUSH1 0x0 MSTORE PUSH1 0x20 PUSH1 0x0 KECCAK256 SWAP1 JUMPDEST DUP2 SLOAD DUP2 MSTORE SWAP1 PUSH1 0x1 ADD SWAP1 PUSH1 0x20 ADD DUP1 DUP4 GT PUSH2 0x12FE JUMPI DUP3 SWAP1 SUB PUSH1 0x1F AND DUP3 ADD SWAP2 JUMPDEST POP POP POP POP POP DUP2 MSTORE PUSH1 0x20 ADD PUSH1 0x1 DUP3 ADD SLOAD DUP2 MSTORE PUSH1 0x20 ADD PUSH1 0x2 DUP3 ADD PUSH1 0x0 SWAP1 SLOAD SWAP1 PUSH2 0x100 EXP SWAP1 DIV PUSH1 0xFF AND ISZERO ISZERO ISZERO ISZERO DUP2 MSTORE POP POP SWAP1 POP PUSH1 0x0 DUP3 SWAP1 POP JUMPDEST PUSH1 0x1 PUSH1 0x0 DUP1 SLOAD SWAP1 POP PUSH2 0x1363 SWAP2 SWAP1 PUSH2 0x1B2F JUMP JUMPDEST DUP2 LT ISZERO PUSH2 0x141C JUMPI PUSH1 0x0 PUSH1 0x1 DUP3 PUSH2 0x1379 SWAP2 SWAP1 PUSH2 0x1BCF JUMP JUMPDEST DUP2 SLOAD DUP2 LT PUSH2 0x138A JUMPI PUSH2 0x1389 PUSH2 0x1AD1 JUMP JUMPDEST JUMPDEST SWAP1 PUSH1 0x0 MSTORE PUSH1 0x20 PUSH1 0x0 KECCAK256 SWAP1 PUSH1 0x3 MUL ADD PUSH1 0x0 DUP3 DUP2 SLOAD DUP2 LT PUSH2 0x13AC JUMPI PUSH2 0x13AB PUSH2 0x1AD1 JUMP JUMPDEST JUMPDEST SWAP1 PUSH1 0x0 MSTORE PUSH1 0x20 PUSH1 0x0 KECCAK256 SWAP1 PUSH1 0x3 MUL ADD PUSH1 0x0 DUP3 ADD DUP2 PUSH1 0x0 ADD SWAP1 DUP2 PUSH2 0x13CE SWAP2 SWAP1 PUSH2 0x1E25 JUMP JUMPDEST POP PUSH1 0x1 DUP3 ADD SLOAD DUP2 PUSH1 0x1 ADD SSTORE PUSH1 0x2 DUP3 ADD PUSH1 0x0 SWAP1 SLOAD SWAP1 PUSH2 0x100 EXP SWAP1 DIV PUSH1 0xFF AND DUP2 PUSH1 0x2 ADD PUSH1 0x0 PUSH2 0x100 EXP DUP2 SLOAD DUP2 PUSH1 0xFF MUL NOT AND SWAP1 DUP4 ISZERO ISZERO MUL OR SWAP1 SSTORE POP SWAP1 POP POP DUP1 DUP1 PUSH2 0x1414 SWAP1 PUSH2 0x1F0D JUMP JUMPDEST SWAP2 POP POP PUSH2 0x1351 JUMP JUMPDEST POP PUSH1 0x0 DUP1 SLOAD DUP1 PUSH2 0x142F JUMPI PUSH2 0x142E PUSH2 0x1F55 JUMP JUMPDEST JUMPDEST PUSH1 0x1 SWAP1 SUB DUP2 DUP2 SWAP1 PUSH1 0x0 MSTORE PUSH1 0x20 PUSH1 0x0 KECCAK256 SWAP1 PUSH1 0x3 MUL ADD PUSH1 0x0 DUP1 DUP3 ADD PUSH1 0x0 PUSH2 0x1454 SWAP2 SWAP1 PUSH2 0x15B5 JUMP JUMPDEST PUSH1 0x1 DUP3 ADD PUSH1 0x0 SWAP1 SSTORE PUSH1 0x2 DUP3 ADD PUSH1 0x0 PUSH2 0x100 EXP DUP2 SLOAD SWAP1 PUSH1 0xFF MUL NOT AND SWAP1 SSTORE POP POP SWAP1 SSTORE PUSH1 0x1 DUP2 SWAP1 DUP1 PUSH1 0x1 DUP2 SLOAD ADD DUP1 DUP3 SSTORE DUP1 SWAP2 POP POP PUSH1 0x1 SWAP1 SUB SWAP1 PUSH1 0x0 MSTORE PUSH1 0x20 PUSH1 0x0 KECCAK256 SWAP1 PUSH1 0x3 MUL ADD PUSH1 0x0 SWAP1 SWAP2 SWAP1 SWAP2 SWAP1 SWAP2 POP PUSH1 0x0 DUP3 ADD MLOAD DUP2 PUSH1 0x0 ADD SWAP1 DUP2 PUSH2 0x14B5 SWAP2 SWAP1 PUSH2 0x1F84 JUMP JUMPDEST POP PUSH1 0x20 DUP3 ADD MLOAD DUP2 PUSH1 0x1 ADD SSTORE PUSH1 0x40 DUP3 ADD MLOAD DUP2 PUSH1 0x2 ADD PUSH1 0x0 PUSH2 0x100 EXP DUP2 SLOAD DUP2 PUSH1 0xFF MUL NOT AND SWAP1 DUP4 ISZERO ISZERO MUL OR SWAP1 SSTORE POP POP POP POP POP JUMP JUMPDEST PUSH1 0x1 DUP2 DUP2 SLOAD DUP2 LT PUSH2 0x14F6 JUMPI PUSH1 0x0 DUP1 REVERT JUMPDEST SWAP1 PUSH1 0x0 MSTORE PUSH1 0x20 PUSH1 0x0 KECCAK256 SWAP1 PUSH1 0x3 MUL ADD PUSH1 0x0 SWAP2 POP SWAP1 POP DUP1 PUSH1 0x0 ADD DUP1 SLOAD PUSH2 0x1519 SWAP1 PUSH2 0x1C32 JUMP JUMPDEST DUP1 PUSH1 0x1F ADD PUSH1 0x20 DUP1 SWAP2 DIV MUL PUSH1 0x20 ADD PUSH1 0x40 MLOAD SWAP1 DUP2 ADD PUSH1 0x40 MSTORE DUP1 SWAP3 SWAP2 SWAP1 DUP2 DUP2 MSTORE PUSH1 0x20 ADD DUP3 DUP1 SLOAD PUSH2 0x1545 SWAP1 PUSH2 0x1C32 JUMP JUMPDEST DUP1 ISZERO PUSH2 0x1592 JUMPI DUP1 PUSH1 0x1F LT PUSH2 0x1567 JUMPI PUSH2 0x100 DUP1 DUP4 SLOAD DIV MUL DUP4 MSTORE SWAP2 PUSH1 0x20 ADD SWAP2 PUSH2 0x1592 JUMP JUMPDEST DUP3 ADD SWAP2 SWAP1 PUSH1 0x0 MSTORE PUSH1 0x20 PUSH1 0x0 KECCAK256 SWAP1 JUMPDEST DUP2 SLOAD DUP2 MSTORE SWAP1 PUSH1 0x1 ADD SWAP1 PUSH1 0x20 ADD DUP1 DUP4 GT PUSH2 0x1575 JUMPI DUP3 SWAP1 SUB PUSH1 0x1F AND DUP3 ADD SWAP2 JUMPDEST POP POP POP POP POP SWAP1 DUP1 PUSH1 0x1 ADD SLOAD SWAP1 DUP1 PUSH1 0x2 ADD PUSH1 0x0 SWAP1 SLOAD SWAP1 PUSH2 0x100 EXP SWAP1 DIV PUSH1 0xFF AND SWAP1 POP DUP4 JUMP JUMPDEST POP DUP1 SLOAD PUSH2 0x15C1 SWAP1 PUSH2 0x1C32 JUMP JUMPDEST PUSH1 0x0 DUP3 SSTORE DUP1 PUSH1 0x1F LT PUSH2 0x15D3 JUMPI POP PUSH2 0x15F2 JUMP JUMPDEST PUSH1 0x1F ADD PUSH1 0x20 SWAP1 DIV SWAP1 PUSH1 0x0 MSTORE PUSH1 0x20 PUSH1 0x0 KECCAK256 SWAP1 DUP2 ADD SWAP1 PUSH2 0x15F1 SWAP2 SWAP1 PUSH2 0x1619 JUMP JUMPDEST JUMPDEST POP JUMP JUMPDEST POP DUP1 SLOAD PUSH1 0x0 DUP3 SSTORE PUSH1 0x3 MUL SWAP1 PUSH1 0x0 MSTORE PUSH1 0x20 PUSH1 0x0 KECCAK256 SWAP1 DUP2 ADD SWAP1 PUSH2 0x1616 SWAP2 SWAP1 PUSH2 0x1636 JUMP JUMPDEST POP JUMP JUMPDEST JUMPDEST DUP1 DUP3 GT ISZERO PUSH2 0x1632 JUMPI PUSH1 0x0 DUP2 PUSH1 0x0 SWAP1 SSTORE POP PUSH1 0x1 ADD PUSH2 0x161A JUMP JUMPDEST POP SWAP1 JUMP JUMPDEST JUMPDEST DUP1 DUP3 GT ISZERO PUSH2 0x1675 JUMPI PUSH1 0x0 DUP1 DUP3 ADD PUSH1 0x0 PUSH2 0x1650 SWAP2 SWAP1 PUSH2 0x15B5 JUMP JUMPDEST PUSH1 0x1 DUP3 ADD PUSH1 0x0 SWAP1 SSTORE PUSH1 0x2 DUP3 ADD PUSH1 0x0 PUSH2 0x100 EXP DUP2 SLOAD SWAP1 PUSH1 0xFF MUL NOT AND SWAP1 SSTORE POP PUSH1 0x3 ADD PUSH2 0x1637 JUMP JUMPDEST POP SWAP1 JUMP JUMPDEST PUSH1 0x0 PUSH1 0x40 MLOAD SWAP1 POP SWAP1 JUMP JUMPDEST PUSH1 0x0 DUP1 REVERT JUMPDEST PUSH1 0x0 DUP1 REVERT JUMPDEST PUSH1 0x0 DUP2 SWAP1 POP SWAP2 SWAP1 POP JUMP JUMPDEST PUSH2 0x16A0 DUP2 PUSH2 0x168D JUMP JUMPDEST DUP2 EQ PUSH2 0x16AB JUMPI PUSH1 0x0 DUP1 REVERT JUMPDEST POP JUMP JUMPDEST PUSH1 0x0 DUP2 CALLDATALOAD SWAP1 POP PUSH2 0x16BD DUP2 PUSH2 0x1697 JUMP JUMPDEST SWAP3 SWAP2 POP POP JUMP JUMPDEST PUSH1 0x0 PUSH1 0x20 DUP3 DUP5 SUB SLT ISZERO PUSH2 0x16D9 JUMPI PUSH2 0x16D8 PUSH2 0x1683 JUMP JUMPDEST JUMPDEST PUSH1 0x0 PUSH2 0x16E7 DUP5 DUP3 DUP6 ADD PUSH2 0x16AE JUMP JUMPDEST SWAP2 POP POP SWAP3 SWAP2 POP POP JUMP JUMPDEST PUSH2 0x16F9 DUP2 PUSH2 0x168D JUMP JUMPDEST DUP3 MSTORE POP POP JUMP JUMPDEST PUSH1 0x0 PUSH1 0x20 DUP3 ADD SWAP1 POP PUSH2 0x1714 PUSH1 0x0 DUP4 ADD DUP5 PUSH2 0x16F0 JUMP JUMPDEST SWAP3 SWAP2 POP POP JUMP JUMPDEST PUSH1 0x0 DUP2 MLOAD SWAP1 POP SWAP2 SWAP1 POP JUMP JUMPDEST PUSH1 0x0 DUP3 DUP3 MSTORE PUSH1 0x20 DUP3 ADD SWAP1 POP SWAP3 SWAP2 POP POP JUMP JUMPDEST PUSH1 0x0 JUMPDEST DUP4 DUP2 LT ISZERO PUSH2 0x1754 JUMPI DUP1 DUP3 ADD MLOAD DUP2 DUP5 ADD MSTORE PUSH1 0x20 DUP2 ADD SWAP1 POP PUSH2 0x1739 JUMP JUMPDEST PUSH1 0x0 DUP5 DUP5 ADD MSTORE POP POP POP POP JUMP JUMPDEST PUSH1 0x0 PUSH1 0x1F NOT PUSH1 0x1F DUP4 ADD AND SWAP1 POP SWAP2 SWAP1 POP JUMP JUMPDEST PUSH1 0x0 PUSH2 0x177C DUP3 PUSH2 0x171A JUMP JUMPDEST PUSH2 0x1786 DUP2 DUP6 PUSH2 0x1725 JUMP JUMPDEST SWAP4 POP PUSH2 0x1796 DUP2 DUP6 PUSH1 0x20 DUP7 ADD PUSH2 0x1736 JUMP JUMPDEST PUSH2 0x179F DUP2 PUSH2 0x1760 JUMP JUMPDEST DUP5 ADD SWAP2 POP POP SWAP3 SWAP2 POP POP JUMP JUMPDEST PUSH1 0x0 PUSH1 0x20 DUP3 ADD SWAP1 POP DUP2 DUP2 SUB PUSH1 0x0 DUP4 ADD MSTORE PUSH2 0x17C4 DUP2 DUP5 PUSH2 0x1771 JUMP JUMPDEST SWAP1 POP SWAP3 SWAP2 POP POP JUMP JUMPDEST PUSH1 0x0 DUP1 REVERT JUMPDEST PUSH1 0x0 DUP1 REVERT JUMPDEST PUSH32 0x4E487B7100000000000000000000000000000000000000000000000000000000 PUSH1 0x0 MSTORE PUSH1 0x41 PUSH1 0x4 MSTORE PUSH1 0x24 PUSH1 0x0 REVERT JUMPDEST PUSH2 0x180E DUP3 PUSH2 0x1760 JUMP JUMPDEST DUP2 ADD DUP2 DUP2 LT PUSH8 0xFFFFFFFFFFFFFFFF DUP3 GT OR ISZERO PUSH2 0x182D JUMPI PUSH2 0x182C PUSH2 0x17D6 JUMP JUMPDEST JUMPDEST DUP1 PUSH1 0x40 MSTORE POP POP POP JUMP JUMPDEST PUSH1 0x0 PUSH2 0x1840 PUSH2 0x1679 JUMP JUMPDEST SWAP1 POP PUSH2 0x184C DUP3 DUP3 PUSH2 0x1805 JUMP JUMPDEST SWAP2 SWAP1 POP JUMP JUMPDEST PUSH1 0x0 PUSH8 0xFFFFFFFFFFFFFFFF DUP3 GT ISZERO PUSH2 0x186C JUMPI PUSH2 0x186B PUSH2 0x17D6 JUMP JUMPDEST JUMPDEST PUSH2 0x1875 DUP3 PUSH2 0x1760 JUMP JUMPDEST SWAP1 POP PUSH1 0x20 DUP2 ADD SWAP1 POP SWAP2 SWAP1 POP JUMP JUMPDEST DUP3 DUP2 DUP4 CALLDATACOPY PUSH1 0x0 DUP4 DUP4 ADD MSTORE POP POP POP JUMP JUMPDEST PUSH1 0x0 PUSH2 0x18A4 PUSH2 0x189F DUP5 PUSH2 0x1851 JUMP JUMPDEST PUSH2 0x1836 JUMP JUMPDEST SWAP1 POP DUP3 DUP2 MSTORE PUSH1 0x20 DUP2 ADD DUP5 DUP5 DUP5 ADD GT ISZERO PUSH2 0x18C0 JUMPI PUSH2 0x18BF PUSH2 0x17D1 JUMP JUMPDEST JUMPDEST PUSH2 0x18CB DUP5 DUP3 DUP6 PUSH2 0x1882 JUMP JUMPDEST POP SWAP4 SWAP3 POP POP POP JUMP JUMPDEST PUSH1 0x0 DUP3 PUSH1 0x1F DUP4 ADD SLT PUSH2 0x18E8 JUMPI PUSH2 0x18E7 PUSH2 0x17CC JUMP JUMPDEST JUMPDEST DUP2 CALLDATALOAD PUSH2 0x18F8 DUP5 DUP3 PUSH1 0x20 DUP7 ADD PUSH2 0x1891 JUMP JUMPDEST SWAP2 POP POP SWAP3 SWAP2 POP POP JUMP JUMPDEST PUSH1 0x0 PUSH1 0x20 DUP3 DUP5 SUB SLT ISZERO PUSH2 0x1917 JUMPI PUSH2 0x1916 PUSH2 0x1683 JUMP JUMPDEST JUMPDEST PUSH1 0x0 DUP3 ADD CALLDATALOAD PUSH8 0xFFFFFFFFFFFFFFFF DUP2 GT ISZERO PUSH2 0x1935 JUMPI PUSH2 0x1934 PUSH2 0x1688 JUMP JUMPDEST JUMPDEST PUSH2 0x1941 DUP5 DUP3 DUP6 ADD PUSH2 0x18D3 JUMP JUMPDEST SWAP2 POP POP SWAP3 SWAP2 POP POP JUMP JUMPDEST PUSH1 0x0 DUP2 MLOAD SWAP1 POP SWAP2 SWAP1 POP JUMP JUMPDEST PUSH1 0x0 DUP3 DUP3 MSTORE PUSH1 0x20 DUP3 ADD SWAP1 POP SWAP3 SWAP2 POP POP JUMP JUMPDEST PUSH1 0x0 DUP2 SWAP1 POP PUSH1 0x20 DUP3 ADD SWAP1 POP SWAP2 SWAP1 POP JUMP JUMPDEST PUSH1 0x0 DUP3 DUP3 MSTORE PUSH1 0x20 DUP3 ADD SWAP1 POP SWAP3 SWAP2 POP POP JUMP JUMPDEST PUSH1 0x0 PUSH2 0x1992 DUP3 PUSH2 0x171A JUMP JUMPDEST PUSH2 0x199C DUP2 DUP6 PUSH2 0x1976 JUMP JUMPDEST SWAP4 POP PUSH2 0x19AC DUP2 DUP6 PUSH1 0x20 DUP7 ADD PUSH2 0x1736 JUMP JUMPDEST PUSH2 0x19B5 DUP2 PUSH2 0x1760 JUMP JUMPDEST DUP5 ADD SWAP2 POP POP SWAP3 SWAP2 POP POP JUMP JUMPDEST PUSH1 0x0 PUSH2 0x19CC DUP4 DUP4 PUSH2 0x1987 JUMP JUMPDEST SWAP1 POP SWAP3 SWAP2 POP POP JUMP JUMPDEST PUSH1 0x0 PUSH1 0x20 DUP3 ADD SWAP1 POP SWAP2 SWAP1 POP JUMP JUMPDEST PUSH1 0x0 PUSH2 0x19EC DUP3 PUSH2 0x194A JUMP JUMPDEST PUSH2 0x19F6 DUP2 DUP6 PUSH2 0x1955 JUMP JUMPDEST SWAP4 POP DUP4 PUSH1 0x20 DUP3 MUL DUP6 ADD PUSH2 0x1A08 DUP6 PUSH2 0x1966 JUMP JUMPDEST DUP1 PUSH1 0x0 JUMPDEST DUP6 DUP2 LT ISZERO PUSH2 0x1A44 JUMPI DUP5 DUP5 SUB DUP10 MSTORE DUP2 MLOAD PUSH2 0x1A25 DUP6 DUP3 PUSH2 0x19C0 JUMP JUMPDEST SWAP5 POP PUSH2 0x1A30 DUP4 PUSH2 0x19D4 JUMP JUMPDEST SWAP3 POP PUSH1 0x20 DUP11 ADD SWAP10 POP POP PUSH1 0x1 DUP2 ADD SWAP1 POP PUSH2 0x1A0C JUMP JUMPDEST POP DUP3 SWAP8 POP DUP8 SWAP6 POP POP POP POP POP POP SWAP3 SWAP2 POP POP JUMP JUMPDEST PUSH1 0x0 PUSH1 0x20 DUP3 ADD SWAP1 POP DUP2 DUP2 SUB PUSH1 0x0 DUP4 ADD MSTORE PUSH2 0x1A70 DUP2 DUP5 PUSH2 0x19E1 JUMP JUMPDEST SWAP1 POP SWAP3 SWAP2 POP POP JUMP JUMPDEST PUSH1 0x0 DUP2 ISZERO ISZERO SWAP1 POP SWAP2 SWAP1 POP JUMP JUMPDEST PUSH2 0x1A8D DUP2 PUSH2 0x1A78 JUMP JUMPDEST DUP3 MSTORE POP POP JUMP JUMPDEST PUSH1 0x0 PUSH1 0x60 DUP3 ADD SWAP1 POP DUP2 DUP2 SUB PUSH1 0x0 DUP4 ADD MSTORE PUSH2 0x1AAD DUP2 DUP7 PUSH2 0x1771 JUMP JUMPDEST SWAP1 POP PUSH2 0x1ABC PUSH1 0x20 DUP4 ADD DUP6 PUSH2 0x16F0 JUMP JUMPDEST PUSH2 0x1AC9 PUSH1 0x40 DUP4 ADD DUP5 PUSH2 0x1A84 JUMP JUMPDEST SWAP5 SWAP4 POP POP POP POP JUMP JUMPDEST PUSH32 0x4E487B7100000000000000000000000000000000000000000000000000000000 PUSH1 0x0 MSTORE PUSH1 0x32 PUSH1 0x4 MSTORE PUSH1 0x24 PUSH1 0x0 REVERT JUMPDEST PUSH32 0x4E487B7100000000000000000000000000000000000000000000000000000000 PUSH1 0x0 MSTORE PUSH1 0x11 PUSH1 0x4 MSTORE PUSH1 0x24 PUSH1 0x0 REVERT JUMPDEST PUSH1 0x0 PUSH2 0x1B3A DUP3 PUSH2 0x168D JUMP JUMPDEST SWAP2 POP PUSH2 0x1B45 DUP4 PUSH2 0x168D JUMP JUMPDEST SWAP3 POP DUP3 DUP3 SUB SWAP1 POP DUP2 DUP2 GT ISZERO PUSH2 0x1B5D JUMPI PUSH2 0x1B5C PUSH2 0x1B00 JUMP JUMPDEST JUMPDEST SWAP3 SWAP2 POP POP JUMP JUMPDEST PUSH32 0x50656E64696E67206973206E6F74206578706972656420796574000000000000 PUSH1 0x0 DUP3 ADD MSTORE POP JUMP JUMPDEST PUSH1 0x0 PUSH2 0x1B99 PUSH1 0x1A DUP4 PUSH2 0x1725 JUMP JUMPDEST SWAP2 POP PUSH2 0x1BA4 DUP3 PUSH2 0x1B63 JUMP JUMPDEST PUSH1 0x20 DUP3 ADD SWAP1 POP SWAP2 SWAP1 POP JUMP JUMPDEST PUSH1 0x0 PUSH1 0x20 DUP3 ADD SWAP1 POP DUP2 DUP2 SUB PUSH1 0x0 DUP4 ADD MSTORE PUSH2 0x1BC8 DUP2 PUSH2 0x1B8C JUMP JUMPDEST SWAP1 POP SWAP2 SWAP1 POP JUMP JUMPDEST PUSH1 0x0 PUSH2 0x1BDA DUP3 PUSH2 0x168D JUMP JUMPDEST SWAP2 POP PUSH2 0x1BE5 DUP4 PUSH2 0x168D JUMP JUMPDEST SWAP3 POP DUP3 DUP3 ADD SWAP1 POP DUP1 DUP3 GT ISZERO PUSH2 0x1BFD JUMPI PUSH2 0x1BFC PUSH2 0x1B00 JUMP JUMPDEST JUMPDEST SWAP3 SWAP2 POP POP JUMP JUMPDEST PUSH32 0x4E487B7100000000000000000000000000000000000000000000000000000000 PUSH1 0x0 MSTORE PUSH1 0x22 PUSH1 0x4 MSTORE PUSH1 0x24 PUSH1 0x0 REVERT JUMPDEST PUSH1 0x0 PUSH1 0x2 DUP3 DIV SWAP1 POP PUSH1 0x1 DUP3 AND DUP1 PUSH2 0x1C4A JUMPI PUSH1 0x7F DUP3 AND SWAP2 POP JUMPDEST PUSH1 0x20 DUP3 LT DUP2 SUB PUSH2 0x1C5D JUMPI PUSH2 0x1C5C PUSH2 0x1C03 JUMP JUMPDEST JUMPDEST POP SWAP2 SWAP1 POP JUMP JUMPDEST PUSH1 0x0 DUP2 SLOAD SWAP1 POP PUSH2 0x1C72 DUP2 PUSH2 0x1C32 JUMP JUMPDEST SWAP1 POP SWAP2 SWAP1 POP JUMP JUMPDEST PUSH1 0x0 DUP2 SWAP1 POP DUP2 PUSH1 0x0 MSTORE PUSH1 0x20 PUSH1 0x0 KECCAK256 SWAP1 POP SWAP2 SWAP1 POP JUMP JUMPDEST PUSH1 0x0 PUSH1 0x20 PUSH1 0x1F DUP4 ADD DIV SWAP1 POP SWAP2 SWAP1 POP JUMP JUMPDEST PUSH1 0x0 DUP3 DUP3 SHL SWAP1 POP SWAP3 SWAP2 POP POP JUMP JUMPDEST PUSH1 0x0 PUSH1 0x8 DUP4 MUL PUSH2 0x1CDB PUSH32 0xFFFFFFFFFFFFFFFFFFFFFFFFFFFFFFFFFFFFFFFFFFFFFFFFFFFFFFFFFFFFFFFF DUP3 PUSH2 0x1C9E JUMP JUMPDEST PUSH2 0x1CE5 DUP7 DUP4 PUSH2 0x1C9E JUMP JUMPDEST SWAP6 POP DUP1 NOT DUP5 AND SWAP4 POP DUP1 DUP7 AND DUP5 OR SWAP3 POP POP POP SWAP4 SWAP3 POP POP POP JUMP JUMPDEST PUSH1 0x0 DUP2 SWAP1 POP SWAP2 SWAP1 POP JUMP JUMPDEST PUSH1 0x0 PUSH2 0x1D22 PUSH2 0x1D1D PUSH2 0x1D18 DUP5 PUSH2 0x168D JUMP JUMPDEST PUSH2 0x1CFD JUMP JUMPDEST PUSH2 0x168D JUMP JUMPDEST SWAP1 POP SWAP2 SWAP1 POP JUMP JUMPDEST PUSH1 0x0 DUP2 SWAP1 POP SWAP2 SWAP1 POP JUMP JUMPDEST PUSH2 0x1D3C DUP4 PUSH2 0x1D07 JUMP JUMPDEST PUSH2 0x1D50 PUSH2 0x1D48 DUP3 PUSH2 0x1D29 JUMP JUMPDEST DUP5 DUP5 SLOAD PUSH2 0x1CAB JUMP JUMPDEST DUP3 SSTORE POP POP POP POP JUMP JUMPDEST PUSH1 0x0 SWAP1 JUMP JUMPDEST PUSH2 0x1D65 PUSH2 0x1D58 JUMP JUMPDEST PUSH2 0x1D70 DUP2 DUP5 DUP5 PUSH2 0x1D33 JUMP JUMPDEST POP POP POP JUMP JUMPDEST JUMPDEST DUP2 DUP2 LT ISZERO PUSH2 0x1D94 JUMPI PUSH2 0x1D89 PUSH1 0x0 DUP3 PUSH2 0x1D5D JUMP JUMPDEST PUSH1 0x1 DUP2 ADD SWAP1 POP PUSH2 0x1D76 JUMP JUMPDEST POP POP JUMP JUMPDEST PUSH1 0x1F DUP3 GT ISZERO PUSH2 0x1DD9 JUMPI PUSH2 0x1DAA DUP2 PUSH2 0x1C79 JUMP JUMPDEST PUSH2 0x1DB3 DUP5 PUSH2 0x1C8E JUMP JUMPDEST DUP2 ADD PUSH1 0x20 DUP6 LT ISZERO PUSH2 0x1DC2 JUMPI DUP2 SWAP1 POP JUMPDEST PUSH2 0x1DD6 PUSH2 0x1DCE DUP6 PUSH2 0x1C8E JUMP JUMPDEST DUP4 ADD DUP3 PUSH2 0x1D75 JUMP JUMPDEST POP POP JUMPDEST POP POP POP JUMP JUMPDEST PUSH1 0x0 DUP3 DUP3 SHR SWAP1 POP SWAP3 SWAP2 POP POP JUMP JUMPDEST PUSH1 0x0 PUSH2 0x1DFC PUSH1 0x0 NOT DUP5 PUSH1 0x8 MUL PUSH2 0x1DDE JUMP JUMPDEST NOT DUP1 DUP4 AND SWAP2 POP POP SWAP3 SWAP2 POP POP JUMP JUMPDEST PUSH1 0x0 PUSH2 0x1E15 DUP4 DUP4 PUSH2 0x1DEB JUMP JUMPDEST SWAP2 POP DUP3 PUSH1 0x2 MUL DUP3 OR SWAP1 POP SWAP3 SWAP2 POP POP JUMP JUMPDEST DUP2 DUP2 SUB PUSH2 0x1E33 JUMPI POP POP PUSH2 0x1F0B JUMP JUMPDEST PUSH2 0x1E3C DUP3 PUSH2 0x1C63 JUMP JUMPDEST PUSH8 0xFFFFFFFFFFFFFFFF DUP2 GT ISZERO PUSH2 0x1E55 JUMPI PUSH2 0x1E54 PUSH2 0x17D6 JUMP JUMPDEST JUMPDEST PUSH2 0x1E5F DUP3 SLOAD PUSH2 0x1C32 JUMP JUMPDEST PUSH2 0x1E6A DUP3 DUP3 DUP6 PUSH2 0x1D98 JUMP JUMPDEST PUSH1 0x0 PUSH1 0x1F DUP4 GT PUSH1 0x1 DUP2 EQ PUSH2 0x1E99 JUMPI PUSH1 0x0 DUP5 ISZERO PUSH2 0x1E87 JUMPI DUP3 DUP8 ADD SLOAD SWAP1 POP JUMPDEST PUSH2 0x1E91 DUP6 DUP3 PUSH2 0x1E09 JUMP JUMPDEST DUP7 SSTORE POP PUSH2 0x1F04 JUMP JUMPDEST PUSH1 0x1F NOT DUP5 AND PUSH2 0x1EA7 DUP8 PUSH2 0x1C79 JUMP JUMPDEST SWAP7 POP PUSH2 0x1EB2 DUP7 PUSH2 0x1C79 JUMP JUMPDEST PUSH1 0x0 JUMPDEST DUP3 DUP2 LT ISZERO PUSH2 0x1EDA JUMPI DUP5 DUP10 ADD SLOAD DUP3 SSTORE PUSH1 0x1 DUP3 ADD SWAP2 POP PUSH1 0x1 DUP6 ADD SWAP5 POP PUSH1 0x20 DUP2 ADD SWAP1 POP PUSH2 0x1EB5 JUMP JUMPDEST DUP7 DUP4 LT ISZERO PUSH2 0x1EF7 JUMPI DUP5 DUP10 ADD SLOAD PUSH2 0x1EF3 PUSH1 0x1F DUP10 AND DUP3 PUSH2 0x1DEB JUMP JUMPDEST DUP4 SSTORE POP JUMPDEST PUSH1 0x1 PUSH1 0x2 DUP9 MUL ADD DUP9 SSTORE POP POP POP JUMPDEST POP POP POP POP POP POP JUMPDEST JUMP JUMPDEST PUSH1 0x0 PUSH2 0x1F18 DUP3 PUSH2 0x168D JUMP JUMPDEST SWAP2 POP PUSH32 0xFFFFFFFFFFFFFFFFFFFFFFFFFFFFFFFFFFFFFFFFFFFFFFFFFFFFFFFFFFFFFFFF DUP3 SUB PUSH2 0x1F4A JUMPI PUSH2 0x1F49 PUSH2 0x1B00 JUMP JUMPDEST JUMPDEST PUSH1 0x1 DUP3 ADD SWAP1 POP SWAP2 SWAP1 POP JUMP JUMPDEST PUSH32 0x4E487B7100000000000000000000000000000000000000000000000000000000 PUSH1 0x0 MSTORE PUSH1 0x31 PUSH1 0x4 MSTORE PUSH1 0x24 PUSH1 0x0 REVERT JUMPDEST PUSH2 0x1F8D DUP3 PUSH2 0x171A JUMP JUMPDEST PUSH8 0xFFFFFFFFFFFFFFFF DUP2 GT ISZERO PUSH2 0x1FA6 JUMPI PUSH2 0x1FA5 PUSH2 0x17D6 JUMP JUMPDEST JUMPDEST PUSH2 0x1FB0 DUP3 SLOAD PUSH2 0x1C32 JUMP JUMPDEST PUSH2 0x1FBB DUP3 DUP3 DUP6 PUSH2 0x1D98 JUMP JUMPDEST PUSH1 0x0 PUSH1 0x20 SWAP1 POP PUSH1 0x1F DUP4 GT PUSH1 0x1 DUP2 EQ PUSH2 0x1FEE JUMPI PUSH1 0x0 DUP5 ISZERO PUSH2 0x1FDC JUMPI DUP3 DUP8 ADD MLOAD SWAP1 POP JUMPDEST PUSH2 0x1FE6 DUP6 DUP3 PUSH2 0x1E09 JUMP JUMPDEST DUP7 SSTORE POP PUSH2 0x204E JUMP JUMPDEST PUSH1 0x1F NOT DUP5 AND PUSH2 0x1FFC DUP7 PUSH2 0x1C79 JUMP JUMPDEST PUSH1 0x0 JUMPDEST DUP3 DUP2 LT ISZERO PUSH2 0x2024 JUMPI DUP5 DUP10 ADD MLOAD DUP3 SSTORE PUSH1 0x1 DUP3 ADD SWAP2 POP PUSH1 0x20 DUP6 ADD SWAP5 POP PUSH1 0x20 DUP2 ADD SWAP1 POP PUSH2 0x1FFF JUMP JUMPDEST DUP7 DUP4 LT ISZERO PUSH2 0x2041 JUMPI DUP5 DUP10 ADD MLOAD PUSH2 0x203D PUSH1 0x1F DUP10 AND DUP3 PUSH2 0x1DEB JUMP JUMPDEST DUP4 SSTORE POP JUMPDEST PUSH1 0x1 PUSH1 0x2 DUP9 MUL ADD DUP9 SSTORE POP POP POP JUMPDEST POP POP POP POP POP POP JUMP JUMPDEST PUSH32 0x546F646F20697320616C72656164792070656E64696E67000000000000000000 PUSH1 0x0 DUP3 ADD MSTORE POP JUMP JUMPDEST PUSH1 0x0 PUSH2 0x208C PUSH1 0x17 DUP4 PUSH2 0x1725 JUMP JUMPDEST SWAP2 POP PUSH2 0x2097 DUP3 PUSH2 0x2056 JUMP JUMPDEST PUSH1 0x20 DUP3 ADD SWAP1 POP SWAP2 SWAP1 POP JUMP JUMPDEST PUSH1 0x0 PUSH1 0x20 DUP3 ADD SWAP1 POP DUP2 DUP2 SUB PUSH1 0x0 DUP4 ADD MSTORE PUSH2 0x20BB DUP2 PUSH2 0x207F JUMP JUMPDEST SWAP1 POP SWAP2 SWAP1 POP JUMP INVALID LOG2 PUSH5 0x6970667358 0x22 SLT KECCAK256 0xAA 0x2D 0xED CHAINID EXTCODECOPY CALLVALUE CREATE2 0xE3 BALANCE 0xBB 0xCF DUP6 DUP2 0x4F 0xDB 0x2F 0xDA 0xEC 0xC2 0x2E CALLCODE CODESIZE 0x23 BALANCE DUP6 CALLCODE 0xB0 0x24 ADD PUSH2 0x1A4E PUSH5 0x736F6C6343 STOP ADDMOD SLT STOP CALLER "
				},
				"gasEstimates": {
					"creation": {
						"codeDepositCost": "1688000",
						"executionCost": "1771",
						"totalCost": "1689771"
					},
					"external": {
						"addTodo(string)": "infinite",
						"clearCompleted()": "infinite",
						"clearPending(uint256)": "infinite",
						"deleteTodoByIndex(uint256)": "infinite",
						"getAllCompleted()": "infinite",
						"getAllPending()": "infinite",
						"getAllTodo()": "infinite",
						"getCompletedByIndex(uint256)": "infinite",
						"getCompletedCount()": "2511",
						"getPendingByIndex(uint256)": "infinite",
						"getPendingCount()": "2556",
						"getTodoByIndex(uint256)": "infinite",
						"getTodoCount()": "2491",
						"n()": "397",
						"setCompleted(uint256)": "infinite",
						"setPending(uint256)": "infinite",
						"todoCompleted(uint256)": "infinite",
						"todoPending(uint256)": "infinite",
						"todos(uint256)": "infinite"
					}
				},
				"methodIdentifiers": {
					"addTodo(string)": "95ffebf5",
					"clearCompleted()": "a66fc514",
					"clearPending(uint256)": "0b43c02c",
					"deleteTodoByIndex(uint256)": "c101d3f0",
					"getAllCompleted()": "e29672ba",
					"getAllPending()": "f112ba72",
					"getAllTodo()": "982abb89",
					"getCompletedByIndex(uint256)": "67b37dc9",
					"getCompletedCount()": "fcab4fa6",
					"getPendingByIndex(uint256)": "a7d59b59",
					"getPendingCount()": "d795ede1",
					"getTodoByIndex(uint256)": "cd6aab58",
					"getTodoCount()": "104a7cd8",
					"n()": "2e52d606",
					"setCompleted(uint256)": "fdacd576",
					"setPending(uint256)": "c195fc74",
					"todoCompleted(uint256)": "fe1c7f6f",
					"todoPending(uint256)": "b2514afa",
					"todos(uint256)": "bc8bc2b4"
				}
			},
			"storageLayout": {
				"storage": [
					{
						"astId": 12,
						"contract": "todoListPendingCountSeconds.sol:TodoList",
						"label": "todos",
						"offset": 0,
						"slot": "0",
						"type": "t_array(t_struct(Todo)8_storage)dyn_storage"
					},
					{
						"astId": 16,
						"contract": "todoListPendingCountSeconds.sol:TodoList",
						"label": "todoCompleted",
						"offset": 0,
						"slot": "1",
						"type": "t_array(t_struct(Todo)8_storage)dyn_storage"
					},
					{
						"astId": 20,
						"contract": "todoListPendingCountSeconds.sol:TodoList",
						"label": "todoPending",
						"offset": 0,
						"slot": "2",
						"type": "t_array(t_struct(Todo)8_storage)dyn_storage"
					}
				],
				"types": {
					"t_array(t_struct(Todo)8_storage)dyn_storage": {
						"base": "t_struct(Todo)8_storage",
						"encoding": "dynamic_array",
						"label": "struct TodoList.Todo[]",
						"numberOfBytes": "32"
					},
					"t_bool": {
						"encoding": "inplace",
						"label": "bool",
						"numberOfBytes": "1"
					},
					"t_string_storage": {
						"encoding": "bytes",
						"label": "string",
						"numberOfBytes": "32"
					},
					"t_struct(Todo)8_storage": {
						"encoding": "inplace",
						"label": "struct TodoList.Todo",
						"members": [
							{
								"astId": 3,
								"contract": "todoListPendingCountSeconds.sol:TodoList",
								"label": "content",
								"offset": 0,
								"slot": "0",
								"type": "t_string_storage"
							},
							{
								"astId": 5,
								"contract": "todoListPendingCountSeconds.sol:TodoList",
								"label": "createTime",
								"offset": 0,
								"slot": "1",
								"type": "t_uint256"
							},
							{
								"astId": 7,
								"contract": "todoListPendingCountSeconds.sol:TodoList",
								"label": "isPending",
								"offset": 0,
								"slot": "2",
								"type": "t_bool"
							}
						],
						"numberOfBytes": "96"
					},
					"t_uint256": {
						"encoding": "inplace",
						"label": "uint256",
						"numberOfBytes": "32"
					}
				}
			},
			"userdoc": {
				"kind": "user",
				"methods": {},
				"version": 1
			}
		}
	}
}